{
  "_format": "hh-sol-artifact-1",
  "contractName": "NFTOffers",
  "sourceName": "contracts/NFTOffers.sol",
  "abi": [
    {
      "inputs": [
        {
          "internalType": "address",
          "name": "_paymentToken",
          "type": "address"
        },
        {
          "internalType": "address",
          "name": "_feeRecipient",
          "type": "address"
        }
      ],
      "stateMutability": "nonpayable",
      "type": "constructor"
    },
    {
      "inputs": [
        {
          "internalType": "address",
          "name": "owner",
          "type": "address"
        }
      ],
      "name": "OwnableInvalidOwner",
      "type": "error"
    },
    {
      "inputs": [
        {
          "internalType": "address",
          "name": "account",
          "type": "address"
        }
      ],
      "name": "OwnableUnauthorizedAccount",
      "type": "error"
    },
    {
      "inputs": [],
      "name": "ReentrancyGuardReentrantCall",
      "type": "error"
    },
    {
      "anonymous": false,
      "inputs": [
        {
          "indexed": true,
          "internalType": "uint256",
          "name": "offerId",
          "type": "uint256"
        },
        {
          "indexed": false,
          "internalType": "uint256",
          "name": "counterAmount",
          "type": "uint256"
        }
      ],
      "name": "CounterOfferCreated",
      "type": "event"
    },
    {
      "anonymous": false,
      "inputs": [
        {
          "indexed": true,
          "internalType": "uint256",
          "name": "offerId",
          "type": "uint256"
        },
        {
          "indexed": false,
          "internalType": "address",
          "name": "buyer",
          "type": "address"
        },
        {
          "indexed": false,
          "internalType": "address",
          "name": "seller",
          "type": "address"
        },
        {
          "indexed": false,
          "internalType": "uint256",
          "name": "finalPrice",
          "type": "uint256"
        }
      ],
      "name": "OfferAccepted",
      "type": "event"
    },
    {
      "anonymous": false,
      "inputs": [
        {
          "indexed": true,
          "internalType": "uint256",
          "name": "offerId",
          "type": "uint256"
        }
      ],
      "name": "OfferCancelled",
      "type": "event"
    },
    {
      "anonymous": false,
      "inputs": [
        {
          "indexed": true,
          "internalType": "uint256",
          "name": "offerId",
          "type": "uint256"
        },
        {
          "indexed": true,
          "internalType": "address",
          "name": "offerer",
          "type": "address"
        },
        {
          "indexed": true,
          "internalType": "address",
          "name": "nftContract",
          "type": "address"
        },
        {
          "indexed": false,
          "internalType": "uint256",
          "name": "tokenId",
          "type": "uint256"
        },
        {
          "indexed": false,
          "internalType": "uint256",
          "name": "offerAmount",
          "type": "uint256"
        }
      ],
      "name": "OfferCreated",
      "type": "event"
    },
    {
      "anonymous": false,
      "inputs": [
        {
          "indexed": true,
          "internalType": "uint256",
          "name": "offerId",
          "type": "uint256"
        }
      ],
      "name": "OfferExpired",
      "type": "event"
    },
    {
      "anonymous": false,
      "inputs": [
        {
          "indexed": true,
          "internalType": "uint256",
          "name": "offerId",
          "type": "uint256"
        }
      ],
      "name": "OfferRejected",
      "type": "event"
    },
    {
      "anonymous": false,
      "inputs": [
        {
          "indexed": true,
          "internalType": "address",
          "name": "previousOwner",
          "type": "address"
        },
        {
          "indexed": true,
          "internalType": "address",
          "name": "newOwner",
          "type": "address"
        }
      ],
      "name": "OwnershipTransferred",
      "type": "event"
    },
    {
      "inputs": [
        {
          "internalType": "uint256",
          "name": "offerId",
          "type": "uint256"
        }
      ],
      "name": "acceptCounterOffer",
      "outputs": [],
      "stateMutability": "nonpayable",
      "type": "function"
    },
    {
      "inputs": [
        {
          "internalType": "uint256",
          "name": "offerId",
          "type": "uint256"
        }
      ],
      "name": "acceptOffer",
      "outputs": [],
      "stateMutability": "nonpayable",
      "type": "function"
    },
    {
      "inputs": [
        {
          "internalType": "uint256[]",
          "name": "offerIds",
          "type": "uint256[]"
        }
      ],
      "name": "batchExpireOffers",
      "outputs": [],
      "stateMutability": "nonpayable",
      "type": "function"
    },
    {
      "inputs": [
        {
          "internalType": "uint256",
          "name": "offerId",
          "type": "uint256"
        }
      ],
      "name": "cancelOffer",
      "outputs": [],
      "stateMutability": "nonpayable",
      "type": "function"
    },
    {
      "inputs": [
        {
          "internalType": "uint256",
          "name": "",
          "type": "uint256"
        }
      ],
      "name": "counterOffers",
      "outputs": [
        {
          "internalType": "uint256",
          "name": "originalOfferId",
          "type": "uint256"
        },
        {
          "internalType": "uint256",
          "name": "counterAmount",
          "type": "uint256"
        },
        {
          "internalType": "string",
          "name": "message",
          "type": "string"
        },
        {
          "internalType": "uint256",
          "name": "createdAt",
          "type": "uint256"
        },
        {
          "internalType": "uint256",
          "name": "expiresAt",
          "type": "uint256"
        },
        {
          "internalType": "bool",
          "name": "isActive",
          "type": "bool"
        }
      ],
      "stateMutability": "view",
      "type": "function"
    },
    {
      "inputs": [
        {
          "internalType": "uint256",
          "name": "offerId",
          "type": "uint256"
        },
        {
          "internalType": "uint256",
          "name": "counterAmount",
          "type": "uint256"
        },
        {
          "internalType": "string",
          "name": "message",
          "type": "string"
        },
        {
          "internalType": "uint256",
          "name": "duration",
          "type": "uint256"
        }
      ],
      "name": "createCounterOffer",
      "outputs": [],
      "stateMutability": "nonpayable",
      "type": "function"
    },
    {
      "inputs": [
        {
          "internalType": "address",
          "name": "nftContract",
          "type": "address"
        },
        {
          "internalType": "uint256",
          "name": "tokenId",
          "type": "uint256"
        },
        {
          "internalType": "uint256",
          "name": "offerAmount",
          "type": "uint256"
        },
        {
          "internalType": "uint256",
          "name": "duration",
          "type": "uint256"
        },
        {
          "internalType": "string",
          "name": "message",
          "type": "string"
        }
      ],
      "name": "createOffer",
      "outputs": [
        {
          "internalType": "uint256",
          "name": "",
          "type": "uint256"
        }
      ],
      "stateMutability": "nonpayable",
      "type": "function"
    },
    {
      "inputs": [
        {
          "internalType": "uint256",
          "name": "",
          "type": "uint256"
        }
      ],
      "name": "escrowedFunds",
      "outputs": [
        {
          "internalType": "uint256",
          "name": "",
          "type": "uint256"
        }
      ],
      "stateMutability": "view",
      "type": "function"
    },
    {
      "inputs": [
        {
          "internalType": "uint256",
          "name": "offerId",
          "type": "uint256"
        }
      ],
      "name": "expireOffer",
      "outputs": [],
      "stateMutability": "nonpayable",
      "type": "function"
    },
    {
      "inputs": [],
      "name": "feeRecipient",
      "outputs": [
        {
          "internalType": "address",
          "name": "",
          "type": "address"
        }
      ],
      "stateMutability": "view",
      "type": "function"
    },
    {
      "inputs": [
        {
          "internalType": "address",
          "name": "nftContract",
          "type": "address"
        },
        {
          "internalType": "uint256",
          "name": "tokenId",
          "type": "uint256"
        }
      ],
      "name": "getNFTOffers",
      "outputs": [
        {
          "components": [
            {
              "internalType": "uint256",
              "name": "offerId",
              "type": "uint256"
            },
            {
              "internalType": "address",
              "name": "nftContract",
              "type": "address"
            },
            {
              "internalType": "uint256",
              "name": "tokenId",
              "type": "uint256"
            },
            {
              "internalType": "address",
              "name": "offerer",
              "type": "address"
            },
            {
              "internalType": "address",
              "name": "nftOwner",
              "type": "address"
            },
            {
              "internalType": "uint256",
              "name": "offerAmount",
              "type": "uint256"
            },
            {
              "internalType": "uint256",
              "name": "expiresAt",
              "type": "uint256"
            },
            {
              "internalType": "enum NFTOffers.OfferStatus",
              "name": "status",
              "type": "uint8"
            },
            {
              "internalType": "uint256",
              "name": "createdAt",
              "type": "uint256"
            },
            {
              "internalType": "string",
              "name": "message",
              "type": "string"
            },
            {
              "internalType": "uint256",
              "name": "feeAtCreation",
              "type": "uint256"
            }
          ],
          "internalType": "struct NFTOffers.Offer[]",
          "name": "",
          "type": "tuple[]"
        }
      ],
      "stateMutability": "view",
      "type": "function"
    },
    {
      "inputs": [
        {
          "internalType": "address",
          "name": "user",
          "type": "address"
        }
      ],
      "name": "getReceivedOffers",
      "outputs": [
        {
          "components": [
            {
              "internalType": "uint256",
              "name": "offerId",
              "type": "uint256"
            },
            {
              "internalType": "address",
              "name": "nftContract",
              "type": "address"
            },
            {
              "internalType": "uint256",
              "name": "tokenId",
              "type": "uint256"
            },
            {
              "internalType": "address",
              "name": "offerer",
              "type": "address"
            },
            {
              "internalType": "address",
              "name": "nftOwner",
              "type": "address"
            },
            {
              "internalType": "uint256",
              "name": "offerAmount",
              "type": "uint256"
            },
            {
              "internalType": "uint256",
              "name": "expiresAt",
              "type": "uint256"
            },
            {
              "internalType": "enum NFTOffers.OfferStatus",
              "name": "status",
              "type": "uint8"
            },
            {
              "internalType": "uint256",
              "name": "createdAt",
              "type": "uint256"
            },
            {
              "internalType": "string",
              "name": "message",
              "type": "string"
            },
            {
              "internalType": "uint256",
              "name": "feeAtCreation",
              "type": "uint256"
            }
          ],
          "internalType": "struct NFTOffers.Offer[]",
          "name": "",
          "type": "tuple[]"
        }
      ],
      "stateMutability": "view",
      "type": "function"
    },
    {
      "inputs": [
        {
          "internalType": "address",
          "name": "user",
          "type": "address"
        }
      ],
      "name": "getUserOffers",
      "outputs": [
        {
          "components": [
            {
              "internalType": "uint256",
              "name": "offerId",
              "type": "uint256"
            },
            {
              "internalType": "address",
              "name": "nftContract",
              "type": "address"
            },
            {
              "internalType": "uint256",
              "name": "tokenId",
              "type": "uint256"
            },
            {
              "internalType": "address",
              "name": "offerer",
              "type": "address"
            },
            {
              "internalType": "address",
              "name": "nftOwner",
              "type": "address"
            },
            {
              "internalType": "uint256",
              "name": "offerAmount",
              "type": "uint256"
            },
            {
              "internalType": "uint256",
              "name": "expiresAt",
              "type": "uint256"
            },
            {
              "internalType": "enum NFTOffers.OfferStatus",
              "name": "status",
              "type": "uint8"
            },
            {
              "internalType": "uint256",
              "name": "createdAt",
              "type": "uint256"
            },
            {
              "internalType": "string",
              "name": "message",
              "type": "string"
            },
            {
              "internalType": "uint256",
              "name": "feeAtCreation",
              "type": "uint256"
            }
          ],
          "internalType": "struct NFTOffers.Offer[]",
          "name": "",
          "type": "tuple[]"
        }
      ],
      "stateMutability": "view",
      "type": "function"
    },
    {
      "inputs": [],
      "name": "maxOfferDuration",
      "outputs": [
        {
          "internalType": "uint256",
          "name": "",
          "type": "uint256"
        }
      ],
      "stateMutability": "view",
      "type": "function"
    },
    {
      "inputs": [],
      "name": "minOfferDuration",
      "outputs": [
        {
          "internalType": "uint256",
          "name": "",
          "type": "uint256"
        }
      ],
      "stateMutability": "view",
      "type": "function"
    },
    {
      "inputs": [
        {
          "internalType": "bytes32",
          "name": "",
          "type": "bytes32"
        },
        {
          "internalType": "uint256",
          "name": "",
          "type": "uint256"
        }
      ],
      "name": "nftOffers",
      "outputs": [
        {
          "internalType": "uint256",
          "name": "",
          "type": "uint256"
        }
      ],
      "stateMutability": "view",
      "type": "function"
    },
    {
      "inputs": [
        {
          "internalType": "uint256",
          "name": "",
          "type": "uint256"
        }
      ],
      "name": "offers",
      "outputs": [
        {
          "internalType": "uint256",
          "name": "offerId",
          "type": "uint256"
        },
        {
          "internalType": "address",
          "name": "nftContract",
          "type": "address"
        },
        {
          "internalType": "uint256",
          "name": "tokenId",
          "type": "uint256"
        },
        {
          "internalType": "address",
          "name": "offerer",
          "type": "address"
        },
        {
          "internalType": "address",
          "name": "nftOwner",
          "type": "address"
        },
        {
          "internalType": "uint256",
          "name": "offerAmount",
          "type": "uint256"
        },
        {
          "internalType": "uint256",
          "name": "expiresAt",
          "type": "uint256"
        },
        {
          "internalType": "enum NFTOffers.OfferStatus",
          "name": "status",
          "type": "uint8"
        },
        {
          "internalType": "uint256",
          "name": "createdAt",
          "type": "uint256"
        },
        {
          "internalType": "string",
          "name": "message",
          "type": "string"
        },
        {
          "internalType": "uint256",
          "name": "feeAtCreation",
          "type": "uint256"
        }
      ],
      "stateMutability": "view",
      "type": "function"
    },
    {
      "inputs": [],
      "name": "owner",
      "outputs": [
        {
          "internalType": "address",
          "name": "",
          "type": "address"
        }
      ],
      "stateMutability": "view",
      "type": "function"
    },
    {
      "inputs": [],
      "name": "paymentToken",
      "outputs": [
        {
          "internalType": "contract IERC20",
          "name": "",
          "type": "address"
        }
      ],
      "stateMutability": "view",
      "type": "function"
    },
    {
      "inputs": [],
      "name": "protocolFee",
      "outputs": [
        {
          "internalType": "uint256",
          "name": "",
          "type": "uint256"
        }
      ],
      "stateMutability": "view",
      "type": "function"
    },
    {
      "inputs": [
        {
          "internalType": "address",
          "name": "",
          "type": "address"
        },
        {
          "internalType": "uint256",
          "name": "",
          "type": "uint256"
        }
      ],
      "name": "receivedOffers",
      "outputs": [
        {
          "internalType": "uint256",
          "name": "",
          "type": "uint256"
        }
      ],
      "stateMutability": "view",
      "type": "function"
    },
    {
      "inputs": [
        {
          "internalType": "uint256",
          "name": "offerId",
          "type": "uint256"
        }
      ],
      "name": "rejectOffer",
      "outputs": [],
      "stateMutability": "nonpayable",
      "type": "function"
    },
    {
      "inputs": [],
      "name": "renounceOwnership",
      "outputs": [],
      "stateMutability": "nonpayable",
      "type": "function"
    },
    {
      "inputs": [
        {
          "internalType": "address",
          "name": "newOwner",
          "type": "address"
        }
      ],
      "name": "transferOwnership",
      "outputs": [],
      "stateMutability": "nonpayable",
      "type": "function"
    },
    {
      "inputs": [
        {
          "internalType": "address",
          "name": "newRecipient",
          "type": "address"
        }
      ],
      "name": "updateFeeRecipient",
      "outputs": [],
      "stateMutability": "nonpayable",
      "type": "function"
    },
    {
      "inputs": [
        {
          "internalType": "uint256",
          "name": "minDuration",
          "type": "uint256"
        },
        {
          "internalType": "uint256",
          "name": "maxDuration",
          "type": "uint256"
        }
      ],
      "name": "updateOfferDurations",
      "outputs": [],
      "stateMutability": "nonpayable",
      "type": "function"
    },
    {
      "inputs": [
        {
          "internalType": "uint256",
          "name": "newFee",
          "type": "uint256"
        }
      ],
      "name": "updateProtocolFee",
      "outputs": [],
      "stateMutability": "nonpayable",
      "type": "function"
    },
    {
      "inputs": [
        {
          "internalType": "address",
          "name": "",
          "type": "address"
        },
        {
          "internalType": "uint256",
          "name": "",
          "type": "uint256"
        }
      ],
      "name": "userOffers",
      "outputs": [
        {
          "internalType": "uint256",
          "name": "",
          "type": "uint256"
        }
      ],
      "stateMutability": "view",
      "type": "function"
    }
  ],
  "bytecode": "0x60a0346200013157601f6200296b38819003918201601f19168301916001600160401b038311848410176200013657808492604094855283398101031262000131576200005a602062000052836200014c565b92016200014c565b90331562000118576000549160018060a01b03908160018060a01b031993338587161760005560405195823391167f8be0079c531659141344cd1fd0a4f28419497f9722a3daafe3b4186f6b6457e0600080a36001805560fa600955610e10600b5562278d00600c55166080521690600a541617600a556128099081620001628239608051818181610349015281816105760152818161070701528181610d850152818161124f01528181611bf701528181611d2601526125d00152f35b604051631e4fbdf760e01b815260006004820152602490fd5b600080fd5b634e487b7160e01b600052604160045260246000fd5b51906001600160a01b0382168203620001315756fe608080604052600436101561001357600080fd5b60003560e01c90816312b4b18014611d55575080633013ce2914611d105780634256dd7814611cb05780634690484014611c875780634949a19614611a6557806360c11ee2146118d6578063661d2c2c14611772578063715018a614611719578063716f07551461117057806382edabf914610e5257806388b10c7514610c8d5780638a72ea6a14610bbf5780638da5cb5b14610b9657806395e4d5fd14610b4c57806397f7236314610b13578063b0e21e8a14610af5578063b489e14714610ac9578063b8be0d3014610a49578063bd5fec65146109f1578063c247b61a14610988578063c815729d146108a6578063c99e0ffc14610888578063d58bcecb14610646578063da1a200e14610628578063ef706adf14610469578063f10b160614610263578063f160d369146101e15763f2fde38b1461015357600080fd5b346101dc5760203660031901126101dc5761016c611ea4565b61017461249f565b6001600160a01b039081169081156101c357600054826001600160601b0360a01b821617600055167f8be0079c531659141344cd1fd0a4f28419497f9722a3daafe3b4186f6b6457e0600080a3005b604051631e4fbdf760e01b815260006004820152602490fd5b600080fd5b346101dc5760203660031901126101dc576101fa611ea4565b61020261249f565b6001600160a01b03168015610229576001600160601b0360a01b600a541617600a55600080f35b60405162461bcd60e51b8152602060048201526012602482015271446972656363696f6e20696e76616c69646160701b6044820152606490fd5b346101dc576020806003193601126101dc57600435906102816124cb565b8160005260038152604060002060078101805460ff81166006811015610453578015908115610448575b50156104035760068301544211156103c75760059060ff19161790558260005260088252604060002090815480610309575b847f48e57f5f7de6743b5c1c749447ff980262d36d0ad5142c942523d48dc821a171600080a260018055005b6000928390556003919091015460405163a9059cbb60e01b81526001600160a01b03918216600482015260248101929092529091839183916044918391907f0000000000000000000000000000000000000000000000000000000000000000165af19081156103bb576103859260009261038e575b5050612297565b818080806102dd565b6103ad9250803d106103b4575b6103a58183612010565b81019061227f565b838061037e565b503d61039b565b6040513d6000823e3d90fd5b60405162461bcd60e51b81526004810185905260146024820152734f66657274612061756e206e6f2065787069726160601b6044820152606490fd5b60405162461bcd60e51b815260048101859052601760248201527f4f6665727461206e6f20707565646520657870697261720000000000000000006044820152606490fd5b6001915014866102ab565b634e487b7160e01b600052602160045260246000fd5b346101dc576020806003193601126101dc57600435906104876124cb565b81600052600381526040600020600760018060a01b03916104af836003830154163314612450565b019182549260ff8416600681101561045357801590811561061d575b50156105d857600460ff198095161790558360005260088152604060002080549081610548575b5050600791508360005252600560406000200190815460ff811661053d575b837fc28b4aed030bfacc245c0501326e1beb8c0ef0d60e4edc21067fdeb52da2a7aa600080a260018055005b169055818080610511565b60009081905560405163a9059cbb60e01b8152336004820152602481019290925290928291849160449183917f0000000000000000000000000000000000000000000000000000000000000000165af19182156103bb576007926105b4916000916105bb575b50612297565b84806104f2565b6105d29150833d85116103b4576103a58183612010565b866105ae565b60405162461bcd60e51b815260048101839052601d60248201527f4f6665727461206e6f207075656465207365722063616e63656c6164610000006044820152606490fd5b6001915014866104cb565b346101dc5760003660031901126101dc576020600c54604051908152f35b346101dc576020806003193601126101dc576004356106636124cb565b8060005260038252604060002060078352604060002060ff60078301541660068110156104535760010361084d57600581019060ff8254161561080f57600481015442116107d2576106d76001808060a01b03926106c8846003880154163314612450565b01936005855491015490612492565b6040516323b872dd60e01b81523360048201523060248201526044810182905290918690829060649082906000907f0000000000000000000000000000000000000000000000000000000000000000165af19081156103bb576000916107b5575b501561077057600861076a9585600052526107596040600020918254612333565b9055805460ff1916905554906124ee565b60018055005b60405162461bcd60e51b815260048101869052601b60248201527f5472616e73666572206469666572656e6369612066616c6c69646f00000000006044820152606490fd5b6107cc9150863d88116103b4576103a58183612010565b86610738565b60405162461bcd60e51b8152600481018690526015602482015274436f6e7472616f666572746120657870697261646160581b6044820152606490fd5b60405162461bcd60e51b8152600481018690526016602482015275436f6e7472616f6665727461206e6f2061637469766160501b6044820152606490fd5b60405162461bcd60e51b81526004810185905260136024820152724e6f2068617920636f6e7472616f666572746160681b6044820152606490fd5b346101dc5760003660031901126101dc576020600b54604051908152f35b346101dc5760203660031901126101dc576004356108c26124cb565b80600052600360205260406000209060ff6007830154166006811015610453576108ec901561237a565b6108fc60068301544211156123c6565b60018060a01b038060018401541692602060028201546024604051809781936331a9108f60e11b835260048301525afa9384156103bb5761076a9460059361094f92600092610957575b50163314612404565b0154906124ee565b61097a91925060203d602011610981575b6109728183612010565b810190612314565b9087610946565b503d610968565b346101dc5760403660031901126101dc576024356004356109a761249f565b818110156109b757600b55600c55005b60405162461bcd60e51b815260206004820152601260248201527109ad2dc40c8cac4ca40e6cae44078409ac2f60731b6044820152606490fd5b346101dc5760403660031901126101dc57610a0a611ea4565b6001600160a01b03166000908152600560205260409020805460243591908210156101dc57602091610a3b91612168565b90546040519160031b1c8152f35b346101dc5760203660031901126101dc57600435600052600760205260406000208054600182015491610a7e600282016120c3565b600382015491610ab360ff6005600484015493015416926040519687968752602087015260c0604087015260c0860190611ec7565b9260608501526080840152151560a08301520390f35b346101dc5760203660031901126101dc5760043560005260086020526020604060002054604051908152f35b346101dc5760003660031901126101dc576020600954604051908152f35b346101dc5760403660031901126101dc576024356004356000526004602052604060002080548210156101dc57602091610a3b91612168565b346101dc5760403660031901126101dc57610b65611ea4565b6001600160a01b03166000908152600660205260409020805460243591908210156101dc57602091610a3b91612168565b346101dc5760003660031901126101dc576000546040516001600160a01b039091168152602090f35b346101dc5760203660031901126101dc57600435600052600360205260406000206020815491610c8260018060a01b03918260018201541694600282015493610c6d8160038501541691600485015416600585015460068601549060ff60078801541692600888015495600a610c3760098b016120c3565b9901549a6040519d8e9d8e6101609b8152015260408d015260608c015260808b015260a08a015260c089015260e0880190611eba565b61010086015280610120860152840190611ec7565b906101408301520390f35b346101dc576020806003193601126101dc5760043590610cab6124cb565b816000526003815260406000206007810180549060ff82166006811015610453578015908115610e47575b5015610e025760048301546001600160a01b03929083163303610dca5760ff19166003179055600084815260088452604090208054909181610d3f575b857facb9cd98d41dc8854281172ab2a764d949b62b51776edd911f85376ed2eca64b600080a260018055005b806003610d81956000889655015416600060405180968195829463a9059cbb60e01b84526004840160209093929193604081019460018060a01b031681520152565b03927f0000000000000000000000000000000000000000000000000000000000000000165af19081156103bb57610dc09260009261038e575050612297565b8180808080610d13565b60405162461bcd60e51b815260048101869052601060248201526f27379032b932b99032b61037bbb732b960811b6044820152606490fd5b60405162461bcd60e51b815260048101859052601d60248201527f4f6665727461206e6f207075656465207365722072656368617a6164610000006044820152606490fd5b600191501486610cd6565b346101dc5760803660031901126101dc5760443567ffffffffffffffff81116101dc57610e83903690600401612032565b606435610e8e6124cb565b600435600052600360205260406000209060ff600783015416600681101561045357610eba901561237a565b610eca60068301544211156123c6565b610ee160018060a01b036004840154163314612404565b6005820154602435111561112b57610f0e90600b548110158061111f575b610f08906122d4565b42612333565b916040519060c0820182811067ffffffffffffffff82111761110957604052600435825260208201936024358552604083019182524260608401526080830152600160a08301526004356000526007602052604060002093825185555160018501555192835167ffffffffffffffff811161110957610f906002830154612089565b601f81116110c2575b506020601f821160011461104957600193928260a0936005936007989960009261103e575b5050600019600383901b1c191690861b1760028201555b60608401516003820155608084015160048201550191015115159060ff199160ff83835416911617905582840154161791015560405160243581527f9257d4e6a2adab7d9c3b45b6a0e3d86e67167aa282714250c05d746b55a6dfd1602060043592a260018055005b015190508980610fbe565b6002830160005260206000209560005b601f19841681106110aa5750926001836007979860059483989760a097601f19811610611091575b505050811b016002820155610fd5565b015160001960f88460031b161c19169055898080611081565b82820151885560019097019660209283019201611059565b600283016000526020600020601f830160051c810160208410611102575b601f830160051c820181106110f6575050610f99565b600081556001016110e0565b50806110e0565b634e487b7160e01b600052604160045260246000fd5b50600c54811115610eff565b60405162461bcd60e51b815260206004820152601b60248201527f436f6e7472616f6665727461206465626520736572206d61796f7200000000006044820152606490fd5b346101dc5760a03660031901126101dc57611189611ea4565b60843567ffffffffffffffff81116101dc576111a9903690600401612032565b906111b26124cb565b604435156116d457600b546064351015806116c6575b6111d1906122d4565b6040516331a9108f60e11b81526024803560048301529091906020908390816001600160a01b0385165afa9182156103bb576000926116a5575b506001600160a01b0382163314611660576040516323b872dd60e01b8152336004820152306024820152604480359082015260208160648160006001600160a01b037f0000000000000000000000000000000000000000000000000000000000000000165af19081156103bb57600091611641575b5015611609576002549160001983146115f357600183016002556112a660643542612333565b9360095490604051956112b887611ff3565b60018601875260018060a01b0385166020880152602435604088015233606088015260018060a01b038416608088015260443560a088015260c0870152600060e0870152426101008701526101208601526101408501526001830160005260036020526040600020845181556001810160018060a01b03602087015116906001600160601b0360a01b9182825416179055604086015160028301556003820160018060a01b0360608801511682825416179055600482019060018060a01b036080880151169082541617905560a0850151600582015560c085015160068201556007810160e086015160068110156104535760ff80198354169116179055610100850151600882015561012085015194855167ffffffffffffffff8111611109576113e66009840154612089565b96601f88116115ac575b602097508790601f8311600114611538579180600a94926101409460009261152d575b50508160011b916000199060031b1c19161760098501555b015191015560018301600052600884526044356040600020556040518481019061148381611475602435878690916034926001600160601b03199060601b16825260148201520190565b03601f198101835282612010565b5190206000526004845261149e600184016040600020612340565b33600052600584526114b7600184016040600020612340565b60018060a01b0316600052600683526114d7600183016040600020612340565b604080516024358152604435858201526001600160a01b0390921691339160018501917f6cde6cb15ae436d9a233ffac7fee903539ea6b27dc2065434ae7d3900b6cdd7a9190a460018055600160405191018152f35b015190508a80611413565b9060098501600052886000209160005b601f1985168110611595575092600a94926001926101409583601f1981161061157c575b505050811b01600985015561142b565b015160001960f88460031b161c191690558a808061156c565b91928a600181928685015181550194019201611548565b600984016000526020600020601f830160051c8101602084106115ec575b601f8a0160051c820181106115e05750506113f0565b600081556001016115ca565b50806115ca565b634e487b7160e01b600052601160045260246000fd5b60405162461bcd60e51b815260206004820152601060248201526f5472616e736665722066616c6c69646f60801b6044820152606490fd5b61165a915060203d6020116103b4576103a58183612010565b84611280565b60405162461bcd60e51b815260206004820152601f60248201527f4e6f20707565646573206f6665727461722074752070726f70696f204e4654006044820152606490fd5b6116bf91925060203d602011610981576109728183612010565b908361120b565b50600c5460643511156111c8565b60405162461bcd60e51b815260206004820152601860248201527f4d6f6e746f206465626520736572206d61796f722061203000000000000000006044820152606490fd5b346101dc5760003660031901126101dc5761173261249f565b600080546001600160a01b0319811682556001600160a01b03167f8be0079c531659141344cd1fd0a4f28419497f9722a3daafe3b4186f6b6457e08280a3005b346101dc576020806003193601126101dc576001600160a01b0380611795611ea4565b1660005260059160058152604060002091604051808484829654938481520190600052846000209260005b868282106118c0575050506117d792500384612010565b6117e183516121ae565b9360005b84518110156118ae57806117fb6001928761224f565b516000526003808652600a6040600020866040519361181985611ff3565b825485528187840154168a860152600283015460408601528201541660608401528660048201541660808401528581015460a0840152600681015460c084015261186d60ff60078301541660e08501612263565b6008810154610100840152611884600982016120c3565b610120840152015461014082015261189c828961224f565b526118a7818861224f565b50016117e5565b604051806118bc8882611f07565b0390f35b85548452600195860195899550930192016117c0565b346101dc5760403660031901126101dc576118ef611ea4565b60405160609190911b6bffffffffffffffffffffffff191660208083019182526024356034840152916119258160548101611475565b519020600052600481526040600020604051808284829454938481520190600052846000209260005b86828210611a4f578461196381860382612010565b61196d81516121ae565b9160005b8251811015611a4157806119876001928561224f565b516000526003808452600a6040600020604051926119a484611ff3565b81548452858060a01b03809181888501541689870152600284015460408701528301541660608501526004820154166080840152600581015460a0840152600681015460c0840152611a0060ff60078301541660e08501612263565b6008810154610100840152611a17600982016120c3565b6101208401520154610140820152611a2f828761224f565b52611a3a818661224f565b5001611971565b604051806118bc8682611f07565b855484526001958601958795509301920161194e565b346101dc576020806003193601126101dc5767ffffffffffffffff906004358281116101dc57366023820112156101dc5780600401359283116101dc576024916024820191600590602436918760051b0101116101dc57611ac46124cb565b60005b858110611ad45760018055005b611adf81878661226f565b35600052600390818452604060002060078101805460ff8116600680821015611c7257918189959493899315918215611c67575b5081611c5a575b50611b2f575b50505050506001915001611ac7565b60ff1916179055611b41838a8961226f565b356000526008938483526040600020549182611b9b575b5050505060019150611b6b81888761226f565b357f48e57f5f7de6743b5c1c749447ff980262d36d0ad5142c942523d48dc821a171600080a28388808581611b20565b611bf395611baa868d8c61226f565b35600090815290855260408082208290559290910154915163a9059cbb60e01b81526001600160a01b039283166004820152602481019390935291948592839182906044820190565b03927f0000000000000000000000000000000000000000000000000000000000000000165af19182156103bb57600192611c3491600091611c3d5750612297565b83888080611b58565b611c549150863d88116103b4576103a58183612010565b896105ae565b905084015442118d611b1a565b60011491508e611b13565b8a634e487b7160e01b60005260216004526000fd5b346101dc5760003660031901126101dc57600a546040516001600160a01b039091168152602090f35b346101dc5760203660031901126101dc57600435611ccc61249f565b6103e88111611cda57600955005b60405162461bcd60e51b815260206004820152600e60248201526d466565206d6178696d6f2031302560901b6044820152606490fd5b346101dc5760003660031901126101dc576040517f00000000000000000000000000000000000000000000000000000000000000006001600160a01b03168152602090f35b346101dc57602090816003193601126101dc576001600160a01b039182611d7a611ea4565b166000526006926006825260406000208381549182825284820190600052846000209260005b86828210611e8e57505050611db792500384612010565b611dc183516121ae565b9360005b84518110156118ae5780611ddb6001928761224f565b516000526003808652600a60406000208660405193611df985611ff3565b825485528187840154168a86015260028301546040860152820154166060840152866004820154166080840152600581015460a08401528581015460c0840152611e4d60ff60078301541660e08501612263565b6008810154610100840152611e64600982016120c3565b6101208401520154610140820152611e7c828961224f565b52611e87818861224f565b5001611dc5565b8554845260019586019589955093019201611da0565b600435906001600160a01b03821682036101dc57565b9060068210156104535752565b919082519283825260005b848110611ef3575050826000602080949584010152601f8019910116010190565b602081830181015184830182015201611ed2565b6020808201908083528351809252604092604081018260408560051b8401019601946000925b858410611f3e575050505050505090565b909192939495968580600192603f198582030187528a5190611fd76101608351835284840151878060a01b0380911686850152898501518a85015260608181870151169085015260809081860151169084015260a0808501519084015260c08085015190840152611fb760e08086015190850190611eba565b610100808501519084015261012090808286015192850152830190611ec7565b9161014080910151910152990194019401929594939190611f2d565b610160810190811067ffffffffffffffff82111761110957604052565b90601f8019910116810190811067ffffffffffffffff82111761110957604052565b81601f820112156101dc5780359067ffffffffffffffff82116111095760405192612067601f8401601f191660200185612010565b828452602083830101116101dc57816000926020809301838601378301015290565b90600182811c921680156120b9575b60208310146120a357565b634e487b7160e01b600052602260045260246000fd5b91607f1691612098565b906040519182600082546120d681612089565b908184526020946001916001811690816000146121465750600114612107575b50505061210592500383612010565b565b600090815285812095935091905b81831061212e57505061210593508201013880806120f6565b85548884018501529485019487945091830191612115565b9250505061210594925060ff191682840152151560051b8201013880806120f6565b80548210156121805760005260206000200190600090565b634e487b7160e01b600052603260045260246000fd5b67ffffffffffffffff81116111095760051b60200190565b906121b882612196565b6040906121c86040519182612010565b83815280936121d9601f1991612196565b019160005b8381106121eb5750505050565b60209082516121f981611ff3565b6000815282600081830152600085830152606060008184015260006080840152600060a0840152600060c0840152600060e0840152600061010084015261012083015260006101408301528286010152016121de565b80518210156121805760209160051b010190565b60068210156104535752565b91908110156121805760051b0190565b908160209103126101dc575180151581036101dc5790565b1561229e57565b60405162461bcd60e51b815260206004820152600e60248201526d526566756e642066616c6c69646f60901b6044820152606490fd5b156122db57565b60405162461bcd60e51b81526020600482015260116024820152704475726163696f6e20696e76616c69646160781b6044820152606490fd5b908160209103126101dc57516001600160a01b03811681036101dc5790565b919082018092116115f357565b8054680100000000000000008110156111095761236291600182018155612168565b819291549060031b91821b91600019901b1916179055565b1561238157565b60405162461bcd60e51b815260206004820152601860248201527f4f6665727461206e6f20657374612070656e6469656e746500000000000000006044820152606490fd5b156123cd57565b60405162461bcd60e51b815260206004820152600f60248201526e4f666572746120657870697261646160881b6044820152606490fd5b1561240b57565b60405162461bcd60e51b815260206004820152601860248201527f4e6f206572657320656c206f776e65722064656c204e465400000000000000006044820152606490fd5b1561245757565b60405162461bcd60e51b81526020600482015260136024820152724e6f206572657320656c206f666572656e746560681b6044820152606490fd5b919082039182116115f357565b6000546001600160a01b031633036124b357565b60405163118cdaa760e01b8152336004820152602490fd5b6002600154146124dc576002600155565b604051633ee5aeb560e01b8152600490fd5b919091600081815260209060038252604091828220600a8101548088029088820414881517156127bf576127109004906125288289612492565b9360018060a01b039384600184015416936004908185019787895416600387019789895416600289015492823b156127bb578d516323b872dd60e01b81526001600160a01b0391821688820190815292909116602083015260408201939093528791839182908490829060600103925af180156127b157612783575b5088548a5163a9059cbb60e01b808252918a166001600160a01b031685820190815260208101939093527f00000000000000000000000000000000000000000000000000000000000000008a169286908290819060400103818a875af190811561277957879161275c575b501561272357600a548b5191825289166001600160a01b03168482019081526020810193909352918491839182908890829060400103925af19081156127195784916126fc575b50156126c857508782526008905285812055600701805460ff1916600217905554915492516001600160a01b03928216831681529216166020820152604081019390935290917fc67f49229cab3f614ad390c12432e0e671552dcfd15e24ddc005cf5a01a021359080606081010390a2565b60649188519162461bcd60e51b8352820152601060248201526f5061676f206665652066616c6c69646f60801b6044820152fd5b6127139150833d85116103b4576103a58183612010565b38612656565b89513d86823e3d90fd5b8a5162461bcd60e51b815280850186905260136024820152725061676f2073656c6c65722066616c6c69646f60681b6044820152606490fd5b6127739150863d88116103b4576103a58183612010565b3861260f565b8c513d89823e3d90fd5b67ffffffffffffffff819692961161279e578a5293386125a4565b634e487b7160e01b825260418452602482fd5b8b513d88823e3d90fd5b8880fd5b634e487b7160e01b84526011600452602484fdfea2646970667358221220fa1f1600add84299febbfba77f91d6e092416331d2ed11036ed1992f7ae326f964736f6c63430008180033",
  "linkReferences": {},
  "deployedLinkReferences": {}
}