{
  "_format": "hh-sol-artifact-1",
  "contractName": "BeZhasMarketplace",
  "sourceName": "contracts/BeZhasMarketplace.sol",
  "abi": [
    {
      "inputs": [
        {
          "internalType": "address",
          "name": "_token",
          "type": "address"
        },
        {
          "internalType": "uint256",
          "name": "_fee",
          "type": "uint256"
        },
        {
          "internalType": "uint256",
          "name": "_commission",
          "type": "uint256"
        }
      ],
      "stateMutability": "nonpayable",
      "type": "constructor"
    },
    {
      "inputs": [
        {
          "internalType": "address",
          "name": "owner",
          "type": "address"
        }
      ],
      "name": "OwnableInvalidOwner",
      "type": "error"
    },
    {
      "inputs": [
        {
          "internalType": "address",
          "name": "account",
          "type": "address"
        }
      ],
      "name": "OwnableUnauthorizedAccount",
      "type": "error"
    },
    {
      "inputs": [],
      "name": "ReentrancyGuardReentrantCall",
      "type": "error"
    },
    {
      "anonymous": false,
      "inputs": [
        {
          "indexed": false,
          "internalType": "uint256",
          "name": "oldRate",
          "type": "uint256"
        },
        {
          "indexed": false,
          "internalType": "uint256",
          "name": "newRate",
          "type": "uint256"
        }
      ],
      "name": "BurnRateUpdated",
      "type": "event"
    },
    {
      "anonymous": false,
      "inputs": [
        {
          "indexed": false,
          "internalType": "bool",
          "name": "enabled",
          "type": "bool"
        }
      ],
      "name": "BurnToggled",
      "type": "event"
    },
    {
      "anonymous": false,
      "inputs": [
        {
          "indexed": true,
          "internalType": "address",
          "name": "previousOwner",
          "type": "address"
        },
        {
          "indexed": true,
          "internalType": "address",
          "name": "newOwner",
          "type": "address"
        }
      ],
      "name": "OwnershipTransferred",
      "type": "event"
    },
    {
      "anonymous": false,
      "inputs": [
        {
          "indexed": true,
          "internalType": "uint256",
          "name": "id",
          "type": "uint256"
        },
        {
          "indexed": false,
          "internalType": "uint256",
          "name": "newPrice",
          "type": "uint256"
        }
      ],
      "name": "PriceUpdated",
      "type": "event"
    },
    {
      "anonymous": false,
      "inputs": [
        {
          "indexed": true,
          "internalType": "uint256",
          "name": "id",
          "type": "uint256"
        },
        {
          "indexed": true,
          "internalType": "address",
          "name": "seller",
          "type": "address"
        },
        {
          "indexed": false,
          "internalType": "uint256",
          "name": "price",
          "type": "uint256"
        },
        {
          "indexed": false,
          "internalType": "string",
          "name": "metadataCID",
          "type": "string"
        }
      ],
      "name": "ProductCreated",
      "type": "event"
    },
    {
      "anonymous": false,
      "inputs": [
        {
          "indexed": true,
          "internalType": "uint256",
          "name": "id",
          "type": "uint256"
        },
        {
          "indexed": true,
          "internalType": "address",
          "name": "buyer",
          "type": "address"
        },
        {
          "indexed": false,
          "internalType": "uint256",
          "name": "price",
          "type": "uint256"
        },
        {
          "indexed": false,
          "internalType": "uint256",
          "name": "timestamp",
          "type": "uint256"
        }
      ],
      "name": "ProductSold",
      "type": "event"
    },
    {
      "anonymous": false,
      "inputs": [
        {
          "indexed": true,
          "internalType": "uint256",
          "name": "productId",
          "type": "uint256"
        },
        {
          "indexed": false,
          "internalType": "uint256",
          "name": "burnAmount",
          "type": "uint256"
        },
        {
          "indexed": false,
          "internalType": "uint256",
          "name": "totalBurnedToDate",
          "type": "uint256"
        }
      ],
      "name": "TokensBurned",
      "type": "event"
    },
    {
      "anonymous": false,
      "inputs": [
        {
          "indexed": true,
          "internalType": "address",
          "name": "user",
          "type": "address"
        },
        {
          "indexed": false,
          "internalType": "bool",
          "name": "status",
          "type": "bool"
        },
        {
          "indexed": false,
          "internalType": "uint256",
          "name": "timestamp",
          "type": "uint256"
        }
      ],
      "name": "VendorStatusUpdated",
      "type": "event"
    },
    {
      "inputs": [],
      "name": "BURN_ADDRESS",
      "outputs": [
        {
          "internalType": "address",
          "name": "",
          "type": "address"
        }
      ],
      "stateMutability": "view",
      "type": "function"
    },
    {
      "inputs": [],
      "name": "bezhasToken",
      "outputs": [
        {
          "internalType": "contract IERC20",
          "name": "",
          "type": "address"
        }
      ],
      "stateMutability": "view",
      "type": "function"
    },
    {
      "inputs": [],
      "name": "burnEnabled",
      "outputs": [
        {
          "internalType": "bool",
          "name": "",
          "type": "bool"
        }
      ],
      "stateMutability": "view",
      "type": "function"
    },
    {
      "inputs": [],
      "name": "burnRate",
      "outputs": [
        {
          "internalType": "uint256",
          "name": "",
          "type": "uint256"
        }
      ],
      "stateMutability": "view",
      "type": "function"
    },
    {
      "inputs": [
        {
          "internalType": "uint256",
          "name": "_id",
          "type": "uint256"
        }
      ],
      "name": "buyProduct",
      "outputs": [],
      "stateMutability": "nonpayable",
      "type": "function"
    },
    {
      "inputs": [
        {
          "internalType": "uint256",
          "name": "_price",
          "type": "uint256"
        }
      ],
      "name": "calculateFees",
      "outputs": [
        {
          "internalType": "uint256",
          "name": "commission",
          "type": "uint256"
        },
        {
          "internalType": "uint256",
          "name": "burn",
          "type": "uint256"
        },
        {
          "internalType": "uint256",
          "name": "sellerNet",
          "type": "uint256"
        }
      ],
      "stateMutability": "view",
      "type": "function"
    },
    {
      "inputs": [
        {
          "internalType": "uint256",
          "name": "_price",
          "type": "uint256"
        },
        {
          "internalType": "string",
          "name": "_metadataCID",
          "type": "string"
        }
      ],
      "name": "createProduct",
      "outputs": [],
      "stateMutability": "nonpayable",
      "type": "function"
    },
    {
      "inputs": [],
      "name": "getBurnStats",
      "outputs": [
        {
          "internalType": "bool",
          "name": "enabled",
          "type": "bool"
        },
        {
          "internalType": "uint256",
          "name": "rate",
          "type": "uint256"
        },
        {
          "internalType": "uint256",
          "name": "totalBurnedAmount",
          "type": "uint256"
        },
        {
          "internalType": "address",
          "name": "burnAddress",
          "type": "address"
        }
      ],
      "stateMutability": "view",
      "type": "function"
    },
    {
      "inputs": [
        {
          "internalType": "address",
          "name": "",
          "type": "address"
        }
      ],
      "name": "isVendor",
      "outputs": [
        {
          "internalType": "bool",
          "name": "",
          "type": "bool"
        }
      ],
      "stateMutability": "view",
      "type": "function"
    },
    {
      "inputs": [],
      "name": "owner",
      "outputs": [
        {
          "internalType": "address",
          "name": "",
          "type": "address"
        }
      ],
      "stateMutability": "view",
      "type": "function"
    },
    {
      "inputs": [],
      "name": "platformCommission",
      "outputs": [
        {
          "internalType": "uint256",
          "name": "",
          "type": "uint256"
        }
      ],
      "stateMutability": "view",
      "type": "function"
    },
    {
      "inputs": [],
      "name": "productCounter",
      "outputs": [
        {
          "internalType": "uint256",
          "name": "",
          "type": "uint256"
        }
      ],
      "stateMutability": "view",
      "type": "function"
    },
    {
      "inputs": [
        {
          "internalType": "uint256",
          "name": "",
          "type": "uint256"
        }
      ],
      "name": "productPrices",
      "outputs": [
        {
          "internalType": "uint256",
          "name": "",
          "type": "uint256"
        }
      ],
      "stateMutability": "view",
      "type": "function"
    },
    {
      "inputs": [
        {
          "internalType": "uint256",
          "name": "",
          "type": "uint256"
        }
      ],
      "name": "productSellers",
      "outputs": [
        {
          "internalType": "address",
          "name": "",
          "type": "address"
        }
      ],
      "stateMutability": "view",
      "type": "function"
    },
    {
      "inputs": [],
      "name": "registerAsVendor",
      "outputs": [],
      "stateMutability": "nonpayable",
      "type": "function"
    },
    {
      "inputs": [],
      "name": "renounceOwnership",
      "outputs": [],
      "stateMutability": "nonpayable",
      "type": "function"
    },
    {
      "inputs": [
        {
          "internalType": "uint256",
          "name": "_newRate",
          "type": "uint256"
        }
      ],
      "name": "setBurnRate",
      "outputs": [],
      "stateMutability": "nonpayable",
      "type": "function"
    },
    {
      "inputs": [
        {
          "internalType": "bool",
          "name": "_enabled",
          "type": "bool"
        }
      ],
      "name": "toggleBurn",
      "outputs": [],
      "stateMutability": "nonpayable",
      "type": "function"
    },
    {
      "inputs": [],
      "name": "totalBurned",
      "outputs": [
        {
          "internalType": "uint256",
          "name": "",
          "type": "uint256"
        }
      ],
      "stateMutability": "view",
      "type": "function"
    },
    {
      "inputs": [
        {
          "internalType": "address",
          "name": "newOwner",
          "type": "address"
        }
      ],
      "name": "transferOwnership",
      "outputs": [],
      "stateMutability": "nonpayable",
      "type": "function"
    },
    {
      "inputs": [],
      "name": "vendorFee",
      "outputs": [
        {
          "internalType": "uint256",
          "name": "",
          "type": "uint256"
        }
      ],
      "stateMutability": "view",
      "type": "function"
    }
  ],
  "bytecode": "0x6080346100f157601f610f1638819003918201601f19168301916001600160401b038311848410176100f6578084926060946040528339810103126100f15780516001600160a01b0391828216918290036100f1576040602082015191015191600160005533156100d85760018054336001600160a01b03198083168217909355604051969091167f8be0079c531659141344cd1fd0a4f28419497f9722a3daafe3b4186f6b6457e0600080a36028600555600160ff1960065416176006556002541617600255600355600455610e09908161010d8239f35b604051631e4fbdf760e01b815260006004820152602490fd5b600080fd5b634e487b7160e01b600052604160045260246000fdfe608060408181526004918236101561001657600080fd5b600092833560e01c9182630a01841d14610b6157508163189d165e14610ac75781631f16653b14610aa85781632f37ea7a14610a5957816338eb6a1914610a3157816341a7757a14610a0857816352238fdd146109965781635dc96d16146109725781636439d51714610953578163694e91b814610935578163715018a6146108d55781638642269e146104895781638c7384e6146104565781638cbf9519146103f35781638da5cb5b146103ca578163bed99850146103ab578163c354c40f14610237578163d89135cd14610218578163ee54d54f146101d9578163f2fde38b1461013d575063fccc28131461010c57600080fd5b34610139578160031936011261013957602090517389c23890c742d710265dd61be789c71dc8999b128152f35b5080fd5b919050346101d55760203660031901126101d5576001600160a01b038235818116939192908490036101d157610171610d84565b83156101bb575050600154826bffffffffffffffffffffffff60a01b821617600155167f8be0079c531659141344cd1fd0a4f28419497f9722a3daafe3b4186f6b6457e08380a380f35b51631e4fbdf760e01b8152908101849052602490fd5b8480fd5b8280fd5b9050346101d55760203660031901126101d557356001600160a01b038116908190036101d557818360ff92602095526007855220541690519015158152f35b505034610139578160031936011261013957602090600b549051908152f35b919050346101d557826003193601126101d557610252610db0565b3383526020916007835260ff82852054166103775760025460015460035484516323b872dd60e01b8152338582019081526001600160a01b039384166020820152604081019290925292869284928390036060019183918a91165af190811561036d578591610340575b501561031057507f942c58022b4b99f84c5b30ed0bdc7ce37bb1522c401fd3e20a80158ae39bf9fd9033845260078352808420600160ff198254161790558051926001845242908401523392a26001815580f35b82606492519162461bcd60e51b8352820152600c60248201526b5061676f2066616c6c69646f60a01b6044820152fd5b6103609150843d8611610366575b6103588183610cf9565b810190610d67565b386102bc565b503d61034e565b83513d87823e3d90fd5b82606492519162461bcd60e51b8352820152601060248201526f2cb09032b932b9903b32b73232b237b960811b6044820152fd5b5050346101395781600319360112610139576020906005549051908152f35b50503461013957816003193601126101395760015490516001600160a01b039091168152602090f35b9050346101d55760203660031901126101d55735908115158092036101d5577f6960532af3ce4f330d7d2c03bf82e6df5819eee031e0513e54d771c8938f7df09160209161043f610d84565b60ff196006541660ff83161760065551908152a180f35b9050346101d55760203660031901126101d55735825260096020908152918190205490516001600160a01b039091168152f35b83833461013957602090816003193601126101d5578335906104a9610db0565b818452600883528084205460098452818520549093906001600160a01b0390811690851561089d578761271092836104e283548a610d31565b049360ff60065416600014610895576104fd6005548a610d31565b04935b610553868a8c610519896105148785610d5a565b610d5a565b6002548c516323b872dd60e01b815233998101998a523060208b015260408a0194909452909792948593918a169284929091839160600190565b03925af190811561083b578b91610878575b501561084557906105b0868594938d96600254168d8760015416908c5180968195829463a9059cbb60e01b9d8e8552840160209093929193604081019460018060a01b031681520152565b03925af190811561083b578b9161081e575b50156107ea5760025487518581526001600160a01b03929092168c830190815260208101939093529091869183918290036040019082908d9087165af19081156107e05789916107c3575b501561078a5760ff6006541680610781575b61065e575b505050907f1996dfdf9a942c2ec8fc8b5da7010c303a8b65bc587a754469c06cdc0d09236f91815194855242908501523393a36001815580f35b8860447389c23890c742d710265dd61be789c71dc8999b12938a8794600254168951968795869485528401528760248401525af190811561077757879161075a575b501561072a57600b54818101809111610717578495969750837f1996dfdf9a942c2ec8fc8b5da7010c303a8b65bc587a754469c06cdc0d09236f9592827fe25c13ab9b2aded7bb7d39d4829c2efb98edd820bd84d49234678cedc8b8fd5693600b55825191825285820152a2859493928780610624565b634e487b7160e01b875260118852602487fd5b825162461bcd60e51b8152808801839052600a60248201526922b93937b910313ab93760b11b6044820152606490fd5b6107719150833d8511610366576103588183610cf9565b886106a0565b84513d89823e3d90fd5b5082151561061f565b845162461bcd60e51b8152808a01859052601360248201527222b93937b9103830b3b7903b32b73232b237b960691b6044820152606490fd5b6107da9150853d8711610366576103588183610cf9565b8a61060d565b86513d8b823e3d90fd5b865162461bcd60e51b8152808c01879052600e60248201526d22b93937b91031b7b6b4b9b4b7b760911b6044820152606490fd5b6108359150873d8911610366576103588183610cf9565b8c6105c2565b88513d8d823e3d90fd5b865162461bcd60e51b8152808c01879052600d60248201526c436f62726f2066616c6c69646f60981b6044820152606490fd5b61088f9150873d8911610366576103588183610cf9565b8c610565565b508893610500565b835162461bcd60e51b8152808901849052601260248201527150726f647563746f206e6f2065786973746560701b6044820152606490fd5b83346109325780600319360112610932576108ee610d84565b600180546001600160a01b0319811690915581906001600160a01b03167f8be0079c531659141344cd1fd0a4f28419497f9722a3daafe3b4186f6b6457e08280a380f35b80fd5b9050346101d557826003193601126101d55760209250549051908152f35b5050346101395781600319360112610139576020906003549051908152f35b50503461013957816003193601126101395760209060ff6006541690519015158152f35b9050346101d55760203660031901126101d557916109c7916109ee8461051460609635916127109687915484610d31565b0495869560ff600654166000146109fe57506109e560055484610d31565b04948592610d5a565b9181519384526020840152820152f35b9050948592610d5a565b50503461013957816003193601126101395760025490516001600160a01b039091168152602090f35b9050346101d55760203660031901126101d55760209282913581526008845220549051908152f35b50503461013957816003193601126101395760809060ff600654169060055490600b54918151931515845260208401528201527389c23890c742d710265dd61be789c71dc8999b126060820152f35b505034610139578160031936011261013957602090600a549051908152f35b9050346101d55760203660031901126101d557803590610ae5610d84565b6101f48211610b285750907f1e82634fb6c2c1adcdab0d277a3b1c270c8ee77953fb82e3bc5146794afe67f291600554908060055582519182526020820152a180f35b606490602084519162461bcd60e51b835282015260136024820152724d6178206275726e207261746520697320352560681b6044820152fd5b915034610cf55782600319360112610cf55780359060249081359067ffffffffffffffff92838311610cf15736602384011215610cf15782820135938411610ce05787602093601f1995610bbc8688601f840116018a610cf9565b808952368482840101116101d5578084879301838b0137880101523388526007835260ff878920541615610cb057600a54916000198314610c9f57505060010180600a558652600881528285872055600a54865260098152848620336bffffffffffffffffffffffff60a01b825416179055600a54938551938452858285015280518096850152865b868110610c8b57505050906060817fe3eadbb16158d377143f373cc59b6e3e5aabe9ed12b586d2a0b5baae692c88519387838884010152601f339701168101030190a380f35b818101830151858201606001528201610c45565b634e487b7160e01b89526011905287fd5b600d9060649388519362461bcd60e51b85528401528201526c4e6f206175746f72697a61646f60981b6044820152fd5b634e487b7160e01b88526041825287fd5b8780fd5b8380fd5b90601f8019910116810190811067ffffffffffffffff821117610d1b57604052565b634e487b7160e01b600052604160045260246000fd5b81810292918115918404141715610d4457565b634e487b7160e01b600052601160045260246000fd5b91908203918211610d4457565b90816020910312610d7f57518015158103610d7f5790565b600080fd5b6001546001600160a01b03163303610d9857565b60405163118cdaa760e01b8152336004820152602490fd5b600260005414610dc1576002600055565b604051633ee5aeb560e01b8152600490fdfea26469706673582212200a3eda475134a9509223544380f03673213ca1796359ae4c9edcf9327180786d64736f6c63430008180033",
  "linkReferences": {},
  "deployedLinkReferences": {}
}