{
  "_format": "hh-sol-artifact-1",
  "contractName": "PropertyNFT",
  "sourceName": "contracts/PropertyNFT.sol",
  "abi": [
    {
      "inputs": [],
      "stateMutability": "nonpayable",
      "type": "constructor"
    },
    {
      "inputs": [
        {
          "internalType": "address",
          "name": "sender",
          "type": "address"
        },
        {
          "internalType": "uint256",
          "name": "tokenId",
          "type": "uint256"
        },
        {
          "internalType": "address",
          "name": "owner",
          "type": "address"
        }
      ],
      "name": "ERC721IncorrectOwner",
      "type": "error"
    },
    {
      "inputs": [
        {
          "internalType": "address",
          "name": "operator",
          "type": "address"
        },
        {
          "internalType": "uint256",
          "name": "tokenId",
          "type": "uint256"
        }
      ],
      "name": "ERC721InsufficientApproval",
      "type": "error"
    },
    {
      "inputs": [
        {
          "internalType": "address",
          "name": "approver",
          "type": "address"
        }
      ],
      "name": "ERC721InvalidApprover",
      "type": "error"
    },
    {
      "inputs": [
        {
          "internalType": "address",
          "name": "operator",
          "type": "address"
        }
      ],
      "name": "ERC721InvalidOperator",
      "type": "error"
    },
    {
      "inputs": [
        {
          "internalType": "address",
          "name": "owner",
          "type": "address"
        }
      ],
      "name": "ERC721InvalidOwner",
      "type": "error"
    },
    {
      "inputs": [
        {
          "internalType": "address",
          "name": "receiver",
          "type": "address"
        }
      ],
      "name": "ERC721InvalidReceiver",
      "type": "error"
    },
    {
      "inputs": [
        {
          "internalType": "address",
          "name": "sender",
          "type": "address"
        }
      ],
      "name": "ERC721InvalidSender",
      "type": "error"
    },
    {
      "inputs": [
        {
          "internalType": "uint256",
          "name": "tokenId",
          "type": "uint256"
        }
      ],
      "name": "ERC721NonexistentToken",
      "type": "error"
    },
    {
      "inputs": [
        {
          "internalType": "address",
          "name": "owner",
          "type": "address"
        }
      ],
      "name": "OwnableInvalidOwner",
      "type": "error"
    },
    {
      "inputs": [
        {
          "internalType": "address",
          "name": "account",
          "type": "address"
        }
      ],
      "name": "OwnableUnauthorizedAccount",
      "type": "error"
    },
    {
      "anonymous": false,
      "inputs": [
        {
          "indexed": true,
          "internalType": "address",
          "name": "owner",
          "type": "address"
        },
        {
          "indexed": true,
          "internalType": "address",
          "name": "approved",
          "type": "address"
        },
        {
          "indexed": true,
          "internalType": "uint256",
          "name": "tokenId",
          "type": "uint256"
        }
      ],
      "name": "Approval",
      "type": "event"
    },
    {
      "anonymous": false,
      "inputs": [
        {
          "indexed": true,
          "internalType": "address",
          "name": "owner",
          "type": "address"
        },
        {
          "indexed": true,
          "internalType": "address",
          "name": "operator",
          "type": "address"
        },
        {
          "indexed": false,
          "internalType": "bool",
          "name": "approved",
          "type": "bool"
        }
      ],
      "name": "ApprovalForAll",
      "type": "event"
    },
    {
      "anonymous": false,
      "inputs": [
        {
          "indexed": true,
          "internalType": "address",
          "name": "previousOwner",
          "type": "address"
        },
        {
          "indexed": true,
          "internalType": "address",
          "name": "newOwner",
          "type": "address"
        }
      ],
      "name": "OwnershipTransferred",
      "type": "event"
    },
    {
      "anonymous": false,
      "inputs": [
        {
          "indexed": true,
          "internalType": "address",
          "name": "from",
          "type": "address"
        },
        {
          "indexed": true,
          "internalType": "address",
          "name": "to",
          "type": "address"
        },
        {
          "indexed": true,
          "internalType": "uint256",
          "name": "tokenId",
          "type": "uint256"
        }
      ],
      "name": "Transfer",
      "type": "event"
    },
    {
      "inputs": [
        {
          "internalType": "address",
          "name": "to",
          "type": "address"
        },
        {
          "internalType": "uint256",
          "name": "tokenId",
          "type": "uint256"
        }
      ],
      "name": "approve",
      "outputs": [],
      "stateMutability": "nonpayable",
      "type": "function"
    },
    {
      "inputs": [
        {
          "internalType": "address",
          "name": "owner",
          "type": "address"
        }
      ],
      "name": "balanceOf",
      "outputs": [
        {
          "internalType": "uint256",
          "name": "",
          "type": "uint256"
        }
      ],
      "stateMutability": "view",
      "type": "function"
    },
    {
      "inputs": [
        {
          "internalType": "uint256",
          "name": "tokenId",
          "type": "uint256"
        }
      ],
      "name": "getApproved",
      "outputs": [
        {
          "internalType": "address",
          "name": "",
          "type": "address"
        }
      ],
      "stateMutability": "view",
      "type": "function"
    },
    {
      "inputs": [
        {
          "internalType": "address",
          "name": "owner",
          "type": "address"
        },
        {
          "internalType": "address",
          "name": "operator",
          "type": "address"
        }
      ],
      "name": "isApprovedForAll",
      "outputs": [
        {
          "internalType": "bool",
          "name": "",
          "type": "bool"
        }
      ],
      "stateMutability": "view",
      "type": "function"
    },
    {
      "inputs": [
        {
          "internalType": "address",
          "name": "to",
          "type": "address"
        },
        {
          "internalType": "string",
          "name": "uri",
          "type": "string"
        }
      ],
      "name": "mintProperty",
      "outputs": [
        {
          "internalType": "uint256",
          "name": "",
          "type": "uint256"
        }
      ],
      "stateMutability": "nonpayable",
      "type": "function"
    },
    {
      "inputs": [],
      "name": "name",
      "outputs": [
        {
          "internalType": "string",
          "name": "",
          "type": "string"
        }
      ],
      "stateMutability": "view",
      "type": "function"
    },
    {
      "inputs": [],
      "name": "nextId",
      "outputs": [
        {
          "internalType": "uint256",
          "name": "",
          "type": "uint256"
        }
      ],
      "stateMutability": "view",
      "type": "function"
    },
    {
      "inputs": [],
      "name": "owner",
      "outputs": [
        {
          "internalType": "address",
          "name": "",
          "type": "address"
        }
      ],
      "stateMutability": "view",
      "type": "function"
    },
    {
      "inputs": [
        {
          "internalType": "uint256",
          "name": "tokenId",
          "type": "uint256"
        }
      ],
      "name": "ownerOf",
      "outputs": [
        {
          "internalType": "address",
          "name": "",
          "type": "address"
        }
      ],
      "stateMutability": "view",
      "type": "function"
    },
    {
      "inputs": [],
      "name": "renounceOwnership",
      "outputs": [],
      "stateMutability": "nonpayable",
      "type": "function"
    },
    {
      "inputs": [
        {
          "internalType": "address",
          "name": "from",
          "type": "address"
        },
        {
          "internalType": "address",
          "name": "to",
          "type": "address"
        },
        {
          "internalType": "uint256",
          "name": "tokenId",
          "type": "uint256"
        }
      ],
      "name": "safeTransferFrom",
      "outputs": [],
      "stateMutability": "nonpayable",
      "type": "function"
    },
    {
      "inputs": [
        {
          "internalType": "address",
          "name": "from",
          "type": "address"
        },
        {
          "internalType": "address",
          "name": "to",
          "type": "address"
        },
        {
          "internalType": "uint256",
          "name": "tokenId",
          "type": "uint256"
        },
        {
          "internalType": "bytes",
          "name": "data",
          "type": "bytes"
        }
      ],
      "name": "safeTransferFrom",
      "outputs": [],
      "stateMutability": "nonpayable",
      "type": "function"
    },
    {
      "inputs": [
        {
          "internalType": "address",
          "name": "operator",
          "type": "address"
        },
        {
          "internalType": "bool",
          "name": "approved",
          "type": "bool"
        }
      ],
      "name": "setApprovalForAll",
      "outputs": [],
      "stateMutability": "nonpayable",
      "type": "function"
    },
    {
      "inputs": [
        {
          "internalType": "bytes4",
          "name": "interfaceId",
          "type": "bytes4"
        }
      ],
      "name": "supportsInterface",
      "outputs": [
        {
          "internalType": "bool",
          "name": "",
          "type": "bool"
        }
      ],
      "stateMutability": "view",
      "type": "function"
    },
    {
      "inputs": [],
      "name": "symbol",
      "outputs": [
        {
          "internalType": "string",
          "name": "",
          "type": "string"
        }
      ],
      "stateMutability": "view",
      "type": "function"
    },
    {
      "inputs": [
        {
          "internalType": "uint256",
          "name": "tokenId",
          "type": "uint256"
        }
      ],
      "name": "tokenURI",
      "outputs": [
        {
          "internalType": "string",
          "name": "",
          "type": "string"
        }
      ],
      "stateMutability": "view",
      "type": "function"
    },
    {
      "inputs": [
        {
          "internalType": "address",
          "name": "from",
          "type": "address"
        },
        {
          "internalType": "address",
          "name": "to",
          "type": "address"
        },
        {
          "internalType": "uint256",
          "name": "tokenId",
          "type": "uint256"
        }
      ],
      "name": "transferFrom",
      "outputs": [],
      "stateMutability": "nonpayable",
      "type": "function"
    },
    {
      "inputs": [
        {
          "internalType": "address",
          "name": "newOwner",
          "type": "address"
        }
      ],
      "name": "transferOwnership",
      "outputs": [],
      "stateMutability": "nonpayable",
      "type": "function"
    }
  ],
  "bytecode": "0x6080346200037d576001600160401b039060408181018381118382101762000367578152600f82526020916e42655a6861732050726f706572747960881b838201528151938285018581108282111762000367578352600585526404250524f560dc1b84860152815181811162000367576000948554916001948584811c941680156200035c575b8385101462000348578190601f94858111620002f5575b5083908583116001146200029157899262000285575b5050600019600383901b1c191690851b1786555b8651928311620002715783548481811c9116801562000266575b8282101462000252578281116200020a575b5080918311600114620001a357508495829394959262000197575b5050600019600383901b1c191690821b1790555b33156200017f5760068054336001600160a01b03198216811790925591519290916001600160a01b0316907f8be0079c531659141344cd1fd0a4f28419497f9722a3daafe3b4186f6b6457e09080a361101f9081620003838239f35b51631e4fbdf760e01b81526004810191909152602490fd5b0151905038806200010f565b90601f198316968487528287209287905b898210620001f2575050838596979810620001d8575b505050811b01905562000123565b015160001960f88460031b161c19169055388080620001ca565b808785968294968601518155019501930190620001b4565b8487528187208380860160051c82019284871062000248575b0160051c019085905b8281106200023c575050620000f4565b8881550185906200022c565b9250819262000223565b634e487b7160e01b87526022600452602487fd5b90607f1690620000e2565b634e487b7160e01b86526041600452602486fd5b015190503880620000b4565b898052848a208894509190601f1984168b5b87828210620002de5750508411620002c4575b505050811b018655620000c8565b015160001960f88460031b161c19169055388080620002b6565b8385015186558b97909501949384019301620002a3565b9091508880528389208580850160051c8201928686106200033e575b918991869594930160051c01915b8281106200032f5750506200009e565b8b81558594508991016200031f565b9250819262000311565b634e487b7160e01b88526022600452602488fd5b93607f169362000087565b634e487b7160e01b600052604160045260246000fd5b600080fdfe6080604081815260048036101561001557600080fd5b600092833560e01c90816301ffc9a714610ab75750806306fdde0314610a06578063081812fc146109cb578063095ea7b3146108ef578063177dc17f1461067957806323b872dd1461066157806342842e0e1461061257806361b8ce8c146105f35780636352211e146105c257806370a082311461056d578063715018a6146105105780638da5cb5b146104e757806395d89b4114610408578063a22cb4651461036b578063b88d4fde14610303578063c87b56dd146101cd578063e985e9c51461017b5763f2fde38b146100e957600080fd5b3461017757602036600319011261017757610102610b63565b9061010b610fbd565b6001600160a01b03918216928315610161575050600654826bffffffffffffffffffffffff60a01b821617600655167f8be0079c531659141344cd1fd0a4f28419497f9722a3daafe3b4186f6b6457e08380a380f35b51631e4fbdf760e01b8152908101849052602490fd5b8280fd5b5050346101c957806003193601126101c95760ff8160209361019b610b63565b6101a3610b7e565b6001600160a01b0391821683526005875283832091168252855220549151911615158152f35b5080fd5b50903461017757602091826003193601126102ff57803580855260028452828520549091906001600160a01b0316156102c8575083526008825280832081519384918181549061021c82610c54565b928386526001928860018216918260001461029e575050600114610260575b858861025c8961024d848a0385610b94565b51928284938452830190610b23565b0390f35b87945081939291528383205b828410610286575050508201018161024d61025c3861023b565b8054848a01860152889550879490930192810161026c565b60ff19168882015294151560051b8701909401945085935061024d925061025c915038905061023b565b825162461bcd60e51b815290810184905260116024820152702737b732bc34b9ba32b73a103a37b5b2b760791b6044820152606490fd5b8380fd5b8382346101c95760803660031901126101c95761031e610b63565b610326610b7e565b9060643567ffffffffffffffff81116103675736602382011215610367576103649381602461035a93369301359101610be8565b9160443591610e2d565b80f35b8480fd5b509034610177578060031936011261017757610385610b63565b9060243591821515809303610367576001600160a01b03169283156103f35750338452600560205280842083855260205280842060ff1981541660ff8416179055519081527f17307eab39ab6107e8899845ad3d59bd9653f200f220920489ca2b5937696c3160203392a380f35b836024925191630b61174360e31b8352820152fd5b8284346104e457806003193601126104e45781519182826001936001549461042f86610c54565b91828552602096876001821691826000146104bd575050600114610461575b50505061025c929161024d910385610b94565b9190869350600183527fb10e2d527612073b26eecdfd717e6a320cf44b4afac2b0732d9fcbe2b7fa0cf65b8284106104a5575050508201018161024d61025c61044e565b8054848a01860152889550879490930192810161048c565b60ff19168782015293151560051b8601909301935084925061024d915061025c905061044e565b80fd5b5050346101c957816003193601126101c95760065490516001600160a01b039091168152602090f35b83346104e457806003193601126104e457610529610fbd565b600680546001600160a01b0319811690915581906001600160a01b03167f8be0079c531659141344cd1fd0a4f28419497f9722a3daafe3b4186f6b6457e08280a380f35b5091346104e45760203660031901126104e4576001600160a01b03610590610b63565b169283156105ad5750806020938392526003845220549051908152f35b91516322718ad960e21b815291820152602490fd5b5091346104e45760203660031901126104e457506105e260209235610f82565b90516001600160a01b039091168152f35b5050346101c957816003193601126101c9576020906007549051908152f35b509190346101c95761062336610c1f565b91835193602085019085821067ffffffffffffffff83111761064e5761036496975052858452610e2d565b634e487b7160e01b875260418852602487fd5b83346104e45761036461067336610c1f565b91610c8e565b5034610177578160031936011261017757610692610b63565b9267ffffffffffffffff602480358281116102ff57366023820112156102ff576106c490369083818801359101610be8565b926106cd610fbd565b60075493600019928386146108de57600195860160078190556001600160a01b03998a169081156108c85780855260209a60028c528a86205416918215159283610897575b81875260038d528b872080548b01905582875260028d528b872080546001600160a01b031916831790557fddf252ad1be2c89b69c2b068fc378daa952ba7f163c4a11628f55a4df523b3ef8780a4610883576007548352600889528783209682519586116108725750506107868654610c54565b601f811161082c575b508791601f85116001146107cc57918495918593956107c1575b50501b9260031b1c19161790555b6007549051908152f35b0151935038806107a9565b92919084601f1981168886528a8620955b8b8983831061081557505050106107fd575b50505050811b0190556107b7565b01519060f88460031b161c19169055388080806107ef565b8686015189559097019694850194889350016107dd565b868352888320601f860160051c8101918a8710610868575b601f0160051c019086905b82811061085d57505061078f565b84815501869061084f565b9091508190610844565b634e487b7160e01b84526041905282fd5b87516339e3563760e11b8152808801849052fd5b600083815260046020526040902080546001600160a01b031916905580875260038d528b8720888154019055610712565b8951633250574960e11b8152808a018690528390fd5b634e487b7160e01b83526011875282fd5b509034610177578060031936011261017757610909610b63565b9160243561091681610f82565b331515806109b8575b8061098f575b610979576001600160a01b039485169482918691167f8c5be1e5ebec7d5bd14f71427d1e84f3dd0314c0f7b2291e5b200ac8c7c3b9258880a48452602052822080546001600160a01b031916909117905580f35b835163a9fbf51f60e01b81523381850152602490fd5b506001600160a01b03811686526005602090815284872033885290528386205460ff1615610925565b506001600160a01b03811633141561091f565b5034610177576020366003190112610177579182602093356109ec81610f82565b50825283528190205490516001600160a01b039091168152f35b8284346104e457806003193601126104e45781519182828354610a2881610c54565b90818452602095600191876001821691826000146104bd575050600114610a5c5750505061025c929161024d910385610b94565b91908693508280527f290decd9548b62a8d60345a988386fc84ba6bc95484008f6362f93160ef3e5635b828410610a9f575050508201018161024d61025c61044e565b8054848a018601528895508794909301928101610a86565b92505034610177576020366003190112610177573563ffffffff60e01b811680910361017757602092506380ac58cd60e01b8114908115610b12575b8115610b01575b5015158152f35b6301ffc9a760e01b14905038610afa565b635b5e139f60e01b81149150610af3565b919082519283825260005b848110610b4f575050826000602080949584010152601f8019910116010190565b602081830181015184830182015201610b2e565b600435906001600160a01b0382168203610b7957565b600080fd5b602435906001600160a01b0382168203610b7957565b90601f8019910116810190811067ffffffffffffffff821117610bb657604052565b634e487b7160e01b600052604160045260246000fd5b67ffffffffffffffff8111610bb657601f01601f191660200190565b929192610bf482610bcc565b91610c026040519384610b94565b829481845281830111610b79578281602093846000960137010152565b6060906003190112610b79576001600160a01b03906004358281168103610b7957916024359081168103610b79579060443590565b90600182811c92168015610c84575b6020831014610c6e57565b634e487b7160e01b600052602260045260246000fd5b91607f1691610c63565b6001600160a01b039182169290918315610e1457600092828452826020956002875260409684888820541696879133151580610d7e575b509060027fddf252ad1be2c89b69c2b068fc378daa952ba7f163c4a11628f55a4df523b3ef9284610d4b575b858352600381528b8320805460010190558683525289812080546001600160a01b0319168517905580a41692838303610d2a5750505050565b6064945051926364283d7b60e01b8452600484015260248301526044820152fd5b600087815260046020526040902080546001600160a01b0319169055848352600381528b83208054600019019055610cf1565b91939450915080610dd3575b15610d9a57859291879138610cc5565b878688610db7576024915190637e27328960e01b82526004820152fd5b604491519063177e802f60e01b82523360048301526024820152fd5b503387148015610df8575b80610d8a5750858252600481523385898420541614610d8a565b5086825260058152878220338352815260ff8883205416610dde565b604051633250574960e11b815260006004820152602490fd5b929092610e3b838583610c8e565b833b610e48575b50505050565b604051630a85bd0160e11b8082523360048301526001600160a01b0392831660248301526044820194909452608060648201529493169260209290918590610e94906084830190610b23565b039483816000978189895af1869181610f3e575b50610f09575050503d600014610f00573d610ec281610bcc565b90610ed06040519283610b94565b81528093823d92013e5b82519283610efb57604051633250574960e11b815260048101849052602490fd5b019050fd5b60609250610eda565b919450915063ffffffff60e01b1603610f26575038808080610e42565b60249060405190633250574960e11b82526004820152fd5b9091508481813d8311610f7b575b610f568183610b94565b81010312610f7757516001600160e01b031981168103610f77579038610ea8565b8680fd5b503d610f4c565b6000818152600260205260409020546001600160a01b0316908115610fa5575090565b60249060405190637e27328960e01b82526004820152fd5b6006546001600160a01b03163303610fd157565b60405163118cdaa760e01b8152336004820152602490fdfea26469706673582212202ea1e526ac20343c34b423d5a64433e0376a8f7abf0af1772a04d601792b8e7964736f6c63430008180033",
  "linkReferences": {},
  "deployedLinkReferences": {}
}