{
  "_format": "hh-sol-artifact-1",
  "contractName": "AuthenticationManager",
  "sourceName": "contracts/AuthenticationManager.sol",
  "abi": [
    {
      "inputs": [],
      "stateMutability": "nonpayable",
      "type": "constructor"
    },
    {
      "inputs": [],
      "name": "AccessControlBadConfirmation",
      "type": "error"
    },
    {
      "inputs": [
        {
          "internalType": "address",
          "name": "account",
          "type": "address"
        },
        {
          "internalType": "bytes32",
          "name": "neededRole",
          "type": "bytes32"
        }
      ],
      "name": "AccessControlUnauthorizedAccount",
      "type": "error"
    },
    {
      "inputs": [],
      "name": "EnforcedPause",
      "type": "error"
    },
    {
      "inputs": [],
      "name": "ExpectedPause",
      "type": "error"
    },
    {
      "inputs": [],
      "name": "ReentrancyGuardReentrantCall",
      "type": "error"
    },
    {
      "anonymous": false,
      "inputs": [
        {
          "indexed": false,
          "internalType": "address",
          "name": "account",
          "type": "address"
        }
      ],
      "name": "Paused",
      "type": "event"
    },
    {
      "anonymous": false,
      "inputs": [
        {
          "indexed": true,
          "internalType": "address",
          "name": "user",
          "type": "address"
        }
      ],
      "name": "RecoveryInitiated",
      "type": "event"
    },
    {
      "anonymous": false,
      "inputs": [
        {
          "indexed": true,
          "internalType": "bytes32",
          "name": "role",
          "type": "bytes32"
        },
        {
          "indexed": true,
          "internalType": "bytes32",
          "name": "previousAdminRole",
          "type": "bytes32"
        },
        {
          "indexed": true,
          "internalType": "bytes32",
          "name": "newAdminRole",
          "type": "bytes32"
        }
      ],
      "name": "RoleAdminChanged",
      "type": "event"
    },
    {
      "anonymous": false,
      "inputs": [
        {
          "indexed": true,
          "internalType": "bytes32",
          "name": "role",
          "type": "bytes32"
        },
        {
          "indexed": true,
          "internalType": "address",
          "name": "account",
          "type": "address"
        },
        {
          "indexed": true,
          "internalType": "address",
          "name": "sender",
          "type": "address"
        }
      ],
      "name": "RoleGranted",
      "type": "event"
    },
    {
      "anonymous": false,
      "inputs": [
        {
          "indexed": true,
          "internalType": "bytes32",
          "name": "role",
          "type": "bytes32"
        },
        {
          "indexed": true,
          "internalType": "address",
          "name": "account",
          "type": "address"
        },
        {
          "indexed": true,
          "internalType": "address",
          "name": "sender",
          "type": "address"
        }
      ],
      "name": "RoleRevoked",
      "type": "event"
    },
    {
      "anonymous": false,
      "inputs": [
        {
          "indexed": false,
          "internalType": "address",
          "name": "account",
          "type": "address"
        }
      ],
      "name": "Unpaused",
      "type": "event"
    },
    {
      "anonymous": false,
      "inputs": [
        {
          "indexed": true,
          "internalType": "address",
          "name": "user",
          "type": "address"
        },
        {
          "indexed": false,
          "internalType": "uint256",
          "name": "blockExpiry",
          "type": "uint256"
        }
      ],
      "name": "UserBlocked",
      "type": "event"
    },
    {
      "anonymous": false,
      "inputs": [
        {
          "indexed": true,
          "internalType": "address",
          "name": "user",
          "type": "address"
        },
        {
          "indexed": false,
          "internalType": "string",
          "name": "sessionId",
          "type": "string"
        },
        {
          "indexed": false,
          "internalType": "uint256",
          "name": "timestamp",
          "type": "uint256"
        }
      ],
      "name": "UserLoggedIn",
      "type": "event"
    },
    {
      "anonymous": false,
      "inputs": [
        {
          "indexed": true,
          "internalType": "address",
          "name": "user",
          "type": "address"
        },
        {
          "indexed": false,
          "internalType": "uint256",
          "name": "timestamp",
          "type": "uint256"
        }
      ],
      "name": "UserLoggedOut",
      "type": "event"
    },
    {
      "anonymous": false,
      "inputs": [
        {
          "indexed": true,
          "internalType": "address",
          "name": "user",
          "type": "address"
        }
      ],
      "name": "UserUnblocked",
      "type": "event"
    },
    {
      "anonymous": false,
      "inputs": [
        {
          "indexed": true,
          "internalType": "address",
          "name": "user",
          "type": "address"
        }
      ],
      "name": "UserVerified",
      "type": "event"
    },
    {
      "inputs": [],
      "name": "BLOCK_DURATION",
      "outputs": [
        {
          "internalType": "uint256",
          "name": "",
          "type": "uint256"
        }
      ],
      "stateMutability": "view",
      "type": "function"
    },
    {
      "inputs": [],
      "name": "DEFAULT_ADMIN_ROLE",
      "outputs": [
        {
          "internalType": "bytes32",
          "name": "",
          "type": "bytes32"
        }
      ],
      "stateMutability": "view",
      "type": "function"
    },
    {
      "inputs": [],
      "name": "MAX_FAILED_ATTEMPTS",
      "outputs": [
        {
          "internalType": "uint256",
          "name": "",
          "type": "uint256"
        }
      ],
      "stateMutability": "view",
      "type": "function"
    },
    {
      "inputs": [],
      "name": "MODERATOR_ROLE",
      "outputs": [
        {
          "internalType": "bytes32",
          "name": "",
          "type": "bytes32"
        }
      ],
      "stateMutability": "view",
      "type": "function"
    },
    {
      "inputs": [],
      "name": "SESSION_TIMEOUT",
      "outputs": [
        {
          "internalType": "uint256",
          "name": "",
          "type": "uint256"
        }
      ],
      "stateMutability": "view",
      "type": "function"
    },
    {
      "inputs": [],
      "name": "VERIFIED_USER_ROLE",
      "outputs": [
        {
          "internalType": "bytes32",
          "name": "",
          "type": "bytes32"
        }
      ],
      "stateMutability": "view",
      "type": "function"
    },
    {
      "inputs": [
        {
          "internalType": "address",
          "name": "user",
          "type": "address"
        },
        {
          "internalType": "uint256",
          "name": "duration",
          "type": "uint256"
        }
      ],
      "name": "blockUser",
      "outputs": [],
      "stateMutability": "nonpayable",
      "type": "function"
    },
    {
      "inputs": [
        {
          "internalType": "bytes32",
          "name": "role",
          "type": "bytes32"
        }
      ],
      "name": "getRoleAdmin",
      "outputs": [
        {
          "internalType": "bytes32",
          "name": "",
          "type": "bytes32"
        }
      ],
      "stateMutability": "view",
      "type": "function"
    },
    {
      "inputs": [
        {
          "internalType": "address",
          "name": "user",
          "type": "address"
        }
      ],
      "name": "getUserSecurity",
      "outputs": [
        {
          "components": [
            {
              "internalType": "bool",
              "name": "isBlocked",
              "type": "bool"
            },
            {
              "internalType": "uint256",
              "name": "blockExpiry",
              "type": "uint256"
            },
            {
              "internalType": "uint256",
              "name": "failedLoginAttempts",
              "type": "uint256"
            },
            {
              "internalType": "uint256",
              "name": "lastFailedLogin",
              "type": "uint256"
            },
            {
              "internalType": "bool",
              "name": "twoFactorEnabled",
              "type": "bool"
            },
            {
              "internalType": "bytes32",
              "name": "recoveryHash",
              "type": "bytes32"
            }
          ],
          "internalType": "struct AuthenticationManager.UserSecurity",
          "name": "",
          "type": "tuple"
        }
      ],
      "stateMutability": "view",
      "type": "function"
    },
    {
      "inputs": [
        {
          "internalType": "address",
          "name": "user",
          "type": "address"
        }
      ],
      "name": "getUserSession",
      "outputs": [
        {
          "components": [
            {
              "internalType": "uint256",
              "name": "loginTime",
              "type": "uint256"
            },
            {
              "internalType": "uint256",
              "name": "lastActivity",
              "type": "uint256"
            },
            {
              "internalType": "bool",
              "name": "isActive",
              "type": "bool"
            },
            {
              "internalType": "string",
              "name": "sessionId",
              "type": "string"
            }
          ],
          "internalType": "struct AuthenticationManager.UserSession",
          "name": "",
          "type": "tuple"
        }
      ],
      "stateMutability": "view",
      "type": "function"
    },
    {
      "inputs": [
        {
          "internalType": "bytes32",
          "name": "role",
          "type": "bytes32"
        },
        {
          "internalType": "address",
          "name": "account",
          "type": "address"
        }
      ],
      "name": "grantRole",
      "outputs": [],
      "stateMutability": "nonpayable",
      "type": "function"
    },
    {
      "inputs": [
        {
          "internalType": "address",
          "name": "user",
          "type": "address"
        }
      ],
      "name": "hasAnyRole",
      "outputs": [
        {
          "internalType": "bool",
          "name": "",
          "type": "bool"
        }
      ],
      "stateMutability": "view",
      "type": "function"
    },
    {
      "inputs": [
        {
          "internalType": "bytes32",
          "name": "role",
          "type": "bytes32"
        },
        {
          "internalType": "address",
          "name": "account",
          "type": "address"
        }
      ],
      "name": "hasRole",
      "outputs": [
        {
          "internalType": "bool",
          "name": "",
          "type": "bool"
        }
      ],
      "stateMutability": "view",
      "type": "function"
    },
    {
      "inputs": [
        {
          "internalType": "bytes32",
          "name": "recoveryProof",
          "type": "bytes32"
        }
      ],
      "name": "initiateRecovery",
      "outputs": [],
      "stateMutability": "nonpayable",
      "type": "function"
    },
    {
      "inputs": [
        {
          "internalType": "address",
          "name": "user",
          "type": "address"
        }
      ],
      "name": "isSessionValid",
      "outputs": [
        {
          "internalType": "bool",
          "name": "",
          "type": "bool"
        }
      ],
      "stateMutability": "view",
      "type": "function"
    },
    {
      "inputs": [
        {
          "internalType": "address",
          "name": "user",
          "type": "address"
        }
      ],
      "name": "isUserBlocked",
      "outputs": [
        {
          "internalType": "bool",
          "name": "",
          "type": "bool"
        }
      ],
      "stateMutability": "view",
      "type": "function"
    },
    {
      "inputs": [
        {
          "internalType": "string",
          "name": "sessionId",
          "type": "string"
        }
      ],
      "name": "login",
      "outputs": [],
      "stateMutability": "nonpayable",
      "type": "function"
    },
    {
      "inputs": [],
      "name": "logout",
      "outputs": [],
      "stateMutability": "nonpayable",
      "type": "function"
    },
    {
      "inputs": [],
      "name": "pause",
      "outputs": [],
      "stateMutability": "nonpayable",
      "type": "function"
    },
    {
      "inputs": [],
      "name": "paused",
      "outputs": [
        {
          "internalType": "bool",
          "name": "",
          "type": "bool"
        }
      ],
      "stateMutability": "view",
      "type": "function"
    },
    {
      "inputs": [
        {
          "internalType": "address",
          "name": "user",
          "type": "address"
        }
      ],
      "name": "recordFailedLogin",
      "outputs": [],
      "stateMutability": "nonpayable",
      "type": "function"
    },
    {
      "inputs": [
        {
          "internalType": "bytes32",
          "name": "role",
          "type": "bytes32"
        },
        {
          "internalType": "address",
          "name": "callerConfirmation",
          "type": "address"
        }
      ],
      "name": "renounceRole",
      "outputs": [],
      "stateMutability": "nonpayable",
      "type": "function"
    },
    {
      "inputs": [
        {
          "internalType": "bytes32",
          "name": "role",
          "type": "bytes32"
        },
        {
          "internalType": "address",
          "name": "account",
          "type": "address"
        }
      ],
      "name": "revokeRole",
      "outputs": [],
      "stateMutability": "nonpayable",
      "type": "function"
    },
    {
      "inputs": [
        {
          "internalType": "string",
          "name": "",
          "type": "string"
        }
      ],
      "name": "sessionToUser",
      "outputs": [
        {
          "internalType": "address",
          "name": "",
          "type": "address"
        }
      ],
      "stateMutability": "view",
      "type": "function"
    },
    {
      "inputs": [
        {
          "internalType": "bytes32",
          "name": "recoveryHash",
          "type": "bytes32"
        }
      ],
      "name": "setRecoveryHash",
      "outputs": [],
      "stateMutability": "nonpayable",
      "type": "function"
    },
    {
      "inputs": [
        {
          "internalType": "bytes4",
          "name": "interfaceId",
          "type": "bytes4"
        }
      ],
      "name": "supportsInterface",
      "outputs": [
        {
          "internalType": "bool",
          "name": "",
          "type": "bool"
        }
      ],
      "stateMutability": "view",
      "type": "function"
    },
    {
      "inputs": [
        {
          "internalType": "address",
          "name": "user",
          "type": "address"
        }
      ],
      "name": "unblockUser",
      "outputs": [],
      "stateMutability": "nonpayable",
      "type": "function"
    },
    {
      "inputs": [],
      "name": "unpause",
      "outputs": [],
      "stateMutability": "nonpayable",
      "type": "function"
    },
    {
      "inputs": [],
      "name": "updateActivity",
      "outputs": [],
      "stateMutability": "nonpayable",
      "type": "function"
    },
    {
      "inputs": [
        {
          "internalType": "address",
          "name": "",
          "type": "address"
        }
      ],
      "name": "userSecurity",
      "outputs": [
        {
          "internalType": "bool",
          "name": "isBlocked",
          "type": "bool"
        },
        {
          "internalType": "uint256",
          "name": "blockExpiry",
          "type": "uint256"
        },
        {
          "internalType": "uint256",
          "name": "failedLoginAttempts",
          "type": "uint256"
        },
        {
          "internalType": "uint256",
          "name": "lastFailedLogin",
          "type": "uint256"
        },
        {
          "internalType": "bool",
          "name": "twoFactorEnabled",
          "type": "bool"
        },
        {
          "internalType": "bytes32",
          "name": "recoveryHash",
          "type": "bytes32"
        }
      ],
      "stateMutability": "view",
      "type": "function"
    },
    {
      "inputs": [
        {
          "internalType": "address",
          "name": "",
          "type": "address"
        }
      ],
      "name": "userSessions",
      "outputs": [
        {
          "internalType": "uint256",
          "name": "loginTime",
          "type": "uint256"
        },
        {
          "internalType": "uint256",
          "name": "lastActivity",
          "type": "uint256"
        },
        {
          "internalType": "bool",
          "name": "isActive",
          "type": "bool"
        },
        {
          "internalType": "string",
          "name": "sessionId",
          "type": "string"
        }
      ],
      "stateMutability": "view",
      "type": "function"
    },
    {
      "inputs": [
        {
          "internalType": "address",
          "name": "",
          "type": "address"
        }
      ],
      "name": "verifiedUsers",
      "outputs": [
        {
          "internalType": "bool",
          "name": "",
          "type": "bool"
        }
      ],
      "stateMutability": "view",
      "type": "function"
    },
    {
      "inputs": [
        {
          "internalType": "address",
          "name": "user",
          "type": "address"
        }
      ],
      "name": "verifyUser",
      "outputs": [],
      "stateMutability": "nonpayable",
      "type": "function"
    }
  ],
  "bytecode": "0x60806040523462000036576001805562000019336200003b565b506200002533620000bb565b506040516119f090816200015e8239f35b600080fd5b6001600160a01b031660008181527fad3228b676f7d3cd4284a5443f17f1962b36e491b30a40b2405849e597ba5fb5602052604081205490919060ff16620000b757818052816020526040822081835260205260408220600160ff19825416179055339160008051602062001b4e8339815191528180a4600190565b5090565b6001600160a01b031660008181527ff179aafcc4ff8137fca1ef3b9ec4d165f87016ba123e7973fba770bc55e240e360205260408120549091907f71f3d55856e4058ed06ee057d79ada615f65cdf5f9ee88181b914225088f834f9060ff166200015857808352826020526040832082845260205260408320600160ff1982541617905560008051602062001b4e833981519152339380a4600190565b50509056fe608060408181526004908136101561001657600080fd5b600092833560e01c90816301ffc9a7146111f157508063079b1fe2146111025780631893eae8146110c75780631b0e1ffa146110965780631b8beafe146110795780631f3c99c314610fd7578063248a9ca314610fad5780632f2ff15d14610f8557806336568abe14610f3e5783816339d319e514610ec3575080633a3266aa14610e505780633a7d280c14610af85780633f4ba83a14610a8e5780634d81312014610a105780635c975abb146109ec5780635cffc2dd1461092b57806362bb758f146108b657806364256802146108905780636f2b34df14610874578063797669c91461084b5780638404ddb31461070d5780638456cb59146106b257806391d148541461066c57806397fb4e1e146105f75780639ba9e3b5146104a0578063a217fddf14610485578063b4a77b0e14610456578063ba2f9e6c1461040f578063c083ad99146103f1578063d3ae71da1461032e578063d547741f146102f1578063e35fe366146102af5763f2e8b67d1461019157600080fd5b346102ab57806003193601126102ab576101a9611245565b91602435926101b6611634565b6001600160a01b038116936101cc8515156114ca565b801561026f5784865282602052838620600160ff19825416179055420180421161025c57917f1105cbf79ba9aec674e68bafc67545b3e180703742c1ad6af4ab85fd0d5c4cdd9391602093868852828552600184892001556003845260ff600284892001541661024d575b508486528252600181862001549051908152a280f35b6102569061171f565b38610237565b634e487b7160e01b865260118352602486fd5b835162461bcd60e51b8152602081850152601660248201527524b73b30b634b210313637b1b590323ab930ba34b7b760511b6044820152606490fd5b8280fd5b8382346102ed5760203660031901126102ed5760209160ff9082906001600160a01b036102da611245565b1681526005855220541690519015158152f35b5080fd5b50346102ab57806003193601126102ab5761032a91356103256001610314611260565b9383875286602052862001546116d6565b611907565b5080f35b5082346103ee57602091826003193601126102ed5761034b611245565b8280528284528183206001600160a01b039091168084529084528183205460ff16929083156103c4575b8315610386575b5050519015158152f35b7f2ea52e8a0f8c1b6d1df1c2d3360b2e65af84e6442f1590d354ba73e1efac67c1825281855282822090825284528190205460ff169150838061037c565b60008051602061199b833981519152825281855282822081835285528282205460ff169350610375565b80fd5b8382346102ed57816003193601126102ed5760209051620151808152f35b8382346102ed576020906104223661140d565b82610435835192838151938492016113c5565b6006908201908152819003830190205490516001600160a01b039091168152f35b8382346102ed5760203660031901126102ed5760209061047c610477611245565b6115b6565b90519015158152f35b8382346102ed57816003193601126102ed5751908152602090f35b50346102ab57602091826003193601126105f3576104bc611245565b8460a084516104ca816112e2565b828152828782015282868201528260608201528260808201520152848052848452828520338652845260ff838620541680156105ca575b15610598576001600160a01b0316845280835292819020815160c0949092610528846112e2565b60ff83541615159485855260018401549080860191825260028501549183870192835260a0600560ff60038901549760608b01988952890154169760808a0198151589520154970196875283519788525190870152519085015251606084015251151560808301525160a0820152f35b5082606492519162461bcd60e51b8352820152600d60248201526c1058d8d95cdcc819195b9a5959609a1b6044820152fd5b5060008051602061199b8339815191528552848452828520338652845260ff8386205416610501565b8380fd5b50346102ab5760203660031901126102ab5781359161061d61061833611524565b61147e565b82156106325733845260205282206005015580f35b6020606492519162461bcd60e51b83528201526015602482015274092dcecc2d8d2c840e4cac6deeccae4f240d0c2e6d605b1b6044820152fd5b5090346102ab57816003193601126102ab578160209360ff9261068d611260565b903582528186528282206001600160a01b039091168252855220549151911615158152f35b8382346102ed57816003193601126102ed5760207f62e78cea01bee320cd4e420270b5ea74000d11b0c9f74754ebdbfc544b05a258916106f061169c565b6106f861197c565b600160ff19600254161760025551338152a180f35b5090346102ab576020806003193601126105f3576107296116fc565b61073161197c565b338452818152600583852001541561081457825181810190833582528281528481019181831067ffffffffffffffff841117610801578286528151902033875284845260058688200154036107c9578580600287878733855252822060ff1981541681558260018201550155337f33ab58932e5fab0ba732cd2b11abbb48d7949bbaef42472e37f95f8f55376b408280a26001805580f35b60847524b73b30b634b2103932b1b7bb32b93c90383937b7b360511b9160649462461bcd60e51b855260448201526016858201520152fd5b634e487b7160e01b875260418552602487fd5b606492519162461bcd60e51b83528201526014602482015273139bc81c9958dbdd995c9e481a185cda081cd95d60621b6044820152fd5b8382346102ed57816003193601126102ed576020905160008051602061199b8339815191528152f35b8382346102ed57816003193601126102ed576020905160058152f35b8382346102ed5760203660031901126102ed5760209061047c6108b1611245565b611524565b50346102ab5760203660031901126102ab5760c09281906001600160a01b036108dd611245565b168152836020522060ff81541692600182015492600283015490600560ff600386015494860154169401549481519615158752602087015285015260608401521515608083015260a0820152f35b8382346102ed57602091826003193601126103ee57816109e89161094d611245565b606080845161095b816112b0565b84815288810185905285810185905201526001600160a01b03168152600385522082519290610989846112b0565b805484526001810154918585019283526109b5600360ff60028501541693838801941515855201611320565b926060860193845281519687968188525190870152519085015251151560608401525160808084015260a08301906113e8565b0390f35b8382346102ed57816003193601126102ed5760209060ff6002541690519015158152f35b8382346102ed5760203660031901126102ed57610a66610a2e611245565b610a3661169c565b6001600160a01b03811692610a4c8415156114ca565b83855260056020528420805460ff191660011790556117dc565b507fa6625d2d26e786e2f473111bea4b2fcdbbf1863d883a2359989ce3a103d2972a8280a280f35b5090346102ab57826003193601126102ab57610aa861169c565b6002549060ff821615610aea575060ff1916600255513381527f5db9ee0a495bf2e6ff9c91a7834c1ba4fdd244a5e8aa4e537bd38aeae4b073aa90602090a180f35b8251638dfc202b60e01b8152fd5b50346102ab57610b073661140d565b90610b106116fc565b610b1861197c565b610b21336115b6565b610e1c57815115610de55780519180519360209384830195610b448183896113c5565b600690820190815281900385019020546001600160a01b0316610da2573386526003845260ff6002848820015416610d94575b825194610b83866112b0565b4286528486014281526003858801976001988981526060820193878552338c52838a52888c2092518355518a830155600282019051151560ff8019835416911617905501905180519067ffffffffffffffff8211610d8157908291610bea89959454611276565b601f8111610d48575b5084908b601f8411600114610cb6579280610c9a989693610c5e96937fe38efcaf29a288492e4fabc5062d40d3c7c749cc4c1505cfd7581bedaf1d81579c9b999692610cab575b5050600019600383901b1c1916908c1b1790555b86518093819287519283916113c5565b81016006815203019020336bffffffffffffffffffffffff60a01b825416179055338852855286600284822001558251928084528301906113e8565b9242908201528033930390a2805580f35b015190503880610c3a565b90918b9392601f198416868452888420935b818110610d305750927fe38efcaf29a288492e4fabc5062d40d3c7c749cc4c1505cfd7581bedaf1d81579b9a9895928592610c9a9b9996610c5e999610610d17575b505050811b019055610c4e565b015160001960f88460031b161c19169055388080610d0a565b8383015185558d998f97909501949384019301610cc8565b610d7190848d52868d20601f850160051c810191888610610d77575b601f0160051c019061150d565b38610bf3565b9091508190610d64565b634e487b7160e01b8a526041855260248afd5b610d9d3361171f565b610b77565b825162461bcd60e51b8152908101849052601960248201527f53657373696f6e20494420616c726561647920696e20757365000000000000006044820152606490fd5b5162461bcd60e51b81526020818401526012602482015271125b9d985b1a59081cd95cdcda5bdb88125160721b6044820152606490fd5b5162461bcd60e51b8152602081840152600f60248201526e155cd95c881a5cc8189b1bd8dad959608a1b6044820152606490fd5b8382346102ed5760203660031901126102ed579081906001600160a01b03610e76611245565b1681526003602052206109e8815491600181015493610e9f600360ff6002850154169301611320565b918151958695865260208601521515908401526080606084015260808301906113e8565b919050346102ed5760203660031901126102ed57600290610ee2611245565b610eea611634565b6001600160a01b031693610eff8515156114ca565b848452602052822060ff19815416815582600182015501557f798117ec059ab8d319461ef2502b1f9d8a47cd966bfd1f3e23b6f26c30bebb778280a280f35b508290346102ed57806003193601126102ed57610f59611260565b90336001600160a01b03831603610f76575061032a919235611907565b5163334bd91960e11b81528390fd5b50346102ab57806003193601126102ab5761032a9135610fa86001610314611260565b61188e565b5090346102ab5760203660031901126102ab57816020936001923581528085522001549051908152f35b5090346102ab57826003193601126102ab57610ff16116fc565b338352600360205260ff60028385200154161561104357506110123361171f565b514281527f22c3ce09984495411cfaa9c6d5bfd078ede4d3a3d9d3249f506a59861d68e72160203392a26001805580f35b6020606492519162461bcd60e51b8352820152601160248201527027379030b1ba34bb329039b2b9b9b4b7b760791b6044820152fd5b8382346102ed57816003193601126102ed5760209051610e108152f35b8382346102ed57816003193601126102ed576110b461061833611524565b3382526003602052600142918320015580f35b8382346102ed57816003193601126102ed57602090517f2ea52e8a0f8c1b6d1df1c2d3360b2e65af84e6442f1590d354ba73e1efac67c18152f35b508290346102ed5760203660031901126102ed5761111e611245565b611126611634565b6001600160a01b03168083526020849052818320600201805491929160001981146111de57600101905581835283602052808320426003820155600560028201541015611171578380f35b600160ff19825416179055610e104201908142116111cb57906020918495847f1105cbf79ba9aec674e68bafc67545b3e180703742c1ad6af4ab85fd0d5c4cdd9596528352816001828820015551908152a2808280808380f35b634e487b7160e01b845260118552602484fd5b634e487b7160e01b855260118652602485fd5b849084346102ab5760203660031901126102ab573563ffffffff60e01b81168091036102ab5760209250637965db0b60e01b8114908115611234575b5015158152f35b6301ffc9a760e01b1490508361122d565b600435906001600160a01b038216820361125b57565b600080fd5b602435906001600160a01b038216820361125b57565b90600182811c921680156112a6575b602083101461129057565b634e487b7160e01b600052602260045260246000fd5b91607f1691611285565b6080810190811067ffffffffffffffff8211176112cc57604052565b634e487b7160e01b600052604160045260246000fd5b60c0810190811067ffffffffffffffff8211176112cc57604052565b90601f8019910116810190811067ffffffffffffffff8211176112cc57604052565b9060405191826000825461133381611276565b908184526020946001916001811690816000146113a35750600114611364575b505050611362925003836112fe565b565b600090815285812095935091905b81831061138b5750506113629350820101388080611353565b85548884018501529485019487945091830191611372565b9250505061136294925060ff191682840152151560051b820101388080611353565b60005b8381106113d85750506000910152565b81810151838201526020016113c8565b90602091611401815180928185528580860191016113c5565b601f01601f1916010190565b602060031982011261125b5767ffffffffffffffff60043581811161125b578260238201121561125b5780600401359182116112cc576040519261145b601f8401601f1916602001856112fe565b8284526024838301011161125b5781600092602460209301838601378301015290565b1561148557565b60405162461bcd60e51b815260206004820152601a60248201527f496e76616c6964206f7220657870697265642073657373696f6e0000000000006044820152606490fd5b156114d157565b60405162461bcd60e51b8152602060048201526014602482015273496e76616c69642075736572206164647265737360601b6044820152606490fd5b818110611518575050565b6000815560010161150d565b6001600160a01b0316600090815260036020526040808220905190611548826112b0565b80548252600181015491602081019283526060611578600360ff6002860154169460408501951515865201611320565b91015251156115b2575162015180810180911161159e57421161159b5750600190565b90565b634e487b7160e01b82526011600452602482fd5b5090565b60018060a01b0316600052600460205260406000206040516115d7816112e2565b60ff82541615908115815260a06005600185015494856020850152600281015460408501526003810154606085015260ff60048201541615156080850152015491015261162e57421161162957600190565b600090565b50600090565b3360009081527ff179aafcc4ff8137fca1ef3b9ec4d165f87016ba123e7973fba770bc55e240e3602052604090205460008051602061199b8339815191529060ff161561167e5750565b6044906040519063e2517d3f60e01b82523360048301526024820152fd5b3360009081527fad3228b676f7d3cd4284a5443f17f1962b36e491b30a40b2405849e597ba5fb5602052604081205460ff161561167e5750565b80600052600060205260406000203360005260205260ff604060002054161561167e5750565b60026001541461170d576002600155565b604051633ee5aeb560e01b8152600490fd5b60018060a01b03166000908082526003602052611759602061174660036040862001611320565b81604051938285809451938492016113c5565b810160068152030190206bffffffffffffffffffffffff60a01b8154169055815260036020526003604082208281558260018201558260028201550161179f8154611276565b806117a957505050565b82601f82116001146117ba57505055565b90918082526117d8601f60208420940160051c84016001850161150d565b5555565b6001600160a01b031660008181527f41b7bf6dce9cb0689ef494f7d1f7741a87ca2e092c71c912c830e95121dba29e60205260408120549091907f2ea52e8a0f8c1b6d1df1c2d3360b2e65af84e6442f1590d354ba73e1efac67c19060ff1661188957808352826020526040832082845260205260408320600160ff198254161790557f2f8788117e7eff1d82e926ec794901d17c78024a50270940304540a733656f0d339380a4600190565b505090565b9060009180835282602052604083209160018060a01b03169182845260205260ff6040842054161560001461188957808352826020526040832082845260205260408320600160ff198254161790557f2f8788117e7eff1d82e926ec794901d17c78024a50270940304540a733656f0d339380a4600190565b9060009180835282602052604083209160018060a01b03169182845260205260ff6040842054166000146118895780835282602052604083208284526020526040832060ff1981541690557ff6391f5c32d9c69d2a47ea670b442974b53935d1edc7fd64eb21e047a839171b339380a4600190565b60ff6002541661198857565b60405163d93c066560e01b8152600490fdfe71f3d55856e4058ed06ee057d79ada615f65cdf5f9ee88181b914225088f834fa2646970667358221220821a4e0e80abd7f6770d038025d1f1f0bd63567819267a404e17e23ecdd602cc64736f6c634300081800332f8788117e7eff1d82e926ec794901d17c78024a50270940304540a733656f0d",
  "linkReferences": {},
  "deployedLinkReferences": {}
}