{
  "_format": "hh-sol-artifact-1",
  "contractName": "GlobalConfigurationSystem",
  "sourceName": "contracts/GlobalConfigurationSystem.sol",
  "abi": [
    {
      "inputs": [],
      "stateMutability": "nonpayable",
      "type": "constructor"
    },
    {
      "inputs": [],
      "name": "AccessControlBadConfirmation",
      "type": "error"
    },
    {
      "inputs": [
        {
          "internalType": "address",
          "name": "account",
          "type": "address"
        },
        {
          "internalType": "bytes32",
          "name": "neededRole",
          "type": "bytes32"
        }
      ],
      "name": "AccessControlUnauthorizedAccount",
      "type": "error"
    },
    {
      "inputs": [],
      "name": "EnforcedPause",
      "type": "error"
    },
    {
      "inputs": [],
      "name": "ExpectedPause",
      "type": "error"
    },
    {
      "inputs": [],
      "name": "ReentrancyGuardReentrantCall",
      "type": "error"
    },
    {
      "anonymous": false,
      "inputs": [
        {
          "indexed": true,
          "internalType": "string",
          "name": "categoryName",
          "type": "string"
        },
        {
          "indexed": false,
          "internalType": "string",
          "name": "description",
          "type": "string"
        }
      ],
      "name": "CategoryCreated",
      "type": "event"
    },
    {
      "anonymous": false,
      "inputs": [
        {
          "indexed": true,
          "internalType": "string",
          "name": "categoryName",
          "type": "string"
        },
        {
          "indexed": false,
          "internalType": "bool",
          "name": "isActive",
          "type": "bool"
        }
      ],
      "name": "CategoryUpdated",
      "type": "event"
    },
    {
      "anonymous": false,
      "inputs": [
        {
          "indexed": false,
          "internalType": "uint256",
          "name": "oldVersion",
          "type": "uint256"
        },
        {
          "indexed": false,
          "internalType": "uint256",
          "name": "newVersion",
          "type": "uint256"
        }
      ],
      "name": "ConfigVersionUpdated",
      "type": "event"
    },
    {
      "anonymous": false,
      "inputs": [
        {
          "indexed": false,
          "internalType": "bool",
          "name": "enabled",
          "type": "bool"
        },
        {
          "indexed": false,
          "internalType": "address",
          "name": "triggeredBy",
          "type": "address"
        }
      ],
      "name": "EmergencyModeToggled",
      "type": "event"
    },
    {
      "anonymous": false,
      "inputs": [
        {
          "indexed": true,
          "internalType": "string",
          "name": "key",
          "type": "string"
        },
        {
          "indexed": false,
          "internalType": "string",
          "name": "value",
          "type": "string"
        },
        {
          "indexed": false,
          "internalType": "string",
          "name": "dataType",
          "type": "string"
        }
      ],
      "name": "ParameterCreated",
      "type": "event"
    },
    {
      "anonymous": false,
      "inputs": [
        {
          "indexed": true,
          "internalType": "string",
          "name": "key",
          "type": "string"
        },
        {
          "indexed": false,
          "internalType": "address",
          "name": "lockedBy",
          "type": "address"
        }
      ],
      "name": "ParameterLocked",
      "type": "event"
    },
    {
      "anonymous": false,
      "inputs": [
        {
          "indexed": true,
          "internalType": "string",
          "name": "key",
          "type": "string"
        },
        {
          "indexed": false,
          "internalType": "address",
          "name": "unlockedBy",
          "type": "address"
        }
      ],
      "name": "ParameterUnlocked",
      "type": "event"
    },
    {
      "anonymous": false,
      "inputs": [
        {
          "indexed": true,
          "internalType": "string",
          "name": "key",
          "type": "string"
        },
        {
          "indexed": false,
          "internalType": "string",
          "name": "oldValue",
          "type": "string"
        },
        {
          "indexed": false,
          "internalType": "string",
          "name": "newValue",
          "type": "string"
        },
        {
          "indexed": false,
          "internalType": "address",
          "name": "updatedBy",
          "type": "address"
        }
      ],
      "name": "ParameterUpdated",
      "type": "event"
    },
    {
      "anonymous": false,
      "inputs": [
        {
          "indexed": false,
          "internalType": "address",
          "name": "account",
          "type": "address"
        }
      ],
      "name": "Paused",
      "type": "event"
    },
    {
      "anonymous": false,
      "inputs": [
        {
          "indexed": true,
          "internalType": "bytes32",
          "name": "role",
          "type": "bytes32"
        },
        {
          "indexed": true,
          "internalType": "bytes32",
          "name": "previousAdminRole",
          "type": "bytes32"
        },
        {
          "indexed": true,
          "internalType": "bytes32",
          "name": "newAdminRole",
          "type": "bytes32"
        }
      ],
      "name": "RoleAdminChanged",
      "type": "event"
    },
    {
      "anonymous": false,
      "inputs": [
        {
          "indexed": true,
          "internalType": "bytes32",
          "name": "role",
          "type": "bytes32"
        },
        {
          "indexed": true,
          "internalType": "address",
          "name": "account",
          "type": "address"
        },
        {
          "indexed": true,
          "internalType": "address",
          "name": "sender",
          "type": "address"
        }
      ],
      "name": "RoleGranted",
      "type": "event"
    },
    {
      "anonymous": false,
      "inputs": [
        {
          "indexed": true,
          "internalType": "bytes32",
          "name": "role",
          "type": "bytes32"
        },
        {
          "indexed": true,
          "internalType": "address",
          "name": "account",
          "type": "address"
        },
        {
          "indexed": true,
          "internalType": "address",
          "name": "sender",
          "type": "address"
        }
      ],
      "name": "RoleRevoked",
      "type": "event"
    },
    {
      "anonymous": false,
      "inputs": [
        {
          "indexed": false,
          "internalType": "address",
          "name": "account",
          "type": "address"
        }
      ],
      "name": "Unpaused",
      "type": "event"
    },
    {
      "inputs": [],
      "name": "ADMIN_ROLE",
      "outputs": [
        {
          "internalType": "bytes32",
          "name": "",
          "type": "bytes32"
        }
      ],
      "stateMutability": "view",
      "type": "function"
    },
    {
      "inputs": [],
      "name": "CONFIG_MANAGER_ROLE",
      "outputs": [
        {
          "internalType": "bytes32",
          "name": "",
          "type": "bytes32"
        }
      ],
      "stateMutability": "view",
      "type": "function"
    },
    {
      "inputs": [],
      "name": "DEFAULT_ADMIN_ROLE",
      "outputs": [
        {
          "internalType": "bytes32",
          "name": "",
          "type": "bytes32"
        }
      ],
      "stateMutability": "view",
      "type": "function"
    },
    {
      "inputs": [
        {
          "internalType": "uint256",
          "name": "",
          "type": "uint256"
        }
      ],
      "name": "allCategoryNames",
      "outputs": [
        {
          "internalType": "string",
          "name": "",
          "type": "string"
        }
      ],
      "stateMutability": "view",
      "type": "function"
    },
    {
      "inputs": [
        {
          "internalType": "uint256",
          "name": "",
          "type": "uint256"
        }
      ],
      "name": "allParameterKeys",
      "outputs": [
        {
          "internalType": "string",
          "name": "",
          "type": "string"
        }
      ],
      "stateMutability": "view",
      "type": "function"
    },
    {
      "inputs": [
        {
          "internalType": "string[]",
          "name": "keys",
          "type": "string[]"
        },
        {
          "internalType": "string[]",
          "name": "values",
          "type": "string[]"
        }
      ],
      "name": "batchUpdateParameters",
      "outputs": [],
      "stateMutability": "nonpayable",
      "type": "function"
    },
    {
      "inputs": [
        {
          "internalType": "string",
          "name": "",
          "type": "string"
        }
      ],
      "name": "categories",
      "outputs": [
        {
          "internalType": "string",
          "name": "name",
          "type": "string"
        },
        {
          "internalType": "string",
          "name": "description",
          "type": "string"
        },
        {
          "internalType": "bool",
          "name": "isActive",
          "type": "bool"
        }
      ],
      "stateMutability": "view",
      "type": "function"
    },
    {
      "inputs": [],
      "name": "configVersion",
      "outputs": [
        {
          "internalType": "uint256",
          "name": "",
          "type": "uint256"
        }
      ],
      "stateMutability": "view",
      "type": "function"
    },
    {
      "inputs": [
        {
          "internalType": "string",
          "name": "categoryName",
          "type": "string"
        },
        {
          "internalType": "string",
          "name": "description",
          "type": "string"
        }
      ],
      "name": "createCategory",
      "outputs": [],
      "stateMutability": "nonpayable",
      "type": "function"
    },
    {
      "inputs": [
        {
          "internalType": "string",
          "name": "key",
          "type": "string"
        },
        {
          "internalType": "string",
          "name": "value",
          "type": "string"
        },
        {
          "internalType": "string",
          "name": "dataType",
          "type": "string"
        },
        {
          "internalType": "string",
          "name": "description",
          "type": "string"
        },
        {
          "internalType": "string",
          "name": "categoryName",
          "type": "string"
        },
        {
          "internalType": "uint256",
          "name": "minValue",
          "type": "uint256"
        },
        {
          "internalType": "uint256",
          "name": "maxValue",
          "type": "uint256"
        }
      ],
      "name": "createParameter",
      "outputs": [],
      "stateMutability": "nonpayable",
      "type": "function"
    },
    {
      "inputs": [],
      "name": "emergencyContact",
      "outputs": [
        {
          "internalType": "address",
          "name": "",
          "type": "address"
        }
      ],
      "stateMutability": "view",
      "type": "function"
    },
    {
      "inputs": [],
      "name": "emergencyMode",
      "outputs": [
        {
          "internalType": "bool",
          "name": "",
          "type": "bool"
        }
      ],
      "stateMutability": "view",
      "type": "function"
    },
    {
      "inputs": [],
      "name": "getAllCategories",
      "outputs": [
        {
          "internalType": "string[]",
          "name": "",
          "type": "string[]"
        }
      ],
      "stateMutability": "view",
      "type": "function"
    },
    {
      "inputs": [],
      "name": "getAllParameters",
      "outputs": [
        {
          "internalType": "string[]",
          "name": "",
          "type": "string[]"
        }
      ],
      "stateMutability": "view",
      "type": "function"
    },
    {
      "inputs": [
        {
          "internalType": "string",
          "name": "categoryName",
          "type": "string"
        }
      ],
      "name": "getCategoryParameters",
      "outputs": [
        {
          "internalType": "string[]",
          "name": "",
          "type": "string[]"
        }
      ],
      "stateMutability": "view",
      "type": "function"
    },
    {
      "inputs": [
        {
          "internalType": "string",
          "name": "key",
          "type": "string"
        }
      ],
      "name": "getParameter",
      "outputs": [
        {
          "internalType": "string",
          "name": "value",
          "type": "string"
        },
        {
          "internalType": "string",
          "name": "dataType",
          "type": "string"
        },
        {
          "internalType": "string",
          "name": "description",
          "type": "string"
        },
        {
          "internalType": "uint256",
          "name": "lastUpdated",
          "type": "uint256"
        },
        {
          "internalType": "address",
          "name": "updatedBy",
          "type": "address"
        },
        {
          "internalType": "bool",
          "name": "isLocked",
          "type": "bool"
        }
      ],
      "stateMutability": "view",
      "type": "function"
    },
    {
      "inputs": [
        {
          "internalType": "string",
          "name": "key",
          "type": "string"
        }
      ],
      "name": "getParameterAsAddress",
      "outputs": [
        {
          "internalType": "address",
          "name": "",
          "type": "address"
        }
      ],
      "stateMutability": "view",
      "type": "function"
    },
    {
      "inputs": [
        {
          "internalType": "string",
          "name": "key",
          "type": "string"
        }
      ],
      "name": "getParameterAsBool",
      "outputs": [
        {
          "internalType": "bool",
          "name": "",
          "type": "bool"
        }
      ],
      "stateMutability": "view",
      "type": "function"
    },
    {
      "inputs": [
        {
          "internalType": "string",
          "name": "key",
          "type": "string"
        }
      ],
      "name": "getParameterAsUint",
      "outputs": [
        {
          "internalType": "uint256",
          "name": "",
          "type": "uint256"
        }
      ],
      "stateMutability": "view",
      "type": "function"
    },
    {
      "inputs": [
        {
          "internalType": "string",
          "name": "key",
          "type": "string"
        }
      ],
      "name": "getParameterValue",
      "outputs": [
        {
          "internalType": "string",
          "name": "",
          "type": "string"
        }
      ],
      "stateMutability": "view",
      "type": "function"
    },
    {
      "inputs": [
        {
          "internalType": "bytes32",
          "name": "role",
          "type": "bytes32"
        }
      ],
      "name": "getRoleAdmin",
      "outputs": [
        {
          "internalType": "bytes32",
          "name": "",
          "type": "bytes32"
        }
      ],
      "stateMutability": "view",
      "type": "function"
    },
    {
      "inputs": [
        {
          "internalType": "bytes32",
          "name": "role",
          "type": "bytes32"
        },
        {
          "internalType": "address",
          "name": "account",
          "type": "address"
        }
      ],
      "name": "grantRole",
      "outputs": [],
      "stateMutability": "nonpayable",
      "type": "function"
    },
    {
      "inputs": [
        {
          "internalType": "bytes32",
          "name": "role",
          "type": "bytes32"
        },
        {
          "internalType": "address",
          "name": "account",
          "type": "address"
        }
      ],
      "name": "hasRole",
      "outputs": [
        {
          "internalType": "bool",
          "name": "",
          "type": "bool"
        }
      ],
      "stateMutability": "view",
      "type": "function"
    },
    {
      "inputs": [],
      "name": "incrementConfigVersion",
      "outputs": [],
      "stateMutability": "nonpayable",
      "type": "function"
    },
    {
      "inputs": [
        {
          "internalType": "string",
          "name": "key",
          "type": "string"
        }
      ],
      "name": "lockParameter",
      "outputs": [],
      "stateMutability": "nonpayable",
      "type": "function"
    },
    {
      "inputs": [
        {
          "internalType": "string",
          "name": "",
          "type": "string"
        }
      ],
      "name": "parameters",
      "outputs": [
        {
          "internalType": "string",
          "name": "key",
          "type": "string"
        },
        {
          "internalType": "string",
          "name": "value",
          "type": "string"
        },
        {
          "internalType": "string",
          "name": "dataType",
          "type": "string"
        },
        {
          "internalType": "string",
          "name": "description",
          "type": "string"
        },
        {
          "internalType": "uint256",
          "name": "lastUpdated",
          "type": "uint256"
        },
        {
          "internalType": "address",
          "name": "updatedBy",
          "type": "address"
        },
        {
          "internalType": "bool",
          "name": "isLocked",
          "type": "bool"
        },
        {
          "internalType": "uint256",
          "name": "minValue",
          "type": "uint256"
        },
        {
          "internalType": "uint256",
          "name": "maxValue",
          "type": "uint256"
        }
      ],
      "stateMutability": "view",
      "type": "function"
    },
    {
      "inputs": [],
      "name": "pause",
      "outputs": [],
      "stateMutability": "nonpayable",
      "type": "function"
    },
    {
      "inputs": [],
      "name": "paused",
      "outputs": [
        {
          "internalType": "bool",
          "name": "",
          "type": "bool"
        }
      ],
      "stateMutability": "view",
      "type": "function"
    },
    {
      "inputs": [
        {
          "internalType": "bytes32",
          "name": "role",
          "type": "bytes32"
        },
        {
          "internalType": "address",
          "name": "callerConfirmation",
          "type": "address"
        }
      ],
      "name": "renounceRole",
      "outputs": [],
      "stateMutability": "nonpayable",
      "type": "function"
    },
    {
      "inputs": [
        {
          "internalType": "bytes32",
          "name": "role",
          "type": "bytes32"
        },
        {
          "internalType": "address",
          "name": "account",
          "type": "address"
        }
      ],
      "name": "revokeRole",
      "outputs": [],
      "stateMutability": "nonpayable",
      "type": "function"
    },
    {
      "inputs": [
        {
          "internalType": "address",
          "name": "newContact",
          "type": "address"
        }
      ],
      "name": "setEmergencyContact",
      "outputs": [],
      "stateMutability": "nonpayable",
      "type": "function"
    },
    {
      "inputs": [
        {
          "internalType": "bool",
          "name": "enabled",
          "type": "bool"
        }
      ],
      "name": "setEmergencyMode",
      "outputs": [],
      "stateMutability": "nonpayable",
      "type": "function"
    },
    {
      "inputs": [
        {
          "internalType": "bytes4",
          "name": "interfaceId",
          "type": "bytes4"
        }
      ],
      "name": "supportsInterface",
      "outputs": [
        {
          "internalType": "bool",
          "name": "",
          "type": "bool"
        }
      ],
      "stateMutability": "view",
      "type": "function"
    },
    {
      "inputs": [
        {
          "internalType": "string",
          "name": "key",
          "type": "string"
        }
      ],
      "name": "unlockParameter",
      "outputs": [],
      "stateMutability": "nonpayable",
      "type": "function"
    },
    {
      "inputs": [],
      "name": "unpause",
      "outputs": [],
      "stateMutability": "nonpayable",
      "type": "function"
    },
    {
      "inputs": [
        {
          "internalType": "string",
          "name": "categoryName",
          "type": "string"
        },
        {
          "internalType": "bool",
          "name": "isActive",
          "type": "bool"
        }
      ],
      "name": "updateCategory",
      "outputs": [],
      "stateMutability": "nonpayable",
      "type": "function"
    },
    {
      "inputs": [
        {
          "internalType": "string",
          "name": "key",
          "type": "string"
        },
        {
          "internalType": "string",
          "name": "newValue",
          "type": "string"
        }
      ],
      "name": "updateParameter",
      "outputs": [],
      "stateMutability": "nonpayable",
      "type": "function"
    },
    {
      "inputs": [
        {
          "internalType": "address",
          "name": "",
          "type": "address"
        },
        {
          "internalType": "string",
          "name": "",
          "type": "string"
        }
      ],
      "name": "userPermissions",
      "outputs": [
        {
          "internalType": "bool",
          "name": "",
          "type": "bool"
        }
      ],
      "stateMutability": "view",
      "type": "function"
    }
  ],
  "bytecode": "0x608060405234620012515760016000556200001a33620012cd565b5062000026336200134e565b506200003233620013f1565b506001600890815560098054610100600160a81b0319163390921b610100600160a81b0316919091179055620000c66200006b6200128d565b600681526573797374656d60d01b602082015262000088620012ad565b90602482527f53797374656d2d7769646520636f6e66696775726174696f6e20706172616d656020830152637465727360e01b6040830152620016c7565b62000124620000d46200128d565b6008815267736563757269747960c01b6020820152620000f36200128d565b90601b82527f53656375726974792d72656c6174656420706172616d657465727300000000006020830152620016c7565b6200017e620001326200128d565b60048152636465666960e01b60208201526200014d6200128d565b90601b82527f4465466920616e64207374616b696e6720706172616d657465727300000000006020830152620016c7565b620001df6200018c6200128d565b600b81526a6d61726b6574706c61636560a81b6020820152620001ae6200128d565b90601982527f4d61726b6574706c61636520636f6e66696775726174696f6e000000000000006020830152620016c7565b6200023b620001ed6200128d565b60068152651cdbd8da585b60d21b60208201526200020a6200128d565b90601d82527f536f6369616c20666561747572657320636f6e66696775726174696f6e0000006020830152620016c7565b62000417620002496200128d565b600681526573797374656d60d01b602082015260036200040660206200026e6200128d565b93600c85526b706c6174666f726d5f66656560a01b82860152620002916200128d565b8481526203235360ec1b83820152620002a96200128d565b60078152663ab4b73a191a9b60c91b84820152620002c66200128d565b90601c82527f506c6174666f726d2066656520696e20626173697320706f696e74730000000085830152620002fa62001256565b9288845285840152604083015260608201524260808201523360a0820152600060c0820152600060e08201526103e861010082015260076101006040518581816200034c8c838151938492016200148f565b81018a81520301902092620003638151856200150a565b6200037586820151600186016200150a565b620003886040820151600286016200150a565b6200039a60608201518986016200150a565b6080810151600485015560018060a01b0360a08201511660058501549060c0830151151560a01b60ff60a01b169160018060a81b0319161717600585015560e081015160068501550151910155620003f2856200161f565b81604051938285809451938492016200148f565b81016004815203019020016200168f565b620005f8620004256200128d565b600681526573797374656d60d01b602082015260036200040660206200044a6200128d565b93601485527f6d61785f7472616e73616374696f6e5f73697a65000000000000000000000000828601526200047e6200128d565b60078152660313030303030360cc1b838201526200049b6200128d565b60078152663ab4b73a191a9b60c91b84820152620004b8620012ad565b90602282527f4d6178696d756d207472616e73616374696f6e2073697a6520696e20746f6b6585830152616e7360f01b6040830152620004f762001256565b9288845285840152604083015260608201524260808201523360a0820152600060c0820152600160e08201526298968061010082015260076101006040518581816200054a8c838151938492016200148f565b81018a81520301902092620005618151856200150a565b6200057386820151600186016200150a565b620005866040820151600286016200150a565b6200059860608201518986016200150a565b6080810151600485015560a08082015160058601805460c08501516001600160a81b03199091166001600160a01b03939093169290921791151590921b60ff60a01b1617905560e081015160068501550151910155620003f2856200161f565b620006b3620006066200128d565b600681526573797374656d60d01b6020820152620006236200128d565b601081526f6d61696e74656e616e63655f6d6f646560801b60208201526200064a6200128d565b600581526466616c736560d81b6020820152620006666200128d565b916004835263189bdbdb60e21b6020840152620006826200128d565b93601785527f53797374656d206d61696e74656e616e6365206d6f646500000000000000000060208601526200193a565b6200078a620006c16200128d565b6008815267736563757269747960c01b6020820152620006e06200128d565b601681527f6d61785f6461696c795f7472616e73616374696f6e73000000000000000000006020820152620007146200128d565b600381526203130360ec1b60208201526200072e6200128d565b9160078352663ab4b73a191a9b60c91b60208401526200074d620012ad565b93602385527f4d6178696d756d206461696c79207472616e73616374696f6e7320706572207560208601526239b2b960e91b604086015262001a77565b62000853620007986200128d565b6008815267736563757269747960c01b6020820152620007b76200128d565b601781527f66726175645f646574656374696f6e5f656e61626c65640000000000000000006020820152620007eb6200128d565b60048152637472756560e01b6020820152620008066200128d565b916004835263189bdbdb60e21b6020840152620008226200128d565b93601685527f456e61626c6520667261756420646574656374696f6e0000000000000000000060208601526200193a565b62000910620008616200128d565b6008815267736563757269747960c01b6020820152620008806200128d565b6011815270189b1858dadb1a5cdd17d95b98589b1959607a1b6020820152620008a86200128d565b60048152637472756560e01b6020820152620008c36200128d565b916004835263189bdbdb60e21b6020840152620008df6200128d565b93601b85527f456e61626c65206164647265737320626c61636b6c697374696e67000000000060208601526200193a565b620009c86200091e6200128d565b60048152636465666960e01b6020820152620009396200128d565b601081526f1b5a5b97dcdd185ad957d85b5bdd5b9d60821b6020820152620009606200128d565b60018152603160f81b6020820152620009786200128d565b9160078352663ab4b73a191a9b60c91b6020840152620009976200128d565b93601e85527f4d696e696d756d207374616b6520616d6f756e7420696e20746f6b656e730000602086015262001a77565b62000add620009d66200128d565b60048152636465666960e01b60208201526003620004066020620009f96200128d565b93601285527136b0bc2fb9ba30b5b2afb23ab930ba34b7b760711b8286015262000a226200128d565b8481526233363560e81b8382015262000a3a6200128d565b60078152663ab4b73a191a9b60c91b8482015262000a576200128d565b90601e82527f4d6178696d756d207374616b65206475726174696f6e20696e206461797300008583015262000a8b62001256565b9288845285840152604083015260608201524260808201523360a0820152600060c0820152600160e082015261044761010082015260076101006040518581816200054a8c838151938492016200148f565b62000bf162000aeb6200128d565b60048152636465666960e01b6020820152600362000406602062000b0e6200128d565b93601085526f626173655f7265776172645f7261746560801b8286015262000b356200128d565b60048152630313030360e41b8382015262000b4f6200128d565b60078152663ab4b73a191a9b60c91b8482015262000b6c6200128d565b908482527f4261736520726577617264207261746520696e20626173697320706f696e74738583015262000b9f62001256565b9288845285840152604083015260608201524260808201523360a0820152600060c0820152606460e082015261138861010082015260076101006040518581816200054a8c838151938492016200148f565b62000d0562000bff6200128d565b600b81526a6d61726b6574706c61636560a81b6020820152600362000406602062000c296200128d565b93600b85526a6c697374696e675f66656560a81b8286015262000c4b6200128d565b6002815261031360f41b8382015262000c636200128d565b60078152663ab4b73a191a9b60c91b8482015262000c806200128d565b90601982527f4e4654206c697374696e672066656520696e20746f6b656e73000000000000008583015262000cb462001256565b9288845285840152604083015260608201524260808201523360a0820152600060c0820152600060e0820152606461010082015260076101006040518581816200054a8c838151938492016200148f565b62000e1c62000d136200128d565b600b81526a6d61726b6574706c61636560a81b6020820152600362000406602062000d3d6200128d565b93600b85526a0726f79616c74795f6361760ac1b8286015262000d5f6200128d565b60048152630313030360e41b8382015262000d796200128d565b60078152663ab4b73a191a9b60c91b8482015262000d966200128d565b90601f82527f4d6178696d756d20726f79616c747920696e20626173697320706f696e7473008583015262000dca62001256565b9288845285840152604083015260608201524260808201523360a0820152600060c0820152600060e08201526107d061010082015260076101006040518581816200054a8c838151938492016200148f565b62000f5362000e2a6200128d565b600b81526a6d61726b6574706c61636560a81b6020820152600362000406602062000e546200128d565b93601485527f61756374696f6e5f6d696e5f6475726174696f6e0000000000000000000000008286015262000e886200128d565b60048152630333630360e41b8382015262000ea26200128d565b60078152663ab4b73a191a9b60c91b8482015262000ebf620012ad565b90602382527f4d696e696d756d2061756374696f6e206475726174696f6e20696e207365636f85830152626e647360e81b604083015262000eff62001256565b9288845285840152604083015260608201524260808201523360a0820152600060c082015261070860e082015262093a8061010082015260076101006040518581816200054a8c838151938492016200148f565b6200107162000f616200128d565b60068152651cdbd8da585b60d21b6020820152600362000406602062000f866200128d565b93600f85526e0dac2f0bee0dee6e8bed8cadccee8d608b1b8286015262000fac6200128d565b8481526203530360ec1b8382015262000fc46200128d565b60078152663ab4b73a191a9b60c91b8482015262000fe1620012ad565b90602182527f4d6178696d756d20706f7374206c656e67746820696e2063686172616374657285830152607360f81b60408301526200101f62001256565b9288845285840152604083015260608201524260808201523360a0820152600060c0820152603260e08201526107d061010082015260076101006040518581816200054a8c838151938492016200148f565b6200112b6200107f6200128d565b60068152651cdbd8da585b60d21b60208201526200109c6200128d565b601081526f656e61626c655f7265616374696f6e7360801b6020820152620010c36200128d565b60048152637472756560e01b6020820152620010de6200128d565b916004835263189bdbdb60e21b6020840152620010fa6200128d565b93601585527f456e61626c6520706f7374207265616374696f6e73000000000000000000000060208601526200193a565b62001241620011396200128d565b60068152651cdbd8da585b60d21b602082015260036200040660206200115e6200128d565b93600d85526c6d61785f666f6c6c6f7765727360981b82860152620011826200128d565b6005815264031303030360dc1b838201526200119d6200128d565b60078152663ab4b73a191a9b60c91b84820152620011ba6200128d565b90601a82527f4d6178696d756d20666f6c6c6f7765727320706572207573657200000000000085830152620011ee62001256565b9288845285840152604083015260608201524260808201523360a0820152600060c0820152606460e0820152620186a061010082015260076101006040518581816200054a8c838151938492016200148f565b604051612d04908162001ae68239f35b600080fd5b6040519061012082016001600160401b038111838210176200127757604052565b634e487b7160e01b600052604160045260246000fd5b60408051919082016001600160401b038111838210176200127757604052565b60405190606082016001600160401b038111838210176200127757604052565b6001600160a01b031660008181527fac33ff75c19e70fe83507db0d683fd3465c996598dc972688b7ace676c89077b602052604081205490919060ff166200134a5781805260026020526040822081835260205260408220600160ff198254161790553391600080516020620047ea8339815191528180a4600190565b5090565b6001600160a01b031660008181527fe5ebfa64fca8d502a8e50c1edffd2c31ef4dad5b396e65d9f397fb028f74abc560205260408120549091907fa49807205ce4d355092ef5a8a18f56e8913cf4a201fbe287825b095693c217759060ff16620013ec5780835260026020526040832082845260205260408320600160ff19825416179055600080516020620047ea833981519152339380a4600190565b505090565b6001600160a01b031660008181527f455bcf707dbdd9fc1d300a533235ffff2ca7525e23bda2409d087a15abc5c5c360205260408120549091907fbbfb55d933c2bfa638763473275b1d84c4418e58d26cf9d2cd5758237756d9f09060ff16620013ec5780835260026020526040832082845260205260408320600160ff19825416179055600080516020620047ea833981519152339380a4600190565b60005b838110620014a35750506000910152565b818101518382015260200162001492565b90600182811c92168015620014e6575b6020831014620014d057565b634e487b7160e01b600052602260045260246000fd5b91607f1691620014c4565b818110620014fd575050565b60008155600101620014f1565b81519192916001600160401b03811162001277576200152a8254620014b4565b601f8111620015dd575b50602080601f83116001146200157457508192939460009262001568575b50508160011b916000199060031b1c1916179055565b01519050388062001552565b90601f19831695846000526020600020926000905b888210620015c457505083600195969710620015aa575b505050811b019055565b015160001960f88460031b161c19169055388080620015a0565b8060018596829496860151815501950193019062001589565b6200160d90836000526020600020601f840160051c8101916020851062001614575b601f0160051c0190620014f1565b3862001534565b9091508190620015ff565b6006549068010000000000000000821015620012775760018201806006558210156200167957600660005262001677917ff652222313e28459528d920b65115c16c04f3efc82aaedc97be59f3f377c0d3f016200150a565b565b634e487b7160e01b600052603260045260246000fd5b90815468010000000000000000811015620012775760018101808455811015620016795762001677926000526020600020016200150a565b6040805190916020916001600160401b0391908381018381118282101762001277578552600080825285519360808501908111858210176200186f57865282845284840193878552868101906001918281526060820194855288519686519789818a81838c019c6200173a918e6200148f565b8101600481520301902092516200175290846200150a565b5162001761908385016200150a565b600282019051151560ff198254169060ff161790556003019251928351906801000000000000000094858311620019265788908254848455808510620018a1575b50019084528784208385925b8a8585106200188357505050505050600754928310156200186f578201806007558210156200185b57928262001818869462001829946200184c988860077f56081419cbfaaabb436f017ce46cc0cf36f2ba343740e5698e2a02bb6d6976b59c9a5220016200150a565b84519283928392519283916200148f565b81010390209482519382859384528251928184809387015286860191016200148f565b601f01601f19168101030190a2565b634e487b7160e01b81526032600452602490fd5b634e487b7160e01b82526041600452602482fd5b8162001892849351866200150a565b019201920191908490620017ae565b838752858584892092830192015b828110620018bf575050620017a2565b909192935087620018d18254620014b4565b80620018e6575b50500190858b9392620018af565b8d601f808311600114620019025750505081555b8738620018d8565b6200191c918585528420920160051c8201858301620014f1565b81835555620018fa565b634e487b7160e01b85526041600452602485fd5b92939190936200194962001256565b92858452602084019283526040840191825260608401908152608084019042825260a085019133835260c08601916000835260e08701946000865261010088019660008852604051808c818151602081930191620019a7926200148f565b8101600381520360200190209851620019c1908a6200150a565b51620019d19060018a016200150a565b51620019e190600289016200150a565b51620019f190600388016200150a565b5160048601559051600585018054925160ff60a01b90151560a01b166001600160a01b039092166001600160a81b0319909316929092171790555160068301555160079091015562001a43826200161f565b604051818180935160208193019162001a5c926200148f565b8101600481520360200190206003019062001677916200168f565b929391909362001a8662001256565b92858452602084019283526040840191825260608401908152608084019042825260a085019133835260c08601916000835260e0870194600186526101008801966103e88852604051808c818151602081930191620019a7926200148f56fe6080604052600436101561001257600080fd5b60003560e01c8063010b228c14610277578063017dcc701461027257806301ffc9a71461026d5780630905f560146102685780630ddb1c64146102635780631ccb7f111461025e57806321ac5c7214610259578063248a9ca31461025457806324d91d161461024f57806328a2176f1461024a5780632f2ff15d1461024557806333c127401461024057806335dba3d21461023b57806336568abe146102365780633f4ba83a14610231578063561b29cc1461022c57806357393b3c146102275780635c975abb1461022257806375b238fc1461021d5780638456cb591461021857806391284a89146102135780639171491b1461020e57806391d1485414610209578063978beb0b146102045780639e647aac146101ff578063a0c7f799146101fa578063a217fddf146101f5578063a939e8ef146101f0578063b224b4e9146101eb578063be32b3f8146101e6578063d37ba3b3146101e1578063d547741f146101dc578063d691cedb146101d7578063d79f4568146101d2578063dadd0a57146101cd578063dd64d24d146101c8578063e95a2383146101c35763fd4b0c66146101be57600080fd5b611847565b6117d7565b6117b9565b611729565b611638565b6115e7565b6115a8565b611474565b611377565b611283565b611256565b61123a565b6111ff565b611117565b61104b565b610ff9565b610f69565b610ecd565b610e60565b610e25565b610e02565b610d73565b610ccc565b610c62565b610c1b565b610b93565b610b0e565b610a6b565b610a11565b61095e565b61092f565b61082d565b61078a565b610721565b6106d7565b610681565b6105a9565b346102da5760003660031901126102da57610290612034565b60085460001981146102d55760408160017f1bb77262a26a44ae3760714fa9d90610d8df7dd11c58e05acf4cdee9c41a389e93018060085582519182526020820152a1005b611920565b600080fd5b634e487b7160e01b600052604160045260246000fd5b602081019081106001600160401b0382111761031057604052565b6102df565b604081019081106001600160401b0382111761031057604052565b90601f801991011681019081106001600160401b0382111761031057604052565b6040519061012082018281106001600160401b0382111761031057604052565b60405190608082018281106001600160401b0382111761031057604052565b6001600160401b03811161031057601f01601f191660200190565b81601f820112156102da578035906103c282610390565b926103d06040519485610330565b828452602083830101116102da57816000926020809301838601378301015290565b60206003198201126102da57600435906001600160401b0382116102da5761041c916004016103ab565b90565b60005b8381106104325750506000910152565b8181015183820152602001610422565b906104556020928281519485920161041f565b0190565b602061047291816040519382858094519384920161041f565b8101600381520301902090565b602061049891816040519382858094519384920161041f565b8101600481520301902090565b90600182811c921680156104d5575b60208310146104bf57565b634e487b7160e01b600052602260045260246000fd5b91607f16916104b4565b906040519182600082546104f2816104a5565b908184526020946001916001811690816000146105625750600114610523575b50505061052192500383610330565b565b600090815285812095935091905b81831061054a5750506105219350820101388080610512565b85548884018501529485019487945091830191610531565b9250505061052194925060ff191682840152151560051b820101388080610512565b9060209161059d8151809281855285808601910161041f565b601f01601f1916010190565b346102da576106296105c26105bd366103f2565b610459565b6105cb816104df565b906105d8600182016104df565b6105e4600283016104df565b9160ff6105f3600383016104df565b9361065360048401549561064560058601549361063760076006890154980154986040519c8d9c8d610120908181520190610584565b8c810360208e015290610584565b908a820360408c0152610584565b9088820360608a0152610584565b94608087015260018060a01b03811660a087015260a01c16151560c085015260e08401526101008301520390f35b346102da5760203660031901126102da5760043563ffffffff60e01b81168091036102da57602090637965db0b60e01b81149081156106c6575b506040519015158152f35b6301ffc9a760e01b149050386106bb565b346102da5760003660031901126102da57602060ff600954166040519015158152f35b634e487b7160e01b600052603260045260246000fd5b90602061041c928181520190610584565b346102da5760203660031901126102da576004356007548110156102da576107726107869160076000527fa66cc928b5edb82af9bd49922954155ab7b0942694bea4ce44661d9a8736c688016104df565b604051918291602083526020830190610584565b0390f35b346102da5760e03660031901126102da5760046001600160401b0381358181116102da576107bb90369084016103ab565b6024358281116102da576107d290369085016103ab565b916044358181116102da576107ea90369086016103ab565b906064358181116102da5761080290369087016103ab565b906084359081116102da5761082b9561081d913691016103ab565b9160c4359460a43594611936565b005b346102da5761078661083e366103f2565b61085a61085361084d83610459565b546104a5565b1515611f0c565b60016108c8600261086a84610459565b01926105bd6040519485610882602082018093611f58565b0395610896601f1997888101835282610330565b51902060405163189bdbdb60e21b60208201908152602488810183529091906108bf9082610330565b51902014611fdc565b016040516108ea816108de602082018095611f58565b03848101835282610330565b5190209060405161091b60208201928261090f85600490637472756560e01b81520190565b03908101835282610330565b519020604051911481529081906020820190565b346102da5760203660031901126102da5760043560005260026020526020600160406000200154604051908152f35b346102da5760403660031901126102da576004356001600160401b0381116102da5761098e9036906004016103ab565b602435801515918282036102da57610a07602091610a027f1c2bca41c52a1a24e0bb477053636f8d2725131e38dcfa04f2357f5fc03a4e3e946109cf6120b0565b6109e56109de61084d8561047f565b1515611b4c565b60026109f08461047f565b019060ff801983541691151516179055565b611ec7565b92604051908152a2005b346102da576107866107726001610a39610a2a366103f2565b6105bd61085361084d83610459565b016104df565b602435906001600160a01b03821682036102da57565b600435906001600160a01b03821682036102da57565b346102da5760403660031901126102da5761082b600435610a8a610a3f565b90806000526002602052610aa5600160406000200154612108565b612346565b6020808201906020835283518092526040830192602060408460051b8301019501936000915b848310610ae05750505050505090565b9091929394958480610afe600193603f198682030187528a51610584565b9801930193019194939290610ad0565b346102da576003610b35610b21366103f2565b610b306109de61084d8361047f565b61047f565b018054610b41816113de565b90610b4f6040519283610330565b8082526000928352602080842093908084015b838310610b7757604051806107868782610aaa565b6001828192610b85896104df565b815201960192019194610b62565b346102da5760403660031901126102da57610bac610a55565b6024356001600160401b0381116102da57610bfe602061078693610bd660ff9436906004016103ab565b9060018060a01b0316600052600582526040600020826040519483868095519384920161041f565b820190815203019020546040519116151581529081906020820190565b346102da5760403660031901126102da57610c34610a3f565b336001600160a01b03821603610c505761082b906004356123e0565b60405163334bd91960e11b8152600490fd5b346102da5760003660031901126102da57610c7b612034565b60015460ff811615610cba5760ff19166001557f5db9ee0a495bf2e6ff9c91a7834c1ba4fdd244a5e8aa4e537bd38aeae4b073aa6020604051338152a1005b604051638dfc202b60e01b8152600490fd5b346102da57610d16610ce0610b30366103f2565b610ce9816104df565b90610d2460ff6002610cfd600185016104df565b9301541691604051948594606086526060860190610584565b908482036020860152610584565b90151560408301520390f35b9060406003198301126102da576001600160401b036004358181116102da5783610d5c916004016103ab565b926024359182116102da5761041c916004016103ab565b346102da57610d8136610d30565b610d896120b0565b610d9861085361084d84610459565b60ff6005610da584610459565b015460a01c16610dc75761082b91610dc260ff6009541615611aaa565b612527565b60405162461bcd60e51b815260206004820152601360248201527214185c985b595d195c881a5cc81b1bd8dad959606a1b6044820152606490fd5b346102da5760003660031901126102da57602060ff600154166040519015158152f35b346102da5760003660031901126102da5760206040517fa49807205ce4d355092ef5a8a18f56e8913cf4a201fbe287825b095693c217758152f35b346102da5760003660031901126102da57610e79612034565b60015460ff8116610ebb5760019060ff1916176001557f62e78cea01bee320cd4e420270b5ea74000d11b0c9f74754ebdbfc544b05a2586020604051338152a1005b60405163d93c066560e01b8152600490fd5b346102da5760203660031901126102da57610ee6610a55565b610eee612034565b6001600160a01b03811615610f245760098054610100600160a81b03191660089290921b610100600160a81b0316919091179055005b60405162461bcd60e51b815260206004820152601960248201527f496e76616c696420656d657267656e637920636f6e74616374000000000000006044820152606490fd5b346102da5760003660031901126102da57600654610f86816113de565b610f936040519182610330565b8181526020916020820160066000527ff652222313e28459528d920b65115c16c04f3efc82aaedc97be59f3f377c0d3f936000915b838310610fdd57604051806107868782610aaa565b6001828192610feb896104df565b815201960192019194610fc8565b346102da5760403660031901126102da57602060ff61103f611019610a3f565b6004356000526002845260406000209060018060a01b0316600052602052604060002090565b54166040519015158152f35b346102da5761109561105c366103f2565b611064612034565b61107361085361084d83610459565b600561107e82610459565b01805460ff60a01b1916600160a01b179055611ec7565b7ff1d63fd7c491d21c82a76f03d77b6873ecadc676a622657ee5dd8b8d0d180d906020604051338152a2005b9491926110f060a0959897946110e26110fe9460c08a5260c08a0190610584565b9088820360208a0152610584565b908682036040880152610584565b956060850152600180841b031660808401521515910152565b346102da57611128610a2a366103f2565b611130610351565b611139826104df565b815261078661114a600184016104df565b6020830190815261115d600285016104df565b9260408101938452611171600386016104df565b6060820190815260048601546080830190815260058701546001600160a01b03811660a085019081529297919490936111f2926111eb929190610100906007906111c760ff60c086019a60a01c168a9015159052565b600681015460e085015201549101525196519751945192516001600160a01b031690565b9251151590565b92604051968796876110c1565b346102da5760003660031901126102da5760206040517fbbfb55d933c2bfa638763473275b1d84c4418e58d26cf9d2cd5758237756d9f08152f35b346102da5760003660031901126102da57602060405160008152f35b346102da5760003660031901126102da5760095460405160089190911c6001600160a01b03168152602090f35b346102da5761129136610d30565b9061129a6120b0565b6112a661084d8261047f565b6113325761132d6113207f56081419cbfaaabb436f017ce46cc0cf36f2ba343740e5698e2a02bb6d6976b5926113176040516112e1816102f5565b600081526112ed610371565b908382528760208301526113046040830160019052565b60608201526113128361047f565b6126d3565b610a0281611df5565b9260405191829182610710565b0390a2005b60405162461bcd60e51b815260206004820152601760248201527f43617465676f727920616c7265616479206578697374730000000000000000006044820152606490fd5b346102da5760203660031901126102da576004358015158091036102da5760407fc35ed978e97c366b3a5f9375508bcfbca850fca66bf334b9477118918e6eaa40916113c1612034565b60ff196009541660ff8216176009558151908152336020820152a1005b6001600160401b0381116103105760051b60200190565b81601f820112156102da5780359160209161140f846113de565b9361141d6040519586610330565b808552838086019160051b830101928084116102da57848301915b8483106114485750505050505090565b82356001600160401b0381116102da578691611469848480948901016103ab565b815201920191611438565b346102da5760403660031901126102da576001600160401b036004358181116102da576114a59036906004016113f5565b906024359081116102da576114be9036906004016113f5565b906114c76120b0565b6114d660ff6009541615611aaa565b805182510361156a5760005b815181101561082b57806115096115046114fe60019486612020565b51610459565b611af6565b151580611540575b61151c575b016114e2565b61153b6115298285612020565b516115348387612020565b5190612527565b611516565b5061156561156160056115566114fe8588612020565b015460a01c60ff1690565b1590565b611511565b60405162461bcd60e51b8152602060048201526016602482015275082e4e4c2f2e640d8cadccee8d040dad2e6dac2e8c6d60531b6044820152606490fd5b346102da5760403660031901126102da5761082b6004356115c7610a3f565b908060005260026020526115e2600160406000200154612108565b6123e0565b346102da5760203660031901126102da576004356006548110156102da576107726107869160066000527ff652222313e28459528d920b65115c16c04f3efc82aaedc97be59f3f377c0d3f016104df565b346102da57611646366103f2565b61165561085361084d83610459565b600261166082610459565b0160405161168481611676602082018095611f58565b03601f198101835282610330565b5190206040516020810190666164647265737360c81b8252600781526116a981610315565b519020036116e4576116ca6116c56001610a3961078694610459565b61284c565b6040516001600160a01b0390911681529081906020820190565b60405162461bcd60e51b815260206004820152601860248201527f506172616d65746572206973206e6f74206164647265737300000000000000006044820152606490fd5b346102da5760003660031901126102da57600754611746816113de565b6117536040519182610330565b8181526020916020820160076000527fa66cc928b5edb82af9bd49922954155ab7b0942694bea4ce44661d9a8736c688936000915b83831061179d57604051806107868782610aaa565b60018281926117ab896104df565b815201960192019194611788565b346102da5760003660031901126102da576020600854604051908152f35b346102da5761181b6117e8366103f2565b6117f0612034565b6117ff61085361084d83610459565b600561180a82610459565b01805460ff60a01b19169055611ec7565b7f58a7303e9861533fab93bb79c53d76cc0adab6ca9b5b6d5ec0580b37d57383cb6020604051338152a2005b346102da57611855366103f2565b61186461085361084d83610459565b600261186f82610459565b0160405161188581611676602082018095611f58565b5190206040516020810190663ab4b73a191a9b60c91b8252600781526118aa81610315565b519020036118db576118cb6118c66001610a3961078694610459565b6122cc565b6040519081529081906020820190565b60405162461bcd60e51b815260206004820152601860248201527f506172616d65746572206973206e6f742075696e7432353600000000000000006044820152606490fd5b634e487b7160e01b600052601160045260246000fd5b6003611a608496611a5785610a02969b7f3d1f69cbd3b7db9a8cb2ec8091171997373956478c04aa0aa0737344754ec1849b611a669a6119b46119af8a9c61199b6119956115048e6119866120b0565b6105bd60ff6009541615611aaa565b15611b00565b6119aa6109de6115048b61047f565b612129565b611b98565b6040518d816119c7602082018093610442565b03916119db601f1993848101835282610330565b51902090604051611a0360208201928261090f85600790663ab4b73a191a9b60c91b81520190565b51902014611a7b575b611a14610351565b8981526020810194909452604084018d905260608401524260808401523360a0840152600060c084015260e0830152610100820152611a5286610459565b611d4a565b610b3084611e49565b01611e98565b92611a7660405192839283611ee7565b0390a2565b611a9a611a87856122cc565b84848210159182611a9f575b5050611bd8565b611a0c565b111590508438611a93565b15611ab157565b60405162461bcd60e51b815260206004820152601860248201527f53797374656d20696e20656d657267656e6379206d6f646500000000000000006044820152606490fd5b61041c90546104a5565b15611b0757565b60405162461bcd60e51b815260206004820152601860248201527f506172616d6574657220616c72656164792065786973747300000000000000006044820152606490fd5b15611b5357565b60405162461bcd60e51b815260206004820152601760248201527f43617465676f727920646f6573206e6f742065786973740000000000000000006044820152606490fd5b15611b9f57565b60405162461bcd60e51b8152602060048201526011602482015270496e76616c69642064617461207479706560781b6044820152606490fd5b15611bdf57565b60405162461bcd60e51b815260206004820152601260248201527156616c7565206f7574206f662072616e676560701b6044820152606490fd5b818110611c24575050565b60008155600101611c19565b9190601f8111611c3f57505050565b610521926000526020600020906020601f840160051c83019310611c6b575b601f0160051c0190611c19565b9091508190611c5e565b91909182516001600160401b03811161031057611c9c81611c9684546104a5565b84611c30565b602080601f8311600114611cdf57508190611cd0939495600092611cd4575b50508160011b916000199060031b1c19161790565b9055565b015190503880611cbb565b90601f19831695611cf585600052602060002090565b926000905b888210611d3257505083600195969710611d19575b505050811b019055565b015160001960f88460031b161c19169055388080611d0f565b80600185968294968601518155019501930190611cfa565b90610100600791611d5c815185611c75565b611d6d602082015160018601611c75565b611d7e604082015160028601611c75565b611d8f606082015160038601611c75565b6080810151600485015560a08101516005850180546001600160a01b0319166001600160a01b03909216919091178155611de49060c08301511515815460ff60a01b191690151560a01b60ff60a01b16179055565b60e081015160068501550151910155565b60075490600160401b821015610310576001820180600755821015611e44576105219160076000527fa66cc928b5edb82af9bd49922954155ab7b0942694bea4ce44661d9a8736c68801611c75565b6106fa565b60065490600160401b821015610310576001820180600655821015611e44576105219160066000527ff652222313e28459528d920b65115c16c04f3efc82aaedc97be59f3f377c0d3f01611c75565b908154600160401b8110156103105760018101808455811015611e445761052192600052602060002001611c75565b611edf9060206040519282848094519384920161041f565b810103902090565b9091611efe61041c93604084526040840190610584565b916020818403910152610584565b15611f1357565b60405162461bcd60e51b815260206004820152601860248201527f506172616d6574657220646f6573206e6f7420657869737400000000000000006044820152606490fd5b600092918154611f67816104a5565b92600191808316908115611fc15750600114611f84575b50505050565b9091929394506000526020906020600020906000915b858310611fb05750505050019038808080611f7e565b805485840152918301918101611f9a565b60ff1916845250505081151590910201915038808080611f7e565b15611fe357565b60405162461bcd60e51b815260206004820152601560248201527414185c985b595d195c881a5cc81b9bdd08189bdbdb605a1b6044820152606490fd5b8051821015611e445760209160051b010190565b3360009081527fe5ebfa64fca8d502a8e50c1edffd2c31ef4dad5b396e65d9f397fb028f74abc5602052604090207fa49807205ce4d355092ef5a8a18f56e8913cf4a201fbe287825b095693c217759060ff905b5416156120925750565b6044906040519063e2517d3f60e01b82523360048301526024820152fd5b3360009081527f455bcf707dbdd9fc1d300a533235ffff2ca7525e23bda2409d087a15abc5c5c3602052604090207fbbfb55d933c2bfa638763473275b1d84c4418e58d26cf9d2cd5758237756d9f09060ff90612088565b6000818152600260209081526040808320338452909152902060ff90612088565b6040805160208082018261213d8287610442565b0392612151601f1994858101835282610330565b5190208351663ab4b73a191a9b60c91b8382019081529061217d81600784015b03868101835282610330565b51902014938415612235575b84156121e8575b841561219e575b5050505090565b836121db9293949550516121b9816121718682018095610442565b5190209351918201928261090f85600790666164647265737360c81b81520190565b5190201438808080612197565b935082518181019061220a816121fe8489610442565b03858101835282610330565b519020835163189bdbdb60e21b8382019081529061222b8160048401612171565b5190201493612190565b935082518181019061224b816121fe8489610442565b519020835165737472696e6760d01b8382019081529061226e8160068401612171565b5190201493612189565b805115611e445760200190565b805160011015611e445760210190565b908151811015611e44570160200190565b600181901b91906001600160ff1b038116036102d557565b90600182018092116102d557565b90600091825b8151811015612342576122e58183612295565b5160f81c603081101580612337575b612302575b506001016122d2565b600a949194918281029281840414901517156102d557602f199080828101116102d5578201018091116102d5579260016122f9565b5060398111156122f4565b5050565b600090808252600260205260ff61237284604085209060018060a01b0316600052602052604060002090565b54166123da578082526002602090815260408084206001600160a01b038616600090815292529020805460ff1916600117905533926001600160a01b0316917f2f8788117e7eff1d82e926ec794901d17c78024a50270940304540a733656f0d9080a4600190565b50905090565b600090808252600260205260ff61240c84604085209060018060a01b0316600052602052604060002090565b5416156123da578082526002602090815260408084206001600160a01b038616600090815292529020805460ff1916905533926001600160a01b0316917ff6391f5c32d9c69d2a47ea670b442974b53935d1edc7fd64eb21e047a839171b9080a4600190565b1561247957565b60405162461bcd60e51b8152602060048201526016602482015275125b9d985b1a59081859191c995cdcc8199bdc9b585d60521b6044820152606490fd5b156124be57565b60405162461bcd60e51b8152602060048201526015602482015274496e76616c696420626f6f6c65616e2076616c756560581b6044820152606490fd5b9161251790610d16604093969596606086526060860190610584565b6001600160a01b03909416910152565b907f95a62ed0a3b8c7601e33eaddf7eac585c3373b74f758f0eca02a38dc7ae77d709061255383610459565b90611a7661260f60028401956040968751602091828201826125758284611f58565b0392612589601f1994858101835282610330565b5190208a51663ab4b73a191a9b60c91b858201908152906125ad8160078401612171565b5190200361262b575050506125d96125c4856122cc565b6006870154811015908161261c575b50611bd8565b610a0260018601956125f4866125ee896104df565b98611c75565b42600482015560050180546001600160a01b03191633179055565b94519283923391846124fb565b905060078701541015386125d3565b89518381019061263f816121fe8486611f58565b5190208a5163189bdbdb60e21b858201908152906126608160048401612171565b519020036126815750505061267c61267785612a93565b6124b7565b6125d9565b8951612694816108de8682018095611f58565b519020916126ba8a51918201928261090f85600790666164647265737360c81b81520190565b519020036125d95761267c6126ce85612977565b612472565b9190916126e1835182611c75565b600192606060036020936126fc602085015160018301611c75565b61271b60408501511515600283019060ff801983541691151516179055565b0191015191825192600160401b841161031057825484845580851061277e575b50602061274f910192600052602060002090565b6000925b8484106127635750505050509050565b86838261277283945186611c75565b01920193019290612753565b6000846000528786602060002093840193015b8381106127a05750505061273b565b6127aa81546104a5565b806127b9575b50018890612791565b601f90838282116001146127d4575050508281555b386127b0565b6127f5926127e785600052602060002090565b920160051c82019101611c19565b600081815260208120818355556127ce565b1561280e57565b60405162461bcd60e51b8152602060048201526016602482015275092dcecc2d8d2c840c2c8c8e4cae6e640d8cadccee8d60531b6044820152606490fd5b9060019160018151166129325761286c612867825160011c90565b612b4d565b9060009081855b612891575b505050601491925061288c82825114612807565b015190565b815160011c81101561292d579085826129176129076128e46128df6128da6128d46128c66128c0899c9b6122a6565b8a612295565b516001600160f81b03191690565b60f81c90565b612bf2565b612b7f565b6129016128da6128d46128c66128c06128fc896122a6565b6122be565b90612ba5565b60f81b6001600160f81b03191690565b841a6129238288612295565b5301909192612873565b612878565b60405162461bcd60e51b815260206004820152601960248201527f496e76616c69642068657820737472696e67206c656e677468000000000000006044820152606490fd5b602a90602a815103612a8c57600360fc1b906001600160f81b031982816129a06128c685612278565b161490811591612a70575b50612a685760025b8381106129c35750505050600190565b6129e06129d36128c68385612295565b6001600160f81b03191690565b8381101580612a5a575b159081612a35575b81612a0e575b50612a05576001016129b3565b50505050600090565b604160f81b811015915081612a26575b5015386129f8565b602360f91b1015905038612a1e565b9050606160f81b81101580612a4c575b15906129f2565b50603360f91b811115612a45565b50603960f81b8111156129ea565b505050600090565b600f60fb1b9150612a836128c684612285565b161415386129ab565b5050600090565b60405160209081810190612abe83828651612ab18187858b0161041f565b8101038084520182610330565b5190206040519082820182612ade82600490637472756560e01b81520190565b0392612af2601f1994858101835282610330565b51902014928315612b04575b50505090565b90919250604051612b1c816108de8682018095610442565b51902091612b41604051918201928261090f856005906466616c736560d81b81520190565b51902014388080612afe565b90612b5782610390565b612b646040519182610330565b8281528092612b75601f1991610390565b0190602036910137565b60041b90610ff060f08316921682036102d557565b60ff16600a019060ff82116102d557565b9060ff8091169116019060ff82116102d557565b60ff602f199116019060ff82116102d557565b60ff6060199116019060ff82116102d557565b60ff6040199116019060ff82116102d557565b60f881901b6001600160f81b031916600360fc1b81101580612cc0575b612cb657606160f81b81101580612ca8575b612c9657604160f81b8110159081612c87575b50612c765760405162461bcd60e51b815260206004820152601560248201527424b73b30b634b2103432bc1031b430b930b1ba32b960591b6044820152606490fd5b612c8261041c91612b94565b612bdf565b602360f91b1015905038612c34565b50612ca361041c91612b94565b612bcc565b50603360f91b811115612c21565b5061041c90612bb9565b50603960f81b811115612c0f56fea2646970667358221220d1169647e18882baaaf9adb59a9782762794dd604a6a4d8ec42f77cb05b2836464736f6c634300081800332f8788117e7eff1d82e926ec794901d17c78024a50270940304540a733656f0d",
  "linkReferences": {},
  "deployedLinkReferences": {}
}