{
  "_format": "hh-sol-artifact-1",
  "contractName": "TokenSale",
  "sourceName": "contracts/TokenSale.sol",
  "abi": [
    {
      "inputs": [
        {
          "internalType": "contract IERC20",
          "name": "_token",
          "type": "address"
        },
        {
          "internalType": "address payable",
          "name": "_wallet",
          "type": "address"
        },
        {
          "internalType": "uint256",
          "name": "_price",
          "type": "uint256"
        }
      ],
      "stateMutability": "nonpayable",
      "type": "constructor"
    },
    {
      "inputs": [
        {
          "internalType": "address",
          "name": "owner",
          "type": "address"
        }
      ],
      "name": "OwnableInvalidOwner",
      "type": "error"
    },
    {
      "inputs": [
        {
          "internalType": "address",
          "name": "account",
          "type": "address"
        }
      ],
      "name": "OwnableUnauthorizedAccount",
      "type": "error"
    },
    {
      "inputs": [],
      "name": "ReentrancyGuardReentrantCall",
      "type": "error"
    },
    {
      "anonymous": false,
      "inputs": [
        {
          "indexed": true,
          "internalType": "address",
          "name": "previousOwner",
          "type": "address"
        },
        {
          "indexed": true,
          "internalType": "address",
          "name": "newOwner",
          "type": "address"
        }
      ],
      "name": "OwnershipTransferred",
      "type": "event"
    },
    {
      "anonymous": false,
      "inputs": [
        {
          "indexed": true,
          "internalType": "address",
          "name": "purchaser",
          "type": "address"
        },
        {
          "indexed": true,
          "internalType": "address",
          "name": "beneficiary",
          "type": "address"
        },
        {
          "indexed": false,
          "internalType": "uint256",
          "name": "amount",
          "type": "uint256"
        },
        {
          "indexed": false,
          "internalType": "uint256",
          "name": "value",
          "type": "uint256"
        }
      ],
      "name": "TokensPurchased",
      "type": "event"
    },
    {
      "inputs": [],
      "name": "buyTokens",
      "outputs": [],
      "stateMutability": "payable",
      "type": "function"
    },
    {
      "inputs": [],
      "name": "endSale",
      "outputs": [],
      "stateMutability": "nonpayable",
      "type": "function"
    },
    {
      "inputs": [],
      "name": "getTokensRemaining",
      "outputs": [
        {
          "internalType": "uint256",
          "name": "",
          "type": "uint256"
        }
      ],
      "stateMutability": "view",
      "type": "function"
    },
    {
      "inputs": [],
      "name": "owner",
      "outputs": [
        {
          "internalType": "address",
          "name": "",
          "type": "address"
        }
      ],
      "stateMutability": "view",
      "type": "function"
    },
    {
      "inputs": [],
      "name": "pause",
      "outputs": [],
      "stateMutability": "nonpayable",
      "type": "function"
    },
    {
      "inputs": [],
      "name": "price",
      "outputs": [
        {
          "internalType": "uint256",
          "name": "",
          "type": "uint256"
        }
      ],
      "stateMutability": "view",
      "type": "function"
    },
    {
      "inputs": [],
      "name": "renounceOwnership",
      "outputs": [],
      "stateMutability": "nonpayable",
      "type": "function"
    },
    {
      "inputs": [],
      "name": "token",
      "outputs": [
        {
          "internalType": "contract IERC20",
          "name": "",
          "type": "address"
        }
      ],
      "stateMutability": "view",
      "type": "function"
    },
    {
      "inputs": [],
      "name": "tokensSold",
      "outputs": [
        {
          "internalType": "uint256",
          "name": "",
          "type": "uint256"
        }
      ],
      "stateMutability": "view",
      "type": "function"
    },
    {
      "inputs": [
        {
          "internalType": "address",
          "name": "newOwner",
          "type": "address"
        }
      ],
      "name": "transferOwnership",
      "outputs": [],
      "stateMutability": "nonpayable",
      "type": "function"
    },
    {
      "inputs": [
        {
          "internalType": "uint256",
          "name": "_newPrice",
          "type": "uint256"
        }
      ],
      "name": "updatePrice",
      "outputs": [],
      "stateMutability": "nonpayable",
      "type": "function"
    },
    {
      "inputs": [],
      "name": "wallet",
      "outputs": [
        {
          "internalType": "address payable",
          "name": "",
          "type": "address"
        }
      ],
      "stateMutability": "view",
      "type": "function"
    }
  ],
  "bytecode": "0x6080346101da57601f610c1e38819003918201601f191683019291906001600160401b038411838510176101df5781606092849260409687528339810103126101da5780516001600160a01b0380821692918390036101da576020820151918183168093036101da578401519233156101c2576000549160018060a01b03199233848216176000558651913391167f8be0079c531659141344cd1fd0a4f28419497f9722a3daafe3b4186f6b6457e0600080a36001805581156101805750821561013c5783156100ea57816002541617600255600354161760035560045551610a2890816101f68239f35b845162461bcd60e51b815260206004820152602560248201527f546f6b656e207072696365206d7573742062652067726561746572207468616e604482015264207a65726f60d81b6064820152608490fd5b845162461bcd60e51b815260206004820152601d60248201527f57616c6c657420616464726573732063616e6e6f74206265207a65726f0000006044820152606490fd5b62461bcd60e51b815260206004820152601c60248201527f546f6b656e20616464726573732063616e6e6f74206265207a65726f000000006044820152606490fd5b8451631e4fbdf760e01b815260006004820152602490fd5b600080fd5b634e487b7160e01b600052604160045260246000fdfe6040608081526004908136101561001557600080fd5b600091823560e01c908163380d831b1461073c57816346ad5859146106a3578163518ab2a814610684578163521eb2731461065b578163715018a6146106015781638456cb59146105e25781638d6cc56d146105765781638da5cb5b1461054e578163a035b1fe14610530578163d0febe4c14610165578163f2fde38b146100d2575063fc0c546a146100a757600080fd5b346100ce57816003193601126100ce5760025490516001600160a01b039091168152602090f35b5080fd5b91905034610161576020366003190112610161576001600160a01b0382358181169391929084900361015d576101066109c6565b831561014757505082546001600160a01b0319811683178455167f8be0079c531659141344cd1fd0a4f28419497f9722a3daafe3b4186f6b6457e08380a380f35b51631e4fbdf760e01b8152908101849052602490fd5b8480fd5b8280fd5b9050826003193601126101615760026001541461052257600260015534156104ce57678ac7230489e80000341161048c57670de0b6b3a7640000803402903482040361047957815490811561046657049081156104105760025483516370a0823160e01b81523081840152602092916001600160a01b0391908216908481602481855afa801561040657869189916103d1575b501061037b5760055485810180911161036857600555855163a9059cbb60e01b815233848201908152602081018790529091859183919082908b90829060400103925af190811561035e578791610331575b50156102e45785808080933490600354165af1610265610986565b50156102a35750825191825234908201527f6faf93231a456e552dbc9961f58d9713ee4f2e69d15f1975b050ef0911053a7b33923392a36001805580f35b60649184519162461bcd60e51b8352820152601e60248201527f4661696c656420746f2073656e6420457468657220746f2077616c6c657400006044820152fd5b5060849184519162461bcd60e51b8352820152602260248201527f4661696c656420746f207472616e7366657220746f6b656e7320746f2062757960448201526132b960f11b6064820152fd5b6103519150843d8611610357575b6103498183610931565b810190610969565b3861024a565b503d61033f565b86513d89823e3d90fd5b634e487b7160e01b885260118452602488fd5b855162461bcd60e51b8152808401859052602a60248201527f4e6f7420656e6f75676820746f6b656e7320696e2074686520636f6e747261636044820152697420666f722073616c6560b01b6064820152608490fd5b809250868092503d83116103ff575b6103ea8183610931565b810103126103fb57859051386101f8565b8780fd5b503d6103e0565b87513d8a823e3d90fd5b608490602084519162461bcd60e51b8352820152602a60248201527f45746865722073656e74206973206e6f7420656e6f75676820746f2062757920604482015269616e7920746f6b656e7360b01b6064820152fd5b634e487b7160e01b855260128352602485fd5b634e487b7160e01b845260118252602484fd5b6020606492519162461bcd60e51b8352820152601960248201527f507572636861736520616d6f756e7420746f6f206c61726765000000000000006044820152fd5b6020608492519162461bcd60e51b8352820152602960248201527f596f75206e65656420746f2073656e6420736f6d6520457468657220746f2062604482015268757920746f6b656e7360b81b6064820152fd5b9051633ee5aeb560e01b8152fd5b90503461016157826003193601126101615760209250549051908152f35b5050346100ce57816003193601126100ce57905490516001600160a01b039091168152602090f35b905034610161576020366003190112610161578035916105946109c6565b821561059f57505580f35b906020606492519162461bcd60e51b8352820152601f60248201527f5072696365206d7573742062652067726561746572207468616e207a65726f006044820152fd5b83346105fe57806003193601126105fe576105fb6109c6565b80f35b80fd5b83346105fe57806003193601126105fe5761061a6109c6565b80546001600160a01b03198116825581906001600160a01b03167f8be0079c531659141344cd1fd0a4f28419497f9722a3daafe3b4186f6b6457e08280a380f35b5050346100ce57816003193601126100ce5760035490516001600160a01b039091168152602090f35b5050346100ce57816003193601126100ce576020906005549051908152f35b9190503461016157826003193601126101615760025481516370a0823160e01b81523093810193909352602090839060249082906001600160a01b03165afa9182156107325783926106fa575b6020838351908152f35b9091506020813d60201161072a575b8161071660209383610931565b8101031261016157602092505190386106f0565b3d9150610709565b81513d85823e3d90fd5b919050346101615782600319360112610161576107576109c6565b60025481516370a0823160e01b815230848201526020929185916001600160a01b039182168582602481845afa918215610927579086929185926108f2575b508161081d575b50505047806107aa578280f35b8280929181928254165af16107bd610986565b50156107ca578381808280f35b5162461bcd60e51b815291820152602960248201527f4661696c656420746f207472616e736665722072656d61696e696e6720455448604482015268103a379037bbb732b960b91b606482015260849150fd5b9354855163a9059cbb60e01b81529084166001600160a01b031688820190815260208101929092529293839182908a90829060400103925af19081156108e85786916108cb575b501561087457849083388061079d565b505162461bcd60e51b815291820152602c60248201527f4661696c656420746f207472616e736665722072656d61696e696e6720746f6b60448201526b32b739903a379037bbb732b960a11b606482015260849150fd5b6108e29150843d8611610357576103498183610931565b38610864565b83513d88823e3d90fd5b8381949293503d8311610920575b61090a8183610931565b8101031261091c578591519038610796565b8380fd5b503d610900565b85513d86823e3d90fd5b90601f8019910116810190811067ffffffffffffffff82111761095357604052565b634e487b7160e01b600052604160045260246000fd5b90816020910312610981575180151581036109815790565b600080fd5b3d156109c1573d9067ffffffffffffffff821161095357604051916109b5601f8201601f191660200184610931565b82523d6000602084013e565b606090565b6000546001600160a01b031633036109da57565b60405163118cdaa760e01b8152336004820152602490fdfea2646970667358221220183a0f6be91f1ac7614289c413e08fc1a328808e25a581be4171ed06234e631a64736f6c63430008180033",
  "linkReferences": {},
  "deployedLinkReferences": {}
}