{
  "_format": "hh-sol-artifact-1",
  "contractName": "ERC721Mock",
  "sourceName": "contracts/mocks/ERC721Mock.sol",
  "abi": [
    {
      "inputs": [
        {
          "internalType": "string",
          "name": "name",
          "type": "string"
        },
        {
          "internalType": "string",
          "name": "symbol",
          "type": "string"
        }
      ],
      "stateMutability": "nonpayable",
      "type": "constructor"
    },
    {
      "inputs": [
        {
          "internalType": "address",
          "name": "sender",
          "type": "address"
        },
        {
          "internalType": "uint256",
          "name": "tokenId",
          "type": "uint256"
        },
        {
          "internalType": "address",
          "name": "owner",
          "type": "address"
        }
      ],
      "name": "ERC721IncorrectOwner",
      "type": "error"
    },
    {
      "inputs": [
        {
          "internalType": "address",
          "name": "operator",
          "type": "address"
        },
        {
          "internalType": "uint256",
          "name": "tokenId",
          "type": "uint256"
        }
      ],
      "name": "ERC721InsufficientApproval",
      "type": "error"
    },
    {
      "inputs": [
        {
          "internalType": "address",
          "name": "approver",
          "type": "address"
        }
      ],
      "name": "ERC721InvalidApprover",
      "type": "error"
    },
    {
      "inputs": [
        {
          "internalType": "address",
          "name": "operator",
          "type": "address"
        }
      ],
      "name": "ERC721InvalidOperator",
      "type": "error"
    },
    {
      "inputs": [
        {
          "internalType": "address",
          "name": "owner",
          "type": "address"
        }
      ],
      "name": "ERC721InvalidOwner",
      "type": "error"
    },
    {
      "inputs": [
        {
          "internalType": "address",
          "name": "receiver",
          "type": "address"
        }
      ],
      "name": "ERC721InvalidReceiver",
      "type": "error"
    },
    {
      "inputs": [
        {
          "internalType": "address",
          "name": "sender",
          "type": "address"
        }
      ],
      "name": "ERC721InvalidSender",
      "type": "error"
    },
    {
      "inputs": [
        {
          "internalType": "uint256",
          "name": "tokenId",
          "type": "uint256"
        }
      ],
      "name": "ERC721NonexistentToken",
      "type": "error"
    },
    {
      "anonymous": false,
      "inputs": [
        {
          "indexed": true,
          "internalType": "address",
          "name": "owner",
          "type": "address"
        },
        {
          "indexed": true,
          "internalType": "address",
          "name": "approved",
          "type": "address"
        },
        {
          "indexed": true,
          "internalType": "uint256",
          "name": "tokenId",
          "type": "uint256"
        }
      ],
      "name": "Approval",
      "type": "event"
    },
    {
      "anonymous": false,
      "inputs": [
        {
          "indexed": true,
          "internalType": "address",
          "name": "owner",
          "type": "address"
        },
        {
          "indexed": true,
          "internalType": "address",
          "name": "operator",
          "type": "address"
        },
        {
          "indexed": false,
          "internalType": "bool",
          "name": "approved",
          "type": "bool"
        }
      ],
      "name": "ApprovalForAll",
      "type": "event"
    },
    {
      "anonymous": false,
      "inputs": [
        {
          "indexed": true,
          "internalType": "address",
          "name": "from",
          "type": "address"
        },
        {
          "indexed": true,
          "internalType": "address",
          "name": "to",
          "type": "address"
        },
        {
          "indexed": true,
          "internalType": "uint256",
          "name": "tokenId",
          "type": "uint256"
        }
      ],
      "name": "Transfer",
      "type": "event"
    },
    {
      "inputs": [
        {
          "internalType": "address",
          "name": "to",
          "type": "address"
        },
        {
          "internalType": "uint256",
          "name": "tokenId",
          "type": "uint256"
        }
      ],
      "name": "approve",
      "outputs": [],
      "stateMutability": "nonpayable",
      "type": "function"
    },
    {
      "inputs": [
        {
          "internalType": "address",
          "name": "owner",
          "type": "address"
        }
      ],
      "name": "balanceOf",
      "outputs": [
        {
          "internalType": "uint256",
          "name": "",
          "type": "uint256"
        }
      ],
      "stateMutability": "view",
      "type": "function"
    },
    {
      "inputs": [
        {
          "internalType": "uint256",
          "name": "tokenId",
          "type": "uint256"
        }
      ],
      "name": "getApproved",
      "outputs": [
        {
          "internalType": "address",
          "name": "",
          "type": "address"
        }
      ],
      "stateMutability": "view",
      "type": "function"
    },
    {
      "inputs": [
        {
          "internalType": "address",
          "name": "owner",
          "type": "address"
        },
        {
          "internalType": "address",
          "name": "operator",
          "type": "address"
        }
      ],
      "name": "isApprovedForAll",
      "outputs": [
        {
          "internalType": "bool",
          "name": "",
          "type": "bool"
        }
      ],
      "stateMutability": "view",
      "type": "function"
    },
    {
      "inputs": [
        {
          "internalType": "address",
          "name": "to",
          "type": "address"
        }
      ],
      "name": "mint",
      "outputs": [
        {
          "internalType": "uint256",
          "name": "",
          "type": "uint256"
        }
      ],
      "stateMutability": "nonpayable",
      "type": "function"
    },
    {
      "inputs": [
        {
          "internalType": "address",
          "name": "to",
          "type": "address"
        },
        {
          "internalType": "uint256",
          "name": "tokenId",
          "type": "uint256"
        }
      ],
      "name": "mintTo",
      "outputs": [],
      "stateMutability": "nonpayable",
      "type": "function"
    },
    {
      "inputs": [],
      "name": "name",
      "outputs": [
        {
          "internalType": "string",
          "name": "",
          "type": "string"
        }
      ],
      "stateMutability": "view",
      "type": "function"
    },
    {
      "inputs": [
        {
          "internalType": "uint256",
          "name": "tokenId",
          "type": "uint256"
        }
      ],
      "name": "ownerOf",
      "outputs": [
        {
          "internalType": "address",
          "name": "",
          "type": "address"
        }
      ],
      "stateMutability": "view",
      "type": "function"
    },
    {
      "inputs": [
        {
          "internalType": "address",
          "name": "from",
          "type": "address"
        },
        {
          "internalType": "address",
          "name": "to",
          "type": "address"
        },
        {
          "internalType": "uint256",
          "name": "tokenId",
          "type": "uint256"
        }
      ],
      "name": "safeTransferFrom",
      "outputs": [],
      "stateMutability": "nonpayable",
      "type": "function"
    },
    {
      "inputs": [
        {
          "internalType": "address",
          "name": "from",
          "type": "address"
        },
        {
          "internalType": "address",
          "name": "to",
          "type": "address"
        },
        {
          "internalType": "uint256",
          "name": "tokenId",
          "type": "uint256"
        },
        {
          "internalType": "bytes",
          "name": "data",
          "type": "bytes"
        }
      ],
      "name": "safeTransferFrom",
      "outputs": [],
      "stateMutability": "nonpayable",
      "type": "function"
    },
    {
      "inputs": [
        {
          "internalType": "address",
          "name": "operator",
          "type": "address"
        },
        {
          "internalType": "bool",
          "name": "approved",
          "type": "bool"
        }
      ],
      "name": "setApprovalForAll",
      "outputs": [],
      "stateMutability": "nonpayable",
      "type": "function"
    },
    {
      "inputs": [
        {
          "internalType": "bytes4",
          "name": "interfaceId",
          "type": "bytes4"
        }
      ],
      "name": "supportsInterface",
      "outputs": [
        {
          "internalType": "bool",
          "name": "",
          "type": "bool"
        }
      ],
      "stateMutability": "view",
      "type": "function"
    },
    {
      "inputs": [],
      "name": "symbol",
      "outputs": [
        {
          "internalType": "string",
          "name": "",
          "type": "string"
        }
      ],
      "stateMutability": "view",
      "type": "function"
    },
    {
      "inputs": [
        {
          "internalType": "uint256",
          "name": "tokenId",
          "type": "uint256"
        }
      ],
      "name": "tokenURI",
      "outputs": [
        {
          "internalType": "string",
          "name": "",
          "type": "string"
        }
      ],
      "stateMutability": "view",
      "type": "function"
    },
    {
      "inputs": [
        {
          "internalType": "address",
          "name": "from",
          "type": "address"
        },
        {
          "internalType": "address",
          "name": "to",
          "type": "address"
        },
        {
          "internalType": "uint256",
          "name": "tokenId",
          "type": "uint256"
        }
      ],
      "name": "transferFrom",
      "outputs": [],
      "stateMutability": "nonpayable",
      "type": "function"
    }
  ],
  "bytecode": "0x6080604052346200031957620011b7803803806200001d816200031e565b928339810190604081830312620003195780516001600160401b03908181116200031957836200004f91840162000344565b916020938482015183811162000319576200006b920162000344565b825190828211620003035760008054926001958685811c95168015620002f8575b88861014620002e4578190601f9586811162000291575b5088908683116001146200022d57849262000221575b5050600019600383901b1c191690861b1781555b81519384116200020d5784548581811c9116801562000202575b87821014620001ee57838111620001a6575b50859284116001146200014157839495509262000135575b5050600019600383901b1c191690821b1790555b604051610e009081620003b78239f35b01519050388062000111565b9190601f1984169585845280842093905b8782106200018e5750508385961062000174575b505050811b01905562000125565b015160001960f88460031b161c1916905538808062000166565b80878596829496860151815501950193019062000152565b8582528682208480870160051c820192898810620001e4575b0160051c019086905b828110620001d8575050620000f9565b838155018690620001c8565b92508192620001bf565b634e487b7160e01b82526022600452602482fd5b90607f1690620000e7565b634e487b7160e01b81526041600452602490fd5b015190503880620000b9565b8480528985208994509190601f198416865b8c8282106200027a575050841162000260575b505050811b018155620000cd565b015160001960f88460031b161c1916905538808062000252565b8385015186558c979095019493840193016200023f565b9091508380528884208680850160051c8201928b8610620002da575b918a91869594930160051c01915b828110620002cb575050620000a3565b8681558594508a9101620002bb565b92508192620002ad565b634e487b7160e01b83526022600452602483fd5b94607f16946200008c565b634e487b7160e01b600052604160045260246000fd5b600080fd5b6040519190601f01601f191682016001600160401b038111838210176200030357604052565b919080601f84011215620003195782516001600160401b03811162000303576020906200037a601f8201601f191683016200031e565b92818452828287010111620003195760005b818110620003a257508260009394955001015290565b85810183015184820184015282016200038c56fe608060408181526004918236101561001657600080fd5b600092833560e01c91826301ffc9a7146106f35750816306fdde0314610626578163081812fc146105ea578163095ea7b31461050d57816323b872dd146104f557816342842e0e146104c6578163449a52f8146104a15781636352211e146104705781636a6278421461041a57816370a08231146103c557816395d89b41146102a8578163a22cb46514610206578163b88d4fde1461016c578163c87b56dd1461011a575063e985e9c5146100ca57600080fd5b3461011657806003193601126101165760ff816020936100e861079e565b6100f06107b9565b6001600160a01b0391821683526005875283832091168252855220549151911615158152f35b5080fd5b8383346101165760203660031901126101165761013a6101689335610a13565b5081815161014781610804565b5280519161015483610804565b82525191829160208352602083019061075e565b0390f35b919050346102025760803660031901126102025761018861079e565b6101906107b9565b60443591856064359567ffffffffffffffff8711610116573660238801121561011657860135956101cc6101c388610858565b96519687610836565b868652366024888301011161011657866101ff9760246020930183890137860101526101f9838383610874565b33610c7c565b80f35b8280fd5b9190503461020257806003193601126102025761022161079e565b90602435918215158093036102a4576001600160a01b031692831561028f5750338452600560205280842083855260205280842060ff1981541660ff8416179055519081527f17307eab39ab6107e8899845ad3d59bd9653f200f220920489ca2b5937696c3160203392a380f35b836024925191630b61174360e31b8352820152fd5b8480fd5b8284346103c257806003193601126103c25781519181600192600154938460011c91600186169586156103b8575b60209687851081146103a5578899509688969785829a52918260001461037e575050600114610322575b5050506101689291610313910385610836565b5192828493845283019061075e565b9190869350600183527fb10e2d527612073b26eecdfd717e6a320cf44b4afac2b0732d9fcbe2b7fa0cf65b8284106103665750505082010181610313610168610300565b8054848a01860152889550879490930192810161034d565b60ff19168782015293151560051b8601909301935084925061031391506101689050610300565b634e487b7160e01b835260228a52602483fd5b92607f16926102d6565b80fd5b8284346103c25760203660031901126103c2576001600160a01b036103e861079e565b169283156104055750806020938392526003845220549051908152f35b91516322718ad960e21b815291820152602490fd5b8383346101165760203660031901126101165761043561079e565b60065492600019841461045d5760208484610457828660018201600655610a4e565b51908152f35b634e487b7160e01b815260118552602490fd5b8284346103c25760203660031901126103c2575061049060209235610a13565b90516001600160a01b039091168152f35b505034610116573660031901126103c2576101ff6104bd61079e565b60243590610a4e565b505034610116576101ff906104da366107cf565b919251926104e784610804565b8584526101f9838383610874565b83346103c2576101ff610507366107cf565b91610874565b9190503461020257806003193601126102025761052861079e565b9160243561053581610a13565b331515806105d7575b806105ae575b610598576001600160a01b039485169482918691167f8c5be1e5ebec7d5bd14f71427d1e84f3dd0314c0f7b2291e5b200ac8c7c3b9258880a48452602052822080546001600160a01b031916909117905580f35b835163a9fbf51f60e01b81523381850152602490fd5b506001600160a01b03811686526005602090815284872033885290528386205460ff1615610544565b506001600160a01b03811633141561053e565b9050346102025760203660031901126102025791826020933561060c81610a13565b50825283528190205490516001600160a01b039091168152f35b8284346103c257806003193601126103c2578151918182549260018460011c91600186169586156106e9575b60209687851081146103a5578899509688969785829a52918260001461037e57505060011461068e575050506101689291610313910385610836565b91908693508280527f290decd9548b62a8d60345a988386fc84ba6bc95484008f6362f93160ef3e5635b8284106106d15750505082010181610313610168610300565b8054848a0186015288955087949093019281016106b8565b92607f1692610652565b849134610202576020366003190112610202573563ffffffff60e01b811680910361020257602092506380ac58cd60e01b811490811561074d575b811561073c575b5015158152f35b6301ffc9a760e01b14905083610735565b635b5e139f60e01b8114915061072e565b919082519283825260005b84811061078a575050826000602080949584010152601f8019910116010190565b602081830181015184830182015201610769565b600435906001600160a01b03821682036107b457565b600080fd5b602435906001600160a01b03821682036107b457565b60609060031901126107b4576001600160a01b039060043582811681036107b4579160243590811681036107b4579060443590565b6020810190811067ffffffffffffffff82111761082057604052565b634e487b7160e01b600052604160045260246000fd5b90601f8019910116810190811067ffffffffffffffff82111761082057604052565b67ffffffffffffffff811161082057601f01601f191660200190565b6001600160a01b0391821692909183156109fa57600092828452826020956002875260409684888820541696879133151580610964575b509060027fddf252ad1be2c89b69c2b068fc378daa952ba7f163c4a11628f55a4df523b3ef9284610931575b858352600381528b8320805460010190558683525289812080546001600160a01b0319168517905580a416928383036109105750505050565b6064945051926364283d7b60e01b8452600484015260248301526044820152fd5b600087815260046020526040902080546001600160a01b0319169055848352600381528b832080546000190190556108d7565b919394509150806109b9575b15610980578592918791386108ab565b87868861099d576024915190637e27328960e01b82526004820152fd5b604491519063177e802f60e01b82523360048301526024820152fd5b5033871480156109de575b806109705750858252600481523385898420541614610970565b5086825260058152878220338352815260ff88832054166109c4565b604051633250574960e11b815260006004820152602490fd5b6000818152600260205260409020546001600160a01b0316908115610a36575090565b60249060405190637e27328960e01b82526004820152fd5b60408051610a5b81610804565b6000808252936001600160a01b03848116949092908515610c645782875260209360028552858820541683878215159283610c31575b818b5260038852888b2080546001019055828b5260028852888b2080546001600160a01b031916831790557fddf252ad1be2c89b69c2b068fc378daa952ba7f163c4a11628f55a4df523b3ef8b80a4610c19573b610af2575b505050505050565b82610b30918596979894955180938192630a85bd0160e11b968784523360048501528c6024850152604484015260806064840152608483019061075e565b03818a8a5af1879181610bd5575b50610b9e575050503d600014610b95573d610b5881610858565b90610b6584519283610836565b81528094823d92013e5b83519384610b8f578251633250574960e11b815260048101859052602490fd5b84925001fd5b60609350610b6f565b919550915063ffffffff60e01b1603610bbe575050388080808080610aea565b602492505190633250574960e11b82526004820152fd5b9091508481813d8311610c12575b610bed8183610836565b81010312610c0e57516001600160e01b031981168103610c0e579038610b3e565b8780fd5b503d610be3565b84516339e3563760e11b815260048101889052602490fd5b600083815260046020526040902080546001600160a01b0319169055808b5260038852888b208054600019019055610a91565b8451633250574960e11b815260048101889052602490fd5b90939192833b610c8e575b5050505050565b604051630a85bd0160e11b8082526001600160a01b039384166004830152958316602482015260448101919091526080606482015294921692602092918590610cdb90608483019061075e565b039483816000978189895af1869181610d86575b50610d50575050503d600014610d47573d610d0981610858565b90610d176040519283610836565b81528093823d92013e5b82519283610d4257604051633250574960e11b815260048101849052602490fd5b019050fd5b60609250610d21565b919450915063ffffffff60e01b1603610d6e57503880808080610c87565b60249060405190633250574960e11b82526004820152fd5b9091508481813d8311610dc3575b610d9e8183610836565b81010312610dbf57516001600160e01b031981168103610dbf579038610cef565b8680fd5b503d610d9456fea26469706673582212200f7abe82921a6ec7feccf25f11cd60968144e8429549c44361911ca4fe9c8c4864736f6c63430008180033",
  "linkReferences": {},
  "deployedLinkReferences": {}
}