{
  "_format": "hh-sol-artifact-1",
  "contractName": "SocialInteractions",
  "sourceName": "contracts/SocialInteractions.sol",
  "abi": [
    {
      "inputs": [],
      "stateMutability": "nonpayable",
      "type": "constructor"
    },
    {
      "inputs": [],
      "name": "AccessControlBadConfirmation",
      "type": "error"
    },
    {
      "inputs": [
        {
          "internalType": "address",
          "name": "account",
          "type": "address"
        },
        {
          "internalType": "bytes32",
          "name": "neededRole",
          "type": "bytes32"
        }
      ],
      "name": "AccessControlUnauthorizedAccount",
      "type": "error"
    },
    {
      "inputs": [],
      "name": "EnforcedPause",
      "type": "error"
    },
    {
      "inputs": [],
      "name": "ExpectedPause",
      "type": "error"
    },
    {
      "inputs": [],
      "name": "ReentrancyGuardReentrantCall",
      "type": "error"
    },
    {
      "anonymous": false,
      "inputs": [
        {
          "indexed": true,
          "internalType": "uint256",
          "name": "postId",
          "type": "uint256"
        },
        {
          "indexed": true,
          "internalType": "uint256",
          "name": "commentId",
          "type": "uint256"
        },
        {
          "indexed": true,
          "internalType": "address",
          "name": "author",
          "type": "address"
        },
        {
          "indexed": false,
          "internalType": "string",
          "name": "content",
          "type": "string"
        },
        {
          "indexed": false,
          "internalType": "uint256",
          "name": "parentCommentId",
          "type": "uint256"
        }
      ],
      "name": "CommentCreated",
      "type": "event"
    },
    {
      "anonymous": false,
      "inputs": [
        {
          "indexed": true,
          "internalType": "uint256",
          "name": "postId",
          "type": "uint256"
        },
        {
          "indexed": true,
          "internalType": "uint256",
          "name": "commentId",
          "type": "uint256"
        },
        {
          "indexed": true,
          "internalType": "address",
          "name": "moderator",
          "type": "address"
        }
      ],
      "name": "CommentDeleted",
      "type": "event"
    },
    {
      "anonymous": false,
      "inputs": [
        {
          "indexed": true,
          "internalType": "uint256",
          "name": "commentId",
          "type": "uint256"
        },
        {
          "indexed": true,
          "internalType": "address",
          "name": "user",
          "type": "address"
        },
        {
          "indexed": false,
          "internalType": "uint256",
          "name": "timestamp",
          "type": "uint256"
        }
      ],
      "name": "CommentLiked",
      "type": "event"
    },
    {
      "anonymous": false,
      "inputs": [
        {
          "indexed": true,
          "internalType": "uint256",
          "name": "commentId",
          "type": "uint256"
        },
        {
          "indexed": true,
          "internalType": "address",
          "name": "user",
          "type": "address"
        },
        {
          "indexed": false,
          "internalType": "uint256",
          "name": "timestamp",
          "type": "uint256"
        }
      ],
      "name": "CommentUnliked",
      "type": "event"
    },
    {
      "anonymous": false,
      "inputs": [
        {
          "indexed": false,
          "internalType": "address",
          "name": "account",
          "type": "address"
        }
      ],
      "name": "Paused",
      "type": "event"
    },
    {
      "anonymous": false,
      "inputs": [
        {
          "indexed": true,
          "internalType": "uint256",
          "name": "postId",
          "type": "uint256"
        },
        {
          "indexed": true,
          "internalType": "address",
          "name": "user",
          "type": "address"
        },
        {
          "indexed": false,
          "internalType": "uint256",
          "name": "timestamp",
          "type": "uint256"
        }
      ],
      "name": "PostLiked",
      "type": "event"
    },
    {
      "anonymous": false,
      "inputs": [
        {
          "indexed": true,
          "internalType": "uint256",
          "name": "postId",
          "type": "uint256"
        },
        {
          "indexed": true,
          "internalType": "address",
          "name": "user",
          "type": "address"
        },
        {
          "indexed": false,
          "internalType": "string",
          "name": "shareText",
          "type": "string"
        },
        {
          "indexed": false,
          "internalType": "uint256",
          "name": "timestamp",
          "type": "uint256"
        }
      ],
      "name": "PostShared",
      "type": "event"
    },
    {
      "anonymous": false,
      "inputs": [
        {
          "indexed": true,
          "internalType": "uint256",
          "name": "postId",
          "type": "uint256"
        },
        {
          "indexed": true,
          "internalType": "address",
          "name": "user",
          "type": "address"
        },
        {
          "indexed": false,
          "internalType": "uint256",
          "name": "timestamp",
          "type": "uint256"
        }
      ],
      "name": "PostUnliked",
      "type": "event"
    },
    {
      "anonymous": false,
      "inputs": [
        {
          "indexed": true,
          "internalType": "bytes32",
          "name": "role",
          "type": "bytes32"
        },
        {
          "indexed": true,
          "internalType": "bytes32",
          "name": "previousAdminRole",
          "type": "bytes32"
        },
        {
          "indexed": true,
          "internalType": "bytes32",
          "name": "newAdminRole",
          "type": "bytes32"
        }
      ],
      "name": "RoleAdminChanged",
      "type": "event"
    },
    {
      "anonymous": false,
      "inputs": [
        {
          "indexed": true,
          "internalType": "bytes32",
          "name": "role",
          "type": "bytes32"
        },
        {
          "indexed": true,
          "internalType": "address",
          "name": "account",
          "type": "address"
        },
        {
          "indexed": true,
          "internalType": "address",
          "name": "sender",
          "type": "address"
        }
      ],
      "name": "RoleGranted",
      "type": "event"
    },
    {
      "anonymous": false,
      "inputs": [
        {
          "indexed": true,
          "internalType": "bytes32",
          "name": "role",
          "type": "bytes32"
        },
        {
          "indexed": true,
          "internalType": "address",
          "name": "account",
          "type": "address"
        },
        {
          "indexed": true,
          "internalType": "address",
          "name": "sender",
          "type": "address"
        }
      ],
      "name": "RoleRevoked",
      "type": "event"
    },
    {
      "anonymous": false,
      "inputs": [
        {
          "indexed": false,
          "internalType": "address",
          "name": "account",
          "type": "address"
        }
      ],
      "name": "Unpaused",
      "type": "event"
    },
    {
      "inputs": [],
      "name": "DEFAULT_ADMIN_ROLE",
      "outputs": [
        {
          "internalType": "bytes32",
          "name": "",
          "type": "bytes32"
        }
      ],
      "stateMutability": "view",
      "type": "function"
    },
    {
      "inputs": [],
      "name": "MODERATOR_ROLE",
      "outputs": [
        {
          "internalType": "bytes32",
          "name": "",
          "type": "bytes32"
        }
      ],
      "stateMutability": "view",
      "type": "function"
    },
    {
      "inputs": [
        {
          "internalType": "uint256",
          "name": "",
          "type": "uint256"
        }
      ],
      "name": "commentLikes",
      "outputs": [
        {
          "internalType": "uint256",
          "name": "",
          "type": "uint256"
        }
      ],
      "stateMutability": "view",
      "type": "function"
    },
    {
      "inputs": [
        {
          "internalType": "uint256",
          "name": "postId",
          "type": "uint256"
        },
        {
          "internalType": "string",
          "name": "content",
          "type": "string"
        },
        {
          "internalType": "uint256",
          "name": "parentCommentId",
          "type": "uint256"
        }
      ],
      "name": "createComment",
      "outputs": [
        {
          "internalType": "uint256",
          "name": "",
          "type": "uint256"
        }
      ],
      "stateMutability": "nonpayable",
      "type": "function"
    },
    {
      "inputs": [
        {
          "internalType": "uint256",
          "name": "postId",
          "type": "uint256"
        },
        {
          "internalType": "uint256",
          "name": "commentId",
          "type": "uint256"
        }
      ],
      "name": "deleteComment",
      "outputs": [],
      "stateMutability": "nonpayable",
      "type": "function"
    },
    {
      "inputs": [
        {
          "internalType": "uint256",
          "name": "postId",
          "type": "uint256"
        },
        {
          "internalType": "uint256",
          "name": "commentId",
          "type": "uint256"
        }
      ],
      "name": "getComment",
      "outputs": [
        {
          "components": [
            {
              "internalType": "uint256",
              "name": "id",
              "type": "uint256"
            },
            {
              "internalType": "uint256",
              "name": "postId",
              "type": "uint256"
            },
            {
              "internalType": "address",
              "name": "author",
              "type": "address"
            },
            {
              "internalType": "string",
              "name": "content",
              "type": "string"
            },
            {
              "internalType": "uint256",
              "name": "timestamp",
              "type": "uint256"
            },
            {
              "internalType": "uint256",
              "name": "likesCount",
              "type": "uint256"
            },
            {
              "internalType": "bool",
              "name": "isDeleted",
              "type": "bool"
            },
            {
              "internalType": "uint256",
              "name": "parentCommentId",
              "type": "uint256"
            }
          ],
          "internalType": "struct SocialInteractions.Comment",
          "name": "",
          "type": "tuple"
        }
      ],
      "stateMutability": "view",
      "type": "function"
    },
    {
      "inputs": [],
      "name": "getPlatformStats",
      "outputs": [
        {
          "internalType": "uint256",
          "name": "totalLikesCount",
          "type": "uint256"
        },
        {
          "internalType": "uint256",
          "name": "totalCommentsCount",
          "type": "uint256"
        },
        {
          "internalType": "uint256",
          "name": "totalSharesCount",
          "type": "uint256"
        }
      ],
      "stateMutability": "view",
      "type": "function"
    },
    {
      "inputs": [
        {
          "internalType": "uint256",
          "name": "postId",
          "type": "uint256"
        },
        {
          "internalType": "uint256",
          "name": "offset",
          "type": "uint256"
        },
        {
          "internalType": "uint256",
          "name": "limit",
          "type": "uint256"
        }
      ],
      "name": "getPostComments",
      "outputs": [
        {
          "components": [
            {
              "internalType": "uint256",
              "name": "id",
              "type": "uint256"
            },
            {
              "internalType": "uint256",
              "name": "postId",
              "type": "uint256"
            },
            {
              "internalType": "address",
              "name": "author",
              "type": "address"
            },
            {
              "internalType": "string",
              "name": "content",
              "type": "string"
            },
            {
              "internalType": "uint256",
              "name": "timestamp",
              "type": "uint256"
            },
            {
              "internalType": "uint256",
              "name": "likesCount",
              "type": "uint256"
            },
            {
              "internalType": "bool",
              "name": "isDeleted",
              "type": "bool"
            },
            {
              "internalType": "uint256",
              "name": "parentCommentId",
              "type": "uint256"
            }
          ],
          "internalType": "struct SocialInteractions.Comment[]",
          "name": "",
          "type": "tuple[]"
        }
      ],
      "stateMutability": "view",
      "type": "function"
    },
    {
      "inputs": [
        {
          "internalType": "uint256",
          "name": "postId",
          "type": "uint256"
        }
      ],
      "name": "getPostStats",
      "outputs": [
        {
          "internalType": "uint256",
          "name": "likes",
          "type": "uint256"
        },
        {
          "internalType": "uint256",
          "name": "comments",
          "type": "uint256"
        },
        {
          "internalType": "uint256",
          "name": "shares",
          "type": "uint256"
        }
      ],
      "stateMutability": "view",
      "type": "function"
    },
    {
      "inputs": [
        {
          "internalType": "bytes32",
          "name": "role",
          "type": "bytes32"
        }
      ],
      "name": "getRoleAdmin",
      "outputs": [
        {
          "internalType": "bytes32",
          "name": "",
          "type": "bytes32"
        }
      ],
      "stateMutability": "view",
      "type": "function"
    },
    {
      "inputs": [
        {
          "internalType": "bytes32",
          "name": "role",
          "type": "bytes32"
        },
        {
          "internalType": "address",
          "name": "account",
          "type": "address"
        }
      ],
      "name": "grantRole",
      "outputs": [],
      "stateMutability": "nonpayable",
      "type": "function"
    },
    {
      "inputs": [
        {
          "internalType": "bytes32",
          "name": "role",
          "type": "bytes32"
        },
        {
          "internalType": "address",
          "name": "account",
          "type": "address"
        }
      ],
      "name": "hasRole",
      "outputs": [
        {
          "internalType": "bool",
          "name": "",
          "type": "bool"
        }
      ],
      "stateMutability": "view",
      "type": "function"
    },
    {
      "inputs": [
        {
          "internalType": "uint256",
          "name": "commentId",
          "type": "uint256"
        },
        {
          "internalType": "address",
          "name": "user",
          "type": "address"
        }
      ],
      "name": "hasUserLikedComment",
      "outputs": [
        {
          "internalType": "bool",
          "name": "",
          "type": "bool"
        }
      ],
      "stateMutability": "view",
      "type": "function"
    },
    {
      "inputs": [
        {
          "internalType": "uint256",
          "name": "postId",
          "type": "uint256"
        },
        {
          "internalType": "address",
          "name": "user",
          "type": "address"
        }
      ],
      "name": "hasUserLikedPost",
      "outputs": [
        {
          "internalType": "bool",
          "name": "",
          "type": "bool"
        }
      ],
      "stateMutability": "view",
      "type": "function"
    },
    {
      "inputs": [],
      "name": "pause",
      "outputs": [],
      "stateMutability": "nonpayable",
      "type": "function"
    },
    {
      "inputs": [],
      "name": "paused",
      "outputs": [
        {
          "internalType": "bool",
          "name": "",
          "type": "bool"
        }
      ],
      "stateMutability": "view",
      "type": "function"
    },
    {
      "inputs": [
        {
          "internalType": "uint256",
          "name": "",
          "type": "uint256"
        }
      ],
      "name": "postCommentCounts",
      "outputs": [
        {
          "internalType": "uint256",
          "name": "",
          "type": "uint256"
        }
      ],
      "stateMutability": "view",
      "type": "function"
    },
    {
      "inputs": [
        {
          "internalType": "uint256",
          "name": "",
          "type": "uint256"
        },
        {
          "internalType": "uint256",
          "name": "",
          "type": "uint256"
        }
      ],
      "name": "postComments",
      "outputs": [
        {
          "internalType": "uint256",
          "name": "id",
          "type": "uint256"
        },
        {
          "internalType": "uint256",
          "name": "postId",
          "type": "uint256"
        },
        {
          "internalType": "address",
          "name": "author",
          "type": "address"
        },
        {
          "internalType": "string",
          "name": "content",
          "type": "string"
        },
        {
          "internalType": "uint256",
          "name": "timestamp",
          "type": "uint256"
        },
        {
          "internalType": "uint256",
          "name": "likesCount",
          "type": "uint256"
        },
        {
          "internalType": "bool",
          "name": "isDeleted",
          "type": "bool"
        },
        {
          "internalType": "uint256",
          "name": "parentCommentId",
          "type": "uint256"
        }
      ],
      "stateMutability": "view",
      "type": "function"
    },
    {
      "inputs": [
        {
          "internalType": "uint256",
          "name": "",
          "type": "uint256"
        }
      ],
      "name": "postLikes",
      "outputs": [
        {
          "internalType": "uint256",
          "name": "",
          "type": "uint256"
        }
      ],
      "stateMutability": "view",
      "type": "function"
    },
    {
      "inputs": [
        {
          "internalType": "uint256",
          "name": "",
          "type": "uint256"
        }
      ],
      "name": "postShares",
      "outputs": [
        {
          "internalType": "uint256",
          "name": "",
          "type": "uint256"
        }
      ],
      "stateMutability": "view",
      "type": "function"
    },
    {
      "inputs": [
        {
          "internalType": "bytes32",
          "name": "role",
          "type": "bytes32"
        },
        {
          "internalType": "address",
          "name": "callerConfirmation",
          "type": "address"
        }
      ],
      "name": "renounceRole",
      "outputs": [],
      "stateMutability": "nonpayable",
      "type": "function"
    },
    {
      "inputs": [
        {
          "internalType": "bytes32",
          "name": "role",
          "type": "bytes32"
        },
        {
          "internalType": "address",
          "name": "account",
          "type": "address"
        }
      ],
      "name": "revokeRole",
      "outputs": [],
      "stateMutability": "nonpayable",
      "type": "function"
    },
    {
      "inputs": [
        {
          "internalType": "uint256",
          "name": "postId",
          "type": "uint256"
        },
        {
          "internalType": "string",
          "name": "shareText",
          "type": "string"
        }
      ],
      "name": "sharePost",
      "outputs": [],
      "stateMutability": "nonpayable",
      "type": "function"
    },
    {
      "inputs": [
        {
          "internalType": "bytes4",
          "name": "interfaceId",
          "type": "bytes4"
        }
      ],
      "name": "supportsInterface",
      "outputs": [
        {
          "internalType": "bool",
          "name": "",
          "type": "bool"
        }
      ],
      "stateMutability": "view",
      "type": "function"
    },
    {
      "inputs": [
        {
          "internalType": "uint256",
          "name": "postId",
          "type": "uint256"
        },
        {
          "internalType": "uint256",
          "name": "commentId",
          "type": "uint256"
        }
      ],
      "name": "toggleCommentLike",
      "outputs": [],
      "stateMutability": "nonpayable",
      "type": "function"
    },
    {
      "inputs": [
        {
          "internalType": "uint256",
          "name": "postId",
          "type": "uint256"
        }
      ],
      "name": "togglePostLike",
      "outputs": [],
      "stateMutability": "nonpayable",
      "type": "function"
    },
    {
      "inputs": [],
      "name": "totalComments",
      "outputs": [
        {
          "internalType": "uint256",
          "name": "",
          "type": "uint256"
        }
      ],
      "stateMutability": "view",
      "type": "function"
    },
    {
      "inputs": [],
      "name": "totalLikes",
      "outputs": [
        {
          "internalType": "uint256",
          "name": "",
          "type": "uint256"
        }
      ],
      "stateMutability": "view",
      "type": "function"
    },
    {
      "inputs": [],
      "name": "totalShares",
      "outputs": [
        {
          "internalType": "uint256",
          "name": "",
          "type": "uint256"
        }
      ],
      "stateMutability": "view",
      "type": "function"
    },
    {
      "inputs": [],
      "name": "unpause",
      "outputs": [],
      "stateMutability": "nonpayable",
      "type": "function"
    },
    {
      "inputs": [
        {
          "internalType": "uint256",
          "name": "",
          "type": "uint256"
        },
        {
          "internalType": "address",
          "name": "",
          "type": "address"
        }
      ],
      "name": "userCommentLikes",
      "outputs": [
        {
          "internalType": "address",
          "name": "user",
          "type": "address"
        },
        {
          "internalType": "uint256",
          "name": "timestamp",
          "type": "uint256"
        },
        {
          "internalType": "bool",
          "name": "isActive",
          "type": "bool"
        }
      ],
      "stateMutability": "view",
      "type": "function"
    },
    {
      "inputs": [
        {
          "internalType": "uint256",
          "name": "",
          "type": "uint256"
        },
        {
          "internalType": "address",
          "name": "",
          "type": "address"
        }
      ],
      "name": "userPostLikes",
      "outputs": [
        {
          "internalType": "address",
          "name": "user",
          "type": "address"
        },
        {
          "internalType": "uint256",
          "name": "timestamp",
          "type": "uint256"
        },
        {
          "internalType": "bool",
          "name": "isActive",
          "type": "bool"
        }
      ],
      "stateMutability": "view",
      "type": "function"
    },
    {
      "inputs": [
        {
          "internalType": "uint256",
          "name": "",
          "type": "uint256"
        },
        {
          "internalType": "address",
          "name": "",
          "type": "address"
        }
      ],
      "name": "userPostShares",
      "outputs": [
        {
          "internalType": "address",
          "name": "user",
          "type": "address"
        },
        {
          "internalType": "uint256",
          "name": "timestamp",
          "type": "uint256"
        },
        {
          "internalType": "string",
          "name": "shareText",
          "type": "string"
        }
      ],
      "stateMutability": "view",
      "type": "function"
    }
  ],
  "bytecode": "0x608060405234620000375760016000556200001a336200003c565b506200002633620000bd565b50604051611e1d9081620001618239f35b600080fd5b6001600160a01b031660008181527fa6eef7e35abe7026729641147f7915573c7e97b47efa546f5f6e3230263bcb49602052604081205490919060ff16620000b95781805260016020526040822081835260205260408220600160ff19825416179055339160008051602062001f7e8339815191528180a4600190565b5090565b6001600160a01b031660008181527fd8da658d3cf482de6fd0df48fddbbd7b8ceb00be46c8a13d08f322f901c5ad8260205260408120549091907f71f3d55856e4058ed06ee057d79ada615f65cdf5f9ee88181b914225088f834f9060ff166200015b5780835260016020526040832082845260205260408320600160ff1982541617905560008051602062001f7e833981519152339380a4600190565b50509056fe608080604052600436101561001357600080fd5b60003560e01c90816301ffc9a7146115675750806308e68a6e1461153b5780630f90d9001461151d578063136d8883146114eb5780631e13c31e14611209578063248a9ca3146111da5780632c52d939146111ae5780632f2ff15d1461116f57806331a4bcb514610f8257806336568abe14610f3b5780633a98ef3914610f1d5780633f4ba83a14610eb35780634889275314610e005780635193c94c14610d585780635bae957c14610d2c5780635c975abb14610d0957806361936b8114610ceb57806365e9c188146108e85780636e2e923a146108bc578063797669c91461088157806382b1b9c31461080d5780638456cb59146107b357806389dba6531461076357806391d148541461071657806396f25073146105e3578063a217fddf146105c7578063a351fe4f146103d7578063ad3b1d971461037e578063bebce300146102f8578063d547741f146102b7578063d9a087311461024e578063f2a43db8146101fe5763f3efcc281461018a57600080fd5b346101f95760403660031901126101f9576101a3611650565b600480356000908152602091825260408082206001600160a01b0394851683528352908190208054600182015460029092015483519190951681529283015260ff909216151591810191909152606090f35b0390f35b600080fd5b346101f95760403660031901126101f957610217611650565b600435600052600460205260406000209060018060a01b0316600052602052602060ff600260406000200154166040519015158152f35b346101f95760403660031901126101f957610267611650565b60043560009081526008602090815260408083206001600160a01b0394851684528252918290208054600182015460029092015484519190951681529182015260ff909216151590820152606090f35b346101f95760403660031901126101f9576102f66004356102d6611650565b908060005260016020526102f1600160406000200154611cca565b611d70565b005b346101f95760603660031901126101f95761031a604435602435600435611a24565b60405160209160208201926020835281518094526040830193602060408260051b8601019301916000955b8287106103525785850386f35b90919293828061036e600193603f198a820301865288516116bc565b9601920196019592919092610345565b346101f95760203660031901126101f957600435600052600360205260406000205460066020526040600020549060096020526101f5604060002054604051938493846040919493926060820195825260208201520152565b346101f9576103e536611666565b6103ed611c4f565b6103f5611c72565b610400821515611802565b61040b8115156118c1565b81600052600560209281845260406000208360005284526104326040600020541515611902565b80600052818452604060002083600052845260ff60066040600020015416610582578260005260088452604060002033600052845260406000206002810190815460ff81166000146104f757505060ff1981541690558260005260078452604060002061049f8154611985565b905560005280835260406000208260005283526040600020016104c28154611985565b90557f1bf24e1845d1d7c0758d93ede4ec7ff5c6187fe053d29790baa2eee61bacef0a604051924284523393a35b6001600055005b81546001600160a01b031916331782554260019283015560ff191617905560008381526007855260409020805461052d9061189c565b90556000528083526040600020826000528352604060002001610550815461189c565b90557f74193480b729de5bd62f8dc477d123a18811cce036b34c0747a1d0f1e8a2a65e604051924284523393a36104f0565b60405162461bcd60e51b815260048101859052601b60248201527f43616e6e6f74206c696b652064656c6574656420636f6d6d656e7400000000006044820152606490fd5b346101f95760003660031901126101f957602060405160008152f35b346101f9576020806003193601126101f957600435610600611c4f565b610608611c72565b610613811515611802565b8060005260048252604060002033600052825260406000206002810190815460ff81166000146106a057505060ff1981541690558060005260038252604060002061065e8154611985565b905561066b600c54611985565b600c557ff82778657f73816e36e0eec83627a423a37071dfb38bb1dab6a21eb62cc2ff65604051924284523393a36001600055005b81546001600160a01b031916331782554260019283015560ff19161790556000818152600383526040902080546106d69061189c565b90556106e3600c5461189c565b600c557fdfb8e3561bacb6caea7f0960d425956921b9147a631b6e857325c39911ee7e3b604051924284523393a36104f0565b346101f95760403660031901126101f95761072f611650565b600435600052600160205260406000209060018060a01b0316600052602052602060ff604060002054166040519015158152f35b346101f95760403660031901126101f95761077c611650565b600435600052600860205260406000209060018060a01b0316600052602052602060ff600260406000200154166040519015158152f35b346101f95760003660031901126101f9576107cc611c90565b6107d4611c72565b600160ff1960025416176002557f62e78cea01bee320cd4e420270b5ea74000d11b0c9f74754ebdbfc544b05a2586020604051338152a1005b346101f95760403660031901126101f957610826611650565b600435600052600a602052604060002060018060a01b038092166000526020526040600020908154166101f561086360026001850154940161175d565b6040519384938452602084015260606040840152606083019061167c565b346101f95760003660031901126101f95760206040517f71f3d55856e4058ed06ee057d79ada615f65cdf5f9ee88181b914225088f834f8152f35b346101f95760203660031901126101f95760043560005260036020526020604060002054604051908152f35b346101f95760603660031901126101f95767ffffffffffffffff6024358181116101f95761091a9036906004016115f9565b610922611c4f565b61092a611c72565b6109376004351515611802565b805115610ca6576103e8815111610c6e57604435610b95575b6004356000526006602052604060002061096a815461189c565b9055610977600b5461189c565b600b55600435600052600660205260406000205490604051610998816115ba565b8281526004356020820152604081019033825260608101838152426080830152600060a0830152600060c083015260443560e083015260043560005260056020526040600020856000526020526040600020928251845560208301516001850155600284019060018060a01b039051166bffffffffffffffffffffffff60a01b82541617905551948551908111610b7f57602095610a4682610a3d6003870154611723565b60038701611857565b8690601f8311600114610b0c5791806007949260e094600092610b01575b50508160011b916000199060031b1c19161760038501555b6080810151600485015560a081015160058501556006840160c0820151151560ff80198354169116179055015191015581610ac26040519260408452604084019061167c565b604435858401527f421f804a0b21938816743b4f5bf6076d33137a72a0eaebd93abd7e2fd7ac2071339380600435930390a46001600055604051908152f35b015190508980610a64565b9060038501600052876000209160005b601f1985168110610b685750926007949260019260e09583601f19811610610b4f575b505050811b016003850155610a7c565b015160001960f88460031b161c19169055898080610b3f565b919289600181928685015181550194019201610b1c565b634e487b7160e01b600052604160045260246000fd5b6004356000526020600581526040600020604435600052815260406000205415610c2a57600435600052600581526040600020604435600052815260ff60066040600020015416610be65750610950565b6064906040519062461bcd60e51b82526004820152601f60248201527f43616e6e6f74207265706c7920746f2064656c6574656420636f6d6d656e74006044820152fd5b6064906040519062461bcd60e51b82526004820152601d60248201527f506172656e7420636f6d6d656e7420646f6573206e6f742065786973740000006044820152fd5b60405162461bcd60e51b815260206004820152601060248201526f436f6d6d656e7420746f6f206c6f6e6760801b6044820152606490fd5b60405162461bcd60e51b815260206004820152601760248201527f436f6d6d656e742063616e6e6f7420626520656d7074790000000000000000006044820152606490fd5b346101f95760003660031901126101f9576020600b54604051908152f35b346101f95760003660031901126101f957602060ff600254166040519015158152f35b346101f95760203660031901126101f95760043560005260076020526020604060002054604051908152f35b346101f957610d6636611666565b906000526005602052604060002090600052602052604060002080549060018101549060018060a01b0360028201541692610da36003830161175d565b91600481015492610de5600583015491600760ff60068601541694015494604051988998610100928a5260208a0152604089015280606089015287019061167c565b93608086015260a0850152151560c084015260e08301520390f35b346101f957610e0e36611666565b90610e17611947565b5060005260056020526040600020906000526020526101f56040600020600760405191610e43836115ba565b805483526001810154602084015260028101546001600160a01b03166040840152610e706003820161175d565b606084015260048101546080840152600581015460a084015260ff600682015416151560c0840152015460e08201526040519182916020835260208301906116bc565b346101f95760003660031901126101f957610ecc611c90565b60025460ff811615610f0b5760ff19166002557f5db9ee0a495bf2e6ff9c91a7834c1ba4fdd244a5e8aa4e537bd38aeae4b073aa6020604051338152a1005b604051638dfc202b60e01b8152600490fd5b346101f95760003660031901126101f9576020600d54604051908152f35b346101f95760403660031901126101f957610f54611650565b336001600160a01b03821603610f70576102f690600435611d70565b60405163334bd91960e11b8152600490fd5b346101f957610f9036611666565b3360009081527fd8da658d3cf482de6fd0df48fddbbd7b8ceb00be46c8a13d08f322f901c5ad8260209081526040909120547f71f3d55856e4058ed06ee057d79ada615f65cdf5f9ee88181b914225088f834f9060ff16156111515750610ff8831515611802565b6110038215156118c1565b826000526005815260406000208260005281526110266040600020541515611902565b8260005260058152604060002082600052815260ff6006604060002001541661110d57826000526005815260406000208260005281526006604060002001600160ff19825416179055826000526005815260406000208260005281526003604060002001906110958254611723565b601f81116110ec575b50507f5b436f6d6d656e742064656c65746564206279206d6f64657261746f725d003c905533917f6ee692db105027f6f2626ec7348b1fee62bdd8b6aa9c2999ceed2aebd4dc3ee9600080a4005b601f6111069284600052600020910160051c810190611840565b838061109e565b6064906040519062461bcd60e51b82526004820152601760248201527f436f6d6d656e7420616c72656164792064656c657465640000000000000000006044820152fd5b6044906040519063e2517d3f60e01b82523360048301526024820152fd5b346101f95760403660031901126101f9576102f660043561118e611650565b908060005260016020526111a9600160406000200154611cca565b611cf0565b346101f95760203660031901126101f95760043560005260066020526020604060002054604051908152f35b346101f95760203660031901126101f95760043560005260016020526020600160406000200154604051908152f35b346101f95760403660031901126101f95767ffffffffffffffff6004356024358281116101f95761123e9036906004016115f9565b90611247611c4f565b61124f611c72565b61125a811515611802565b6101f48251116114b05780600052602090600a8252604060002033600052825260018060a01b0392836040600020541615801561148d575b1561144857604051936060850185811087821117610b7f57604052338552600284860195428752604081019284845285600052600a8752604060002033600052875260406000209151166bffffffffffffffffffffffff60a01b8254161781556001965187820155019051958651908111610b7f5761131b816113158454611723565b84611857565b84601f82116001146113c25781907f480a907a3fc43b93ea50c17e942fa055df32993efa16993e8bc30a98e5f9fea7959697986000926113b7575b5050600019600383901b1c191690871b1790555b82600052600984526040600020611381815461189c565b905561138e600d5461189c565b600d556113a66040519160408352604083019061167c565b9342908201528033940390a3600055005b015190508880611356565b601f1982169783600052866000209860005b818110611433575091889991847f480a907a3fc43b93ea50c17e942fa055df32993efa16993e8bc30a98e5f9fea798999a95941061141a575b505050811b01905561136a565b015160001960f88460031b161c1916905588808061140d565b838301518b55998901999288019288016113d4565b60405162461bcd60e51b815260048101849052601860248201527f416c726561647920736861726564207468697320706f737400000000000000006044820152606490fd5b5081600052600a8352604060002033600052835260016040600020015415611292565b60405162461bcd60e51b81526020600482015260136024820152725368617265207465787420746f6f206c6f6e6760681b6044820152606490fd5b346101f95760003660031901126101f957600c54600b54600d5460408051938452602084019290925290820152606090f35b346101f95760003660031901126101f9576020600c54604051908152f35b346101f95760203660031901126101f95760043560005260096020526020604060002054604051908152f35b346101f95760203660031901126101f9576004359063ffffffff60e01b82168092036101f957602091637965db0b60e01b81149081156115a9575b5015158152f35b6301ffc9a760e01b149050836115a2565b610100810190811067ffffffffffffffff821117610b7f57604052565b90601f8019910116810190811067ffffffffffffffff821117610b7f57604052565b81601f820112156101f95780359067ffffffffffffffff8211610b7f576040519261162e601f8401601f1916602001856115d7565b828452602083830101116101f957816000926020809301838601378301015290565b602435906001600160a01b03821682036101f957565b60409060031901126101f9576004359060243590565b919082519283825260005b8481106116a8575050826000602080949584010152601f8019910116010190565b602081830181015184830182015201611687565b9060e0806116fa610100855185526020860151602086015260018060a01b03604087015116604086015260608601519080606087015285019061167c565b936080810151608085015260a081015160a085015260c0810151151560c0850152015191015290565b90600182811c92168015611753575b602083101461173d57565b634e487b7160e01b600052602260045260246000fd5b91607f1691611732565b9060405191826000825461177081611723565b908184526020946001916001811690816000146117e057506001146117a1575b50505061179f925003836115d7565b565b600090815285812095935091905b8183106117c857505061179f9350820101388080611790565b855488840185015294850194879450918301916117af565b9250505061179f94925060ff191682840152151560051b820101388080611790565b1561180957565b60405162461bcd60e51b815260206004820152600f60248201526e125b9d985b1a59081c1bdcdd081251608a1b6044820152606490fd5b81811061184b575050565b60008155600101611840565b9190601f811161186657505050565b61179f926000526020600020906020601f840160051c83019310611892575b601f0160051c0190611840565b9091508190611885565b60001981146118ab5760010190565b634e487b7160e01b600052601160045260246000fd5b156118c857565b60405162461bcd60e51b8152602060048201526012602482015271125b9d985b1a590818dbdb5b595b9d08125160721b6044820152606490fd5b1561190957565b60405162461bcd60e51b815260206004820152601660248201527510dbdb5b595b9d08191bd95cc81b9bdd08195e1a5cdd60521b6044820152606490fd5b60405190611954826115ba565b8160e06000918281528260208201528260408201526060808201528260808201528260a08201528260c08201520152565b80156118ab576000190190565b67ffffffffffffffff8111610b7f5760051b60200190565b906119b482611992565b6119c160405191826115d7565b82815280926119d2601f1991611992565b019060005b8281106119e357505050565b6020906119ee611947565b828285010152016119d7565b8051821015611a0e5760209160051b010190565b634e487b7160e01b600052603260045260246000fd5b9160328111611c195760009280845260069160209160068352604090818720549283871015611bdf57860192838711611bc357808411611bd7575b50858303838111611bc357611a73906119aa565b93879560019760018101809111611baf575b85811115611ad557505050505050611a9c826119aa565b935b828110611aac575050505090565b80611ab88592846119fa565b51611ac382886119fa565b52611ace81876119fa565b5001611a9e565b838a52886005808552868c20838d52855260ff8c81868a832001541615611b09575b50505050611b049061189c565b611a85565b849b92611ba394928a83611b04988c60079652848c528282209082528b5220918b5194611b35866115ba565b835486528301548a86015260028301546001600160a01b03168c860152611b5e6003840161175d565b60608601526004830154608086015282015460a08501528782015416151560c0840152015460e0820152611b92828b6119fa565b52611b9d818a6119fa565b5061189c565b9790508838808c611af7565b634e487b7160e01b8a52601160045260248afd5b634e487b7160e01b88526011600452602488fd5b925038611a5f565b5050805195945091850192505067ffffffffffffffff821184831017611c055752815290565b634e487b7160e01b83526041600452602483fd5b60405162461bcd60e51b815260206004820152600e60248201526d098d2dad2e840e8dede40d0d2ced60931b6044820152606490fd5b600260005414611c60576002600055565b604051633ee5aeb560e01b8152600490fd5b60ff60025416611c7e57565b60405163d93c066560e01b8152600490fd5b3360009081527fa6eef7e35abe7026729641147f7915573c7e97b47efa546f5f6e3230263bcb49602052604081205460ff16156111515750565b80600052600160205260406000203360005260205260ff60406000205416156111515750565b906000918083526001602052604083209160018060a01b03169182845260205260ff60408420541615600014611d6b5780835260016020526040832082845260205260408320600160ff198254161790557f2f8788117e7eff1d82e926ec794901d17c78024a50270940304540a733656f0d339380a4600190565b505090565b906000918083526001602052604083209160018060a01b03169182845260205260ff604084205416600014611d6b578083526001602052604083208284526020526040832060ff1981541690557ff6391f5c32d9c69d2a47ea670b442974b53935d1edc7fd64eb21e047a839171b339380a460019056fea2646970667358221220ef2d44d19668efff30de55fd74f09a0be846af584dc83c0114fd0cd4170d15a364736f6c634300081800332f8788117e7eff1d82e926ec794901d17c78024a50270940304540a733656f0d",
  "linkReferences": {},
  "deployedLinkReferences": {}
}