{
  "_format": "hh-sol-artifact-1",
  "contractName": "PersonalizedFeed",
  "sourceName": "contracts/PersonalizedFeed.sol",
  "abi": [
    {
      "inputs": [],
      "stateMutability": "nonpayable",
      "type": "constructor"
    },
    {
      "inputs": [],
      "name": "AccessControlBadConfirmation",
      "type": "error"
    },
    {
      "inputs": [
        {
          "internalType": "address",
          "name": "account",
          "type": "address"
        },
        {
          "internalType": "bytes32",
          "name": "neededRole",
          "type": "bytes32"
        }
      ],
      "name": "AccessControlUnauthorizedAccount",
      "type": "error"
    },
    {
      "inputs": [],
      "name": "EnforcedPause",
      "type": "error"
    },
    {
      "inputs": [],
      "name": "ExpectedPause",
      "type": "error"
    },
    {
      "inputs": [],
      "name": "ReentrancyGuardReentrantCall",
      "type": "error"
    },
    {
      "anonymous": false,
      "inputs": [
        {
          "indexed": true,
          "internalType": "uint256",
          "name": "contentId",
          "type": "uint256"
        },
        {
          "indexed": false,
          "internalType": "uint256",
          "name": "newScore",
          "type": "uint256"
        },
        {
          "indexed": false,
          "internalType": "string",
          "name": "reason",
          "type": "string"
        }
      ],
      "name": "ContentScoreUpdated",
      "type": "event"
    },
    {
      "anonymous": false,
      "inputs": [
        {
          "indexed": true,
          "internalType": "address",
          "name": "user",
          "type": "address"
        },
        {
          "indexed": false,
          "internalType": "uint256",
          "name": "itemCount",
          "type": "uint256"
        },
        {
          "indexed": false,
          "internalType": "uint256",
          "name": "timestamp",
          "type": "uint256"
        }
      ],
      "name": "FeedGenerated",
      "type": "event"
    },
    {
      "anonymous": false,
      "inputs": [
        {
          "indexed": true,
          "internalType": "address",
          "name": "user",
          "type": "address"
        },
        {
          "indexed": true,
          "internalType": "uint256",
          "name": "contentId",
          "type": "uint256"
        },
        {
          "indexed": false,
          "internalType": "string",
          "name": "interactionType",
          "type": "string"
        },
        {
          "indexed": false,
          "internalType": "uint256",
          "name": "weight",
          "type": "uint256"
        }
      ],
      "name": "InteractionRecorded",
      "type": "event"
    },
    {
      "anonymous": false,
      "inputs": [
        {
          "indexed": false,
          "internalType": "address",
          "name": "account",
          "type": "address"
        }
      ],
      "name": "Paused",
      "type": "event"
    },
    {
      "anonymous": false,
      "inputs": [
        {
          "indexed": true,
          "internalType": "address",
          "name": "user",
          "type": "address"
        },
        {
          "indexed": false,
          "internalType": "string[]",
          "name": "preferredTopics",
          "type": "string[]"
        },
        {
          "indexed": false,
          "internalType": "string[]",
          "name": "blockedTopics",
          "type": "string[]"
        }
      ],
      "name": "PreferencesUpdated",
      "type": "event"
    },
    {
      "anonymous": false,
      "inputs": [
        {
          "indexed": true,
          "internalType": "bytes32",
          "name": "role",
          "type": "bytes32"
        },
        {
          "indexed": true,
          "internalType": "bytes32",
          "name": "previousAdminRole",
          "type": "bytes32"
        },
        {
          "indexed": true,
          "internalType": "bytes32",
          "name": "newAdminRole",
          "type": "bytes32"
        }
      ],
      "name": "RoleAdminChanged",
      "type": "event"
    },
    {
      "anonymous": false,
      "inputs": [
        {
          "indexed": true,
          "internalType": "bytes32",
          "name": "role",
          "type": "bytes32"
        },
        {
          "indexed": true,
          "internalType": "address",
          "name": "account",
          "type": "address"
        },
        {
          "indexed": true,
          "internalType": "address",
          "name": "sender",
          "type": "address"
        }
      ],
      "name": "RoleGranted",
      "type": "event"
    },
    {
      "anonymous": false,
      "inputs": [
        {
          "indexed": true,
          "internalType": "bytes32",
          "name": "role",
          "type": "bytes32"
        },
        {
          "indexed": true,
          "internalType": "address",
          "name": "account",
          "type": "address"
        },
        {
          "indexed": true,
          "internalType": "address",
          "name": "sender",
          "type": "address"
        }
      ],
      "name": "RoleRevoked",
      "type": "event"
    },
    {
      "anonymous": false,
      "inputs": [
        {
          "indexed": false,
          "internalType": "uint256[]",
          "name": "contentIds",
          "type": "uint256[]"
        },
        {
          "indexed": false,
          "internalType": "string[]",
          "name": "topics",
          "type": "string[]"
        }
      ],
      "name": "TrendingContentUpdated",
      "type": "event"
    },
    {
      "anonymous": false,
      "inputs": [
        {
          "indexed": false,
          "internalType": "address",
          "name": "account",
          "type": "address"
        }
      ],
      "name": "Unpaused",
      "type": "event"
    },
    {
      "inputs": [],
      "name": "DECAY_FACTOR",
      "outputs": [
        {
          "internalType": "uint256",
          "name": "",
          "type": "uint256"
        }
      ],
      "stateMutability": "view",
      "type": "function"
    },
    {
      "inputs": [],
      "name": "DEFAULT_ADMIN_ROLE",
      "outputs": [
        {
          "internalType": "bytes32",
          "name": "",
          "type": "bytes32"
        }
      ],
      "stateMutability": "view",
      "type": "function"
    },
    {
      "inputs": [],
      "name": "FEED_MANAGER_ROLE",
      "outputs": [
        {
          "internalType": "bytes32",
          "name": "",
          "type": "bytes32"
        }
      ],
      "stateMutability": "view",
      "type": "function"
    },
    {
      "inputs": [],
      "name": "MAX_FEED_SIZE",
      "outputs": [
        {
          "internalType": "uint256",
          "name": "",
          "type": "uint256"
        }
      ],
      "stateMutability": "view",
      "type": "function"
    },
    {
      "inputs": [],
      "name": "MODERATOR_ROLE",
      "outputs": [
        {
          "internalType": "bytes32",
          "name": "",
          "type": "bytes32"
        }
      ],
      "stateMutability": "view",
      "type": "function"
    },
    {
      "inputs": [],
      "name": "TRENDING_THRESHOLD",
      "outputs": [
        {
          "internalType": "uint256",
          "name": "",
          "type": "uint256"
        }
      ],
      "stateMutability": "view",
      "type": "function"
    },
    {
      "inputs": [
        {
          "internalType": "address",
          "name": "",
          "type": "address"
        },
        {
          "internalType": "address",
          "name": "",
          "type": "address"
        }
      ],
      "name": "authorInteractions",
      "outputs": [
        {
          "internalType": "uint256",
          "name": "",
          "type": "uint256"
        }
      ],
      "stateMutability": "view",
      "type": "function"
    },
    {
      "inputs": [
        {
          "internalType": "uint256",
          "name": "",
          "type": "uint256"
        }
      ],
      "name": "contentScores",
      "outputs": [
        {
          "internalType": "uint256",
          "name": "contentId",
          "type": "uint256"
        },
        {
          "internalType": "uint256",
          "name": "score",
          "type": "uint256"
        },
        {
          "internalType": "uint256",
          "name": "timestamp",
          "type": "uint256"
        },
        {
          "internalType": "string",
          "name": "contentType",
          "type": "string"
        }
      ],
      "stateMutability": "view",
      "type": "function"
    },
    {
      "inputs": [
        {
          "internalType": "address",
          "name": "user",
          "type": "address"
        },
        {
          "internalType": "uint256[]",
          "name": "availableContent",
          "type": "uint256[]"
        },
        {
          "components": [
            {
              "internalType": "uint256",
              "name": "contentId",
              "type": "uint256"
            },
            {
              "internalType": "address",
              "name": "author",
              "type": "address"
            },
            {
              "internalType": "string",
              "name": "contentType",
              "type": "string"
            },
            {
              "internalType": "string[]",
              "name": "topics",
              "type": "string[]"
            },
            {
              "internalType": "uint256",
              "name": "score",
              "type": "uint256"
            },
            {
              "internalType": "uint256",
              "name": "timestamp",
              "type": "uint256"
            },
            {
              "internalType": "uint256",
              "name": "engagementCount",
              "type": "uint256"
            },
            {
              "internalType": "bool",
              "name": "isPromoted",
              "type": "bool"
            }
          ],
          "internalType": "struct PersonalizedFeed.FeedItem[]",
          "name": "contentItems",
          "type": "tuple[]"
        }
      ],
      "name": "generatePersonalizedFeed",
      "outputs": [
        {
          "internalType": "uint256[]",
          "name": "",
          "type": "uint256[]"
        }
      ],
      "stateMutability": "nonpayable",
      "type": "function"
    },
    {
      "inputs": [
        {
          "internalType": "uint256",
          "name": "contentId",
          "type": "uint256"
        }
      ],
      "name": "getContentScore",
      "outputs": [
        {
          "components": [
            {
              "internalType": "uint256",
              "name": "contentId",
              "type": "uint256"
            },
            {
              "internalType": "uint256",
              "name": "score",
              "type": "uint256"
            },
            {
              "internalType": "uint256",
              "name": "timestamp",
              "type": "uint256"
            },
            {
              "internalType": "string",
              "name": "contentType",
              "type": "string"
            }
          ],
          "internalType": "struct PersonalizedFeed.ContentScore",
          "name": "",
          "type": "tuple"
        }
      ],
      "stateMutability": "view",
      "type": "function"
    },
    {
      "inputs": [
        {
          "internalType": "bytes32",
          "name": "role",
          "type": "bytes32"
        }
      ],
      "name": "getRoleAdmin",
      "outputs": [
        {
          "internalType": "bytes32",
          "name": "",
          "type": "bytes32"
        }
      ],
      "stateMutability": "view",
      "type": "function"
    },
    {
      "inputs": [],
      "name": "getTrendingContent",
      "outputs": [
        {
          "internalType": "uint256[]",
          "name": "",
          "type": "uint256[]"
        },
        {
          "internalType": "string[]",
          "name": "",
          "type": "string[]"
        }
      ],
      "stateMutability": "view",
      "type": "function"
    },
    {
      "inputs": [
        {
          "internalType": "address",
          "name": "user",
          "type": "address"
        }
      ],
      "name": "getUserFeed",
      "outputs": [
        {
          "internalType": "uint256[]",
          "name": "",
          "type": "uint256[]"
        }
      ],
      "stateMutability": "view",
      "type": "function"
    },
    {
      "inputs": [
        {
          "internalType": "address",
          "name": "user",
          "type": "address"
        }
      ],
      "name": "getUserPreferences",
      "outputs": [
        {
          "components": [
            {
              "internalType": "string[]",
              "name": "preferredTopics",
              "type": "string[]"
            },
            {
              "internalType": "string[]",
              "name": "blockedTopics",
              "type": "string[]"
            },
            {
              "internalType": "uint256",
              "name": "contentFreshness",
              "type": "uint256"
            },
            {
              "internalType": "uint256",
              "name": "socialWeight",
              "type": "uint256"
            },
            {
              "internalType": "uint256",
              "name": "engagementWeight",
              "type": "uint256"
            },
            {
              "internalType": "bool",
              "name": "enablePersonalization",
              "type": "bool"
            },
            {
              "internalType": "uint256",
              "name": "lastUpdated",
              "type": "uint256"
            }
          ],
          "internalType": "struct PersonalizedFeed.UserPreferences",
          "name": "",
          "type": "tuple"
        }
      ],
      "stateMutability": "view",
      "type": "function"
    },
    {
      "inputs": [
        {
          "internalType": "bytes32",
          "name": "role",
          "type": "bytes32"
        },
        {
          "internalType": "address",
          "name": "account",
          "type": "address"
        }
      ],
      "name": "grantRole",
      "outputs": [],
      "stateMutability": "nonpayable",
      "type": "function"
    },
    {
      "inputs": [
        {
          "internalType": "bytes32",
          "name": "role",
          "type": "bytes32"
        },
        {
          "internalType": "address",
          "name": "account",
          "type": "address"
        }
      ],
      "name": "hasRole",
      "outputs": [
        {
          "internalType": "bool",
          "name": "",
          "type": "bool"
        }
      ],
      "stateMutability": "view",
      "type": "function"
    },
    {
      "inputs": [],
      "name": "pause",
      "outputs": [],
      "stateMutability": "nonpayable",
      "type": "function"
    },
    {
      "inputs": [],
      "name": "paused",
      "outputs": [
        {
          "internalType": "bool",
          "name": "",
          "type": "bool"
        }
      ],
      "stateMutability": "view",
      "type": "function"
    },
    {
      "inputs": [
        {
          "internalType": "address",
          "name": "user",
          "type": "address"
        },
        {
          "internalType": "uint256",
          "name": "contentId",
          "type": "uint256"
        },
        {
          "internalType": "string",
          "name": "interactionType",
          "type": "string"
        },
        {
          "internalType": "uint256",
          "name": "timeSpent",
          "type": "uint256"
        },
        {
          "internalType": "string[]",
          "name": "topics",
          "type": "string[]"
        },
        {
          "internalType": "address",
          "name": "author",
          "type": "address"
        }
      ],
      "name": "recordInteraction",
      "outputs": [],
      "stateMutability": "nonpayable",
      "type": "function"
    },
    {
      "inputs": [
        {
          "internalType": "bytes32",
          "name": "role",
          "type": "bytes32"
        },
        {
          "internalType": "address",
          "name": "callerConfirmation",
          "type": "address"
        }
      ],
      "name": "renounceRole",
      "outputs": [],
      "stateMutability": "nonpayable",
      "type": "function"
    },
    {
      "inputs": [
        {
          "internalType": "bytes32",
          "name": "role",
          "type": "bytes32"
        },
        {
          "internalType": "address",
          "name": "account",
          "type": "address"
        }
      ],
      "name": "revokeRole",
      "outputs": [],
      "stateMutability": "nonpayable",
      "type": "function"
    },
    {
      "inputs": [
        {
          "internalType": "bytes4",
          "name": "interfaceId",
          "type": "bytes4"
        }
      ],
      "name": "supportsInterface",
      "outputs": [
        {
          "internalType": "bool",
          "name": "",
          "type": "bool"
        }
      ],
      "stateMutability": "view",
      "type": "function"
    },
    {
      "inputs": [
        {
          "internalType": "address",
          "name": "",
          "type": "address"
        },
        {
          "internalType": "string",
          "name": "",
          "type": "string"
        }
      ],
      "name": "topicInteractions",
      "outputs": [
        {
          "internalType": "uint256",
          "name": "",
          "type": "uint256"
        }
      ],
      "stateMutability": "view",
      "type": "function"
    },
    {
      "inputs": [
        {
          "internalType": "uint256",
          "name": "",
          "type": "uint256"
        }
      ],
      "name": "trendingContent",
      "outputs": [
        {
          "internalType": "uint256",
          "name": "",
          "type": "uint256"
        }
      ],
      "stateMutability": "view",
      "type": "function"
    },
    {
      "inputs": [
        {
          "internalType": "uint256",
          "name": "",
          "type": "uint256"
        }
      ],
      "name": "trendingTopics",
      "outputs": [
        {
          "internalType": "string",
          "name": "",
          "type": "string"
        }
      ],
      "stateMutability": "view",
      "type": "function"
    },
    {
      "inputs": [],
      "name": "unpause",
      "outputs": [],
      "stateMutability": "nonpayable",
      "type": "function"
    },
    {
      "inputs": [
        {
          "internalType": "uint256[]",
          "name": "contentIds",
          "type": "uint256[]"
        },
        {
          "internalType": "string[]",
          "name": "topics",
          "type": "string[]"
        }
      ],
      "name": "updateTrendingContent",
      "outputs": [],
      "stateMutability": "nonpayable",
      "type": "function"
    },
    {
      "inputs": [
        {
          "internalType": "string[]",
          "name": "preferredTopics",
          "type": "string[]"
        },
        {
          "internalType": "string[]",
          "name": "blockedTopics",
          "type": "string[]"
        },
        {
          "internalType": "uint256",
          "name": "contentFreshness",
          "type": "uint256"
        },
        {
          "internalType": "uint256",
          "name": "socialWeight",
          "type": "uint256"
        },
        {
          "internalType": "uint256",
          "name": "engagementWeight",
          "type": "uint256"
        },
        {
          "internalType": "bool",
          "name": "enablePersonalization",
          "type": "bool"
        }
      ],
      "name": "updateUserPreferences",
      "outputs": [],
      "stateMutability": "nonpayable",
      "type": "function"
    },
    {
      "inputs": [
        {
          "internalType": "address",
          "name": "",
          "type": "address"
        },
        {
          "internalType": "uint256",
          "name": "",
          "type": "uint256"
        }
      ],
      "name": "userFeed",
      "outputs": [
        {
          "internalType": "uint256",
          "name": "",
          "type": "uint256"
        }
      ],
      "stateMutability": "view",
      "type": "function"
    },
    {
      "inputs": [
        {
          "internalType": "address",
          "name": "",
          "type": "address"
        },
        {
          "internalType": "uint256",
          "name": "",
          "type": "uint256"
        }
      ],
      "name": "userInteractions",
      "outputs": [
        {
          "internalType": "uint256",
          "name": "likes",
          "type": "uint256"
        },
        {
          "internalType": "uint256",
          "name": "comments",
          "type": "uint256"
        },
        {
          "internalType": "uint256",
          "name": "shares",
          "type": "uint256"
        },
        {
          "internalType": "uint256",
          "name": "views",
          "type": "uint256"
        },
        {
          "internalType": "uint256",
          "name": "timeSpent",
          "type": "uint256"
        },
        {
          "internalType": "uint256",
          "name": "lastInteraction",
          "type": "uint256"
        }
      ],
      "stateMutability": "view",
      "type": "function"
    },
    {
      "inputs": [
        {
          "internalType": "address",
          "name": "",
          "type": "address"
        }
      ],
      "name": "userPreferences",
      "outputs": [
        {
          "internalType": "uint256",
          "name": "contentFreshness",
          "type": "uint256"
        },
        {
          "internalType": "uint256",
          "name": "socialWeight",
          "type": "uint256"
        },
        {
          "internalType": "uint256",
          "name": "engagementWeight",
          "type": "uint256"
        },
        {
          "internalType": "bool",
          "name": "enablePersonalization",
          "type": "bool"
        },
        {
          "internalType": "uint256",
          "name": "lastUpdated",
          "type": "uint256"
        }
      ],
      "stateMutability": "view",
      "type": "function"
    }
  ],
  "bytecode": "0x608060405234620000425760018055620000193362000047565b506200002533620000c7565b50620000313362000169565b5060405161287d9081620002078239f35b600080fd5b6001600160a01b031660008181527fad3228b676f7d3cd4284a5443f17f1962b36e491b30a40b2405849e597ba5fb5602052604081205490919060ff16620000c357818052816020526040822081835260205260408220600160ff19825416179055339160008051602062002a848339815191528180a4600190565b5090565b6001600160a01b031660008181527ff179aafcc4ff8137fca1ef3b9ec4d165f87016ba123e7973fba770bc55e240e360205260408120549091907f71f3d55856e4058ed06ee057d79ada615f65cdf5f9ee88181b914225088f834f9060ff166200016457808352826020526040832082845260205260408320600160ff1982541617905560008051602062002a84833981519152339380a4600190565b505090565b6001600160a01b031660008181527f51ff18b21c447e105ebe7f1df018a6388f6b0b95b88884a053f40188c31af6b160205260408120549091907fddbe48f52bb812894c8051224ff4457244fc2b78c8caa3e39179c65d4b6de4129060ff166200016457808352826020526040832082845260205260408320600160ff1982541617905560008051602062002a84833981519152339380a460019056fe608080604052600436101561001357600080fd5b60003560e01c90816301ffc9a714611cd3575080630b6712b314611c825780631277dc1814611c65578063248a9ca314611c365780632e5a637014611bab5780632f2ff15d14611b6c57806334027fcf14611b5057806335b1233314611a2557806336568abe146119de578063395168941461198d5780633b0c795f146114605780633f4aeb42146113ff5780633f4ba83a146113955780635c975abb146113725780636793bcbf14611304578063797669c9146112c95780637db064a014610ef45780638456cb5914610e9a57806391d1485414610e4d57806398e3936014610e125780639b10964814610d64578063a12ab4af14610d11578063a217fddf14610cf5578063af070f821461077a578063d547741f14610739578063ddd45202146106fa578063e08eae5f146106dc578063eb55f1fa14610608578063f13188ec1461058e578063fbcf4a1a1461050f5763fcd195371461017457600080fd5b3461050a57604036600319011261050a576001600160401b0360043581811161050a576101a5903690600401611eb4565b90602491823582811161050a576101c0903690600401611f6a565b3360009081527f51ff18b21c447e105ebe7f1df018a6388f6b0b95b88884a053f40188c31af6b160209081526040909120549193917fddbe48f52bb812894c8051224ff4457244fc2b78c8caa3e39179c65d4b6de4129060ff16156104ed575082519180831161047f57600160401b928381116104d857600954816009558082106104b4575b50828501600960005260005b82811061049457505050845192831161047f57600a5483600a55808410610400575b509481850195600a600052600080516020612808833981519152916000975b8589106102d0576040517fe420272ba379b256573b36995833c349ad4b7770cff2098fdf2692e0adfde72590806102cb8b8b836120c8565b0390a1005b80518051908482116103eb57908692916102ea8754611fe9565b90601f918281116103b3575b508491831160011461034557826001959386959361032b9360009261033a575b50508160011b916000199060031b1c19161790565b87555b01940198019792610293565b015190503880610316565b90601f9493941983169188600052846000209260005b81811061039b5750916001969391858897969410610382575b505050831b8301875561032e565b015160001960f88460031b161c19169055388080610374565b8284015185558b96600190950194938401930161035b565b6103dc908960005286600020600585808801821c8301938a89106103e2575b01901c0190612211565b386102f6565b935082936103d2565b83634e487b7160e01b60005260416004526000fd5b600a6000528360008051602061280883398151915291820191015b8181106104285750610274565b8061043560019254611fe9565b80610442575b500161041b565b601f90818111841461045b575050600081555b3861043b565b610476600092848452888420920160051c8201858301612211565b81835555610455565b85634e487b7160e01b60005260416004526000fd5b815160008051602061282883398151915282015590840190600101610252565b6104d290826000805160206128288339815191529182019101612211565b38610246565b86634e487b7160e01b60005260416004526000fd5b856044916040519163e2517d3f60e01b8352336004840152820152fd5b600080fd5b3461050a57604036600319011261050a576001600160a01b03610530611d26565b166000526003602052604060002060243560005260205260c0604060002080549060018101549060028101546003820154906005600484015493015493604051958652602086015260408501526060840152608083015260a0820152f35b3461050a57604036600319011261050a576105a7611d26565b602435906001600160401b03821161050a5760206105f6916105ce82943690600401611f14565b9060018060a01b03166000526005825260406000208260405194838680955193849201611d86565b82019081520301902054604051908152f35b3461050a57600036600319011261050a576040518060095480835281602080940160096000526000805160206128288339815191529260005b868282106106c6578461065681860382611e7c565b600a5461066281611e9d565b926106706040519485611e7c565b8184526020840190600a6000526000805160206128088339815191526000925b8484106106aa57604051806106a68989836120c8565b0390f35b60018381926106b885612023565b815201920193019290610690565b8554845260019586019587955093019201610641565b3461050a57600036600319011261050a576020604051620151808152f35b3461050a57602036600319011261050a5760043560095481101561050a5760209060096000526000805160206128288339815191520154604051908152f35b3461050a57604036600319011261050a57610778600435610758611d3c565b908060005260006020526107736001604060002001546122b1565b612355565b005b3461050a5760c036600319011261050a576004356001600160401b03811161050a576107aa903690600401611f6a565b6024356001600160401b03811161050a576107c9903690600401611f6a565b90606460a435801515810361050a576107e06123ca565b8160443511610cb25781803511610c77578160843511610c34573360005260046020526040600020918351600160401b8111610a21578354818555808210610bbe575b506020850190846000526020600020916000905b828210610ab057505050508451600160401b8111610a21576001840154816001860155808210610a37575b506020860190600185016000526020600020916000905b82821061090757887f87c301d672d5b2b7ebbb98d5d1f17f53f714003d5945437854f6eca9145b1dd86108ef8a8a8a8a60443560028401553560038301556084356004830155600582019060ff8019835416911515161790556006429101556108fe604051928392604084526040840190611dce565b82810360208401523395611dce565b0390a260018055005b80518051906001600160401b038211610a21576109248654611fe9565b90601f918281116109f1575b5060209183116001146109815792610967836001959460209487966000926109765750508160011b916000199060031b1c19161790565b87555b01940191019092610879565b015190508f80610316565b908660005260206000209160005b601f19851681106109d9575083602093600196938796938794601f198116106109c0575b505050811b01875561096a565b015160001960f88460031b161c191690558e80806109b3565b9192602060018192868501518155019401920161098f565b610a1b90886000526020600020600585808801821c830193602089106103e25701901c0190612211565b8c610930565b634e487b7160e01b600052604160045260246000fd5b600185016000526020600020908282015b8183018110610a58575050610862565b80610a6560019254611fe9565b80610a72575b5001610a48565b601f908181118414610a8b575050600081555b8a610a6b565b610aa760009284845260208420920160051c8201858301612211565b81835555610a85565b80518051906001600160401b038211610a2157610acd8654611fe9565b90601f91828111610b8e575b506020918311600114610b1f5792610b10836001959460209487966000926109765750508160011b916000199060031b1c19161790565b87555b01940191019092610837565b908660005260206000209160005b601f1985168110610b7657509260209260019592869583601f19811610610b5d575b505050831b83018755610b13565b015160001960f88460031b161c191690558d8080610b4f565b91926020600181928685015181550194019201610b2d565b610bb890886000526020600020600585808801821c830193602089106103e25701901c0190612211565b8c610ad9565b846000526020600020908282015b8183018110610bdc575050610823565b80610be960019254611fe9565b80610bf6575b5001610bcc565b601f908181118414610c0f575050600081555b8a610bef565b610c2b60009284845260208420920160051c8201858301612211565b81835555610c09565b5060405162461bcd60e51b815260206004820152601960248201527f496e76616c696420656e676167656d656e7420776569676874000000000000006044820152fd5b5060405162461bcd60e51b8152602060048201526015602482015274125b9d985b1a59081cdbd8da585b081dd95a59da1d605a1b6044820152fd5b5060405162461bcd60e51b815260206004820152601760248201527f496e76616c69642066726573686e6573732076616c75650000000000000000006044820152fd5b3461050a57600036600319011261050a57602060405160008152f35b3461050a57602036600319011261050a57600435600a5481101561050a57610d506106a691600a60005260008051602061280883398151915201612023565b604051918291602083526020830190611da9565b3461050a5760208060031936011261050a57606080604051610d8581611e46565b600081526000848201526000604082015201526004356000526007815260406000206106a660405191610db783611e46565b80548352600181015490848401918252610ddf60036002830154926040870193845201612023565b916060850192835260405195869581875251908601525160408501525160608401525160808084015260a0830190611da9565b3461050a57600036600319011261050a5760206040517fddbe48f52bb812894c8051224ff4457244fc2b78c8caa3e39179c65d4b6de4128152f35b3461050a57604036600319011261050a57610e66611d3c565b600435600052600060205260406000209060018060a01b0316600052602052602060ff604060002054166040519015158152f35b3461050a57600036600319011261050a57610eb3612237565b610ebb6123ed565b600160ff1960025416176002557f62e78cea01bee320cd4e420270b5ea74000d11b0c9f74754ebdbfc544b05a2586020604051338152a1005b3461050a5760c036600319011261050a57610f0d611d26565b602435906001600160401b0360443581811161050a57610f31903690600401611f14565b9060843590811161050a57610f4a903690600401611f6a565b6001600160a01b0360a435818116949085900361050a57610f696123ca565b610f716123ed565b1693610f7e851515612145565b801561128f57846000526020946003865260406000208260005286526040600020916001604051888101875191610fcc8b82818c0195610fbf818789611d86565b8101038084520182611e7c565b5190206040518a810190636c696b6560e01b825260048152610fed81611e61565b519020036111725750506110018354612228565b83556002945b6004840161101860643582546121f1565b90554260059485015560005b855181101561107b5760019084600052858a5261105f8a604060002061104a848b6121ba565b51908260405194838680955193849201611d86565b8201908152030190206110738982546121f1565b905501611024565b507f970f0b4fe70bafafad2a41d8bfa6deb61484128f70969a9c3ce7d4a2f7c7457b61113084928a898b80151580611168575b61113d575b508660005260078252867fdc64fd6c3df412a75f587aa85564ed1b9709adb9428c763fddf22a66b2ba78d9604060002082815560018101906110f68583546121f1565b809255600242910155604051908152604085820152806111196040820188611da9565b0390a2604051938493604085526040850190611da9565b918301520390a360018055005b8660005260088352604060002090600052825260406000206111608282546121f1565b9055876110b3565b50868114156110ae565b6040518981019061118b8b828b51610fbf818789611d86565b5190206040518a8101906618dbdb5b595b9d60ca1b8252600781526111af81611e61565b519020036111d2575050600183016111c78154612228565b90556003945b611007565b604051898101906111eb8b828b51610fbf818789611d86565b5190206040518a81019064736861726560d81b82526005815261120d81611e61565b5190200361122f575050600283016112258154612228565b9055600494611007565b610fbf9061124f8a60409994995180938282019586918851928391611d86565b51902060405189810190637669657760e01b82526004815261127081611e61565b519020036111cd5794600384016112878154612228565b905594611007565b60405162461bcd60e51b8152602060048201526012602482015271125b9d985b1a590818dbdb9d195b9d08125160721b6044820152606490fd5b3461050a57600036600319011261050a5760206040517f71f3d55856e4058ed06ee057d79ada615f65cdf5f9ee88181b914225088f834f8152f35b3461050a57602036600319011261050a576001600160a01b03611325611d26565b16600052600460205260a060406000206002810154906003810154906004810154600660ff6005840154169201549260405194855260208501526040840152151560608301526080820152f35b3461050a57600036600319011261050a57602060ff600254166040519015158152f35b3461050a57600036600319011261050a576113ae612237565b60025460ff8116156113ed5760ff19166002557f5db9ee0a495bf2e6ff9c91a7834c1ba4fdd244a5e8aa4e537bd38aeae4b073aa6020604051338152a1005b604051638dfc202b60e01b8152600490fd5b3461050a57602036600319011261050a576004356000526007602052604060002080546106a660018301549261143c600360028301549201612023565b90604051948594855260208501526040840152608060608401526080830190611da9565b3461050a57606036600319011261050a57611479611d26565b6024356001600160401b03811161050a57611498903690600401611eb4565b906001600160401b036044351161050a5736602360443501121561050a57604435600401356114c681611e9d565b906114d46040519283611e7c565b80825260208201903660248260051b60443501011161050a57602460443501915b60248260051b60443501018310611870575050506115116123ca565b6115196123ed565b6001600160a01b0382169261152f841515612145565b805182510361183757600691846000526004602052604060002060405161155581611e2b565b61155e826120f0565b815260019482611570878095016120f0565b602084015260028101546040840152600381015460608401526004810154608084015260ff600582015416151560a0840152015460c08201526115b38451612188565b956115be8551612188565b936000845b6117ea575b505050506000905b6116ef575b50505160648111156116e957506064925b6115ef84612188565b928260005b8681106116cb5750505080600052600660205260406000208351906001600160401b038211610a2157600160401b8211610a215780548282558083106116ad575b506020850190600052602060002060005b83811061169a57505050507f02b0f72e80a7788ed7408305ba90986b2d2b9a92735ad99b4b064635d6281c6560406106a6958151908152426020820152a28055604051918291602083526020830190611d52565b8590602084519401938184015501611646565b6116c590826000528360206000209182019101612211565b86611635565b6116d581846121ba565b516116e082886121ba565b520183906115f4565b926115e6565b81518110156117e5578391906000835b61170e575b50820190916115d0565b90918093505160001981019081116117c75761172b8387926121e4565b8210156117dd575061173d81846121ba565b51858201918281116117c7578692839261175782886121ba565b5111611769575b5001819392916116ff565b61177382876121ba565b5161177e82886121ba565b5161178984896121ba565b5261179482886121ba565b526117c06117a2838b6121ba565b51916117ae818c6121ba565b516117b9858d6121ba565b528a6121ba565b528961175e565b634e487b7160e01b600052601160045260246000fd5b929190611704565b6115d5565b8151811015611832578061180a856118038894866121ba565b518661240b565b611814828a6121ba565b5161181f838d6121ba565b5261182a82896121ba565b5201846115c3565b6115c8565b60405162461bcd60e51b81526020600482015260116024820152704d69736d6174636865642061727261797360781b6044820152606490fd5b82356001600160401b03811161050a5761010060443582013603602319011261050a5760405190816101008101106001600160401b0361010084011117610a215761010082016040526044803582016024810135845201356001600160a01b038116900361050a57604481813501013560208301526001600160401b036064826044350101351161050a57611912366044358301606481013501602401611f14565b60408301526001600160401b036084826044350101351161050a5761010490611948366044358301608481013501602401611f6a565b60608401526044350160a4810135608084015260c481013560a084015260e481013560c08401520135801515810361050a5760e08201528152602092830192016114f5565b3461050a57604036600319011261050a576119a6611d26565b6001600160a01b0316600090815260066020526040902080546024359081101561050a57602091600052816000200154604051908152f35b3461050a57604036600319011261050a576119f7611d3c565b336001600160a01b03821603611a135761077890600435612355565b60405163334bd91960e11b8152600490fd5b3461050a5760208060031936011261050a5760e090611a42611d26565b600060c0604051611a5281611e2b565b606081526060858201528260408201528260608201528260808201528260a0820152015260018060a01b031660005260048152604060002060405191611a9783611e2b565b611aa0826120f0565b8352611aae600183016120f0565b9181840192835260028101549260408501938452600382015460608601908152611b2b60048401549260808801938452611b18600660ff6005880154169660a08b01971515885201549660c08a019788526040519a8b9a828c5251918b01526101008a0190611dce565b9051888203601f190160408a0152611dce565b945160608701525160808601525160a085015251151560c08401525160e08301520390f35b3461050a57600036600319011261050a57602060405160648152f35b3461050a57604036600319011261050a57610778600435611b8b611d3c565b90806000526000602052611ba66001604060002001546122b1565b6122d7565b3461050a5760208060031936011261050a576001600160a01b03611bcd611d26565b1660005260068152604060002090604051808383829554938481520190600052836000209260005b85828210611c2057505050611c0c92500383611e7c565b6106a6604051928284938452830190611d52565b8554845260019586019588955093019201611bf5565b3461050a57602036600319011261050a5760043560005260006020526020600160406000200154604051908152f35b3461050a57600036600319011261050a5760206040516103e88152f35b3461050a57604036600319011261050a57611c9b611d26565b611ca3611d3c565b9060018060a01b038091166000526008602052604060002091166000526020526020604060002054604051908152f35b3461050a57602036600319011261050a576004359063ffffffff60e01b821680920361050a57602091637965db0b60e01b8114908115611d15575b5015158152f35b6301ffc9a760e01b14905083611d0e565b600435906001600160a01b038216820361050a57565b602435906001600160a01b038216820361050a57565b90815180825260208080930193019160005b828110611d72575050505090565b835185529381019392810192600101611d64565b60005b838110611d995750506000910152565b8181015183820152602001611d89565b90602091611dc281518092818552858086019101611d86565b601f01601f1916010190565b90808251908181526020809101926020808460051b8301019501936000915b848310611dfd5750505050505090565b9091929394958480611e1b600193601f198682030187528a51611da9565b9801930193019194939290611ded565b60e081019081106001600160401b03821117610a2157604052565b608081019081106001600160401b03821117610a2157604052565b604081019081106001600160401b03821117610a2157604052565b90601f801991011681019081106001600160401b03821117610a2157604052565b6001600160401b038111610a215760051b60200190565b9080601f8301121561050a576020908235611ece81611e9d565b93611edc6040519586611e7c565b81855260208086019260051b82010192831161050a57602001905b828210611f05575050505090565b81358152908301908301611ef7565b81601f8201121561050a578035906001600160401b038211610a215760405192611f48601f8401601f191660200185611e7c565b8284526020838301011161050a57816000926020809301838601378301015290565b81601f8201121561050a57803591602091611f8484611e9d565b93611f926040519586611e7c565b808552838086019160051b8301019280841161050a57848301915b848310611fbd5750505050505090565b82356001600160401b03811161050a578691611fde84848094890101611f14565b815201920191611fad565b90600182811c92168015612019575b602083101461200357565b634e487b7160e01b600052602260045260246000fd5b91607f1691611ff8565b9060405191826000825461203681611fe9565b908184526020946001916001811690816000146120a65750600114612067575b50505061206592500383611e7c565b565b600090815285812095935091905b81831061208e5750506120659350820101388080612056565b85548884018501529485019487945091830191612075565b9250505061206594925060ff191682840152151560051b820101388080612056565b90916120df6120ed93604084526040840190611d52565b916020818403910152611dce565b90565b9081546120fc81611e9d565b9261210a6040519485611e7c565b818452600090815260208082208186015b848410612129575050505050565b600183819261213785612023565b81520192019301929061211b565b1561214c57565b60405162461bcd60e51b8152602060048201526014602482015273496e76616c69642075736572206164647265737360601b6044820152606490fd5b9061219282611e9d565b61219f6040519182611e7c565b82815280926121b0601f1991611e9d565b0190602036910137565b80518210156121ce5760209160051b010190565b634e487b7160e01b600052603260045260246000fd5b919082039182116117c757565b919082018092116117c757565b818102929181159184041417156117c757565b81811061221c575050565b60008155600101612211565b60001981146117c75760010190565b3360009081527ff179aafcc4ff8137fca1ef3b9ec4d165f87016ba123e7973fba770bc55e240e360205260409020547f71f3d55856e4058ed06ee057d79ada615f65cdf5f9ee88181b914225088f834f9060ff16156122935750565b6044906040519063e2517d3f60e01b82523360048301526024820152fd5b80600052600060205260406000203360005260205260ff60406000205416156122935750565b9060009180835282602052604083209160018060a01b03169182845260205260ff6040842054161560001461235057808352826020526040832082845260205260408320600160ff198254161790557f2f8788117e7eff1d82e926ec794901d17c78024a50270940304540a733656f0d339380a4600190565b505090565b9060009180835282602052604083209160018060a01b03169182845260205260ff6040842054166000146123505780835282602052604083208284526020526040832060ff1981541690557ff6391f5c32d9c69d2a47ea670b442974b53935d1edc7fd64eb21e047a839171b339380a4600190565b6002600154146123db576002600155565b604051633ee5aeb560e01b8152600490fd5b60ff600254166123f957565b60405163d93c066560e01b8152600490fd5b91909160a08201511561255e5761242183612565565b9061244983612435816060880151856125a9565b9260018060a01b036020880151169061276a565b926124588160a08701516127bf565b9060c086015194606495868111600014612558575085945b8661248160808501978851906121fe565b04946028820291808304602814901517156117c7576019810290808204601914901517156117c7576124b2916121f1565b906060830151916014830292808404601414901517156117c7576124de6124e4928960409504906121fe565b906121f1565b910151600a810290808204600a14901517156117c75761250a92866124de9204906121fe565b9151906005820291808304600514901517156117c75760e0926124de6125349286809504906121fe565b04920151612540575090565b906078810290808204607814901517156117c7570490565b94612470565b50506120ed905b61257560a06064920151426121e4565b620151808111612583575090565b80915015612593576283d6000490565b634e487b7160e01b600052601260045260246000fd5b9060008091815b815183101561274a5760005b60208088019081515183101561263c576125d686866121ba565b51906126206126078560409485516125fd868281610fbf8183019687815193849201611d86565b51902095516121ba565b519251918281610fbf8183019687815193849201611d86565b51902014612630576001016125bc565b50505050505050600090565b5050509594939193600095865b82515181101561273d5761265d87856121ba565b51604080519160209261267f848281610fbf8183019687815193849201611d86565b519020916126916126078588516121ba565b519020146126a157600101612649565b50969095506001949294935b60018060a01b0386166000526126f96126e8602060058152604080600020826126d68a8a6121ba565b51925194838680955193849201611d86565b8201908152030190205480926121f1565b941561272b576096908181029181830414901517156117c75760019160646127229204906121f1565b925b01916125b0565b612737906001926121f1565b92612724565b50969095939492946126ad565b90519450925050821590508061276257612593570490565b505050600090565b6001600160a01b039182169116808214612762576000526008602052604060002090600052602052604060002054908115156000146127b85760649160606127b4920151906121fe565b0490565b5050603290565b6127c990426121e4565b9062093a80918281101561276257808303908382116117c7576064820291820460641490841417156117c75760649260406127b493015191046121fe56fec65a7bb8d6351c1cf70c95a316cc6a92839c986682d98bc35f958f4883f9d2a86e1540171b6c0c960b71a7020d9f60077f6af931a8bbf590da0223dacf75c7afa26469706673582212209360f9c2aac105a190acf86a2fde8ff66da9b3e30eae2941d0c24ca19208134464736f6c634300081800332f8788117e7eff1d82e926ec794901d17c78024a50270940304540a733656f0d",
  "linkReferences": {},
  "deployedLinkReferences": {}
}