{
  "_format": "hh-sol-artifact-1",
  "contractName": "NFTStaking",
  "sourceName": "contracts/NFTStaking.sol",
  "abi": [
    {
      "inputs": [
        {
          "internalType": "address",
          "name": "_rewardsToken",
          "type": "address"
        }
      ],
      "stateMutability": "nonpayable",
      "type": "constructor"
    },
    {
      "inputs": [],
      "name": "EnforcedPause",
      "type": "error"
    },
    {
      "inputs": [],
      "name": "ExpectedPause",
      "type": "error"
    },
    {
      "inputs": [
        {
          "internalType": "address",
          "name": "owner",
          "type": "address"
        }
      ],
      "name": "OwnableInvalidOwner",
      "type": "error"
    },
    {
      "inputs": [
        {
          "internalType": "address",
          "name": "account",
          "type": "address"
        }
      ],
      "name": "OwnableUnauthorizedAccount",
      "type": "error"
    },
    {
      "inputs": [],
      "name": "ReentrancyGuardReentrantCall",
      "type": "error"
    },
    {
      "anonymous": false,
      "inputs": [
        {
          "indexed": true,
          "internalType": "bytes32",
          "name": "stakeId",
          "type": "bytes32"
        },
        {
          "indexed": true,
          "internalType": "address",
          "name": "staker",
          "type": "address"
        }
      ],
      "name": "EmergencyWithdraw",
      "type": "event"
    },
    {
      "anonymous": false,
      "inputs": [
        {
          "indexed": true,
          "internalType": "bytes32",
          "name": "stakeId",
          "type": "bytes32"
        },
        {
          "indexed": true,
          "internalType": "address",
          "name": "staker",
          "type": "address"
        },
        {
          "indexed": false,
          "internalType": "address",
          "name": "nftContract",
          "type": "address"
        },
        {
          "indexed": false,
          "internalType": "uint256",
          "name": "tokenId",
          "type": "uint256"
        },
        {
          "indexed": false,
          "internalType": "uint256",
          "name": "poolId",
          "type": "uint256"
        },
        {
          "indexed": false,
          "internalType": "uint256",
          "name": "unlockAt",
          "type": "uint256"
        }
      ],
      "name": "NFTStaked",
      "type": "event"
    },
    {
      "anonymous": false,
      "inputs": [
        {
          "indexed": true,
          "internalType": "bytes32",
          "name": "stakeId",
          "type": "bytes32"
        },
        {
          "indexed": true,
          "internalType": "address",
          "name": "staker",
          "type": "address"
        },
        {
          "indexed": false,
          "internalType": "address",
          "name": "nftContract",
          "type": "address"
        },
        {
          "indexed": false,
          "internalType": "uint256",
          "name": "tokenId",
          "type": "uint256"
        }
      ],
      "name": "NFTUnstaked",
      "type": "event"
    },
    {
      "anonymous": false,
      "inputs": [
        {
          "indexed": true,
          "internalType": "address",
          "name": "previousOwner",
          "type": "address"
        },
        {
          "indexed": true,
          "internalType": "address",
          "name": "newOwner",
          "type": "address"
        }
      ],
      "name": "OwnershipTransferred",
      "type": "event"
    },
    {
      "anonymous": false,
      "inputs": [
        {
          "indexed": false,
          "internalType": "address",
          "name": "account",
          "type": "address"
        }
      ],
      "name": "Paused",
      "type": "event"
    },
    {
      "anonymous": false,
      "inputs": [
        {
          "indexed": true,
          "internalType": "uint256",
          "name": "poolId",
          "type": "uint256"
        },
        {
          "indexed": false,
          "internalType": "string",
          "name": "name",
          "type": "string"
        },
        {
          "indexed": false,
          "internalType": "uint256",
          "name": "apyRate",
          "type": "uint256"
        }
      ],
      "name": "PoolCreated",
      "type": "event"
    },
    {
      "anonymous": false,
      "inputs": [
        {
          "indexed": true,
          "internalType": "bytes32",
          "name": "stakeId",
          "type": "bytes32"
        },
        {
          "indexed": true,
          "internalType": "address",
          "name": "staker",
          "type": "address"
        },
        {
          "indexed": false,
          "internalType": "uint256",
          "name": "amount",
          "type": "uint256"
        }
      ],
      "name": "RewardsClaimed",
      "type": "event"
    },
    {
      "anonymous": false,
      "inputs": [
        {
          "indexed": false,
          "internalType": "address",
          "name": "account",
          "type": "address"
        }
      ],
      "name": "Unpaused",
      "type": "event"
    },
    {
      "inputs": [
        {
          "internalType": "address",
          "name": "nftContract",
          "type": "address"
        },
        {
          "internalType": "bool",
          "name": "allowed",
          "type": "bool"
        }
      ],
      "name": "allowNFTContract",
      "outputs": [],
      "stateMutability": "nonpayable",
      "type": "function"
    },
    {
      "inputs": [
        {
          "internalType": "address",
          "name": "",
          "type": "address"
        }
      ],
      "name": "allowedNFTContracts",
      "outputs": [
        {
          "internalType": "bool",
          "name": "",
          "type": "bool"
        }
      ],
      "stateMutability": "view",
      "type": "function"
    },
    {
      "inputs": [
        {
          "internalType": "bytes32",
          "name": "stakeId",
          "type": "bytes32"
        }
      ],
      "name": "calculateRewards",
      "outputs": [
        {
          "internalType": "uint256",
          "name": "",
          "type": "uint256"
        }
      ],
      "stateMutability": "view",
      "type": "function"
    },
    {
      "inputs": [
        {
          "internalType": "bytes32",
          "name": "stakeId",
          "type": "bytes32"
        }
      ],
      "name": "claimRewards",
      "outputs": [],
      "stateMutability": "nonpayable",
      "type": "function"
    },
    {
      "inputs": [
        {
          "internalType": "address",
          "name": "nftContract",
          "type": "address"
        },
        {
          "internalType": "uint256",
          "name": "tokenId",
          "type": "uint256"
        }
      ],
      "name": "emergencyWithdraw",
      "outputs": [],
      "stateMutability": "nonpayable",
      "type": "function"
    },
    {
      "inputs": [],
      "name": "emergencyWithdrawEnabled",
      "outputs": [
        {
          "internalType": "bool",
          "name": "",
          "type": "bool"
        }
      ],
      "stateMutability": "view",
      "type": "function"
    },
    {
      "inputs": [
        {
          "internalType": "address",
          "name": "user",
          "type": "address"
        }
      ],
      "name": "getUserStakes",
      "outputs": [
        {
          "components": [
            {
              "internalType": "address",
              "name": "nftContract",
              "type": "address"
            },
            {
              "internalType": "uint256",
              "name": "tokenId",
              "type": "uint256"
            },
            {
              "internalType": "address",
              "name": "staker",
              "type": "address"
            },
            {
              "internalType": "uint256",
              "name": "poolId",
              "type": "uint256"
            },
            {
              "internalType": "uint256",
              "name": "stakedAt",
              "type": "uint256"
            },
            {
              "internalType": "uint256",
              "name": "unlockAt",
              "type": "uint256"
            },
            {
              "internalType": "uint256",
              "name": "lastClaimAt",
              "type": "uint256"
            },
            {
              "internalType": "uint256",
              "name": "rewardsClaimed",
              "type": "uint256"
            },
            {
              "internalType": "bool",
              "name": "isActive",
              "type": "bool"
            }
          ],
          "internalType": "struct NFTStaking.StakeInfo[]",
          "name": "",
          "type": "tuple[]"
        }
      ],
      "stateMutability": "view",
      "type": "function"
    },
    {
      "inputs": [],
      "name": "owner",
      "outputs": [
        {
          "internalType": "address",
          "name": "",
          "type": "address"
        }
      ],
      "stateMutability": "view",
      "type": "function"
    },
    {
      "inputs": [],
      "name": "pause",
      "outputs": [],
      "stateMutability": "nonpayable",
      "type": "function"
    },
    {
      "inputs": [],
      "name": "paused",
      "outputs": [
        {
          "internalType": "bool",
          "name": "",
          "type": "bool"
        }
      ],
      "stateMutability": "view",
      "type": "function"
    },
    {
      "inputs": [],
      "name": "poolCount",
      "outputs": [
        {
          "internalType": "uint256",
          "name": "",
          "type": "uint256"
        }
      ],
      "stateMutability": "view",
      "type": "function"
    },
    {
      "inputs": [
        {
          "internalType": "address",
          "name": "",
          "type": "address"
        },
        {
          "internalType": "uint256",
          "name": "",
          "type": "uint256"
        }
      ],
      "name": "rarityMultiplier",
      "outputs": [
        {
          "internalType": "uint256",
          "name": "",
          "type": "uint256"
        }
      ],
      "stateMutability": "view",
      "type": "function"
    },
    {
      "inputs": [],
      "name": "renounceOwnership",
      "outputs": [],
      "stateMutability": "nonpayable",
      "type": "function"
    },
    {
      "inputs": [],
      "name": "rewardsToken",
      "outputs": [
        {
          "internalType": "contract IERC20",
          "name": "",
          "type": "address"
        }
      ],
      "stateMutability": "view",
      "type": "function"
    },
    {
      "inputs": [
        {
          "internalType": "address",
          "name": "nftContract",
          "type": "address"
        },
        {
          "internalType": "uint256",
          "name": "tokenId",
          "type": "uint256"
        },
        {
          "internalType": "uint256",
          "name": "multiplier",
          "type": "uint256"
        }
      ],
      "name": "setRarityMultiplier",
      "outputs": [],
      "stateMutability": "nonpayable",
      "type": "function"
    },
    {
      "inputs": [
        {
          "internalType": "address",
          "name": "nftContract",
          "type": "address"
        },
        {
          "internalType": "uint256",
          "name": "tokenId",
          "type": "uint256"
        },
        {
          "internalType": "uint256",
          "name": "poolId",
          "type": "uint256"
        }
      ],
      "name": "stakeNFT",
      "outputs": [],
      "stateMutability": "nonpayable",
      "type": "function"
    },
    {
      "inputs": [
        {
          "internalType": "bytes32",
          "name": "",
          "type": "bytes32"
        }
      ],
      "name": "stakes",
      "outputs": [
        {
          "internalType": "address",
          "name": "nftContract",
          "type": "address"
        },
        {
          "internalType": "uint256",
          "name": "tokenId",
          "type": "uint256"
        },
        {
          "internalType": "address",
          "name": "staker",
          "type": "address"
        },
        {
          "internalType": "uint256",
          "name": "poolId",
          "type": "uint256"
        },
        {
          "internalType": "uint256",
          "name": "stakedAt",
          "type": "uint256"
        },
        {
          "internalType": "uint256",
          "name": "unlockAt",
          "type": "uint256"
        },
        {
          "internalType": "uint256",
          "name": "lastClaimAt",
          "type": "uint256"
        },
        {
          "internalType": "uint256",
          "name": "rewardsClaimed",
          "type": "uint256"
        },
        {
          "internalType": "bool",
          "name": "isActive",
          "type": "bool"
        }
      ],
      "stateMutability": "view",
      "type": "function"
    },
    {
      "inputs": [
        {
          "internalType": "uint256",
          "name": "",
          "type": "uint256"
        }
      ],
      "name": "stakingPools",
      "outputs": [
        {
          "internalType": "string",
          "name": "name",
          "type": "string"
        },
        {
          "internalType": "uint256",
          "name": "apyRate",
          "type": "uint256"
        },
        {
          "internalType": "uint256",
          "name": "minLockPeriod",
          "type": "uint256"
        },
        {
          "internalType": "uint256",
          "name": "maxLockPeriod",
          "type": "uint256"
        },
        {
          "internalType": "uint256",
          "name": "totalStaked",
          "type": "uint256"
        },
        {
          "internalType": "uint256",
          "name": "totalRewardsDistributed",
          "type": "uint256"
        },
        {
          "internalType": "bool",
          "name": "isActive",
          "type": "bool"
        }
      ],
      "stateMutability": "view",
      "type": "function"
    },
    {
      "inputs": [],
      "name": "toggleEmergencyWithdraw",
      "outputs": [],
      "stateMutability": "nonpayable",
      "type": "function"
    },
    {
      "inputs": [
        {
          "internalType": "address",
          "name": "newOwner",
          "type": "address"
        }
      ],
      "name": "transferOwnership",
      "outputs": [],
      "stateMutability": "nonpayable",
      "type": "function"
    },
    {
      "inputs": [],
      "name": "unpause",
      "outputs": [],
      "stateMutability": "nonpayable",
      "type": "function"
    },
    {
      "inputs": [
        {
          "internalType": "address",
          "name": "nftContract",
          "type": "address"
        },
        {
          "internalType": "uint256",
          "name": "tokenId",
          "type": "uint256"
        }
      ],
      "name": "unstakeNFT",
      "outputs": [],
      "stateMutability": "nonpayable",
      "type": "function"
    },
    {
      "inputs": [
        {
          "internalType": "address",
          "name": "",
          "type": "address"
        },
        {
          "internalType": "uint256",
          "name": "",
          "type": "uint256"
        }
      ],
      "name": "userStakes",
      "outputs": [
        {
          "internalType": "bytes32",
          "name": "",
          "type": "bytes32"
        }
      ],
      "stateMutability": "view",
      "type": "function"
    },
    {
      "inputs": [
        {
          "internalType": "uint256",
          "name": "amount",
          "type": "uint256"
        }
      ],
      "name": "withdrawRewardsTokens",
      "outputs": [],
      "stateMutability": "nonpayable",
      "type": "function"
    }
  ],
  "bytecode": "0x60a03462000d2857601f620025a538819003918201601f19168301916001600160401b038311848410176200094d5780849260209460405283398101031262000d2857516001600160a01b038082169182900362000d2857331562000d0f5760008054336001600160a01b03198216811783559216907f8be0079c531659141344cd1fd0a4f28419497f9722a3daafe3b4186f6b6457e09080a360018055608052620000aa62000d4d565b6008815267466c657869626c6560c01b6020820152620000c962000d2d565b8181526101f46020820152600060408201526000606082015260006080820152600060a0820152600160c082015260045460005260036020526040600020815180519060018060401b0382116200094d578254600181811c9116801562000d04575b60208210146200092c57601f811162000cbb575b50602090601f831160011462000c4757918060c0949260069460009262000c3b575b50508160011b916000199060031b1c19161781555b6020840151600182015560408401516002820155606084015160038201556080840151600482015560a0840151600582015501910151151560ff801983541691161790556004546040516040815282519283604083015260005b84811062000c2457838060008051602062002585833981519152856060818a60008382840101526101f46020830152601f80199101168101030190a260001981146200083657600101806004556200022762000d4d565b9060078252663330204461797360c81b60208301526200024662000d2d565b908282526103e8602083015262278d00806040840152606083015260006080830152600060a0830152600160c083015260005260036020526040600020815180519060018060401b0382116200094d578254600181811c9116801562000c19575b60208210146200092c57601f811162000bd0575b50602090601f831160011462000b5c57918060c0949260069460009262000b50575b50508160011b916000199060031b1c19161781555b6020840151600182015560408401516002820155606084015160038201556080840151600482015560a0840151600582015501910151151560ff801983541691161790556004546040516040815282519283604083015260005b84811062000b3957838060008051602062002585833981519152856060818a60008382840101526103e86020830152601f80199101168101030190a26000198114620008365760010180600455620003a362000d4d565b9060078252663930204461797360c81b6020830152620003c262000d2d565b908282526107d060208301526276a700806040840152606083015260006080830152600060a0830152600160c083015260005260036020526040600020815180519060018060401b0382116200094d578254600181811c9116801562000b2e575b60208210146200092c57601f811162000ae5575b50602090601f831160011462000a7157918060c0949260069460009262000a65575b50508160011b916000199060031b1c19161781555b6020840151600182015560408401516002820155606084015160038201556080840151600482015560a0840151600582015501910151151560ff801983541691161790556004546040516040815282519283604083015260005b84811062000a4e57838060008051602062002585833981519152856060818a60008382840101526107d06020830152601f80199101168101030190a260001981146200083657600101806004556200051f62000d4d565b906008825267313830204461797360c01b60208301526200053f62000d2d565b90828252610dac602083015262ed4e00806040840152606083015260006080830152600060a0830152600160c083015260005260036020526040600020815180519060018060401b0382116200094d578254600181811c9116801562000a43575b60208210146200092c57601f8111620009fa575b50602090601f83116001146200098657918060c094926006946000926200097a575b50508160011b916000199060031b1c19161781555b6020840151600182015560408401516002820155606084015160038201556080840151600482015560a0840151600582015501910151151560ff801983541691161790556004546040516040815282519283604083015260005b8481106200096357838060008051602062002585833981519152856060818a6000838284010152610dac6020830152601f80199101168101030190a260001981146200083657600181016004556200069c62000d4d565b90600682526518902cb2b0b960d11b60208301526001620006bc62000d2d565b9183835261138860208401526301e13380806040850152606084015260006080840152600060a08401528160c08401520160005260036020526040600020815180519060018060401b0382116200094d578254600181811c9116801562000942575b60208210146200092c57601f8111620008e3575b50602090601f83116001146200086f57918060c0949260069460009262000863575b50508160011b916000199060031b1c19161781555b6020840151600182015560408401516002820155606084015160038201556080840151600482015560a0840151600582015501910151151560ff801983541691161790556004546040516040815282519283604083015260005b8481106200084c57838060008051602062002585833981519152856060818a60008382840101526113886020830152601f80199101168101030190a260001981146200083657600101600455604051611817908162000d6e823960805181818161025501528181610cef015261174c0152f35b634e487b7160e01b600052601160045260246000fd5b8060208092840101516060828601015201620007c3565b01519050878062000754565b908360005260206000209160005b601f1985168110620008ca57509260c0949260019260069583601f19811610620008b0575b505050811b01815562000769565b015160001960f88460031b161c19169055878080620008a2565b919260206001819286850151815501940192016200087d565b836000526020600020601f840160051c81016020851062000924575b601f830160051c820181106200091757505062000732565b60008155600101620008ff565b5080620008ff565b634e487b7160e01b600052602260045260246000fd5b90607f16906200071e565b634e487b7160e01b600052604160045260246000fd5b806020809284010151606082860101520162000645565b015190508780620005d6565b908360005260206000209160005b601f1985168110620009e157509260c0949260019260069583601f19811610620009c7575b505050811b018155620005eb565b015160001960f88460031b161c19169055878080620009b9565b9192602060018192868501518155019401920162000994565b836000526020600020601f840160051c81016020851062000a3b575b601f830160051c8201811062000a2e575050620005b4565b6000815560010162000a16565b508062000a16565b90607f1690620005a0565b8060208092840101516060828601015201620004c8565b01519050878062000459565b908360005260206000209160005b601f198516811062000acc57509260c0949260019260069583601f1981161062000ab2575b505050811b0181556200046e565b015160001960f88460031b161c1916905587808062000aa4565b9192602060018192868501518155019401920162000a7f565b836000526020600020601f840160051c81016020851062000b26575b601f830160051c8201811062000b1957505062000437565b6000815560010162000b01565b508062000b01565b90607f169062000423565b80602080928401015160608286010152016200034c565b015190508780620002dd565b908360005260206000209160005b601f198516811062000bb757509260c0949260019260069583601f1981161062000b9d575b505050811b018155620002f2565b015160001960f88460031b161c1916905587808062000b8f565b9192602060018192868501518155019401920162000b6a565b836000526020600020601f840160051c81016020851062000c11575b601f830160051c8201811062000c04575050620002bb565b6000815560010162000bec565b508062000bec565b90607f1690620002a7565b8060208092840101516060828601015201620001d0565b01519050388062000161565b908360005260206000209160005b601f198516811062000ca257509260c0949260019260069583601f1981161062000c88575b505050811b01815562000176565b015160001960f88460031b161c1916905538808062000c7a565b9192602060018192868501518155019401920162000c55565b836000526020600020601f840160051c81016020851062000cfc575b601f830160051c8201811062000cef5750506200013f565b6000815560010162000cd7565b508062000cd7565b90607f16906200012b565b604051631e4fbdf760e01b815260006004820152602490fd5b600080fd5b6040519060e082016001600160401b038111838210176200094d57604052565b60408051919082016001600160401b038111838210176200094d5760405256fe6040608081526004908136101561001557600080fd5b60009160e0908335821c918263019a167214610dff578263093cf18f14610dd05782633f4ba83a14610d6557826349c26bea14610c925782635747e69f14610c6d5782635aad6cf014610bb65782635c975abb14610b915782635fac4e2314610b69578263715018a614610b0f5782637790ddc614610ab05782637eaebc8714610a1b578263842e2981146107ec5782638456cb59146107905782638da5cb5b146107675782638fee6407146106d65750816395ccea67146105395781639c1c97d71461035c578163b5d5b5fa14610303578163c0f6ae97146102c5578163c5cea34514610284578163d1af0c7d14610240578163f2fde38b146101af578163f525cb681461018d575063fbdc39d41461012e57600080fd5b346101895780600319360112610189576101466111c8565b90602435908115158203610185576101829261016061168b565b60018060a01b03168452600760205283209060ff801983541691151516179055565b80f35b8380fd5b5080fd5b9050346101ab57826003193601126101ab5760209250549051908152f35b8280fd5b9050346101ab5760203660031901126101ab576101ca6111c8565b906101d361168b565b6001600160a01b0391821692831561022a575050600054826bffffffffffffffffffffffff60a01b821617600055167f8be0079c531659141344cd1fd0a4f28419497f9722a3daafe3b4186f6b6457e0600080a380f35b51631e4fbdf760e01b8152908101849052602490fd5b505034610189578160031936011261018957517f00000000000000000000000000000000000000000000000000000000000000006001600160a01b03168152602090f35b50503461018957806003193601126101895760209181906001600160a01b036102ab6111c8565b168152600884528181206024358252845220549051908152f35b5050346101895760203660031901126101895760209160ff9082906001600160a01b036102f06111c8565b1681526007855220541690519015158152f35b50503461018957806003193601126101895761031d6111c8565b6001600160a01b03168252600660205280822080546024359390841015610359575060209261034b91611349565b91905490519160031b1c8152f35b80fd5b9050346101ab57816003193601126101ab576103766111c8565b916024359061038361164a565b8051606085901b6001600160601b0319166020820190815260348201849052906103ba81605481015b03601f198101835282611254565b51902092838652600560205281862060088101906103db60ff835416611593565b60028101546001600160a01b0392906103f790841633146115d1565b6005820154801590811561052e575b50156104eb578893929160039161041c896116b7565b60ff198154169055015483526003602052818484200161043c815461163d565b90558616803b156101ab5783516323b872dd60e01b81523092810192835233602084015260408301869052918391839182908490829060600103925af180156104e1576104c9575b5050516001600160a01b03939093168352602083015233917fb54412fe0cc3c0489d6c657913acc315e1966701d5937543819751ec8bd7ee4c90604090a36001805580f35b6104d29061120d565b6104dd578438610484565b8480fd5b83513d84823e3d90fd5b845162461bcd60e51b8152602081860152601a60248201527f506572696f646f206465206c6f636b2061756e2061637469766f0000000000006044820152606490fd5b905042101538610406565b9050346101ab57816003193601126101ab576105536111c8565b916024359161056061164a565b60ff6009541615610694578151606085901b6001600160601b0319166020820190815260348201859052869493929161059c81605481016103ac565b51902094858552600560205282852090600360088301928354936105c260ff8616611593565b60028201546001600160a01b0395906105de90871633146115d1565b60ff1916905501548652600360205282848720016105fc815461163d565b90551692833b156104dd5782516323b872dd60e01b815230928101928352336020840152604083019190915292849184919082908490829060600103925af190811561068b5750610677575b505033907f8e545ce6f634ad2ae589bd944a9a914c4c96ae403833899221b76fe6173d5e218380a36001805580f35b6106809061120d565b610189578138610648565b513d84823e3d90fd5b6020606492519162461bcd60e51b8352820152602060248201527f456d657267656e637920776974686472617720646573686162696c697461646f6044820152fd5b9092915034610185576020366003190112610185578161012094843581526005602052209060018060a01b03928383541694600184015494600285015416906003850154908501549060058601549260068701549460ff600860078a0154990154169881519a8b5260208b01528901526060880152608087015260a086015260c08501528301521515610100820152f35b50505034610189578160031936011261018957905490516001600160a01b039091168152602090f35b5050503461018957816003193601126101895760207f62e78cea01bee320cd4e420270b5ea74000d11b0c9f74754ebdbfc544b05a258916107cf61168b565b6107d761166d565b600160ff19600254161760025551338152a180f35b849250346101ab5760209081600319360112610185576001600160a01b0390816108146111c8565b1685526006808452868620958751808887829a54938481520190845287842092845b89828210610a055750505061084d92500388611254565b86519561087161085c88611611565b976108698b51998a611254565b808952611611565b601f190186835b8281106109bb57505050815b8851811015610924578061089a6001928b611629565b5184528a60ff60086005808c52838820908451946108b786611237565b82548d168652878301548e87015260028301548d16908601526003820154606086015287820154608086015281015460a08501528881015460c085015260078101548a8501520154161515610100820152610912828b611629565b5261091d818a611629565b5001610884565b895187815288518189018190528b9190818301908a8c01908b888c8c5b84831061094e5787870388f35b855180518316885280850151888601528981015183168a890152606080820151908901526080808201519089015260a0808201519089015260c080820151908901528082015188830152610100908101511515908801526101209096019594830194600190920191610941565b8b516109c681611237565b8581528583820152858d8201528560608201528560808201528560a08201528560c082015285888201528561010082015282828c010152018790610878565b855484526001958601958d955093019201610836565b848285346101ab57610a2c366111e3565b93610a3892919261168b565b606485101580610aa4575b15610a6857506001600160a01b03168452600860209081528285209185525282205580f35b606490602085519162461bcd60e51b8352820152601660248201527509aead8e8d2e0d8d2cae440cadce8e4ca4062f05a6af60531b6044820152fd5b506101f4851115610a43565b848285346101ab5760203660031901126101ab57610b03610b08923591610ad561164a565b82855260056020528420610aef60ff600883015416611593565b600201546001600160a01b031633146115d1565b6116b7565b6001805580f35b8434610359578060031936011261035957610b2861168b565b600080546001600160a01b0319811682556001600160a01b03167f8be0079c531659141344cd1fd0a4f28419497f9722a3daafe3b4186f6b6457e08280a380f35b508284346103595760203660031901126103595750610b8a60209235611404565b9051908152f35b5050503461018957816003193601126101895760209060ff6002541690519015158152f35b848491346101895760209360206003193601126101ab57803583526003602052838320610be281611276565b9460018201549260028301546003840154918401549260ff600660058701549601541695815199888b52805180998c0152895b898110610c58575050899a5061010099988a898b01015260208901528701526060860152608085015260a0840152151560c0830152601f80199101168101030190f35b8181018d01518c820161010001528c01610c15565b5050503461018957816003193601126101895760209060ff6009541690519015158152f35b509050346101ab5760203660031901126101ab576020610ceb91610cb461168b565b8454845163a9059cbb60e01b81526001600160a01b0391821683820190815292356020840152938492839188918391604090910190565b03927f0000000000000000000000000000000000000000000000000000000000000000165af1908115610d595761018292508391610d2a575b506113b2565b610d4c915060203d602011610d52575b610d448183611254565b81019061139a565b38610d24565b503d610d3a565b505051903d90823e3d90fd5b509050346101ab57826003193601126101ab57610d8061168b565b6002549060ff821615610dc2575060ff1916600255513381527f5db9ee0a495bf2e6ff9c91a7834c1ba4fdd244a5e8aa4e537bd38aeae4b073aa90602090a180f35b8251638dfc202b60e01b8152fd5b8434610359578060031936011261035957610de961168b565b60095460ff80821615169060ff19161760095580f35b838591346101ab57610e10366111e3565b919390610e1b61164a565b610e2361166d565b60018060a01b039687861695868852600760205260ff84892054161561118557815485101561115257848852600360205260ff6006858a200154161561111e57835160609190911b6001600160601b031916602082019081526034820184905290610e9181605481016103ac565b51902094858852600560205260ff6008858a200154166110e957863b156110e55783516323b872dd60e01b815233838201908152306020820152604081018590528990829081906060010381838c5af180156110db576110b0575b5094610fe9889960086101008a899a898e889e9f8d905260036020528181209860028a01548015156000146110a657610f259042611377565b9e8f905b845196610f3588611237565b87528d60208801523385880152606087015242608087015260a08601524260c08601528184860152600186860152815260056020522094808351166bffffffffffffffffffffffff60a01b90818854161787556020840151600188015560028701918c85015116908254161790556060820151600386015560808201518886015560a0820151600586015560c0820151600686015581015160078501550151151591019060ff801983541691151516179055565b33895260066020528389208054906801000000000000000082101561109357816110199160018694018155611349565b929080549360031b60001994858c831b921b191617905501918254918214611080575060010190558151958652602086015284015260608301527f12ac0e3124516f0f77a0e59d3245e691678c752392bd91d938fa391a0260651260803393a36001805580f35b634e487b7160e01b8a5260119052602489fd5b634e487b7160e01b8b526041845260248bfd5b50819e8f90610f29565b849960086101008a8a9b9c958a9b966110cb610fe99761120d565b9d5095509a995050509950610eec565b85513d8b823e3d90fd5b8780fd5b835162461bcd60e51b8152602081840152600f60248201526e4e4654207961207374616b6561646f60881b6044820152606490fd5b835162461bcd60e51b8152602081840152600e60248201526d506f6f6c206e6f2061637469766f60901b6044820152606490fd5b835162461bcd60e51b8152602081840152600d60248201526c506f6f6c20696e76616c69646f60981b6044820152606490fd5b835162461bcd60e51b8152602081840152601960248201527f4e465420636f6e7472616374206e6f207065726d697469646f000000000000006044820152606490fd5b600435906001600160a01b03821682036111de57565b600080fd5b60609060031901126111de576004356001600160a01b03811681036111de57906024359060443590565b67ffffffffffffffff811161122157604052565b634e487b7160e01b600052604160045260246000fd5b610120810190811067ffffffffffffffff82111761122157604052565b90601f8019910116810190811067ffffffffffffffff82111761122157604052565b9060405190600083549060018260011c906001841696871561133f575b602094858410891461132b578798848997989952908160001461130957506001146112ca575b5050506112c892500383611254565b565b600090815285812095935091905b8183106112f15750506112c893508201013880806112b9565b855488840185015294850194879450918301916112d8565b925050506112c894925060ff191682840152151560051b8201013880806112b9565b634e487b7160e01b85526022600452602485fd5b91607f1691611293565b80548210156113615760005260206000200190600090565b634e487b7160e01b600052603260045260246000fd5b9190820180921161138457565b634e487b7160e01b600052601160045260246000fd5b908160209103126111de575180151581036111de5790565b156113b957565b60405162461bcd60e51b815260206004820152601060248201526f5472616e736665722066616c6c69646f60801b6044820152606490fd5b8181029291811591840414171561138457565b60009081526020906005825260409081812082519361142285611237565b60018060a01b038083541686526001830154928287019384528160028201541686880152600381015480606089015260048201546080890152600582015460a089015260ff600860068401549360c08b01948552600781015460e08c01520154161580156101008a01526115885785526003835285852090865160e0810181811067ffffffffffffffff8211176115745788526114be83611276565b815260c060ff600660018601549588850196875260028101548c8601526003810154606086015260048101546080860152600581015460a08601520154161515910152514203904282116115605751683635c9adc5dea0000090808202918204036115605764496cebb80091611533916113f1565b049551168352600881528383209151835252205480611550575090565b61155c906064926113f1565b0490565b634e487b7160e01b86526011600452602486fd5b634e487b7160e01b88526041600452602488fd5b505050505091505090565b1561159a57565b60405162461bcd60e51b815260206004820152600f60248201526e5374616b65206e6f2061637469766f60881b6044820152606490fd5b156115d857565b60405162461bcd60e51b815260206004820152601160248201527027379032b932b99032b61039ba30b5b2b960791b6044820152606490fd5b67ffffffffffffffff81116112215760051b60200190565b80518210156113615760209160051b010190565b8015611384576000190190565b60026001541461165b576002600155565b604051633ee5aeb560e01b8152600490fd5b60ff6002541661167957565b60405163d93c066560e01b8152600490fd5b6000546001600160a01b0316330361169f57565b60405163118cdaa760e01b8152336004820152602490fd5b906000918083526020906005825260408420916116d382611404565b92836116e2575b505050509050565b426006820155600781016116f7858254611377565b9055600381015486526003825260056040872001611716858254611377565b9055600201805460405163a9059cbb60e01b81526001600160a01b0391821660048201526024810186905290919083816044818b7f000000000000000000000000000000000000000000000000000000000000000088165af19081156117d657906117ab917ffec539b3c42d74cd492c3ecf7966bf014b327beef98e935cdc3ec5e54a6901c796979899916117bf57506113b2565b541693604051908152a380388080806116da565b610d4c9150853d8711610d5257610d448183611254565b6040513d8a823e3d90fdfea26469706673582212208f8a15693372705a904aa9462067c557385c9177fe0a1ed5ac28b5000abe955864736f6c634300081800333040bbc5c012df6c85e9f1cc10202ceda09051bc16d18aa369bf9ada2ba7716f",
  "linkReferences": {},
  "deployedLinkReferences": {}
}