{
  "_format": "hh-sol-artifact-1",
  "contractName": "Messages",
  "sourceName": "contracts/Messages.sol",
  "abi": [
    {
      "inputs": [],
      "stateMutability": "nonpayable",
      "type": "constructor"
    },
    {
      "inputs": [
        {
          "internalType": "address",
          "name": "owner",
          "type": "address"
        }
      ],
      "name": "OwnableInvalidOwner",
      "type": "error"
    },
    {
      "inputs": [
        {
          "internalType": "address",
          "name": "account",
          "type": "address"
        }
      ],
      "name": "OwnableUnauthorizedAccount",
      "type": "error"
    },
    {
      "anonymous": false,
      "inputs": [
        {
          "indexed": true,
          "internalType": "address",
          "name": "from",
          "type": "address"
        },
        {
          "indexed": true,
          "internalType": "address",
          "name": "to",
          "type": "address"
        },
        {
          "indexed": false,
          "internalType": "uint256",
          "name": "timestamp",
          "type": "uint256"
        }
      ],
      "name": "MessageSent",
      "type": "event"
    },
    {
      "anonymous": false,
      "inputs": [
        {
          "indexed": true,
          "internalType": "address",
          "name": "previousOwner",
          "type": "address"
        },
        {
          "indexed": true,
          "internalType": "address",
          "name": "newOwner",
          "type": "address"
        }
      ],
      "name": "OwnershipTransferred",
      "type": "event"
    },
    {
      "inputs": [],
      "name": "getReceivedMessages",
      "outputs": [
        {
          "components": [
            {
              "internalType": "address",
              "name": "from",
              "type": "address"
            },
            {
              "internalType": "address",
              "name": "to",
              "type": "address"
            },
            {
              "internalType": "string",
              "name": "encryptedContent",
              "type": "string"
            },
            {
              "internalType": "uint256",
              "name": "timestamp",
              "type": "uint256"
            }
          ],
          "internalType": "struct Messages.Message[]",
          "name": "",
          "type": "tuple[]"
        }
      ],
      "stateMutability": "view",
      "type": "function"
    },
    {
      "inputs": [],
      "name": "getSentMessages",
      "outputs": [
        {
          "components": [
            {
              "internalType": "address",
              "name": "from",
              "type": "address"
            },
            {
              "internalType": "address",
              "name": "to",
              "type": "address"
            },
            {
              "internalType": "string",
              "name": "encryptedContent",
              "type": "string"
            },
            {
              "internalType": "uint256",
              "name": "timestamp",
              "type": "uint256"
            }
          ],
          "internalType": "struct Messages.Message[]",
          "name": "",
          "type": "tuple[]"
        }
      ],
      "stateMutability": "view",
      "type": "function"
    },
    {
      "inputs": [],
      "name": "owner",
      "outputs": [
        {
          "internalType": "address",
          "name": "",
          "type": "address"
        }
      ],
      "stateMutability": "view",
      "type": "function"
    },
    {
      "inputs": [],
      "name": "renounceOwnership",
      "outputs": [],
      "stateMutability": "nonpayable",
      "type": "function"
    },
    {
      "inputs": [
        {
          "internalType": "address",
          "name": "_to",
          "type": "address"
        },
        {
          "internalType": "string",
          "name": "_encryptedContent",
          "type": "string"
        }
      ],
      "name": "sendMessage",
      "outputs": [],
      "stateMutability": "nonpayable",
      "type": "function"
    },
    {
      "inputs": [
        {
          "internalType": "address",
          "name": "newOwner",
          "type": "address"
        }
      ],
      "name": "transferOwnership",
      "outputs": [],
      "stateMutability": "nonpayable",
      "type": "function"
    }
  ],
  "bytecode": "0x6080806040523461007a5733156100645760008054336001600160a01b03198216811783556040519290916001600160a01b0316907f8be0079c531659141344cd1fd0a4f28419497f9722a3daafe3b4186f6b6457e09080a36108c790816100808239f35b631e4fbdf760e01b815260006004820152602490fd5b600080fdfe6080604081815260048036101561001557600080fd5b600092833560e01c9081634e9a5c89146103dc57508063715018a61461037f5780638da5cb5b14610357578063de6f24bb1461025b578063e9f593f4146100ee5763f2fde38b1461006557600080fd5b346100ea5760203660031901126100ea5761007e610606565b90610087610865565b6001600160a01b039182169283156100d457505082546001600160a01b0319811683178455167f8be0079c531659141344cd1fd0a4f28419497f9722a3daafe3b4186f6b6457e08380a380f35b51631e4fbdf760e01b8152908101849052602490fd5b8280fd5b50919034610257578160031936011261025757338252600292602090600282528284209384549267ffffffffffffffff84116102445784519591600561013886821b840189610653565b8588528288019382528282209180945b8786106101605788518061015c8c82610538565b0390f35b86858c928b5161016f81610621565b87546001600160a01b039081168252600189810154909116848301528d5195890180548897929161019f82610675565b8085529183811690811561022357506001146101e3575b5050506101c7816001970382610653565b8d82015260038801546060820152815201940195019492610148565b909192975088528488209188925b82841061020b5750505085018301946101c78160016101b6565b80548985018801528e97508c969093019281016101f1565b60ff19168589015250501515891b8201850196506101c790508160016101b6565b506041602492634e487b7160e01b835252fd5b5080fd5b5090346100ea57806003193601126100ea57610275610606565b906024359067ffffffffffffffff9384831161035357366023840112156103535782013593841161034f57366024858401011161034f576103447f8e3ce0a37f42bfb0e85f8f02c440ff2843d1182d7f1fce9174f7980e5e9d130c928251906102dd82610621565b338252876020809760018060a01b031698898286015280602488519561030c85601f19601f8601160188610653565b8287520183860137830101528382015242606082015233875260028552610335818489206106af565b858752600185528287206106af565b51914283523392a380f35b8480fd5b8580fd5b505034610257578160031936011261025757905490516001600160a01b039091168152602090f35b83346103d957806003193601126103d957610398610865565b80546001600160a01b03198116825581906001600160a01b03167f8be0079c531659141344cd1fd0a4f28419497f9722a3daafe3b4186f6b6457e08280a380f35b80fd5b90508284346103d957806003193601126103d957338152600193602091600183528381209283549367ffffffffffffffff851161052557916005610425838760051b0189610653565b8588528288019382528282209180945b8786106104495788518061015c8c82610538565b86858c928b5161045881610621565b87546001600160a01b0390811682528589015416838201528c51600289018054889161048382610675565b9182855284888b83169283600014610505575050506001146104ca575b5050816104ae910382610653565b8d82015260038801546060820152815201940195019492610435565b895285892089925088905b8284106104ec5750505081018401816104ae6104a0565b80548585018901528f98508d97909301928991016104d5565b60ff1916818301529315158d1b810190930193506104ae91506104a09050565b634e487b7160e01b835260418452602483fd5b6020808201908083528351809252604092604081018260408560051b8401019601946000906000935b86851061057357505050505050505090565b9091929394959697603f1982820301855286895191608060018060a01b0380855116835283850151168383015285840151818784015280518092840152875b8281106105f157505081810160a090810188905260609485015194830194909452601f01601f1916019091019881019796956001019401929190610561565b81810185015184820160a001528b94016105b2565b600435906001600160a01b038216820361061c57565b600080fd5b6080810190811067ffffffffffffffff82111761063d57604052565b634e487b7160e01b600052604160045260246000fd5b90601f8019910116810190811067ffffffffffffffff82111761063d57604052565b90600182811c921680156106a5575b602083101461068f57565b634e487b7160e01b600052602260045260246000fd5b91607f1691610684565b8054916801000000000000000083101561063d57600180840180845584101561084f5760009283526020938484209060021b019360018060a01b03808451166bffffffffffffffffffffffff60a01b908188541617875583870191838601511690825416179055600285019160408401519182519267ffffffffffffffff841161083b5761073d8554610675565b601f81116107f5575b5081601f851160011461078a5750928092819260609796956003999461077f575b50501b9160001990871b1c19161790555b0151910155565b015192503880610767565b858852808820969795969395601f198616915b8282106107de57505091600397959391856060989694106107c6575b505050811b019055610778565b015160001983891b60f8161c191690553880806107b9565b80888697829497870151815501960194019061079d565b858852828820601f860160051c810191848710610831575b601f0160051c019084905b828110610826575050610746565b898155018490610818565b909150819061080d565b634e487b7160e01b87526041600452602487fd5b634e487b7160e01b600052603260045260246000fd5b6000546001600160a01b0316330361087957565b60405163118cdaa760e01b8152336004820152602490fdfea2646970667358221220a384fb4ef9378ace45f0a5ed6c28ff8f6dc991f1b11f8080d167f51d9dd3782264736f6c63430008180033",
  "linkReferences": {},
  "deployedLinkReferences": {}
}