{
  "_format": "hh-sol-artifact-1",
  "contractName": "PropertyFractionalizer",
  "sourceName": "contracts/PropertyFractionalizer.sol",
  "abi": [
    {
      "inputs": [
        {
          "internalType": "address",
          "name": "_property",
          "type": "address"
        },
        {
          "internalType": "uint256",
          "name": "_tokenId",
          "type": "uint256"
        }
      ],
      "stateMutability": "nonpayable",
      "type": "constructor"
    },
    {
      "inputs": [
        {
          "internalType": "address",
          "name": "owner",
          "type": "address"
        }
      ],
      "name": "OwnableInvalidOwner",
      "type": "error"
    },
    {
      "inputs": [
        {
          "internalType": "address",
          "name": "account",
          "type": "address"
        }
      ],
      "name": "OwnableUnauthorizedAccount",
      "type": "error"
    },
    {
      "anonymous": false,
      "inputs": [
        {
          "indexed": false,
          "internalType": "address",
          "name": "shareToken",
          "type": "address"
        },
        {
          "indexed": false,
          "internalType": "uint256",
          "name": "totalShares",
          "type": "uint256"
        },
        {
          "indexed": false,
          "internalType": "uint256",
          "name": "pricePerShareWei",
          "type": "uint256"
        }
      ],
      "name": "Fractionalized",
      "type": "event"
    },
    {
      "anonymous": false,
      "inputs": [
        {
          "indexed": true,
          "internalType": "address",
          "name": "previousOwner",
          "type": "address"
        },
        {
          "indexed": true,
          "internalType": "address",
          "name": "newOwner",
          "type": "address"
        }
      ],
      "name": "OwnershipTransferred",
      "type": "event"
    },
    {
      "anonymous": false,
      "inputs": [
        {
          "indexed": false,
          "internalType": "address",
          "name": "from",
          "type": "address"
        },
        {
          "indexed": false,
          "internalType": "uint256",
          "name": "amount",
          "type": "uint256"
        }
      ],
      "name": "RevenueReceived",
      "type": "event"
    },
    {
      "anonymous": false,
      "inputs": [
        {
          "indexed": false,
          "internalType": "address",
          "name": "to",
          "type": "address"
        },
        {
          "indexed": false,
          "internalType": "uint256",
          "name": "amount",
          "type": "uint256"
        }
      ],
      "name": "RevenueWithdrawn",
      "type": "event"
    },
    {
      "anonymous": false,
      "inputs": [
        {
          "indexed": false,
          "internalType": "address",
          "name": "buyer",
          "type": "address"
        },
        {
          "indexed": false,
          "internalType": "uint256",
          "name": "amount",
          "type": "uint256"
        },
        {
          "indexed": false,
          "internalType": "uint256",
          "name": "paidWei",
          "type": "uint256"
        }
      ],
      "name": "SharesBought",
      "type": "event"
    },
    {
      "inputs": [
        {
          "internalType": "uint256",
          "name": "amount",
          "type": "uint256"
        }
      ],
      "name": "buyShares",
      "outputs": [],
      "stateMutability": "payable",
      "type": "function"
    },
    {
      "inputs": [
        {
          "internalType": "string",
          "name": "name_",
          "type": "string"
        },
        {
          "internalType": "string",
          "name": "symbol_",
          "type": "string"
        },
        {
          "internalType": "uint256",
          "name": "_totalShares",
          "type": "uint256"
        },
        {
          "internalType": "uint256",
          "name": "_pricePerShareWei",
          "type": "uint256"
        }
      ],
      "name": "fractionalize",
      "outputs": [],
      "stateMutability": "nonpayable",
      "type": "function"
    },
    {
      "inputs": [],
      "name": "fractionalized",
      "outputs": [
        {
          "internalType": "bool",
          "name": "",
          "type": "bool"
        }
      ],
      "stateMutability": "view",
      "type": "function"
    },
    {
      "inputs": [],
      "name": "owner",
      "outputs": [
        {
          "internalType": "address",
          "name": "",
          "type": "address"
        }
      ],
      "stateMutability": "view",
      "type": "function"
    },
    {
      "inputs": [],
      "name": "pricePerShareWei",
      "outputs": [
        {
          "internalType": "uint256",
          "name": "",
          "type": "uint256"
        }
      ],
      "stateMutability": "view",
      "type": "function"
    },
    {
      "inputs": [],
      "name": "property",
      "outputs": [
        {
          "internalType": "contract IERC721",
          "name": "",
          "type": "address"
        }
      ],
      "stateMutability": "view",
      "type": "function"
    },
    {
      "inputs": [],
      "name": "renounceOwnership",
      "outputs": [],
      "stateMutability": "nonpayable",
      "type": "function"
    },
    {
      "inputs": [],
      "name": "revenueBalance",
      "outputs": [
        {
          "internalType": "uint256",
          "name": "",
          "type": "uint256"
        }
      ],
      "stateMutability": "view",
      "type": "function"
    },
    {
      "inputs": [],
      "name": "shareToken",
      "outputs": [
        {
          "internalType": "contract ShareToken",
          "name": "",
          "type": "address"
        }
      ],
      "stateMutability": "view",
      "type": "function"
    },
    {
      "inputs": [
        {
          "internalType": "address",
          "name": "who",
          "type": "address"
        }
      ],
      "name": "sharesOf",
      "outputs": [
        {
          "internalType": "uint256",
          "name": "",
          "type": "uint256"
        }
      ],
      "stateMutability": "view",
      "type": "function"
    },
    {
      "inputs": [],
      "name": "tokenId",
      "outputs": [
        {
          "internalType": "uint256",
          "name": "",
          "type": "uint256"
        }
      ],
      "stateMutability": "view",
      "type": "function"
    },
    {
      "inputs": [],
      "name": "totalShares",
      "outputs": [
        {
          "internalType": "uint256",
          "name": "",
          "type": "uint256"
        }
      ],
      "stateMutability": "view",
      "type": "function"
    },
    {
      "inputs": [
        {
          "internalType": "address",
          "name": "newOwner",
          "type": "address"
        }
      ],
      "name": "transferOwnership",
      "outputs": [],
      "stateMutability": "nonpayable",
      "type": "function"
    },
    {
      "inputs": [
        {
          "internalType": "address payable",
          "name": "to",
          "type": "address"
        }
      ],
      "name": "withdrawRevenue",
      "outputs": [],
      "stateMutability": "nonpayable",
      "type": "function"
    },
    {
      "stateMutability": "payable",
      "type": "receive"
    }
  ],
  "bytecode": "0x60c0346100e757601f61184238819003918201601f19168301916001600160401b038311848410176100ec5780849260409485528339810103126100e75780516001600160a01b0391828216918290036100e757602001519033156100ce576000543360018060a01b0319821617600055604051933391167f8be0079c531659141344cd1fd0a4f28419497f9722a3daafe3b4186f6b6457e0600080a360805260a05261173f9081610103823960805181818161059f01526109ef015260a05181818161056601526109b60152f35b604051631e4fbdf760e01b815260006004820152602490fd5b600080fd5b634e487b7160e01b600052604160045260246000fdfe6080604081815260048036101562000064575b50905036156200002157600080fd5b7f10221063d064b7f08df50a7b688426682343e6067582ebc0802467b91b9ac74190620000513460055462000aa9565b60055551338152346020820152604090a1005b600092833560e01c908163176fd3f014620009d95750806317d70f7c146200099c5780633a98ef39146200097b5780635e420f4c14620008bf5780636c9fa59e1462000894578063715018a614620008365780638da5cb5b146200080c57806394ebd35414620004e7578063a6cfbb7f14620004c6578063d1a93d18146200023f578063e2025932146200021a578063e666eb7014620001f5578063f2fde38b14620001575763f5eb42dc0362000012573462000153576020366003190112620001535735916001600160a01b03831683036200015057506200014960209262000acd565b9051908152f35b80fd5b8280fd5b5090346200015357602036600319011262000153576001600160a01b03823581811693919290849003620001f1576200018f62000b5f565b8315620001db575050600054826bffffffffffffffffffffffff60a01b821617600055167f8be0079c531659141344cd1fd0a4f28419497f9722a3daafe3b4186f6b6457e0600080a380f35b51631e4fbdf760e01b8152908101849052602490fd5b8480fd5b50913462000150578060031936011262000150575060ff602092541690519015158152f35b5050346200023b57816003193601126200023b576020906003549051908152f35b5080fd5b5090602080600319360112620003865782359260ff8154161562000490578315620004615760035480850290858204036200044e573403620004195760015483516370a0823160e01b815230838201526001600160a01b0390911691908381602481865afa9081156200040f579086918891620003d3575b50106200039c57835163a9059cbb60e01b815233918101918252602082018690529291829184919082908990829060400103925af18015620003925762000354575b847f2ac0c7a344c07faca0c8fb818361b688d571a347db8c184800fce2207531dd1e6200034e86866200032f3460055462000aa9565b6005555133815260208101919091523460408201529081906060820190565b0390a180f35b81813d83116200038a575b6200036b818362000a4f565b810103126200038657518015150362000153573880620002f9565b8380fd5b503d6200035f565b83513d87823e3d90fd5b835162461bcd60e51b815290810183905260116024820152704e6f7420656e6f7567682073686172657360781b6044820152606490fd5b809250858092503d831162000407575b620003ef818362000a4f565b81010312620004025785905138620002b7565b600080fd5b503d620003e3565b85513d89823e3d90fd5b915162461bcd60e51b8152918201526011602482015270125b98dbdc9c9958dd081c185e5b595b9d607a1b6044820152606490fd5b634e487b7160e01b865260118252602486fd5b915162461bcd60e51b815291820152600b60248201526a16995c9bc8185b5bdd5b9d60aa1b6044820152606490fd5b915162461bcd60e51b8152918201526012602482015271139bdd08199c9858dd1a5bdb985b1a5e995960721b6044820152606490fd5b5050346200023b57816003193601126200023b576020906005549051908152f35b503462000153576080366003190112620001535767ffffffffffffffff908035828111620001f1576200051e903690830162000a1e565b60248035858111620008085762000539903690860162000a1e565b60449691963596606435956200054e62000b5f565b60ff885416620007cd5789516331a9108f60e11b81527f00000000000000000000000000000000000000000000000000000000000000008982018190526001600160a01b03976020959493929091907f00000000000000000000000000000000000000000000000000000000000000008a16908f9088818c81865afa918215620007c057916200077f575b508a339116036200074a57808f913b156200023b578e516323b872dd60e01b815233818f015230818c015260448101939093528290606490829084905af180156200073e5762000717575b508a600255886003558b5196610b7d90818901978989109089111762000706575062000678949288979694926200066a9262000b8d8a3960808852608088019162000a88565b928584039086015262000a88565b908789820152606030910152039087f08015620006fc57600180546001600160a01b031916929091169182178155835460ff19161790925592516001600160a01b039091168152602081019190915260408101919091527f1ada2eae037fb6ff59f185305a4720bc3e809772c23b4f0d70e3462db5d13e6d9080606081016200034e565b85513d88823e3d90fd5b634e487b7160e01b8f5260418c528efd5b86819e929e116200072c578c529b3862000624565b634e487b7160e01b825260418b528782fd5b8e8e51903d90823e3d90fd5b8d5162461bcd60e51b8152808d018890526010818b01526f139bdd081bdddb995c881bd98813919560821b6044820152606490fd5b90508781813d8311620007b8575b62000799818362000a4f565b81010312620007b457518a81168103620007b45738620005d9565b8f80fd5b503d6200078d565b90508f51903d90823e3d90fd5b895162461bcd60e51b81526020818a015260168187015275105b1c9958591e48199c9858dd1a5bdb985b1a5e995960521b6044820152606490fd5b8780fd5b5050346200023b57816003193601126200023b57905490516001600160a01b039091168152602090f35b833462000150578060031936011262000150576200085362000b5f565b80546001600160a01b03198116825581906001600160a01b03167f8be0079c531659141344cd1fd0a4f28419497f9722a3daafe3b4186f6b6457e08280a380f35b5050346200023b57816003193601126200023b5760015490516001600160a01b039091168152602090f35b50903462000153576020366003190112620001535781356001600160a01b038116908190036200038657620008f362000b5f565b6005549283156200094b57508360055583808080868582f11562000941577f86a5cc8fe9af9ae68fb50f62885307a7755a30cbd290131644377f0bd94a71819282519182526020820152a180f35b81513d85823e3d90fd5b606490602084519162461bcd60e51b8352820152600a6024820152694e6f20726576656e756560b01b6044820152fd5b5050346200023b57816003193601126200023b576020906002549051908152f35b5050346200023b57816003193601126200023b57602090517f00000000000000000000000000000000000000000000000000000000000000008152f35b8490346200023b57816003193601126200023b577f00000000000000000000000000000000000000000000000000000000000000006001600160a01b03168152602090f35b9181601f84011215620004025782359167ffffffffffffffff83116200040257602083818601950101116200040257565b90601f8019910116810190811067ffffffffffffffff82111762000a7257604052565b634e487b7160e01b600052604160045260246000fd5b908060209392818452848401376000828201840152601f01601f1916010190565b9190820180921162000ab757565b634e487b7160e01b600052601160045260246000fd5b6001546001600160a01b039081169190821562000b5757602460209260405194859384926370a0823160e01b84521660048301525afa90811562000b4b5760009162000b17575090565b90506020813d60201162000b42575b8162000b356020938362000a4f565b8101031262000402575190565b3d915062000b26565b6040513d6000823e3d90fd5b505050600090565b6000546001600160a01b0316330362000b7457565b60405163118cdaa760e01b8152336004820152602490fdfe604060808152346200043c5762000b7d803803806200001e8162000441565b92833981016080828203126200043c5781516001600160401b0392908381116200043c57826200005091830162000467565b60209283830151908582116200043c576200006d91840162000467565b906060868401519301519460018060a01b0386168096036200043c5781518181116200033c576003908154906001948583811c9316801562000431575b898410146200041b578190601f93848111620003c5575b5089908483116001146200035e5760009262000352575b505060001982851b1c191690851b1782555b84519283116200033c5760049485548581811c9116801562000331575b898210146200031c57828111620002d1575b508791841160011462000266579383949184926000956200025a575b50501b92600019911b1c19161781555b831562000217578115620001c35760025490828201809211620001ae575060025560008381528083528481208054830190558451918252917fddf252ad1be2c89b69c2b068fc378daa952ba7f163c4a11628f55a4df523b3ef91a3516106a39081620004da8239f35b601190634e487b7160e01b6000525260246000fd5b845162461bcd60e51b8152908101839052602860248201527f496e697469616c20737570706c79206d7573742062652067726561746572207460448201526768616e207a65726f60c01b6064820152608490fd5b845162461bcd60e51b8152908101839052601b60248201527f43616e6e6f74206d696e7420746f207a65726f206164647265737300000000006044820152606490fd5b01519350388062000135565b9190601f198416928660005284896000209460005b8b89838310620002b957505050106200029e575b50505050811b01815562000145565b01519060f884600019921b161c19169055388080806200028f565b8686015189559097019694850194889350016200027b565b86600052886000208380870160051c8201928b881062000312575b0160051c019086905b8281106200030557505062000119565b60008155018690620002f5565b92508192620002ec565b602287634e487b7160e01b6000525260246000fd5b90607f169062000107565b634e487b7160e01b600052604160045260246000fd5b015190503880620000d8565b90879350601f19831691866000528b6000209260005b8d828210620003ae575050841162000395575b505050811b018255620000ea565b015160001983871b60f8161c1916905538808062000387565b8385015186558b9790950194938401930162000374565b90915084600052896000208480850160051c8201928c861062000411575b918991869594930160051c01915b82811062000401575050620000c1565b60008155859450899101620003f1565b92508192620003e3565b634e487b7160e01b600052602260045260246000fd5b92607f1692620000aa565b600080fd5b6040519190601f01601f191682016001600160401b038111838210176200033c57604052565b919080601f840112156200043c5782516001600160401b0381116200033c576020906200049d601f8201601f1916830162000441565b928184528282870101116200043c5760005b818110620004c557508260009394955001015290565b8581018301518482018401528201620004af56fe608060408181526004918236101561001657600080fd5b600092833560e01c91826306fdde031461043b57508163095ea7b31461038d57816318160ddd1461036e57816323b872dd14610277578163313ce5671461025b57816370a082311461022457816395d89b411461010357508063a9059cbb146100d35763dd62ed3e1461008857600080fd5b346100cf57806003193601126100cf57806020926100a461055e565b6100ac610579565b6001600160a01b0391821683526001865283832091168252845220549051908152f35b5080fd5b50346100cf57806003193601126100cf576020906100fc6100f261055e565b602435903361058f565b5160018152f35b8383346100cf57816003193601126100cf5780519082845460018160011c906001831692831561021a575b6020938484108114610207578388529081156101eb5750600114610196575b505050829003601f01601f191682019267ffffffffffffffff841183851017610183575082918261017f925282610515565b0390f35b634e487b7160e01b815260418552602490fd5b8787529192508591837f8a35acfbc15ff81a39ae7d344fd709f28e8600b4aa8c65c6b64bfe7fe36bd19b5b8385106101d7575050505083010185808061014d565b8054888601830152930192849082016101c1565b60ff1916878501525050151560051b840101905085808061014d565b634e487b7160e01b895260228a52602489fd5b91607f169161012e565b5050346100cf5760203660031901126100cf5760209181906001600160a01b0361024c61055e565b16815280845220549051908152f35b5050346100cf57816003193601126100cf576020905160128152f35b9050823461036b57606036600319011261036b5761029361055e565b61029b610579565b916044359360018060a01b0383168083526001602052868320338452602052868320549160001983106102d7575b6020886100fc89898961058f565b86831061033f578115610328573315610311575082526001602090815286832033845281529186902090859003905582906100fc876102c9565b8751634a1406b160e11b8152908101849052602490fd5b875163e602df0560e01b8152908101849052602490fd5b8751637dc7a0d960e11b8152339181019182526020820193909352604081018790528291506060010390fd5b80fd5b5050346100cf57816003193601126100cf576020906002549051908152f35b9050346104375781600319360112610437576103a761055e565b602435903315610420576001600160a01b031691821561040957508083602095338152600187528181208582528752205582519081527f8c5be1e5ebec7d5bd14f71427d1e84f3dd0314c0f7b2291e5b200ac8c7c3b925843392a35160018152f35b8351634a1406b160e11b8152908101859052602490fd5b835163e602df0560e01b8152808401869052602490fd5b8280fd5b849084346104375782600319360112610437578260035460018160011c906001831692831561050b575b6020938484108114610207578388529081156101eb57506001146104b557505050829003601f01601f191682019267ffffffffffffffff841183851017610183575082918261017f925282610515565b600387529192508591837fc2575a0e9e593c00f959f8c92f12db2869c3395a3b0502d05e2516446f71f85b5b8385106104f7575050505083010185808061014d565b8054888601830152930192849082016104e1565b91607f1691610465565b6020808252825181830181905290939260005b82811061054a57505060409293506000838284010152601f8019910116010190565b818101860151848201604001528501610528565b600435906001600160a01b038216820361057457565b600080fd5b602435906001600160a01b038216820361057457565b916001600160a01b03808416928315610654571692831561063b5760009083825281602052604082205490838210610609575091604082827fddf252ad1be2c89b69c2b068fc378daa952ba7f163c4a11628f55a4df523b3ef958760209652828652038282205586815220818154019055604051908152a3565b60405163391434e360e21b81526001600160a01b03919091166004820152602481019190915260448101839052606490fd5b60405163ec442f0560e01b815260006004820152602490fd5b604051634b637e8f60e11b815260006004820152602490fdfea264697066735822122052f60462b11e1e5944332d0d36527b4fb523a8a417a3d4ce6b7fd7722e61b77d64736f6c63430008180033a2646970667358221220a69419efdffe757bd75f0ebb1426ef7af115096f41b5f6b740a12842a9b768b564736f6c63430008180033",
  "linkReferences": {},
  "deployedLinkReferences": {}
}