{
  "_format": "hh-sol-artifact-1",
  "contractName": "BZHToken",
  "sourceName": "contracts/BZHToken.sol",
  "abi": [
    {
      "inputs": [
        {
          "internalType": "uint256",
          "name": "initialSupply",
          "type": "uint256"
        }
      ],
      "stateMutability": "nonpayable",
      "type": "constructor"
    },
    {
      "inputs": [],
      "name": "AccessControlBadConfirmation",
      "type": "error"
    },
    {
      "inputs": [
        {
          "internalType": "address",
          "name": "account",
          "type": "address"
        },
        {
          "internalType": "bytes32",
          "name": "neededRole",
          "type": "bytes32"
        }
      ],
      "name": "AccessControlUnauthorizedAccount",
      "type": "error"
    },
    {
      "inputs": [],
      "name": "ECDSAInvalidSignature",
      "type": "error"
    },
    {
      "inputs": [
        {
          "internalType": "uint256",
          "name": "length",
          "type": "uint256"
        }
      ],
      "name": "ECDSAInvalidSignatureLength",
      "type": "error"
    },
    {
      "inputs": [
        {
          "internalType": "bytes32",
          "name": "s",
          "type": "bytes32"
        }
      ],
      "name": "ECDSAInvalidSignatureS",
      "type": "error"
    },
    {
      "inputs": [
        {
          "internalType": "address",
          "name": "spender",
          "type": "address"
        },
        {
          "internalType": "uint256",
          "name": "allowance",
          "type": "uint256"
        },
        {
          "internalType": "uint256",
          "name": "needed",
          "type": "uint256"
        }
      ],
      "name": "ERC20InsufficientAllowance",
      "type": "error"
    },
    {
      "inputs": [
        {
          "internalType": "address",
          "name": "sender",
          "type": "address"
        },
        {
          "internalType": "uint256",
          "name": "balance",
          "type": "uint256"
        },
        {
          "internalType": "uint256",
          "name": "needed",
          "type": "uint256"
        }
      ],
      "name": "ERC20InsufficientBalance",
      "type": "error"
    },
    {
      "inputs": [
        {
          "internalType": "address",
          "name": "approver",
          "type": "address"
        }
      ],
      "name": "ERC20InvalidApprover",
      "type": "error"
    },
    {
      "inputs": [
        {
          "internalType": "address",
          "name": "receiver",
          "type": "address"
        }
      ],
      "name": "ERC20InvalidReceiver",
      "type": "error"
    },
    {
      "inputs": [
        {
          "internalType": "address",
          "name": "sender",
          "type": "address"
        }
      ],
      "name": "ERC20InvalidSender",
      "type": "error"
    },
    {
      "inputs": [
        {
          "internalType": "address",
          "name": "spender",
          "type": "address"
        }
      ],
      "name": "ERC20InvalidSpender",
      "type": "error"
    },
    {
      "inputs": [
        {
          "internalType": "uint256",
          "name": "deadline",
          "type": "uint256"
        }
      ],
      "name": "ERC2612ExpiredSignature",
      "type": "error"
    },
    {
      "inputs": [
        {
          "internalType": "address",
          "name": "signer",
          "type": "address"
        },
        {
          "internalType": "address",
          "name": "owner",
          "type": "address"
        }
      ],
      "name": "ERC2612InvalidSigner",
      "type": "error"
    },
    {
      "inputs": [],
      "name": "EnforcedPause",
      "type": "error"
    },
    {
      "inputs": [],
      "name": "ExpectedPause",
      "type": "error"
    },
    {
      "inputs": [
        {
          "internalType": "address",
          "name": "account",
          "type": "address"
        },
        {
          "internalType": "uint256",
          "name": "currentNonce",
          "type": "uint256"
        }
      ],
      "name": "InvalidAccountNonce",
      "type": "error"
    },
    {
      "inputs": [],
      "name": "InvalidShortString",
      "type": "error"
    },
    {
      "inputs": [
        {
          "internalType": "string",
          "name": "str",
          "type": "string"
        }
      ],
      "name": "StringTooLong",
      "type": "error"
    },
    {
      "anonymous": false,
      "inputs": [
        {
          "indexed": true,
          "internalType": "address",
          "name": "owner",
          "type": "address"
        },
        {
          "indexed": true,
          "internalType": "address",
          "name": "spender",
          "type": "address"
        },
        {
          "indexed": false,
          "internalType": "uint256",
          "name": "value",
          "type": "uint256"
        }
      ],
      "name": "Approval",
      "type": "event"
    },
    {
      "anonymous": false,
      "inputs": [],
      "name": "EIP712DomainChanged",
      "type": "event"
    },
    {
      "anonymous": false,
      "inputs": [
        {
          "indexed": false,
          "internalType": "address",
          "name": "account",
          "type": "address"
        }
      ],
      "name": "Paused",
      "type": "event"
    },
    {
      "anonymous": false,
      "inputs": [
        {
          "indexed": true,
          "internalType": "bytes32",
          "name": "role",
          "type": "bytes32"
        },
        {
          "indexed": true,
          "internalType": "bytes32",
          "name": "previousAdminRole",
          "type": "bytes32"
        },
        {
          "indexed": true,
          "internalType": "bytes32",
          "name": "newAdminRole",
          "type": "bytes32"
        }
      ],
      "name": "RoleAdminChanged",
      "type": "event"
    },
    {
      "anonymous": false,
      "inputs": [
        {
          "indexed": true,
          "internalType": "bytes32",
          "name": "role",
          "type": "bytes32"
        },
        {
          "indexed": true,
          "internalType": "address",
          "name": "account",
          "type": "address"
        },
        {
          "indexed": true,
          "internalType": "address",
          "name": "sender",
          "type": "address"
        }
      ],
      "name": "RoleGranted",
      "type": "event"
    },
    {
      "anonymous": false,
      "inputs": [
        {
          "indexed": true,
          "internalType": "bytes32",
          "name": "role",
          "type": "bytes32"
        },
        {
          "indexed": true,
          "internalType": "address",
          "name": "account",
          "type": "address"
        },
        {
          "indexed": true,
          "internalType": "address",
          "name": "sender",
          "type": "address"
        }
      ],
      "name": "RoleRevoked",
      "type": "event"
    },
    {
      "anonymous": false,
      "inputs": [
        {
          "indexed": true,
          "internalType": "address",
          "name": "from",
          "type": "address"
        },
        {
          "indexed": true,
          "internalType": "address",
          "name": "to",
          "type": "address"
        },
        {
          "indexed": false,
          "internalType": "uint256",
          "name": "value",
          "type": "uint256"
        }
      ],
      "name": "Transfer",
      "type": "event"
    },
    {
      "anonymous": false,
      "inputs": [
        {
          "indexed": false,
          "internalType": "address",
          "name": "account",
          "type": "address"
        }
      ],
      "name": "Unpaused",
      "type": "event"
    },
    {
      "inputs": [],
      "name": "DEFAULT_ADMIN_ROLE",
      "outputs": [
        {
          "internalType": "bytes32",
          "name": "",
          "type": "bytes32"
        }
      ],
      "stateMutability": "view",
      "type": "function"
    },
    {
      "inputs": [],
      "name": "DOMAIN_SEPARATOR",
      "outputs": [
        {
          "internalType": "bytes32",
          "name": "",
          "type": "bytes32"
        }
      ],
      "stateMutability": "view",
      "type": "function"
    },
    {
      "inputs": [],
      "name": "MINTER_ROLE",
      "outputs": [
        {
          "internalType": "bytes32",
          "name": "",
          "type": "bytes32"
        }
      ],
      "stateMutability": "view",
      "type": "function"
    },
    {
      "inputs": [],
      "name": "PAUSER_ROLE",
      "outputs": [
        {
          "internalType": "bytes32",
          "name": "",
          "type": "bytes32"
        }
      ],
      "stateMutability": "view",
      "type": "function"
    },
    {
      "inputs": [
        {
          "internalType": "address",
          "name": "owner",
          "type": "address"
        },
        {
          "internalType": "address",
          "name": "spender",
          "type": "address"
        }
      ],
      "name": "allowance",
      "outputs": [
        {
          "internalType": "uint256",
          "name": "",
          "type": "uint256"
        }
      ],
      "stateMutability": "view",
      "type": "function"
    },
    {
      "inputs": [
        {
          "internalType": "address",
          "name": "spender",
          "type": "address"
        },
        {
          "internalType": "uint256",
          "name": "value",
          "type": "uint256"
        }
      ],
      "name": "approve",
      "outputs": [
        {
          "internalType": "bool",
          "name": "",
          "type": "bool"
        }
      ],
      "stateMutability": "nonpayable",
      "type": "function"
    },
    {
      "inputs": [
        {
          "internalType": "address",
          "name": "account",
          "type": "address"
        }
      ],
      "name": "balanceOf",
      "outputs": [
        {
          "internalType": "uint256",
          "name": "",
          "type": "uint256"
        }
      ],
      "stateMutability": "view",
      "type": "function"
    },
    {
      "inputs": [],
      "name": "decimals",
      "outputs": [
        {
          "internalType": "uint8",
          "name": "",
          "type": "uint8"
        }
      ],
      "stateMutability": "view",
      "type": "function"
    },
    {
      "inputs": [],
      "name": "eip712Domain",
      "outputs": [
        {
          "internalType": "bytes1",
          "name": "fields",
          "type": "bytes1"
        },
        {
          "internalType": "string",
          "name": "name",
          "type": "string"
        },
        {
          "internalType": "string",
          "name": "version",
          "type": "string"
        },
        {
          "internalType": "uint256",
          "name": "chainId",
          "type": "uint256"
        },
        {
          "internalType": "address",
          "name": "verifyingContract",
          "type": "address"
        },
        {
          "internalType": "bytes32",
          "name": "salt",
          "type": "bytes32"
        },
        {
          "internalType": "uint256[]",
          "name": "extensions",
          "type": "uint256[]"
        }
      ],
      "stateMutability": "view",
      "type": "function"
    },
    {
      "inputs": [
        {
          "internalType": "bytes32",
          "name": "role",
          "type": "bytes32"
        }
      ],
      "name": "getRoleAdmin",
      "outputs": [
        {
          "internalType": "bytes32",
          "name": "",
          "type": "bytes32"
        }
      ],
      "stateMutability": "view",
      "type": "function"
    },
    {
      "inputs": [
        {
          "internalType": "bytes32",
          "name": "role",
          "type": "bytes32"
        },
        {
          "internalType": "address",
          "name": "account",
          "type": "address"
        }
      ],
      "name": "grantRole",
      "outputs": [],
      "stateMutability": "nonpayable",
      "type": "function"
    },
    {
      "inputs": [
        {
          "internalType": "bytes32",
          "name": "role",
          "type": "bytes32"
        },
        {
          "internalType": "address",
          "name": "account",
          "type": "address"
        }
      ],
      "name": "hasRole",
      "outputs": [
        {
          "internalType": "bool",
          "name": "",
          "type": "bool"
        }
      ],
      "stateMutability": "view",
      "type": "function"
    },
    {
      "inputs": [
        {
          "internalType": "address",
          "name": "to",
          "type": "address"
        },
        {
          "internalType": "uint256",
          "name": "amount",
          "type": "uint256"
        }
      ],
      "name": "mint",
      "outputs": [],
      "stateMutability": "nonpayable",
      "type": "function"
    },
    {
      "inputs": [],
      "name": "name",
      "outputs": [
        {
          "internalType": "string",
          "name": "",
          "type": "string"
        }
      ],
      "stateMutability": "view",
      "type": "function"
    },
    {
      "inputs": [
        {
          "internalType": "address",
          "name": "owner",
          "type": "address"
        }
      ],
      "name": "nonces",
      "outputs": [
        {
          "internalType": "uint256",
          "name": "",
          "type": "uint256"
        }
      ],
      "stateMutability": "view",
      "type": "function"
    },
    {
      "inputs": [],
      "name": "pause",
      "outputs": [],
      "stateMutability": "nonpayable",
      "type": "function"
    },
    {
      "inputs": [],
      "name": "paused",
      "outputs": [
        {
          "internalType": "bool",
          "name": "",
          "type": "bool"
        }
      ],
      "stateMutability": "view",
      "type": "function"
    },
    {
      "inputs": [
        {
          "internalType": "address",
          "name": "owner",
          "type": "address"
        },
        {
          "internalType": "address",
          "name": "spender",
          "type": "address"
        },
        {
          "internalType": "uint256",
          "name": "value",
          "type": "uint256"
        },
        {
          "internalType": "uint256",
          "name": "deadline",
          "type": "uint256"
        },
        {
          "internalType": "uint8",
          "name": "v",
          "type": "uint8"
        },
        {
          "internalType": "bytes32",
          "name": "r",
          "type": "bytes32"
        },
        {
          "internalType": "bytes32",
          "name": "s",
          "type": "bytes32"
        }
      ],
      "name": "permit",
      "outputs": [],
      "stateMutability": "nonpayable",
      "type": "function"
    },
    {
      "inputs": [
        {
          "internalType": "bytes32",
          "name": "role",
          "type": "bytes32"
        },
        {
          "internalType": "address",
          "name": "callerConfirmation",
          "type": "address"
        }
      ],
      "name": "renounceRole",
      "outputs": [],
      "stateMutability": "nonpayable",
      "type": "function"
    },
    {
      "inputs": [
        {
          "internalType": "bytes32",
          "name": "role",
          "type": "bytes32"
        },
        {
          "internalType": "address",
          "name": "account",
          "type": "address"
        }
      ],
      "name": "revokeRole",
      "outputs": [],
      "stateMutability": "nonpayable",
      "type": "function"
    },
    {
      "inputs": [
        {
          "internalType": "bytes4",
          "name": "interfaceId",
          "type": "bytes4"
        }
      ],
      "name": "supportsInterface",
      "outputs": [
        {
          "internalType": "bool",
          "name": "",
          "type": "bool"
        }
      ],
      "stateMutability": "view",
      "type": "function"
    },
    {
      "inputs": [],
      "name": "symbol",
      "outputs": [
        {
          "internalType": "string",
          "name": "",
          "type": "string"
        }
      ],
      "stateMutability": "view",
      "type": "function"
    },
    {
      "inputs": [],
      "name": "totalSupply",
      "outputs": [
        {
          "internalType": "uint256",
          "name": "",
          "type": "uint256"
        }
      ],
      "stateMutability": "view",
      "type": "function"
    },
    {
      "inputs": [
        {
          "internalType": "address",
          "name": "to",
          "type": "address"
        },
        {
          "internalType": "uint256",
          "name": "value",
          "type": "uint256"
        }
      ],
      "name": "transfer",
      "outputs": [
        {
          "internalType": "bool",
          "name": "",
          "type": "bool"
        }
      ],
      "stateMutability": "nonpayable",
      "type": "function"
    },
    {
      "inputs": [
        {
          "internalType": "address",
          "name": "from",
          "type": "address"
        },
        {
          "internalType": "address",
          "name": "to",
          "type": "address"
        },
        {
          "internalType": "uint256",
          "name": "value",
          "type": "uint256"
        }
      ],
      "name": "transferFrom",
      "outputs": [
        {
          "internalType": "bool",
          "name": "",
          "type": "bool"
        }
      ],
      "stateMutability": "nonpayable",
      "type": "function"
    },
    {
      "inputs": [],
      "name": "unpause",
      "outputs": [],
      "stateMutability": "nonpayable",
      "type": "function"
    }
  ],
  "bytecode": "0x6101603462000529576001600160401b0390601f90601f199062001f133881900384810184168301929190868411838510176200042b5780839260409586528339602092839181010312620005295751908251936200005e856200052e565b600c8552818501956b2132ad3430b9902a37b5b2b760a11b80885285519062000087826200052e565b600c8252848201528551926200009d846200052e565b60039283855262084b4960eb1b86860152875193620000bc856200052e565b60018086528c88870195603160f81b875280519182116200042b578354908382811c921680156200051e575b8b83101462000508578186849311620004b2575b508a908683116001146200044d5760009262000441575b505060001982851b1c191690821b1782555b8651928d84116200042b5760049788548381811c9116801562000420575b8b8210146200040b57828111620003c0575b50899185116001146200035757849550908492916000956200034b575b50501b92600019911b1c19161783555b6200018d876200070c565b976101209889526200019f83620008d3565b97610140988952519020918260e05251902061010098818a524660a052865191858301937f8b73c3c69bb8fe3d512ecc4cf759cc79239f7b179b0ffacaa9a75d522b39400f85528884015260608301524660808301523060a083015260a0825260c082019082821090821117620003365786525190206080523060c05262000227336200054a565b506200023333620005cb565b506200023f336200066e565b508262000292575b5050505191611467938462000a8c853960805184610f3e015260a0518461100a015260c05184610f08015260e05184610f8d01525183610fb30152518261054a015251816105740152f35b33156200031f5760ff60055416620003115760025490838201809211620002fc57506000917fddf252ad1be2c89b69c2b068fc378daa952ba7f163c4a11628f55a4df523b3ef9160025533835282815284832084815401905584519384523393a338808062000247565b601190634e487b7160e01b6000525260246000fd5b835163d93c066560e01b8152fd5b602490600085519163ec442f0560e01b8352820152fd5b604184634e487b7160e01b6000525260246000fd5b01519350388062000172565b92919484169288600052848a6000209460005b8c89838310620003a857505050106200038d575b50505050811b01835562000182565b01519060f884600019921b161c19169055388080806200037e565b8686015189559097019694850194889350016200036a565b896000528a6000208380880160051c8201928d891062000401575b0160051c019084905b828110620003f457505062000155565b60008155018490620003e4565b92508192620003db565b60228a634e487b7160e01b6000525260246000fd5b90607f169062000143565b634e487b7160e01b600052604160045260246000fd5b01519050388062000113565b908785941691866000528c600020928d6000905b8282106200049a575050841162000481575b505050811b01825562000125565b015160001983871b60f8161c1916905538808062000473565b83850151865588979095019493840193018e62000461565b909150846000528a6000208680850160051c8201928d8610620004fe575b918691869594930160051c01915b828110620004ee575050620000fc565b60008155859450869101620004de565b92508192620004d0565b634e487b7160e01b600052602260045260246000fd5b91607f1691620000e8565b600080fd5b604081019081106001600160401b038211176200042b57604052565b6001600160a01b031660008181527fec8156718a8372b1db44bb411437d0870f3e3790d4a08526d024ce1b0b668f6b602052604081205490919060ff16620005c75781805260096020526040822081835260205260408220600160ff19825416179055339160008051602062001ef38339815191528180a4600190565b5090565b6001600160a01b031660008181527fd5d09b8f3165a736d25b1a14611612ac91830c1b82012b1c33b2dac7c90a064960205260408120549091907f9f2df0fed2c77648de5860a4cc508cd0818c85b8b8a1ab4ceeef8d981c8956a69060ff16620006695780835260096020526040832082845260205260408320600160ff1982541617905560008051602062001ef3833981519152339380a4600190565b505090565b6001600160a01b031660008181527f84574a31e2f767388bfa57bc81ff2590df95d3022c04c363cca3e37ee960863160205260408120549091907f65d7a28e3265b37a6474929f336521b332c1681b933f6cb9f3376673440d862a9060ff16620006695780835260096020526040832082845260205260408320600160ff1982541617905560008051602062001ef3833981519152339380a4600190565b805160209081811015620007a95750601f8251116200074857808251920151908083106200073957501790565b82600019910360031b1b161790565b90604051809263305a27a960e01b82528060048301528251908160248401526000935b8285106200078f575050604492506000838284010152601f80199101168101030190fd5b84810182015186860160440152938101938593506200076b565b906001600160401b0382116200042b57600654926001938481811c91168015620008c8575b838210146200050857601f81116200088e575b5081601f841160011462000822575092829391839260009462000816575b50501b916000199060031b1c19161760065560ff90565b015192503880620007ff565b919083601f198116600660005284600020946000905b8883831062000873575050501062000859575b505050811b0160065560ff90565b015160001960f88460031b161c191690553880806200084b565b85870151885590960195948501948793509081019062000838565b600660005284601f84600020920160051c820191601f860160051c015b828110620008bb575050620007e1565b60008155018590620008ab565b90607f1690620007ce565b805160209081811015620009615750601f8251116200090057808251920151908083106200073957501790565b90604051809263305a27a960e01b82528060048301528251908160248401526000935b82851062000947575050604492506000838284010152601f80199101168101030190fd5b848101820151868601604401529381019385935062000923565b906001600160401b0382116200042b57600754926001938481811c9116801562000a80575b838210146200050857601f811162000a46575b5081601f8411600114620009da5750928293918392600094620009ce575b50501b916000199060031b1c19161760075560ff90565b015192503880620009b7565b919083601f198116600760005284600020946000905b8883831062000a2b575050501062000a11575b505050811b0160075560ff90565b015160001960f88460031b161c1916905538808062000a03565b858701518855909601959485019487935090810190620009f0565b600760005284601f84600020920160051c820191601f860160051c015b82811062000a7357505062000999565b6000815501859062000a63565b90607f16906200098656fe608060408181526004918236101561001657600080fd5b600092833560e01c91826301ffc9a714610bad5750816306fdde0314610ad2578163095ea7b314610aa857816318160ddd14610a8957816323b872dd14610992578163248a9ca3146109675781632f2ff15d1461093d578163313ce567146109215781633644e515146108fd57816336568abe146108b75781633f4ba83a1461084d57816340c10f19146107405781635c975abb1461071c57816370a08231146106e55781637ecebe00146106ad5781638456cb591461065257816384b0196e1461053257816391d14854146104eb57816395d89b41146103fb578163a217fddf146103e0578163a9059cbb146103af578163d505accf14610247578163d53913931461020c578163d547741f146101c857508063dd62ed3e146101805763e63ab1e91461014357600080fd5b3461017c578160031936011261017c57602090517f65d7a28e3265b37a6474929f336521b332c1681b933f6cb9f3376673440d862a8152f35b5080fd5b503461017c578060031936011261017c578060209261019d610c40565b6101a5610c5b565b6001600160a01b0391821683526001865283832091168252845220549051908152f35b9190503461020857806003193601126102085761020491356101ff60016101ed610c5b565b93838752600960205286200154610e5f565b611030565b5080f35b8280fd5b50503461017c578160031936011261017c57602090517f9f2df0fed2c77648de5860a4cc508cd0818c85b8b8a1ab4ceeef8d981c8956a68152f35b8391503461017c5760e036600319011261017c57610263610c40565b61026b610c5b565b906044359260643560843560ff811681036103ab578142116103945760018060a01b0390818516928389526008602052898920908154916001830190558a519060208201927f6e71edae12b1b97f4d1f60370fef10105fa2faae0126114a169c64845d6126c98452868d840152858a1660608401528a608084015260a083015260c082015260c0815260e0810181811067ffffffffffffffff821117610381578b5251902061034f9161034691610320610f05565b908c519161190160f01b83526002830152602282015260c43591604260a435922061131c565b909291926113ac565b1681810361036657866103638787876110a7565b80f35b87516325c0072360e11b815292830152602482015260449150fd5b634e487b7160e01b8b526041875260248bfd5b875163313c898160e11b8152808401839052602490fd5b8680fd5b50503461017c578060031936011261017c576020906103d96103cf610c40565b6024359033610cff565b5160018152f35b50503461017c578160031936011261017c5751908152602090f35b91905034610208578260031936011261020857805183819490845461041f81610c71565b91828552602096600192886001821691826000146104c1575050600114610466575b858861046289610453848a0385610cdd565b51928284938452830190610c00565b0390f35b815286935091907f8a35acfbc15ff81a39ae7d344fd709f28e8600b4aa8c65c6b64bfe7fe36bd19b5b8284106104a9575050508201018161045361046238610441565b8054848a01860152889550879490930192810161048f565b60ff19168882015294151560051b8701909401945085935061045392506104629150389050610441565b9050346102085781600319360112610208578160209360ff9261050c610c5b565b90358252600986528282206001600160a01b039091168252855220549151911615158152f35b9190503461020857826003193601126102085761056e7f0000000000000000000000000000000000000000000000000000000000000000611158565b926105987f000000000000000000000000000000000000000000000000000000000000000061125c565b90825192602092602085019585871067ffffffffffffffff88111761063f57509260206105f58388966105e8998b9996528686528151998a99600f60f81b8b5260e0868c015260e08b0190610c00565b91898303908a0152610c00565b924660608801523060808801528460a088015286840360c088015251928381520193925b82811061062857505050500390f35b835185528695509381019392810192600101610619565b634e487b7160e01b845260419052602483fd5b50503461017c578160031936011261017c5760207f62e78cea01bee320cd4e420270b5ea74000d11b0c9f74754ebdbfc544b05a25891610690610de5565b61069861113a565b600160ff19600554161760055551338152a180f35b50503461017c57602036600319011261017c5760209181906001600160a01b036106d5610c40565b1681526008845220549051908152f35b50503461017c57602036600319011261017c5760209181906001600160a01b0361070d610c40565b16815280845220549051908152f35b50503461017c578160031936011261017c5760209060ff6005541690519015158152f35b9190503461020857806003193601126102085761075b610c40565b90602435917f9f2df0fed2c77648de5860a4cc508cd0818c85b8b8a1ab4ceeef8d981c8956a6808652600960205282862033875260205260ff83872054161561082f57506001600160a01b031692831561081a576107b761113a565b60025490838201809211610807575084927fddf252ad1be2c89b69c2b068fc378daa952ba7f163c4a11628f55a4df523b3ef9260209260025585855284835280852082815401905551908152a380f35b634e487b7160e01b865260119052602485fd5b84602492519163ec442f0560e01b8352820152fd5b825163e2517d3f60e01b815233818701526024810191909152604490fd5b905034610208578260031936011261020857610867610de5565b6005549060ff8216156108a9575060ff1916600555513381527f5db9ee0a495bf2e6ff9c91a7834c1ba4fdd244a5e8aa4e537bd38aeae4b073aa90602090a180f35b8251638dfc202b60e01b8152fd5b83833461017c578060031936011261017c576108d1610c5b565b90336001600160a01b038316036108ee5750610204919235611030565b5163334bd91960e11b81528390fd5b50503461017c578160031936011261017c5760209061091a610f05565b9051908152f35b50503461017c578160031936011261017c576020905160128152f35b91905034610208578060031936011261020857610204913561096260016101ed610c5b565b610e85565b9050346102085760203660031901126102085781602093600192358152600985522001549051908152f35b90508234610a86576060366003190112610a86576109ae610c40565b6109b6610c5b565b916044359360018060a01b0383168083526001602052868320338452602052868320549160001983106109f2575b6020886103d9898989610cff565b868310610a5a578115610a43573315610a2c575082526001602090815286832033845281529186902090859003905582906103d9876109e4565b8751634a1406b160e11b8152908101849052602490fd5b875163e602df0560e01b8152908101849052602490fd5b8751637dc7a0d960e11b8152339181019182526020820193909352604081018790528291506060010390fd5b80fd5b50503461017c578160031936011261017c576020906002549051908152f35b50503461017c578060031936011261017c576020906103d9610ac8610c40565b60243590336110a7565b828434610a865780600319360112610a86578151918282600354610af581610c71565b9081845260209560019187600182169182600014610b86575050600114610b2a575b5050506104629291610453910385610cdd565b9190869350600383527fc2575a0e9e593c00f959f8c92f12db2869c3395a3b0502d05e2516446f71f85b5b828410610b6e5750505082010181610453610462610b17565b8054848a018601528895508794909301928101610b55565b60ff19168782015293151560051b8601909301935084925061045391506104629050610b17565b849134610208576020366003190112610208573563ffffffff60e01b81168091036102085760209250637965db0b60e01b8114908115610bef575b5015158152f35b6301ffc9a760e01b14905083610be8565b919082519283825260005b848110610c2c575050826000602080949584010152601f8019910116010190565b602081830181015184830182015201610c0b565b600435906001600160a01b0382168203610c5657565b600080fd5b602435906001600160a01b0382168203610c5657565b90600182811c92168015610ca1575b6020831014610c8b57565b634e487b7160e01b600052602260045260246000fd5b91607f1691610c80565b6040810190811067ffffffffffffffff821117610cc757604052565b634e487b7160e01b600052604160045260246000fd5b90601f8019910116810190811067ffffffffffffffff821117610cc757604052565b916001600160a01b03808416928315610dcc5716928315610db357610d2261113a565b60009083825281602052604082205490838210610d81575091604082827fddf252ad1be2c89b69c2b068fc378daa952ba7f163c4a11628f55a4df523b3ef958760209652828652038282205586815220818154019055604051908152a3565b60405163391434e360e21b81526001600160a01b03919091166004820152602481019190915260448101839052606490fd5b60405163ec442f0560e01b815260006004820152602490fd5b604051634b637e8f60e11b815260006004820152602490fd5b3360009081527f84574a31e2f767388bfa57bc81ff2590df95d3022c04c363cca3e37ee960863160205260409020547f65d7a28e3265b37a6474929f336521b332c1681b933f6cb9f3376673440d862a9060ff1615610e415750565b6044906040519063e2517d3f60e01b82523360048301526024820152fd5b80600052600960205260406000203360005260205260ff6040600020541615610e415750565b906000918083526009602052604083209160018060a01b03169182845260205260ff60408420541615600014610f005780835260096020526040832082845260205260408320600160ff198254161790557f2f8788117e7eff1d82e926ec794901d17c78024a50270940304540a733656f0d339380a4600190565b505090565b307f00000000000000000000000000000000000000000000000000000000000000006001600160a01b03161480611007575b15610f60577f000000000000000000000000000000000000000000000000000000000000000090565b60405160208101907f8b73c3c69bb8fe3d512ecc4cf759cc79239f7b179b0ffacaa9a75d522b39400f82527f000000000000000000000000000000000000000000000000000000000000000060408201527f000000000000000000000000000000000000000000000000000000000000000060608201524660808201523060a082015260a0815260c0810181811067ffffffffffffffff821117610cc75760405251902090565b507f00000000000000000000000000000000000000000000000000000000000000004614610f37565b906000918083526009602052604083209160018060a01b03169182845260205260ff604084205416600014610f00578083526009602052604083208284526020526040832060ff1981541690557ff6391f5c32d9c69d2a47ea670b442974b53935d1edc7fd64eb21e047a839171b339380a4600190565b6001600160a01b0390811691821561112157169182156111085760207f8c5be1e5ebec7d5bd14f71427d1e84f3dd0314c0f7b2291e5b200ac8c7c3b925918360005260018252604060002085600052825280604060002055604051908152a3565b604051634a1406b160e11b815260006004820152602490fd5b60405163e602df0560e01b815260006004820152602490fd5b60ff6005541661114657565b60405163d93c066560e01b8152600490fd5b60ff81146111965760ff811690601f8211611184576040519161117a83610cab565b8252602082015290565b604051632cd44ac360e21b8152600490fd5b506040516006548160006111a983610c71565b8083529260209060019081811690811561123857506001146111d7575b50506111d492500382610cdd565b90565b91509260066000527ff652222313e28459528d920b65115c16c04f3efc82aaedc97be59f3f377c0d3f936000925b82841061122057506111d494505050810160200138806111c6565b85548785018301529485019486945092810192611205565b915050602092506111d494915060ff191682840152151560051b82010138806111c6565b60ff811461127e5760ff811690601f8211611184576040519161117a83610cab565b5060405160075481600061129183610c71565b8083529260209060019081811690811561123857506001146112bb5750506111d492500382610cdd565b91509260076000527fa66cc928b5edb82af9bd49922954155ab7b0942694bea4ce44661d9a8736c688936000925b82841061130457506111d494505050810160200138806111c6565b855487850183015294850194869450928101926112e9565b91907f7fffffffffffffffffffffffffffffff5d576e7357a4501ddfe92f46681b20a084116113a057926020929160ff608095604051948552168484015260408301526060820152600092839182805260015afa156113945780516001600160a01b0381161561138b57918190565b50809160019190565b604051903d90823e3d90fd5b50505060009160039190565b600481101561141b57806113be575050565b600181036113d85760405163f645eedf60e01b8152600490fd5b600281036113f95760405163fce698f760e01b815260048101839052602490fd5b6003146114035750565b602490604051906335e2f38360e21b82526004820152fd5b634e487b7160e01b600052602160045260246000fdfea264697066735822122028eff1e270d3bd9fa1ce1587f5174d1c18c2dd1558952d94135410dbf0ee2bbc64736f6c634300081800332f8788117e7eff1d82e926ec794901d17c78024a50270940304540a733656f0d",
  "linkReferences": {},
  "deployedLinkReferences": {}
}