{
  "_format": "hh-sol-artifact-1",
  "contractName": "BezhasNFT",
  "sourceName": "contracts/BezhasNFT.sol",
  "abi": [
    {
      "inputs": [],
      "stateMutability": "nonpayable",
      "type": "constructor"
    },
    {
      "inputs": [],
      "name": "AccessControlBadConfirmation",
      "type": "error"
    },
    {
      "inputs": [
        {
          "internalType": "address",
          "name": "account",
          "type": "address"
        },
        {
          "internalType": "bytes32",
          "name": "neededRole",
          "type": "bytes32"
        }
      ],
      "name": "AccessControlUnauthorizedAccount",
      "type": "error"
    },
    {
      "inputs": [],
      "name": "ERC721EnumerableForbiddenBatchMint",
      "type": "error"
    },
    {
      "inputs": [
        {
          "internalType": "address",
          "name": "sender",
          "type": "address"
        },
        {
          "internalType": "uint256",
          "name": "tokenId",
          "type": "uint256"
        },
        {
          "internalType": "address",
          "name": "owner",
          "type": "address"
        }
      ],
      "name": "ERC721IncorrectOwner",
      "type": "error"
    },
    {
      "inputs": [
        {
          "internalType": "address",
          "name": "operator",
          "type": "address"
        },
        {
          "internalType": "uint256",
          "name": "tokenId",
          "type": "uint256"
        }
      ],
      "name": "ERC721InsufficientApproval",
      "type": "error"
    },
    {
      "inputs": [
        {
          "internalType": "address",
          "name": "approver",
          "type": "address"
        }
      ],
      "name": "ERC721InvalidApprover",
      "type": "error"
    },
    {
      "inputs": [
        {
          "internalType": "address",
          "name": "operator",
          "type": "address"
        }
      ],
      "name": "ERC721InvalidOperator",
      "type": "error"
    },
    {
      "inputs": [
        {
          "internalType": "address",
          "name": "owner",
          "type": "address"
        }
      ],
      "name": "ERC721InvalidOwner",
      "type": "error"
    },
    {
      "inputs": [
        {
          "internalType": "address",
          "name": "receiver",
          "type": "address"
        }
      ],
      "name": "ERC721InvalidReceiver",
      "type": "error"
    },
    {
      "inputs": [
        {
          "internalType": "address",
          "name": "sender",
          "type": "address"
        }
      ],
      "name": "ERC721InvalidSender",
      "type": "error"
    },
    {
      "inputs": [
        {
          "internalType": "uint256",
          "name": "tokenId",
          "type": "uint256"
        }
      ],
      "name": "ERC721NonexistentToken",
      "type": "error"
    },
    {
      "inputs": [
        {
          "internalType": "address",
          "name": "owner",
          "type": "address"
        },
        {
          "internalType": "uint256",
          "name": "index",
          "type": "uint256"
        }
      ],
      "name": "ERC721OutOfBoundsIndex",
      "type": "error"
    },
    {
      "anonymous": false,
      "inputs": [
        {
          "indexed": true,
          "internalType": "address",
          "name": "owner",
          "type": "address"
        },
        {
          "indexed": true,
          "internalType": "address",
          "name": "approved",
          "type": "address"
        },
        {
          "indexed": true,
          "internalType": "uint256",
          "name": "tokenId",
          "type": "uint256"
        }
      ],
      "name": "Approval",
      "type": "event"
    },
    {
      "anonymous": false,
      "inputs": [
        {
          "indexed": true,
          "internalType": "address",
          "name": "owner",
          "type": "address"
        },
        {
          "indexed": true,
          "internalType": "address",
          "name": "operator",
          "type": "address"
        },
        {
          "indexed": false,
          "internalType": "bool",
          "name": "approved",
          "type": "bool"
        }
      ],
      "name": "ApprovalForAll",
      "type": "event"
    },
    {
      "anonymous": false,
      "inputs": [
        {
          "indexed": false,
          "internalType": "uint256",
          "name": "_fromTokenId",
          "type": "uint256"
        },
        {
          "indexed": false,
          "internalType": "uint256",
          "name": "_toTokenId",
          "type": "uint256"
        }
      ],
      "name": "BatchMetadataUpdate",
      "type": "event"
    },
    {
      "anonymous": false,
      "inputs": [
        {
          "indexed": false,
          "internalType": "uint256",
          "name": "_tokenId",
          "type": "uint256"
        }
      ],
      "name": "MetadataUpdate",
      "type": "event"
    },
    {
      "anonymous": false,
      "inputs": [
        {
          "indexed": true,
          "internalType": "bytes32",
          "name": "role",
          "type": "bytes32"
        },
        {
          "indexed": true,
          "internalType": "bytes32",
          "name": "previousAdminRole",
          "type": "bytes32"
        },
        {
          "indexed": true,
          "internalType": "bytes32",
          "name": "newAdminRole",
          "type": "bytes32"
        }
      ],
      "name": "RoleAdminChanged",
      "type": "event"
    },
    {
      "anonymous": false,
      "inputs": [
        {
          "indexed": true,
          "internalType": "bytes32",
          "name": "role",
          "type": "bytes32"
        },
        {
          "indexed": true,
          "internalType": "address",
          "name": "account",
          "type": "address"
        },
        {
          "indexed": true,
          "internalType": "address",
          "name": "sender",
          "type": "address"
        }
      ],
      "name": "RoleGranted",
      "type": "event"
    },
    {
      "anonymous": false,
      "inputs": [
        {
          "indexed": true,
          "internalType": "bytes32",
          "name": "role",
          "type": "bytes32"
        },
        {
          "indexed": true,
          "internalType": "address",
          "name": "account",
          "type": "address"
        },
        {
          "indexed": true,
          "internalType": "address",
          "name": "sender",
          "type": "address"
        }
      ],
      "name": "RoleRevoked",
      "type": "event"
    },
    {
      "anonymous": false,
      "inputs": [
        {
          "indexed": true,
          "internalType": "address",
          "name": "from",
          "type": "address"
        },
        {
          "indexed": true,
          "internalType": "address",
          "name": "to",
          "type": "address"
        },
        {
          "indexed": true,
          "internalType": "uint256",
          "name": "tokenId",
          "type": "uint256"
        }
      ],
      "name": "Transfer",
      "type": "event"
    },
    {
      "inputs": [],
      "name": "DEFAULT_ADMIN_ROLE",
      "outputs": [
        {
          "internalType": "bytes32",
          "name": "",
          "type": "bytes32"
        }
      ],
      "stateMutability": "view",
      "type": "function"
    },
    {
      "inputs": [],
      "name": "MINTER_ROLE",
      "outputs": [
        {
          "internalType": "bytes32",
          "name": "",
          "type": "bytes32"
        }
      ],
      "stateMutability": "view",
      "type": "function"
    },
    {
      "inputs": [
        {
          "internalType": "address",
          "name": "to",
          "type": "address"
        },
        {
          "internalType": "uint256",
          "name": "tokenId",
          "type": "uint256"
        }
      ],
      "name": "approve",
      "outputs": [],
      "stateMutability": "nonpayable",
      "type": "function"
    },
    {
      "inputs": [
        {
          "internalType": "address",
          "name": "owner",
          "type": "address"
        }
      ],
      "name": "balanceOf",
      "outputs": [
        {
          "internalType": "uint256",
          "name": "",
          "type": "uint256"
        }
      ],
      "stateMutability": "view",
      "type": "function"
    },
    {
      "inputs": [
        {
          "internalType": "uint256",
          "name": "tokenId",
          "type": "uint256"
        }
      ],
      "name": "getApproved",
      "outputs": [
        {
          "internalType": "address",
          "name": "",
          "type": "address"
        }
      ],
      "stateMutability": "view",
      "type": "function"
    },
    {
      "inputs": [
        {
          "internalType": "bytes32",
          "name": "role",
          "type": "bytes32"
        }
      ],
      "name": "getRoleAdmin",
      "outputs": [
        {
          "internalType": "bytes32",
          "name": "",
          "type": "bytes32"
        }
      ],
      "stateMutability": "view",
      "type": "function"
    },
    {
      "inputs": [
        {
          "internalType": "bytes32",
          "name": "role",
          "type": "bytes32"
        },
        {
          "internalType": "address",
          "name": "account",
          "type": "address"
        }
      ],
      "name": "grantRole",
      "outputs": [],
      "stateMutability": "nonpayable",
      "type": "function"
    },
    {
      "inputs": [
        {
          "internalType": "bytes32",
          "name": "role",
          "type": "bytes32"
        },
        {
          "internalType": "address",
          "name": "account",
          "type": "address"
        }
      ],
      "name": "hasRole",
      "outputs": [
        {
          "internalType": "bool",
          "name": "",
          "type": "bool"
        }
      ],
      "stateMutability": "view",
      "type": "function"
    },
    {
      "inputs": [
        {
          "internalType": "address",
          "name": "owner",
          "type": "address"
        },
        {
          "internalType": "address",
          "name": "operator",
          "type": "address"
        }
      ],
      "name": "isApprovedForAll",
      "outputs": [
        {
          "internalType": "bool",
          "name": "",
          "type": "bool"
        }
      ],
      "stateMutability": "view",
      "type": "function"
    },
    {
      "inputs": [],
      "name": "name",
      "outputs": [
        {
          "internalType": "string",
          "name": "",
          "type": "string"
        }
      ],
      "stateMutability": "view",
      "type": "function"
    },
    {
      "inputs": [
        {
          "internalType": "uint256",
          "name": "tokenId",
          "type": "uint256"
        }
      ],
      "name": "ownerOf",
      "outputs": [
        {
          "internalType": "address",
          "name": "",
          "type": "address"
        }
      ],
      "stateMutability": "view",
      "type": "function"
    },
    {
      "inputs": [
        {
          "internalType": "bytes32",
          "name": "role",
          "type": "bytes32"
        },
        {
          "internalType": "address",
          "name": "callerConfirmation",
          "type": "address"
        }
      ],
      "name": "renounceRole",
      "outputs": [],
      "stateMutability": "nonpayable",
      "type": "function"
    },
    {
      "inputs": [
        {
          "internalType": "bytes32",
          "name": "role",
          "type": "bytes32"
        },
        {
          "internalType": "address",
          "name": "account",
          "type": "address"
        }
      ],
      "name": "revokeRole",
      "outputs": [],
      "stateMutability": "nonpayable",
      "type": "function"
    },
    {
      "inputs": [
        {
          "internalType": "address",
          "name": "to",
          "type": "address"
        },
        {
          "internalType": "string",
          "name": "uri",
          "type": "string"
        }
      ],
      "name": "safeMint",
      "outputs": [],
      "stateMutability": "nonpayable",
      "type": "function"
    },
    {
      "inputs": [
        {
          "internalType": "address",
          "name": "from",
          "type": "address"
        },
        {
          "internalType": "address",
          "name": "to",
          "type": "address"
        },
        {
          "internalType": "uint256",
          "name": "tokenId",
          "type": "uint256"
        }
      ],
      "name": "safeTransferFrom",
      "outputs": [],
      "stateMutability": "nonpayable",
      "type": "function"
    },
    {
      "inputs": [
        {
          "internalType": "address",
          "name": "from",
          "type": "address"
        },
        {
          "internalType": "address",
          "name": "to",
          "type": "address"
        },
        {
          "internalType": "uint256",
          "name": "tokenId",
          "type": "uint256"
        },
        {
          "internalType": "bytes",
          "name": "data",
          "type": "bytes"
        }
      ],
      "name": "safeTransferFrom",
      "outputs": [],
      "stateMutability": "nonpayable",
      "type": "function"
    },
    {
      "inputs": [
        {
          "internalType": "address",
          "name": "operator",
          "type": "address"
        },
        {
          "internalType": "bool",
          "name": "approved",
          "type": "bool"
        }
      ],
      "name": "setApprovalForAll",
      "outputs": [],
      "stateMutability": "nonpayable",
      "type": "function"
    },
    {
      "inputs": [
        {
          "internalType": "bytes4",
          "name": "interfaceId",
          "type": "bytes4"
        }
      ],
      "name": "supportsInterface",
      "outputs": [
        {
          "internalType": "bool",
          "name": "",
          "type": "bool"
        }
      ],
      "stateMutability": "view",
      "type": "function"
    },
    {
      "inputs": [],
      "name": "symbol",
      "outputs": [
        {
          "internalType": "string",
          "name": "",
          "type": "string"
        }
      ],
      "stateMutability": "view",
      "type": "function"
    },
    {
      "inputs": [
        {
          "internalType": "uint256",
          "name": "index",
          "type": "uint256"
        }
      ],
      "name": "tokenByIndex",
      "outputs": [
        {
          "internalType": "uint256",
          "name": "",
          "type": "uint256"
        }
      ],
      "stateMutability": "view",
      "type": "function"
    },
    {
      "inputs": [
        {
          "internalType": "address",
          "name": "owner",
          "type": "address"
        },
        {
          "internalType": "uint256",
          "name": "index",
          "type": "uint256"
        }
      ],
      "name": "tokenOfOwnerByIndex",
      "outputs": [
        {
          "internalType": "uint256",
          "name": "",
          "type": "uint256"
        }
      ],
      "stateMutability": "view",
      "type": "function"
    },
    {
      "inputs": [
        {
          "internalType": "uint256",
          "name": "tokenId",
          "type": "uint256"
        }
      ],
      "name": "tokenURI",
      "outputs": [
        {
          "internalType": "string",
          "name": "",
          "type": "string"
        }
      ],
      "stateMutability": "view",
      "type": "function"
    },
    {
      "inputs": [],
      "name": "totalSupply",
      "outputs": [
        {
          "internalType": "uint256",
          "name": "",
          "type": "uint256"
        }
      ],
      "stateMutability": "view",
      "type": "function"
    },
    {
      "inputs": [
        {
          "internalType": "address",
          "name": "from",
          "type": "address"
        },
        {
          "internalType": "address",
          "name": "to",
          "type": "address"
        },
        {
          "internalType": "uint256",
          "name": "tokenId",
          "type": "uint256"
        }
      ],
      "name": "transferFrom",
      "outputs": [],
      "stateMutability": "nonpayable",
      "type": "function"
    }
  ],
  "bytecode": "0x60803462000325576001600160401b0390604090808201838111828210176200030f578252600a81526020926910995e9a185cc813919560b21b848301528251838101818110838211176200030f5784526003815262425a5360e81b858201528251908282116200030f5760008054926001958685811c9516801562000304575b89861014620002f0578190601f958681116200029d575b508990868311600114620002395784926200022d575b5050600019600383901b1c191690861b1781555b8151938411620002195784548581811c911680156200020e575b88821014620001fa57838111620001b2575b50869284116001146200014c5783949596509262000140575b5050600019600383901b1c191690821b1790555b62000125336200032a565b506200013133620003ab565b505161175090816200044f8239f35b01519050388062000106565b9190601f1984169685845280842093905b8882106200019a575050838596971062000180575b505050811b0190556200011a565b015160001960f88460031b161c1916905538808062000172565b8087859682949686015181550195019301906200015d565b8582528782208480870160051c8201928a8810620001f0575b0160051c019086905b828110620001e4575050620000ed565b838155018690620001d4565b92508192620001cb565b634e487b7160e01b82526022600452602482fd5b90607f1690620000db565b634e487b7160e01b81526041600452602490fd5b015190503880620000ad565b8480528a85208994509190601f198416865b8d8282106200028657505084116200026c575b505050811b018155620000c1565b015160001960f88460031b161c191690553880806200025e565b8385015186558c979095019493840193016200024b565b9091508380528984208680850160051c8201928c8610620002e6575b918a91869594930160051c01915b828110620002d757505062000097565b8681558594508a9101620002c7565b92508192620002b9565b634e487b7160e01b83526022600452602483fd5b94607f169462000080565b634e487b7160e01b600052604160045260246000fd5b600080fd5b6001600160a01b031660008181527fdf7de25b7f1fd6d0b5205f0e18f1f35bd7b8d84cce336588d184533ce43a6f76602052604081205490919060ff16620003a757818052600b6020526040822081835260205260408220600160ff19825416179055339160008051602062001b9f8339815191528180a4600190565b5090565b6001600160a01b031660008181527ff70e363b3d7895af770c4a138460777d52eebd3cb9962ccc6b58721f6127bbc860205260408120549091907f9f2df0fed2c77648de5860a4cc508cd0818c85b8b8a1ab4ceeef8d981c8956a69060ff166200044957808352600b6020526040832082845260205260408320600160ff1982541617905560008051602062001b9f833981519152339380a4600190565b50509056fe608060408181526004918236101561001657600080fd5b600092833560e01c91826301ffc9a714610ee55750816306fdde0314610e34578163081812fc14610df8578163095ea7b314610d1b57816318160ddd14610cfc57816323b872dd14610ce4578163248a9ca314610cb95781632f2ff15d14610c8f5781632f745c5914610c0b57816336568abe14610bc557816342842e0e14610b965781634f6ccce714610b415781636352211e14610b1057816370a0823114610ae357816391d1485414610a9c57816395d89b41146109ae578163a217fddf14610993578163a22cb465146108f1578163b88d4fde14610882578163c87b56dd1461078b578163d204c45e146101fc578163d5391393146101c1578163d547741f1461017d575063e985e9c51461012d57600080fd5b3461017957806003193601126101795760ff8160209361014b610fde565b610153610ff9565b6001600160a01b0391821683526005875283832091168252855220549151911615158152f35b5080fd5b919050346101bd57806003193601126101bd576101b991356101b460016101a2610ff9565b93838752600b60205286200154611491565b611555565b5080f35b8280fd5b505034610179578160031936011261017957602090517f9f2df0fed2c77648de5860a4cc508cd0818c85b8b8a1ab4ceeef8d981c8956a68152f35b838334610179578060031936011261017957610216610fde565b9260249167ffffffffffffffff91833583811161078757366023820112156107875761024a903690868185013591016110b4565b927f9f2df0fed2c77648de5860a4cc508cd0818c85b8b8a1ab4ceeef8d981c8956a694858752602095600b8752848820338952875260ff85892054161561076c5750600c54946000199182871461075b576001998a8801600c5586516102af81611044565b8a81526001600160a01b0382811692908315610745578d8c8c8f80888f9296848e98526002865283832054169586159081159889610713575b5082845260038752848420805490910190558483526002865283832080546001600160a01b031916831790558482887fddf252ad1be2c89b69c2b068fc378daa952ba7f163c4a11628f55a4df523b3ef8680a4156106975750600a6009549485948352522055600160401b81101561068557908f8d61037084610389938a96016009556113d0565b90919082549060031b91821b91600019901b1916179055565b0361063c575b610626573b6104f9575b5050868952600688528589209482519485116104e85750506103bb84546110eb565b601f81116104a2575b508690601f841160011461042257889984939284927ff8e1a15aba9398e019f0b49df1a4fde98ee17ae345cb5f6b5e2c27f5033e8ce79b95610417575b50501b9260031b1c19161790555b51908152a180f35b015193508b80610401565b989291601f19831691858a52888a20928a5b81811061048d57509a847ff8e1a15aba9398e019f0b49df1a4fde98ee17ae345cb5f6b5e2c27f5033e8ce79b9c10610475575b50505050811b01905561040f565b01519060f88460031b161c1916905588808080610467565b8c830151855593860193918a01918a01610434565b848952878920601f850160051c8101918986106104de575b601f0160051c01908a905b8281106104d35750506103c4565b8a8155018a906104c5565b90915081906104ba565b634e487b7160e01b8a526041905288fd5b956105428a839b98859e9896948e859f8d9e9a98819e5196879586948593630a85bd0160e11b9b8c865233908601528401528d6044840152608060648401526084830190610f9e565b03925af18991816105e2575b506105ab57505050505050503d6000146105a2573d61056c81611098565b9061057985519283611076565b81528092823d92013e5b8151918261059f575050505191633250574960e11b8352820152fd5b01fd5b60609150610583565b63ffffffff60e09d94969a999c989b9395979d1b16036105cd57508a80610399565b8651633250574960e11b815280870191909152fd5b9091508881813d831161061f575b6105fa8183611076565b8101031261061b57516001600160e01b03198116810361061b57908e61054e565b8980fd5b503d6105f0565b88516339e3563760e11b81528089018d90528490fd5b6106458261141d565b878101908111610673578a8e60088f8f8984526007825284842086855282528085852055835252205561038f565b634e487b7160e01b8e5260118a52858efd5b634e487b7160e01b8f5260418b52868ffd5b94939092918585036106ad575b50505050610389565b836106b78661141d565b9184825260088452808220549487835260078552818320958481036106f1575b508252600884528120558352528c8120558e8d8f8e6106a4565b84845286865282842054818552808486205584526008865282842055386106d7565b600087815260046020526040902080546001600160a01b0319169055888552600388528585209081540190558e6102e8565b8951633250574960e11b8152808a018e90528590fd5b634e487b7160e01b89526011855288fd5b9150604493519263e2517d3f60e01b84523390840152820152fd5b8580fd5b919050346101bd576020918260031936011261087e57356107ab81611456565b508352600682528083209281518094829080546107c7816110eb565b9182855260019188600182169182600014610857575050600114610819575b5050506108159392916107fa910386611076565b815161080581611044565b5251928284938452830190610f9e565b0390f35b8552868520879350859291905b82841061083f57505050820101816107fa6108156107e6565b8054848b018601528995508894909301928101610826565b60ff19168782015293151560051b860190930193508492506107fa915061081590506107e6565b8380fd5b8390346101795760803660031901126101795761089d610fde565b6108a5610ff9565b6044359060643567ffffffffffffffff81116107875736602382011215610787576108ee948160246108dc933693013591016110b4565b926108e8838383611125565b336115cc565b80f35b919050346101bd57806003193601126101bd5761090c610fde565b906024359182151580930361098f576001600160a01b031692831561097a5750338452600560205280842083855260205280842060ff1981541660ff8416179055519081527f17307eab39ab6107e8899845ad3d59bd9653f200f220920489ca2b5937696c3160203392a380f35b836024925191630b61174360e31b8352820152fd5b8480fd5b50503461017957816003193601126101795751908152602090f35b828434610a995780600319360112610a99578151918282600193600154946109d5866110eb565b9182855260209687600182169182600014610a72575050600114610a16575b5050506108159291610a07910385611076565b51928284938452830190610f9e565b9190869350600183527fb10e2d527612073b26eecdfd717e6a320cf44b4afac2b0732d9fcbe2b7fa0cf65b828410610a5a5750505082010181610a076108156109f4565b8054848a018601528895508794909301928101610a41565b60ff19168782015293151560051b86019093019350849250610a07915061081590506109f4565b80fd5b9050346101bd57816003193601126101bd578160209360ff92610abd610ff9565b90358252600b86528282206001600160a01b039091168252855220549151911615158152f35b50503461017957602036600319011261017957602090610b09610b04610fde565b61141d565b9051908152f35b828434610a99576020366003190112610a995750610b3060209235611456565b90516001600160a01b039091168152f35b9050346101bd5760203660031901126101bd57803592600954841015610b7b57602083610b6d866113d0565b91905490519160031b1c8152f35b6044939192519263295f44f760e21b84528301526024820152fd5b505034610179576108ee90610baa3661100f565b91925192610bb784611044565b8584526108e8838383611125565b838334610179578060031936011261017957610bdf610ff9565b90336001600160a01b03831603610bfc57506101b9919235611555565b5163334bd91960e11b81528390fd5b828434610a995781600319360112610a9957610c25610fde565b9260243590610c338561141d565b821015610c6357506001600160a01b03909316815260076020908152828220938252928352819020549051908152f35b925163295f44f760e21b81526001600160a01b0390941692840192835260208301525081906040010390fd5b919050346101bd57806003193601126101bd576101b99135610cb460016101a2610ff9565b6114d5565b9050346101bd5760203660031901126101bd5781602093600192358152600b85522001549051908152f35b8334610a99576108ee610cf63661100f565b91611125565b5050346101795781600319360112610179576020906009549051908152f35b919050346101bd57806003193601126101bd57610d36610fde565b91602435610d4381611456565b33151580610de5575b80610dbc575b610da6576001600160a01b039485169482918691167f8c5be1e5ebec7d5bd14f71427d1e84f3dd0314c0f7b2291e5b200ac8c7c3b9258880a48452602052822080546001600160a01b031916909117905580f35b835163a9fbf51f60e01b81523381850152602490fd5b506001600160a01b03811686526005602090815284872033885290528386205460ff1615610d52565b506001600160a01b038116331415610d4c565b9050346101bd5760203660031901126101bd57918260209335610e1a81611456565b50825283528190205490516001600160a01b039091168152f35b828434610a995780600319360112610a995781519182828354610e56816110eb565b9081845260209560019187600182169182600014610a72575050600114610e8a575050506108159291610a07910385611076565b91908693508280527f290decd9548b62a8d60345a988386fc84ba6bc95484008f6362f93160ef3e5635b828410610ecd5750505082010181610a076108156109f4565b8054848a018601528895508794909301928101610eb4565b8491346101bd5760203660031901126101bd573563ffffffff60e01b81168091036101bd5760209250637965db0b60e01b8114908115610f27575b5015158152f35b63780e9d6360e01b811491508115610f41575b5083610f20565b632483248360e11b811491508115610f5b575b5083610f3a565b6380ac58cd60e01b811491508115610f8d575b8115610f7c575b5083610f54565b6301ffc9a760e01b14905083610f75565b635b5e139f60e01b81149150610f6e565b919082519283825260005b848110610fca575050826000602080949584010152601f8019910116010190565b602081830181015184830182015201610fa9565b600435906001600160a01b0382168203610ff457565b600080fd5b602435906001600160a01b0382168203610ff457565b6060906003190112610ff4576001600160a01b03906004358281168103610ff457916024359081168103610ff4579060443590565b6020810190811067ffffffffffffffff82111761106057604052565b634e487b7160e01b600052604160045260246000fd5b90601f8019910116810190811067ffffffffffffffff82111761106057604052565b67ffffffffffffffff811161106057601f01601f191660200190565b9291926110c082611098565b916110ce6040519384611076565b829481845281830111610ff4578281602093846000960137010152565b90600182811c9216801561111b575b602083101461110557565b634e487b7160e01b600052602260045260246000fd5b91607f16916110fa565b6001600160a01b03828116939184156113b757600094838652602095600287526040968488832054169633151580611329575b50871580156112f6575b84845260038352898420805460010190558784526002835289842080546001600160a01b0319168617905587858a7fddf252ad1be2c89b69c2b068fc378daa952ba7f163c4a11628f55a4df523b3ef8780a41561128a57600954878452600a8352808a852055600160401b81101561127657876103708260016111e894016009556113d0565b838803611224575b5050505016928383036112035750505050565b6064945051926364283d7b60e01b8452600484015260248301526044820152fd5b61122d9061141d565b6000198101939084116112625782916008918a94526007815283832085845281528784842055878352522055388080806111f0565b634e487b7160e01b83526011600452602483fd5b634e487b7160e01b84526041600452602484fd5b8784146111e85761129a8861141d565b878452600883528984205490898552600784528a8520918181036112d4575b5088855260088452848b8120558452825282898120556111e8565b8186528285528b862054818752808d8820558652600885528b862055386112b9565b600088815260046020526040902080546001600160a01b0319169055888452600383528984208054600019019055611162565b80611376575b1561133a5738611158565b888789611357576024915190637e27328960e01b82526004820152fd5b905163177e802f60e01b81523360048201526024810191909152604490fd5b50338814801561139b575b8061132f57508683526004825233868a852054161461132f565b5087835260058252888320338452825260ff8984205416611381565b604051633250574960e11b815260006004820152602490fd5b6009548110156114075760096000527f6e1540171b6c0c960b71a7020d9f60077f6af931a8bbf590da0223dacf75c7af0190600090565b634e487b7160e01b600052603260045260246000fd5b6001600160a01b0316801561143d57600052600360205260406000205490565b6040516322718ad960e21b815260006004820152602490fd5b6000818152600260205260409020546001600160a01b0316908115611479575090565b60249060405190637e27328960e01b82526004820152fd5b80600052600b60205260406000203360005260205260ff60406000205416156114b75750565b6044906040519063e2517d3f60e01b82523360048301526024820152fd5b90600091808352600b602052604083209160018060a01b03169182845260205260ff6040842054161560001461155057808352600b6020526040832082845260205260408320600160ff198254161790557f2f8788117e7eff1d82e926ec794901d17c78024a50270940304540a733656f0d339380a4600190565b505090565b90600091808352600b602052604083209160018060a01b03169182845260205260ff60408420541660001461155057808352600b602052604083208284526020526040832060ff1981541690557ff6391f5c32d9c69d2a47ea670b442974b53935d1edc7fd64eb21e047a839171b339380a4600190565b90939192833b6115de575b5050505050565b604051630a85bd0160e11b8082526001600160a01b03938416600483015295831660248201526044810191909152608060648201529492169260209291859061162b906084830190610f9e565b039483816000978189895af18691816116d6575b506116a0575050503d600014611697573d61165981611098565b906116676040519283611076565b81528093823d92013e5b8251928361169257604051633250574960e11b815260048101849052602490fd5b019050fd5b60609250611671565b919450915063ffffffff60e01b16036116be575038808080806115d7565b60249060405190633250574960e11b82526004820152fd5b9091508481813d8311611713575b6116ee8183611076565b8101031261170f57516001600160e01b03198116810361170f57903861163f565b8680fd5b503d6116e456fea26469706673582212208d64e93214b3d2fc111b58ff8419f1d64496d6410d7cd4f369b76955ffdbcca964736f6c634300081800332f8788117e7eff1d82e926ec794901d17c78024a50270940304540a733656f0d",
  "linkReferences": {},
  "deployedLinkReferences": {}
}