{
  "_format": "hh-sol-artifact-1",
  "contractName": "UserManagement",
  "sourceName": "contracts/UserManagement.sol",
  "abi": [
    {
      "inputs": [],
      "stateMutability": "nonpayable",
      "type": "constructor"
    },
    {
      "inputs": [],
      "name": "AccessControlBadConfirmation",
      "type": "error"
    },
    {
      "inputs": [
        {
          "internalType": "address",
          "name": "account",
          "type": "address"
        },
        {
          "internalType": "bytes32",
          "name": "neededRole",
          "type": "bytes32"
        }
      ],
      "name": "AccessControlUnauthorizedAccount",
      "type": "error"
    },
    {
      "inputs": [],
      "name": "ReentrancyGuardReentrantCall",
      "type": "error"
    },
    {
      "anonymous": false,
      "inputs": [
        {
          "indexed": true,
          "internalType": "address",
          "name": "from",
          "type": "address"
        },
        {
          "indexed": true,
          "internalType": "address",
          "name": "to",
          "type": "address"
        }
      ],
      "name": "FriendRequestAccepted",
      "type": "event"
    },
    {
      "anonymous": false,
      "inputs": [
        {
          "indexed": true,
          "internalType": "address",
          "name": "from",
          "type": "address"
        },
        {
          "indexed": true,
          "internalType": "address",
          "name": "to",
          "type": "address"
        }
      ],
      "name": "FriendRequestSent",
      "type": "event"
    },
    {
      "anonymous": false,
      "inputs": [
        {
          "indexed": true,
          "internalType": "address",
          "name": "user",
          "type": "address"
        },
        {
          "indexed": false,
          "internalType": "string",
          "name": "field",
          "type": "string"
        }
      ],
      "name": "ProfileUpdated",
      "type": "event"
    },
    {
      "anonymous": false,
      "inputs": [
        {
          "indexed": true,
          "internalType": "bytes32",
          "name": "role",
          "type": "bytes32"
        },
        {
          "indexed": true,
          "internalType": "bytes32",
          "name": "previousAdminRole",
          "type": "bytes32"
        },
        {
          "indexed": true,
          "internalType": "bytes32",
          "name": "newAdminRole",
          "type": "bytes32"
        }
      ],
      "name": "RoleAdminChanged",
      "type": "event"
    },
    {
      "anonymous": false,
      "inputs": [
        {
          "indexed": true,
          "internalType": "bytes32",
          "name": "role",
          "type": "bytes32"
        },
        {
          "indexed": true,
          "internalType": "address",
          "name": "account",
          "type": "address"
        },
        {
          "indexed": true,
          "internalType": "address",
          "name": "sender",
          "type": "address"
        }
      ],
      "name": "RoleGranted",
      "type": "event"
    },
    {
      "anonymous": false,
      "inputs": [
        {
          "indexed": true,
          "internalType": "bytes32",
          "name": "role",
          "type": "bytes32"
        },
        {
          "indexed": true,
          "internalType": "address",
          "name": "account",
          "type": "address"
        },
        {
          "indexed": true,
          "internalType": "address",
          "name": "sender",
          "type": "address"
        }
      ],
      "name": "RoleRevoked",
      "type": "event"
    },
    {
      "anonymous": false,
      "inputs": [
        {
          "indexed": true,
          "internalType": "address",
          "name": "blocker",
          "type": "address"
        },
        {
          "indexed": true,
          "internalType": "address",
          "name": "blocked",
          "type": "address"
        }
      ],
      "name": "UserBlocked",
      "type": "event"
    },
    {
      "anonymous": false,
      "inputs": [
        {
          "indexed": true,
          "internalType": "address",
          "name": "follower",
          "type": "address"
        },
        {
          "indexed": true,
          "internalType": "address",
          "name": "followed",
          "type": "address"
        }
      ],
      "name": "UserFollowed",
      "type": "event"
    },
    {
      "anonymous": false,
      "inputs": [
        {
          "indexed": true,
          "internalType": "address",
          "name": "user",
          "type": "address"
        },
        {
          "indexed": false,
          "internalType": "string",
          "name": "username",
          "type": "string"
        },
        {
          "indexed": false,
          "internalType": "uint256",
          "name": "userId",
          "type": "uint256"
        }
      ],
      "name": "UserRegistered",
      "type": "event"
    },
    {
      "anonymous": false,
      "inputs": [
        {
          "indexed": true,
          "internalType": "address",
          "name": "blocker",
          "type": "address"
        },
        {
          "indexed": true,
          "internalType": "address",
          "name": "unblocked",
          "type": "address"
        }
      ],
      "name": "UserUnblocked",
      "type": "event"
    },
    {
      "anonymous": false,
      "inputs": [
        {
          "indexed": true,
          "internalType": "address",
          "name": "follower",
          "type": "address"
        },
        {
          "indexed": true,
          "internalType": "address",
          "name": "unfollowed",
          "type": "address"
        }
      ],
      "name": "UserUnfollowed",
      "type": "event"
    },
    {
      "anonymous": false,
      "inputs": [
        {
          "indexed": true,
          "internalType": "address",
          "name": "user",
          "type": "address"
        },
        {
          "indexed": false,
          "internalType": "string",
          "name": "badge",
          "type": "string"
        }
      ],
      "name": "UserVerified",
      "type": "event"
    },
    {
      "anonymous": false,
      "inputs": [
        {
          "indexed": true,
          "internalType": "address",
          "name": "user",
          "type": "address"
        },
        {
          "indexed": false,
          "internalType": "string",
          "name": "reason",
          "type": "string"
        }
      ],
      "name": "VerificationRejected",
      "type": "event"
    },
    {
      "anonymous": false,
      "inputs": [
        {
          "indexed": true,
          "internalType": "address",
          "name": "user",
          "type": "address"
        },
        {
          "indexed": false,
          "internalType": "string",
          "name": "evidence",
          "type": "string"
        }
      ],
      "name": "VerificationRequested",
      "type": "event"
    },
    {
      "inputs": [],
      "name": "DEFAULT_ADMIN_ROLE",
      "outputs": [
        {
          "internalType": "bytes32",
          "name": "",
          "type": "bytes32"
        }
      ],
      "stateMutability": "view",
      "type": "function"
    },
    {
      "inputs": [],
      "name": "MODERATOR_ROLE",
      "outputs": [
        {
          "internalType": "bytes32",
          "name": "",
          "type": "bytes32"
        }
      ],
      "stateMutability": "view",
      "type": "function"
    },
    {
      "inputs": [],
      "name": "VERIFIED_ROLE",
      "outputs": [
        {
          "internalType": "bytes32",
          "name": "",
          "type": "bytes32"
        }
      ],
      "stateMutability": "view",
      "type": "function"
    },
    {
      "inputs": [
        {
          "internalType": "uint256",
          "name": "",
          "type": "uint256"
        }
      ],
      "name": "allUsers",
      "outputs": [
        {
          "internalType": "address",
          "name": "",
          "type": "address"
        }
      ],
      "stateMutability": "view",
      "type": "function"
    },
    {
      "inputs": [
        {
          "internalType": "address",
          "name": "user",
          "type": "address"
        },
        {
          "internalType": "string",
          "name": "badge",
          "type": "string"
        }
      ],
      "name": "approveVerification",
      "outputs": [],
      "stateMutability": "nonpayable",
      "type": "function"
    },
    {
      "inputs": [
        {
          "internalType": "address",
          "name": "user1",
          "type": "address"
        },
        {
          "internalType": "address",
          "name": "user2",
          "type": "address"
        }
      ],
      "name": "areFriends",
      "outputs": [
        {
          "internalType": "bool",
          "name": "",
          "type": "bool"
        }
      ],
      "stateMutability": "view",
      "type": "function"
    },
    {
      "inputs": [
        {
          "internalType": "address",
          "name": "userToBlock",
          "type": "address"
        }
      ],
      "name": "blockUser",
      "outputs": [],
      "stateMutability": "nonpayable",
      "type": "function"
    },
    {
      "inputs": [
        {
          "internalType": "address",
          "name": "",
          "type": "address"
        },
        {
          "internalType": "address",
          "name": "",
          "type": "address"
        }
      ],
      "name": "blockedUsers",
      "outputs": [
        {
          "internalType": "bool",
          "name": "",
          "type": "bool"
        }
      ],
      "stateMutability": "view",
      "type": "function"
    },
    {
      "inputs": [
        {
          "internalType": "address",
          "name": "",
          "type": "address"
        },
        {
          "internalType": "address",
          "name": "",
          "type": "address"
        }
      ],
      "name": "followRelations",
      "outputs": [
        {
          "internalType": "bool",
          "name": "isFollowing",
          "type": "bool"
        },
        {
          "internalType": "uint256",
          "name": "followedAt",
          "type": "uint256"
        },
        {
          "internalType": "bool",
          "name": "isFriend",
          "type": "bool"
        },
        {
          "internalType": "uint256",
          "name": "friendsSince",
          "type": "uint256"
        }
      ],
      "stateMutability": "view",
      "type": "function"
    },
    {
      "inputs": [
        {
          "internalType": "address",
          "name": "userToFollow",
          "type": "address"
        }
      ],
      "name": "followUser",
      "outputs": [],
      "stateMutability": "nonpayable",
      "type": "function"
    },
    {
      "inputs": [
        {
          "internalType": "address",
          "name": "user",
          "type": "address"
        },
        {
          "internalType": "uint256",
          "name": "offset",
          "type": "uint256"
        },
        {
          "internalType": "uint256",
          "name": "limit",
          "type": "uint256"
        }
      ],
      "name": "getFollowers",
      "outputs": [
        {
          "internalType": "address[]",
          "name": "",
          "type": "address[]"
        }
      ],
      "stateMutability": "view",
      "type": "function"
    },
    {
      "inputs": [
        {
          "internalType": "address",
          "name": "user",
          "type": "address"
        },
        {
          "internalType": "uint256",
          "name": "offset",
          "type": "uint256"
        },
        {
          "internalType": "uint256",
          "name": "limit",
          "type": "uint256"
        }
      ],
      "name": "getFollowing",
      "outputs": [
        {
          "internalType": "address[]",
          "name": "",
          "type": "address[]"
        }
      ],
      "stateMutability": "view",
      "type": "function"
    },
    {
      "inputs": [
        {
          "internalType": "address",
          "name": "user",
          "type": "address"
        }
      ],
      "name": "getFriends",
      "outputs": [
        {
          "internalType": "address[]",
          "name": "",
          "type": "address[]"
        }
      ],
      "stateMutability": "view",
      "type": "function"
    },
    {
      "inputs": [
        {
          "internalType": "bytes32",
          "name": "role",
          "type": "bytes32"
        }
      ],
      "name": "getRoleAdmin",
      "outputs": [
        {
          "internalType": "bytes32",
          "name": "",
          "type": "bytes32"
        }
      ],
      "stateMutability": "view",
      "type": "function"
    },
    {
      "inputs": [],
      "name": "getTotalUsers",
      "outputs": [
        {
          "internalType": "uint256",
          "name": "",
          "type": "uint256"
        }
      ],
      "stateMutability": "view",
      "type": "function"
    },
    {
      "inputs": [
        {
          "internalType": "string",
          "name": "username",
          "type": "string"
        }
      ],
      "name": "getUserByUsername",
      "outputs": [
        {
          "internalType": "address",
          "name": "",
          "type": "address"
        }
      ],
      "stateMutability": "view",
      "type": "function"
    },
    {
      "inputs": [
        {
          "internalType": "bytes32",
          "name": "role",
          "type": "bytes32"
        },
        {
          "internalType": "address",
          "name": "account",
          "type": "address"
        }
      ],
      "name": "grantRole",
      "outputs": [],
      "stateMutability": "nonpayable",
      "type": "function"
    },
    {
      "inputs": [
        {
          "internalType": "bytes32",
          "name": "role",
          "type": "bytes32"
        },
        {
          "internalType": "address",
          "name": "account",
          "type": "address"
        }
      ],
      "name": "hasRole",
      "outputs": [
        {
          "internalType": "bool",
          "name": "",
          "type": "bool"
        }
      ],
      "stateMutability": "view",
      "type": "function"
    },
    {
      "inputs": [
        {
          "internalType": "address",
          "name": "blocker",
          "type": "address"
        },
        {
          "internalType": "address",
          "name": "blocked",
          "type": "address"
        }
      ],
      "name": "isBlocked",
      "outputs": [
        {
          "internalType": "bool",
          "name": "",
          "type": "bool"
        }
      ],
      "stateMutability": "view",
      "type": "function"
    },
    {
      "inputs": [
        {
          "internalType": "address",
          "name": "follower",
          "type": "address"
        },
        {
          "internalType": "address",
          "name": "followed",
          "type": "address"
        }
      ],
      "name": "isFollowing",
      "outputs": [
        {
          "internalType": "bool",
          "name": "",
          "type": "bool"
        }
      ],
      "stateMutability": "view",
      "type": "function"
    },
    {
      "inputs": [
        {
          "internalType": "string",
          "name": "username",
          "type": "string"
        },
        {
          "internalType": "string",
          "name": "displayName",
          "type": "string"
        },
        {
          "internalType": "string",
          "name": "bio",
          "type": "string"
        }
      ],
      "name": "registerUser",
      "outputs": [],
      "stateMutability": "nonpayable",
      "type": "function"
    },
    {
      "inputs": [
        {
          "internalType": "address",
          "name": "user",
          "type": "address"
        },
        {
          "internalType": "string",
          "name": "reason",
          "type": "string"
        }
      ],
      "name": "rejectVerification",
      "outputs": [],
      "stateMutability": "nonpayable",
      "type": "function"
    },
    {
      "inputs": [
        {
          "internalType": "bytes32",
          "name": "role",
          "type": "bytes32"
        },
        {
          "internalType": "address",
          "name": "callerConfirmation",
          "type": "address"
        }
      ],
      "name": "renounceRole",
      "outputs": [],
      "stateMutability": "nonpayable",
      "type": "function"
    },
    {
      "inputs": [
        {
          "internalType": "string",
          "name": "evidence",
          "type": "string"
        }
      ],
      "name": "requestVerification",
      "outputs": [],
      "stateMutability": "nonpayable",
      "type": "function"
    },
    {
      "inputs": [
        {
          "internalType": "bytes32",
          "name": "role",
          "type": "bytes32"
        },
        {
          "internalType": "address",
          "name": "account",
          "type": "address"
        }
      ],
      "name": "revokeRole",
      "outputs": [],
      "stateMutability": "nonpayable",
      "type": "function"
    },
    {
      "inputs": [
        {
          "internalType": "string",
          "name": "query",
          "type": "string"
        },
        {
          "internalType": "uint256",
          "name": "offset",
          "type": "uint256"
        },
        {
          "internalType": "uint256",
          "name": "limit",
          "type": "uint256"
        }
      ],
      "name": "searchUsers",
      "outputs": [
        {
          "components": [
            {
              "internalType": "address",
              "name": "userAddress",
              "type": "address"
            },
            {
              "internalType": "string",
              "name": "username",
              "type": "string"
            },
            {
              "internalType": "string",
              "name": "displayName",
              "type": "string"
            },
            {
              "internalType": "bool",
              "name": "isVerified",
              "type": "bool"
            },
            {
              "internalType": "uint256",
              "name": "lastActive",
              "type": "uint256"
            }
          ],
          "internalType": "struct UserManagement.UserSearch[]",
          "name": "",
          "type": "tuple[]"
        }
      ],
      "stateMutability": "view",
      "type": "function"
    },
    {
      "inputs": [
        {
          "internalType": "bytes4",
          "name": "interfaceId",
          "type": "bytes4"
        }
      ],
      "name": "supportsInterface",
      "outputs": [
        {
          "internalType": "bool",
          "name": "",
          "type": "bool"
        }
      ],
      "stateMutability": "view",
      "type": "function"
    },
    {
      "inputs": [
        {
          "internalType": "address",
          "name": "userToUnblock",
          "type": "address"
        }
      ],
      "name": "unblockUser",
      "outputs": [],
      "stateMutability": "nonpayable",
      "type": "function"
    },
    {
      "inputs": [
        {
          "internalType": "address",
          "name": "userToUnfollow",
          "type": "address"
        }
      ],
      "name": "unfollowUser",
      "outputs": [],
      "stateMutability": "nonpayable",
      "type": "function"
    },
    {
      "inputs": [
        {
          "internalType": "enum UserManagement.PrivacyLevel",
          "name": "privacyLevel",
          "type": "uint8"
        },
        {
          "internalType": "bool",
          "name": "allowDirectMessages",
          "type": "bool"
        },
        {
          "internalType": "bool",
          "name": "showOnlineStatus",
          "type": "bool"
        }
      ],
      "name": "updatePrivacySettings",
      "outputs": [],
      "stateMutability": "nonpayable",
      "type": "function"
    },
    {
      "inputs": [
        {
          "internalType": "string",
          "name": "displayName",
          "type": "string"
        },
        {
          "internalType": "string",
          "name": "bio",
          "type": "string"
        },
        {
          "internalType": "string",
          "name": "avatarUrl",
          "type": "string"
        },
        {
          "internalType": "string",
          "name": "bannerUrl",
          "type": "string"
        }
      ],
      "name": "updateProfile",
      "outputs": [],
      "stateMutability": "nonpayable",
      "type": "function"
    },
    {
      "inputs": [
        {
          "internalType": "address",
          "name": "",
          "type": "address"
        },
        {
          "internalType": "uint256",
          "name": "",
          "type": "uint256"
        }
      ],
      "name": "userFollowers",
      "outputs": [
        {
          "internalType": "address",
          "name": "",
          "type": "address"
        }
      ],
      "stateMutability": "view",
      "type": "function"
    },
    {
      "inputs": [
        {
          "internalType": "address",
          "name": "",
          "type": "address"
        },
        {
          "internalType": "uint256",
          "name": "",
          "type": "uint256"
        }
      ],
      "name": "userFollowing",
      "outputs": [
        {
          "internalType": "address",
          "name": "",
          "type": "address"
        }
      ],
      "stateMutability": "view",
      "type": "function"
    },
    {
      "inputs": [
        {
          "internalType": "address",
          "name": "",
          "type": "address"
        },
        {
          "internalType": "uint256",
          "name": "",
          "type": "uint256"
        }
      ],
      "name": "userFriends",
      "outputs": [
        {
          "internalType": "address",
          "name": "",
          "type": "address"
        }
      ],
      "stateMutability": "view",
      "type": "function"
    },
    {
      "inputs": [
        {
          "internalType": "uint256",
          "name": "",
          "type": "uint256"
        }
      ],
      "name": "userIdToAddress",
      "outputs": [
        {
          "internalType": "address",
          "name": "",
          "type": "address"
        }
      ],
      "stateMutability": "view",
      "type": "function"
    },
    {
      "inputs": [
        {
          "internalType": "address",
          "name": "",
          "type": "address"
        }
      ],
      "name": "userProfiles",
      "outputs": [
        {
          "internalType": "uint256",
          "name": "userId",
          "type": "uint256"
        },
        {
          "internalType": "string",
          "name": "username",
          "type": "string"
        },
        {
          "internalType": "string",
          "name": "displayName",
          "type": "string"
        },
        {
          "internalType": "string",
          "name": "bio",
          "type": "string"
        },
        {
          "internalType": "string",
          "name": "avatarUrl",
          "type": "string"
        },
        {
          "internalType": "string",
          "name": "bannerUrl",
          "type": "string"
        },
        {
          "internalType": "bool",
          "name": "isActive",
          "type": "bool"
        },
        {
          "internalType": "uint256",
          "name": "createdAt",
          "type": "uint256"
        },
        {
          "internalType": "uint256",
          "name": "lastActive",
          "type": "uint256"
        },
        {
          "internalType": "enum UserManagement.VerificationStatus",
          "name": "verificationStatus",
          "type": "uint8"
        },
        {
          "internalType": "string",
          "name": "verificationBadge",
          "type": "string"
        },
        {
          "internalType": "enum UserManagement.PrivacyLevel",
          "name": "privacyLevel",
          "type": "uint8"
        },
        {
          "internalType": "bool",
          "name": "allowDirectMessages",
          "type": "bool"
        },
        {
          "internalType": "bool",
          "name": "showOnlineStatus",
          "type": "bool"
        },
        {
          "internalType": "uint256",
          "name": "followersCount",
          "type": "uint256"
        },
        {
          "internalType": "uint256",
          "name": "followingCount",
          "type": "uint256"
        },
        {
          "internalType": "uint256",
          "name": "postsCount",
          "type": "uint256"
        }
      ],
      "stateMutability": "view",
      "type": "function"
    },
    {
      "inputs": [
        {
          "internalType": "string",
          "name": "",
          "type": "string"
        }
      ],
      "name": "usernameToAddress",
      "outputs": [
        {
          "internalType": "address",
          "name": "",
          "type": "address"
        }
      ],
      "stateMutability": "view",
      "type": "function"
    },
    {
      "inputs": [
        {
          "internalType": "address",
          "name": "",
          "type": "address"
        }
      ],
      "name": "verificationRequestTime",
      "outputs": [
        {
          "internalType": "uint256",
          "name": "",
          "type": "uint256"
        }
      ],
      "stateMutability": "view",
      "type": "function"
    },
    {
      "inputs": [
        {
          "internalType": "address",
          "name": "",
          "type": "address"
        }
      ],
      "name": "verificationRequests",
      "outputs": [
        {
          "internalType": "string",
          "name": "",
          "type": "string"
        }
      ],
      "stateMutability": "view",
      "type": "function"
    }
  ],
  "bytecode": "0x60806040523462000036576001805562000019336200003b565b506200002533620000bb565b5060405161397b90816200015e8239f35b600080fd5b6001600160a01b031660008181527fad3228b676f7d3cd4284a5443f17f1962b36e491b30a40b2405849e597ba5fb5602052604081205490919060ff16620000b757818052816020526040822081835260205260408220600160ff19825416179055339160008051602062003ad98339815191528180a4600190565b5090565b6001600160a01b031660008181527ff179aafcc4ff8137fca1ef3b9ec4d165f87016ba123e7973fba770bc55e240e360205260408120549091907f71f3d55856e4058ed06ee057d79ada615f65cdf5f9ee88181b914225088f834f9060ff166200015857808352826020526040832082845260205260408320600160ff1982541617905560008051602062003ad9833981519152339380a4600190565b50509056fe6080604052600436101561001257600080fd5b60003560e01c806222ae8114612ae05780630158bc451461290457806301ffc9a7146128ae57806320376f1014612860578063248a9ca3146128315780632e018887146127e85780632f2380d0146127005780632f2ff15d146126c1578063332d56d71461252c57806336568abe146124e557806339d319e5146124205780633da01325146122085780635545c1581461218b57806359b7aa35146121505780635cbb7caa146120d25780636a8d17e5146120985780636cbff42a14611e525780637475676b14611e38578063797669c914611dfd5780637c810c5214611db45780638110a80014611d2e578063817f294b14611cd857806386c58d3e14611cd857806386f0ab7414611c7f57806391d1485414611c325780639483f25c146116c457806399ec3a421461166e5780639be572f6146116505780639f42af63146101c8578063a217fddf14611634578063a2bdedf4146115f2578063a70806f71461122c578063b1695201146111f8578063cf14bc6614610e76578063d111c66214610e4c578063d547741f14610e0b578063d637dcfa14610265578063f107cfcb146102355763f825f143146101c857600080fd5b34610230576020366003190112610230576004356001600160401b038111610230576101fa6020913690600401612c21565b8161020e6040519283815193849201612d98565b600490820190815281900382019020546040516001600160a01b039091168152f35b600080fd5b346102305760203660031901126102305761025f610251612b82565b6102596137a9565b3361355e565b60018055005b34610230576060366003190112610230576004356001600160401b03811161023057610295903690600401612c21565b6024356001600160401b038111610230576102b4903690600401612c21565b906044356001600160401b038111610230576102d4903690600401612c21565b916102dd6137a9565b336000526003602052604060002054610dc657815160038110159081610dba575b5015610d75576040518251610317818360208701612d98565b60049082019081528190036020019020546001600160a01b0316610d375761033e82613887565b15610cf25761034e6002546131c2565b92836002556040519161036083612bae565b8483528360208401526040830152606082015260405161037f81612be5565b60008152608082015260405161039481612be5565b6000815260a0820152600160c08201524260e08201524261010082015260006101208201526040516103c581612be5565b600081526101408201526000610160820152600161018082015260016101a082015260006101c082015260006101e082015260006102008201523360005260036020526040600020908051825560208101518051906001600160401b0382116107e65781906104376001860154612cb9565b601f8111610c9f575b50602090601f8311600114610c2d57600092610c22575b50508160011b916000199060031b1c19161760018301555b60408101518051906001600160401b0382116107e65781906104946002860154612cb9565b601f8111610bcf575b50602090601f8311600114610b5d57600092610b52575b50508160011b916000199060031b1c19161760028301555b60608101518051906001600160401b0382116107e65781906104f16003860154612cb9565b601f8111610aff575b50602090601f8311600114610a8d57600092610a82575b50508160011b916000199060031b1c19161760038301555b60808101518051906001600160401b0382116107e657819061054e6004860154612cb9565b601f8111610a2f575b50602090601f83116001146109bd576000926109b2575b50508160011b916000199060031b1c19161760048301555b60a08101518051906001600160401b0382116107e65781906105ab6005860154612cb9565b601f811161095f575b50602090601f83116001146108ed576000926108e2575b50508160011b916000199060031b1c19161760058301555b61060260c08201511515600684019060ff801983541691151516179055565b60e0810151600783015561010081015160088301556009820161012082015160048110156107fc5760ff801983541691161790556101408101518051906001600160401b0382116107e657819061065c600a860154612cb9565b601f811161088f575b50602090601f831160011461081d57600092610812575b50508160011b916000199060031b1c191617600a8301555b600b82016101608201519160038310156107fc576106f3826106bb600e9561020095612f42565b610180830151815461ff00191690151560081b61ff00161781556101a0830151815462ff0000191690151560101b62ff000016179055565b6101c0810151600c8501556101e0810151600d850155015191015560405160208183516107238183858801612d98565b810160048152030190206bffffffffffffffffffffffff60a01b90338282541617905582600052600a6020526040600020903390825416179055600b5490600160401b8210156107e6576107bf6107a18360017f89105a1c6a3c2fbd471255c66a31ccab604af5697f67d7e2e9a0028c5e4dbd919501600b55612de0565b81546001600160a01b0360039290921b91821b19163390911b179055565b6107d460405191604083526040830190612dbb565b9260208201528033930390a260018055005b634e487b7160e01b600052604160045260246000fd5b634e487b7160e01b600052602160045260246000fd5b01519050868061067c565b9250600a85016000526020600020906000935b601f1984168510610874576001945083601f1981161061085b575b505050811b01600a830155610694565b015160001960f88460031b161c1916905586808061084b565b81810151835560209485019460019093019290910190610830565b909150600a85016000526020600020601f840160051c8101602085106108db575b90849392915b601f830160051c820181106108cc575050610665565b600081558594506001016108b6565b50806108b0565b0151905086806105cb565b9250600585016000526020600020906000935b601f1984168510610944576001945083601f1981161061092b575b505050811b0160058301556105e3565b015160001960f88460031b161c1916905586808061091b565b81810151835560209485019460019093019290910190610900565b909150600585016000526020600020601f840160051c8101602085106109ab575b90849392915b601f830160051c8201811061099c5750506105b4565b60008155859450600101610986565b5080610980565b01519050868061056e565b9250600485016000526020600020906000935b601f1984168510610a14576001945083601f198116106109fb575b505050811b016004830155610586565b015160001960f88460031b161c191690558680806109eb565b818101518355602094850194600190930192909101906109d0565b909150600485016000526020600020601f840160051c810160208510610a7b575b90849392915b601f830160051c82018110610a6c575050610557565b60008155859450600101610a56565b5080610a50565b015190508680610511565b9250600385016000526020600020906000935b601f1984168510610ae4576001945083601f19811610610acb575b505050811b016003830155610529565b015160001960f88460031b161c19169055868080610abb565b81810151835560209485019460019093019290910190610aa0565b909150600385016000526020600020601f840160051c810160208510610b4b575b90849392915b601f830160051c82018110610b3c5750506104fa565b60008155859450600101610b26565b5080610b20565b0151905086806104b4565b9250600285016000526020600020906000935b601f1984168510610bb4576001945083601f19811610610b9b575b505050811b0160028301556104cc565b015160001960f88460031b161c19169055868080610b8b565b81810151835560209485019460019093019290910190610b70565b909150600285016000526020600020601f840160051c810160208510610c1b575b90849392915b601f830160051c82018110610c0c57505061049d565b60008155859450600101610bf6565b5080610bf0565b015190508680610457565b9250600185016000526020600020906000935b601f1984168510610c84576001945083601f19811610610c6b575b505050811b01600183015561046f565b015160001960f88460031b161c19169055868080610c5b565b81810151835560209485019460019093019290910190610c40565b909150600185016000526020600020601f840160051c810160208510610ceb575b90849392915b601f830160051c82018110610cdc575050610440565b60008155859450600101610cc6565b5080610cc0565b60405162461bcd60e51b815260206004820152601760248201527f496e76616c696420757365726e616d6520666f726d61740000000000000000006044820152606490fd5b60405162461bcd60e51b81526020600482015260166024820152752ab9b2b93730b6b29030b63932b0b23c903a30b5b2b760511b6044820152606490fd5b60405162461bcd60e51b815260206004820152601760248201527f496e76616c696420757365726e616d65206c656e6774680000000000000000006044820152606490fd5b601491501115846102fe565b60405162461bcd60e51b815260206004820152601760248201527f5573657220616c726561647920726567697374657265640000000000000000006044820152606490fd5b3461023057604036600319011261023057610e4a600435610e2a612b98565b90806000526000602052610e45600160406000200154613398565b6134e9565b005b3461023057610e72610e66610e6036612e8a565b91613246565b60405191829182612e45565b0390f35b34610230576060366003190112610230576004356001600160401b03811161023057610ea6903690600401612c21565b610eb560326044351115612fc9565b610ec06044356131d1565b60008092600092600b54935b848110806111ed575b1561110857610ee381612de0565b90549060018060a01b03828260031b1c16600052600360205260406000209160405192610f0f84612bae565b80548452610f1f60018201612cf3565b6020850152610f3060028201612cf3565b6040850152610f4160038201612cf3565b6060850152610f5260048201612cf3565b6080850152610f6360058201612cf3565b60a085015260ff600682015416151560c0850152600781015460e0850152600881015461010085015260ff60098201541660048110156107fc57610120850152610faf600a8201612cf3565b610140850152600b81015490600360ff831610156107fc5760ff8281600e9416610160880152818160081c16151561018088015260101c1615156101a0860152600c8101546101c0860152600d8101546101e0860152015461020084015260c083015115611031576110258660208501516137dd565b80156110f4575b611042575b50505061103d906131c2565b610ecc565b602498939835841015611068575b50505061105f61103d916131c2565b95908780611031565b909192956020840151916040850151936101208601519560048710156107fc5761103d9661105f966110ec96610100600294015194604051966110aa88612bca565b60039190911b1c6001600160a01b031686526020860152604085015214606083015260808201526110db8287613069565b526110e68186613069565b506131c2565b949188611050565b506111038660408501516137dd565b61102c565b5082611113816131d1565b9160005b8281106111c3576040805160208082528651818301819052600093600582901b8401810192808a01929185015b8287106111515785850386f35b909192938280600192603f1989820301855287519061119d61118b60a0878060a01b03855116845285850151908087860152840190612dbb565b60408401518382036040850152612dbb565b916060810151151560608301526080809101519101529601920196019592919092611144565b806111d060019284613069565b516111db8287613069565b526111e68186613069565b5001611117565b506044358410610ed5565b3461023057602036600319011261023057600435600052600a602052602060018060a01b0360406000205416604051908152f35b346102305760208060031936011261023057611246612b82565b9061124f6137a9565b3360005260038082526112686040600020541515612f00565b60018060a01b03831691826000528181526112896040600020541515612f5a565b8233146115b557336000526005808252604060002084600052825260ff6040600020541661157c578360005260098252604060002033600052825260ff60406000205416611537573360005260098252604060002084600052825260ff604060002054166114f25760405194608086018681106001600160401b038211176107e6576040526001958681528484820142815261137c60408401600081526060850192600084523360005287895260406000208b600052895261135f604060002096511515879060ff801983541691151516179055565b518b860155511515600285019060ff801983541691151516179055565b519101553360005260078352611396816040600020613181565b84600052600683526113ac336040600020613181565b33600052838352600d6040600020016113c581546131c2565b905584600052838352600c6040600020016113e081546131c2565b905584600052818352604060002033600052835260ff6040600020541661142e575b8585337f30b3435b456f45779984ddfa456115ee4c20d9e446979b1b9e90dbb7e12b90b7600080a38055005b600893826114af9385526040600020876000528552600260406000200160ff199089828254161790558186526040600020336000528652886002604060002001918254161790558085526040600020876000528552428260406000200155845260406000203360005284524290604060002001558383526040600020613181565b82600052526114c2336040600020613181565b80337f4738efa342d2c6adcb0441cad1723818b7f5b5d6d846c0005945b21d6642e79d600080a382808080611402565b60405162461bcd60e51b815260048101839052601a60248201527f596f75206861766520626c6f636b6564207468697320757365720000000000006044820152606490fd5b60405162461bcd60e51b815260048101839052601c60248201527f596f752061726520626c6f636b656420627920746869732075736572000000006044820152606490fd5b60405162461bcd60e51b8152600481018390526011602482015270416c726561647920666f6c6c6f77696e6760781b6044820152606490fd5b6064906040519062461bcd60e51b82526004820152601660248201527521b0b73737ba103337b63637bb903cb7bab939b2b63360511b6044820152fd5b3461023057602036600319011261023057600435600b548110156102305761161b602091612de0565b905460405160039290921b1c6001600160a01b03168152f35b3461023057600036600319011261023057602060405160008152f35b34610230576000366003190112610230576020600b54604051908152f35b3461023057604036600319011261023057611687612b82565b61168f612b98565b9060018060a01b03809116600052600560205260406000209116600052602052602060ff604060002054166040519015158152f35b34610230576080366003190112610230576004356001600160401b038111610230576116f4903690600401612c21565b6024356001600160401b03811161023057611713903690600401612c21565b906044356001600160401b03811161023057611733903690600401612c21565b906064356001600160401b03811161023057611753903690600401612c21565b9033600052600360205261176d6040600020541515612f00565b3360005260036020526040600020908051906001600160401b0382116107e657819061179c6002850154612cb9565b601f8111611bdc575b50602090601f8311600114611b6a57600092611b5f575b50508160011b916000199060031b1c19161760028201555b83516001600160401b0381116107e6576117f16003830154612cb9565b601f8111611b14575b506020601f8211600114611aa5578192939495600092611a9a575b50508160011b916000199060031b1c19161760038201555b6004810183516001600160401b0381116107e65761184b8254612cb9565b601f8111611a52575b50602094601f82116001146119ec579481929394956000926119e1575b50508160011b916000199060031b1c19161790555b6005810182516001600160401b0381116107e6576118a48254612cb9565b601f8111611999575b506020601f82116001146119335781929394600092611928575b50508160011b916000199060031b1c19161790555b60084291015560405160208152600760208201526670726f66696c6560c81b60408201527fdd635a4cd84864e37e4479dbfc2ec667acfa473c83c8422a8ac9d9d07599b01c60603392a2005b0151905084806118c7565b601f198216908360005260206000209160005b81811061198157509583600195969710611968575b505050811b0190556118dc565b015160001960f88460031b161c1916905584808061195b565b9192602060018192868b015181550194019201611946565b826000526020600020601f830160051c810191602084106119d7575b601f0160051c01905b8181106119cb57506118ad565b600081556001016119be565b90915081906119b5565b015190508580611871565b601f198216958360005260206000209160005b888110611a3a57508360019596979810611a21575b505050811b019055611886565b015160001960f88460031b161c19169055858080611a14565b919260206001819286850151815501940192016119ff565b826000526020600020601f830160051c81019160208410611a90575b601f0160051c01905b818110611a845750611854565b60008155600101611a77565b9091508190611a6e565b015190508580611815565b6003830160005260206000209060005b601f1984168110611afc575060019394959683601f19811610611ae3575b505050811b01600382015561182d565b015160001960f88460031b161c19169055858080611ad3565b9091602060018192858b015181550193019101611ab5565b600383016000526020600020601f830160051c81019160208410611b55575b601f0160051c01905b818110611b4957506117fa565b60008155600101611b3c565b9091508190611b33565b0151905086806117bc565b9250600284016000526020600020906000935b601f1984168510611bc1576001945083601f19811610611ba8575b505050811b0160028201556117d4565b015160001960f88460031b161c19169055868080611b98565b81810151835560209485019460019093019290910190611b7d565b909150600284016000526020600020601f840160051c81019160208510611c28575b90601f859493920160051c01905b818110611c1957506117a5565b60008155849350600101611c0c565b9091508190611bfe565b3461023057604036600319011261023057611c4b612b98565b600435600052600060205260406000209060018060a01b0316600052602052602060ff604060002054166040519015158152f35b3461023057604036600319011261023057611c98612b82565b6024359060018060a01b0380911660005260076020526040600020805483101561023057602092611cc891612e2d565b9190546040519260031b1c168152f35b3461023057604036600319011261023057611cf1612b82565b611cf9612b98565b9060018060a01b03809116600052600960205260406000209116600052602052602060ff604060002054166040519015158152f35b3461023057604036600319011261023057611d47612b82565b611d4f612b98565b60018060a01b03809216918260005260056020526040600020911660005260205260ff6002604060002001541680611d8f575b6020906040519015158152f35b506005602052604060002090600052602052602060ff60026040600020015416611d82565b3461023057604036600319011261023057611dcd612b82565b6024359060018060a01b0380911660005260066020526040600020805483101561023057602092611cc891612e2d565b346102305760003660031901126102305760206040517f71f3d55856e4058ed06ee057d79ada615f65cdf5f9ee88181b914225088f834f8152f35b3461023057610e72610e66611e4c36612e8a565b9161307d565b3461023057602080600319360112610230576001600160401b0360043581811161023057611e84903690600401612c21565b3360005260038352611e9c6040600020541515612f00565b336000526003835260ff6009604060002001541660048110156107fc5761205357336000526003835260096040600020016001908160ff19825416179055600c845260406000209082519384116107e657611ef78254612cb9565b601f811161200a575b5084601f8511600114611f8357938080611f739594937f3e88386275b9210d2542c58c3bb829eaff9aa4e1319632dc33df14060f294cac97600093611f78575b501b916000199060031b1c19161790555b33600052600d8452426040600020556040519182918583523395830190612dbb565b0390a2005b860151925089611f40565b601f1985169083600052866000209160005b88828210611ff65750509186917f3e88386275b9210d2542c58c3bb829eaff9aa4e1319632dc33df14060f294cac97611f739796959410611fdd575b5050811b019055611f51565b85015160001960f88460031b161c191690558780611fd1565b878401518555938501939283019201611f95565b8260005285600020601f860160051c810191878710612049575b601f0160051c019082905b82811061203d575050611f00565b6000815501829061202f565b9091508190612024565b60405162461bcd60e51b815260048101849052601b60248201527f416c7265616479207665726966696564206f722070656e64696e6700000000006044820152606490fd5b34610230576020366003190112610230576001600160a01b036120b9612b82565b16600052600d6020526020604060002054604051908152f35b3461023057602080600319360112610230576001600160a01b03806120f5612b82565b1660005260086020526040600020916040518092602085549283815201946000526020600020926000915b83831061213757610e7286610e66818a0382612c00565b8454811687529581019560019485019490920191612120565b346102305760003660031901126102305760206040517f4f72063d6dc4cf4bb4e008e0815997320f78a862b3e71fe66fa9ae685d1cd12f8152f35b34610230576040366003190112610230576121a4612b82565b6121ac612b98565b9060018060a01b038091166000526005602052604060002091166000526020526080604060002060ff81541690600181015490600360ff6002830154169101549160405193151584526020840152151560408301526060820152f35b346102305760208060031936011261023057612222612b82565b336000526003825261223a6040600020541515612f00565b60018060a01b03811691826000526003815261225c6040600020541515612f5a565b8233146123e4576000805260008152604060002083600052815260ff604060002054166123ab5733600052600981526040600020836000528152604060002060ff19906001828254161790553360005260058252604060002084600052825260ff6040600020541661239c575b8360005260058252604060002033600052825260ff60406000205416612313575b83337f3d76c88b04bca9304ddabcfabdd594e649c10be33d0519e4b9842431cbe57e2c600080a3005b60039261236091856000526005845260406000203360005284526040600020908154169055846000526007835261234e3360406000206136f8565b336000526006835260406000206136f8565b82600052818152600d6040600020016123798154612fa6565b90553360005252600c6040600020016123928154612fa6565b90558180806122ea565b6123a6833361355e565b6122c9565b6064906040519062461bcd60e51b82526004820152601260248201527121b0b73737ba10313637b1b59030b236b4b760711b6044820152fd5b6064906040519062461bcd60e51b82526004820152601560248201527421b0b73737ba10313637b1b5903cb7bab939b2b63360591b6044820152fd5b34610230576020806003193601126102305761243a612b82565b90336000526009815260406000209160018060a01b03169182600052815260ff60406000205416156124ae5733600052600981526040600020908260005252604060002060ff198154169055337fdabcca1ac97c7d80dd63b7bd70c95d1552b8a24b11a129187f4ad5da004be19f600080a3005b6064906040519062461bcd60e51b82526004820152601060248201526f155cd95c881b9bdd08189b1bd8dad95960821b6044820152fd5b34610230576040366003190112610230576124fe612b98565b336001600160a01b0382160361251a57610e4a906004356134e9565b60405163334bd91960e11b8152600490fd5b34610230576020366003190112610230576001600160a01b0361254d612b82565b16600052600360205260406000208054906001810161256b90612cf3565b9161257860028301612cf3565b9061258560038401612cf3565b9261259260048201612cf3565b61259e60058301612cf3565b90600683015460ff16906007840154600885015490600986015460ff1694600a87016125c990612cf3565b93600b8801549a600c8901549a600d8a015499600e01549a6040519e8f9161022090835280602084015282016125fe91612dbb565b90808203906040015261261091612dbb565b8d810360608f015261262191612dbb565b8c810360808e015261263291612dbb565b8b810360a08d015261264391612dbb565b93151560c08b015260e08a015261010089015260048310156107fc5761267792610120890152878203610140890152612dbb565b92600360ff861610156107fc5760ff8581889716610160880152818160081c16151561018088015260101c1615156101a08601526101c08501526101e08401526102008301520390f35b3461023057604036600319011261023057610e4a6004356126e0612b98565b908060005260006020526126fb600160406000200154613398565b613470565b346102305760603660031901126102305760043560038110156102305760243590811515820361023057604435908115158203610230576127886127a2933360005260036020526127576040600020541515612f00565b336000526003602052612772600b6040600020019384612f42565b825461ff00191690151560081b61ff0016178255565b9062ff0000825491151560101b169062ff00001916179055565b6040516020815260076020820152667072697661637960c81b60408201527fdd635a4cd84864e37e4479dbfc2ec667acfa473c83c8422a8ac9d9d07599b01c60603392a2005b3461023057604036600319011261023057612801612b82565b6024359060018060a01b0380911660005260086020526040600020805483101561023057602092611cc891612e2d565b346102305760203660031901126102305760043560005260006020526020600160406000200154604051908152f35b34610230576020366003190112610230576001600160a01b03612881612b82565b16600052600c602052610e7261289a6040600020612cf3565b604051918291602083526020830190612dbb565b346102305760203660031901126102305760043563ffffffff60e01b811680910361023057602090637965db0b60e01b81149081156128f3575b506040519015158152f35b6301ffc9a760e01b149050826128e8565b346102305761291236612c77565b61291a61331e565b60018060a01b03821690816000526020926003845260ff6009604060002001541660048110156107fc576129516001809214612eb4565b8360005260038552600a604060002060098101600260ff1982541617905501908351906001600160401b0382116107e65761298c8354612cb9565b601f8111612a97575b5086601f8311600114612a0c579180806129ec95937fb9a56ef3335a4b13b2aa51519b56125ab2316b50d587ad80edfce74fe9a4b7d3999a9795600093612a01575b501b916000199060031b1c19161790556133be565b50611f73604051928284938452830190612dbb565b89015192508b6129d7565b601f9291921982169084600052886000209160005b818110612a8257509183916129ec96947fb9a56ef3335a4b13b2aa51519b56125ab2316b50d587ad80edfce74fe9a4b7d39a9b98969410612a69575b5050811b0190556133be565b88015160001960f88460031b161c191690558980612a5d565b88830151845592850192918a01918a01612a21565b8360005287600020601f840160051c810191898510612ad6575b601f0160051c019082905b828110612aca575050612995565b60008155018290612abc565b9091508190612ab1565b3461023057612aee36612c77565b90612af761331e565b6001600160a01b031660008181526003602052604090206009015490919060ff1660048110156107fc577fc41100d349958aab49c2a32bca12a3ca736111d07f8e24953317a73f94b0f74491612b526001611f739314612eb4565b8360005260036020526009604060002001600360ff19825416179055604051918291602083526020830190612dbb565b600435906001600160a01b038216820361023057565b602435906001600160a01b038216820361023057565b61022081019081106001600160401b038211176107e657604052565b60a081019081106001600160401b038211176107e657604052565b602081019081106001600160401b038211176107e657604052565b90601f801991011681019081106001600160401b038211176107e657604052565b81601f82011215610230578035906001600160401b0382116107e65760405192612c55601f8401601f191660200185612c00565b8284526020838301011161023057816000926020809301838601378301015290565b906040600319830112610230576004356001600160a01b03811681036102305791602435906001600160401b03821161023057612cb691600401612c21565b90565b90600182811c92168015612ce9575b6020831014612cd357565b634e487b7160e01b600052602260045260246000fd5b91607f1691612cc8565b90604051918260008254612d0681612cb9565b90818452602094600191600181169081600014612d765750600114612d37575b505050612d3592500383612c00565b565b600090815285812095935091905b818310612d5e575050612d359350820101388080612d26565b85548884018501529485019487945091830191612d45565b92505050612d3594925060ff191682840152151560051b820101388080612d26565b60005b838110612dab5750506000910152565b8181015183820152602001612d9b565b90602091612dd481518092818552858086019101612d98565b601f01601f1916010190565b600b54811015612e1757600b6000527f0175b7a638427703f0dbe7bb9bbf987a2551717b34e79f33b5b1008d1fa01db90190600090565b634e487b7160e01b600052603260045260246000fd5b8054821015612e175760005260206000200190600090565b602090602060408183019282815285518094520193019160005b828110612e6d575050505090565b83516001600160a01b031685529381019392810192600101612e5f565b6060906003190112610230576004356001600160a01b038116810361023057906024359060443590565b15612ebb57565b60405162461bcd60e51b815260206004820152601760248201527f4e6f2070656e64696e6720766572696669636174696f6e0000000000000000006044820152606490fd5b15612f0757565b60405162461bcd60e51b8152602060048201526013602482015272155cd95c881b9bdd081c9959da5cdd195c9959606a1b6044820152606490fd5b9060038110156107fc5760ff80198354169116179055565b15612f6157565b60405162461bcd60e51b815260206004820152601a60248201527f5461726765742075736572206e6f7420726567697374657265640000000000006044820152606490fd5b8015612fb3576000190190565b634e487b7160e01b600052601160045260246000fd5b15612fd057565b60405162461bcd60e51b815260206004820152600e60248201526d098d2dad2e840e8dede40d0d2ced60931b6044820152606490fd5b91908201809211612fb357565b6001600160401b0381116107e65760051b60200190565b9061303482613013565b6130416040519182612c00565b8281528092613052601f1991613013565b0190602036910137565b91908203918211612fb357565b8051821015612e175760209160051b010190565b9061308b6064841115612fc9565b60018060a01b03806000931683526020936007602052604084209060405180968791602085549182815201948852602088209188905b82821061316557505050506130db906130e1930387612c00565b83613006565b92845180851161315d575b8310156131425750613106613101838561305c565b61302a565b93825b84811061311857505050505090565b808361312660019385613069565b511661313b613135878461305c565b89613069565b5201613109565b93505050506040519061315482612be5565b80825236813790565b9350836130ec565b835488168752958601958a9450600193840193909101906130c1565b90815491600160401b8310156107e657826131a4916001612d3595018155612e2d565b90919060018060a01b038084549260031b9316831b921b1916179055565b6000198114612fb35760010190565b906131db82613013565b6040906131eb6040519182612c00565b83815280936131fc601f1991613013565b019160009160005b848110613212575050505050565b602090835161322081612bca565b858152606086849180838501528088850152830152866080830152828501015201613204565b906132546064841115612fc9565b60018060a01b03806000931683526020936006602052604084209060405180968791602085549182815201948852602088209188905b82821061330257505050506130db906132a4930387612c00565b9284518085116132fa575b83101561314257506132c4613101838561305c565b93825b8481106132d657505050505090565b80836132e460019385613069565b51166132f3613135878461305c565b52016132c7565b9350836132af565b835488168752958601958a94506001938401939091019061328a565b3360009081527ff179aafcc4ff8137fca1ef3b9ec4d165f87016ba123e7973fba770bc55e240e360205260409020547f71f3d55856e4058ed06ee057d79ada615f65cdf5f9ee88181b914225088f834f9060ff161561337a5750565b6044906040519063e2517d3f60e01b82523360048301526024820152fd5b80600052600060205260406000203360005260205260ff604060002054161561337a5750565b6001600160a01b031660008181527f0ce843211fc9ec6116b25fc0229a4e719395057f6c9a20f3d0aa244a0154c62860205260408120549091907f4f72063d6dc4cf4bb4e008e0815997320f78a862b3e71fe66fa9ae685d1cd12f9060ff1661346b57808352826020526040832082845260205260408320600160ff198254161790557f2f8788117e7eff1d82e926ec794901d17c78024a50270940304540a733656f0d339380a4600190565b505090565b9060009180835282602052604083209160018060a01b03169182845260205260ff6040842054161560001461346b57808352826020526040832082845260205260408320600160ff198254161790557f2f8788117e7eff1d82e926ec794901d17c78024a50270940304540a733656f0d339380a4600190565b9060009180835282602052604083209160018060a01b03169182845260205260ff60408420541660001461346b5780835282602052604083208284526020526040832060ff1981541690557ff6391f5c32d9c69d2a47ea670b442974b53935d1edc7fd64eb21e047a839171b339380a4600190565b91909160018060a01b0390818116906000908282526020906005825260409687842095811695868552835260ff8885205416156136b45796849596977fe7339343c6edff57f2d15278c419523844cea30ae5ee2146aa22cb9e3107dab79585526005845281852088865284528185209360ff1994858154169055878652600781526135eb828488206136f8565b888652600681526135fe848488206136f8565b87865260038152600d838720016136158154612fa6565b905588865260038152600c8387200161362e8154612fa6565b905587865260058152828620898752815260ff6002848820015416613657575b505050505080a3565b61369f6008926136aa968a8952600584528589208c8a5284526002868a2001818154169055600584528589208b8a5284526002868a20019081541690558383528488206136f8565b8886525283206136f8565b388080808061364e565b875162461bcd60e51b815260048101849052601760248201527f4e6f7420666f6c6c6f77696e67207468697320757365720000000000000000006044820152606490fd5b6000915b815492838110156137a3576137118184612e2d565b90546003956001600160a01b0392909190871b1c82168483161461373b57505060010192506136fc565b90925060001991828201918211612fb3576131a48461375d61376b9488612e2d565b905490891b1c169186612e2d565b8254801561378d57019261377f8484612e2d565b81939154921b1b1916905555565b634e487b7160e01b600052603160045260246000fd5b50505050565b6002600154146137ba576002600155565b604051633ee5aeb560e01b8152600490fd5b908151811015612e17570160200190565b908051801561386657825110613880576000905b6137fe835182519061305c565b82116138785760019260005b825181101561386e576001600160f81b03198061383061382a8488613006565b856137cc565b51169061383d83866137cc565b51160361384c5760010161380a565b5092509060005b61386657613860906131c2565b906137f1565b505050600190565b5092919091613853565b505050600090565b5050600090565b6000805b8251811015613866576001600160f81b03196138a782856137cc565b5116600360fc1b81101580613937575b159081613912575b816138ed575b816138de575b506138d85760010161388b565b50905090565b605f60f81b14159050386138cb565b9050606160f81b81101580613904575b15906138c5565b50603d60f91b8111156138fd565b9050604160f81b81101580613929575b15906138bf565b50602d60f91b811115613922565b50603960f81b8111156138b756fea2646970667358221220125a8f7aac51706de6269de63d94f21622a2690f87a24dfd0f1a67388a71538164736f6c634300081800332f8788117e7eff1d82e926ec794901d17c78024a50270940304540a733656f0d",
  "linkReferences": {},
  "deployedLinkReferences": {}
}