{
  "_format": "hh-sol-artifact-1",
  "contractName": "BeZhasQualityEscrow",
  "sourceName": "contracts/quality-oracle/BeZhasQualityEscrow.sol",
  "abi": [
    {
      "inputs": [
        {
          "internalType": "address",
          "name": "_tokenAddress",
          "type": "address"
        },
        {
          "internalType": "address",
          "name": "_admin",
          "type": "address"
        }
      ],
      "stateMutability": "nonpayable",
      "type": "constructor"
    },
    {
      "inputs": [],
      "name": "AccessControlBadConfirmation",
      "type": "error"
    },
    {
      "inputs": [
        {
          "internalType": "address",
          "name": "account",
          "type": "address"
        },
        {
          "internalType": "bytes32",
          "name": "neededRole",
          "type": "bytes32"
        }
      ],
      "name": "AccessControlUnauthorizedAccount",
      "type": "error"
    },
    {
      "inputs": [],
      "name": "EnforcedPause",
      "type": "error"
    },
    {
      "inputs": [],
      "name": "ExpectedPause",
      "type": "error"
    },
    {
      "inputs": [],
      "name": "ReentrancyGuardReentrantCall",
      "type": "error"
    },
    {
      "inputs": [
        {
          "internalType": "address",
          "name": "token",
          "type": "address"
        }
      ],
      "name": "SafeERC20FailedOperation",
      "type": "error"
    },
    {
      "anonymous": false,
      "inputs": [
        {
          "indexed": false,
          "internalType": "address",
          "name": "account",
          "type": "address"
        }
      ],
      "name": "Paused",
      "type": "event"
    },
    {
      "anonymous": false,
      "inputs": [
        {
          "indexed": true,
          "internalType": "bytes32",
          "name": "role",
          "type": "bytes32"
        },
        {
          "indexed": true,
          "internalType": "bytes32",
          "name": "previousAdminRole",
          "type": "bytes32"
        },
        {
          "indexed": true,
          "internalType": "bytes32",
          "name": "newAdminRole",
          "type": "bytes32"
        }
      ],
      "name": "RoleAdminChanged",
      "type": "event"
    },
    {
      "anonymous": false,
      "inputs": [
        {
          "indexed": true,
          "internalType": "bytes32",
          "name": "role",
          "type": "bytes32"
        },
        {
          "indexed": true,
          "internalType": "address",
          "name": "account",
          "type": "address"
        },
        {
          "indexed": true,
          "internalType": "address",
          "name": "sender",
          "type": "address"
        }
      ],
      "name": "RoleGranted",
      "type": "event"
    },
    {
      "anonymous": false,
      "inputs": [
        {
          "indexed": true,
          "internalType": "bytes32",
          "name": "role",
          "type": "bytes32"
        },
        {
          "indexed": true,
          "internalType": "address",
          "name": "account",
          "type": "address"
        },
        {
          "indexed": true,
          "internalType": "address",
          "name": "sender",
          "type": "address"
        }
      ],
      "name": "RoleRevoked",
      "type": "event"
    },
    {
      "anonymous": false,
      "inputs": [
        {
          "indexed": true,
          "internalType": "uint256",
          "name": "serviceId",
          "type": "uint256"
        },
        {
          "indexed": true,
          "internalType": "address",
          "name": "business",
          "type": "address"
        },
        {
          "indexed": true,
          "internalType": "address",
          "name": "client",
          "type": "address"
        },
        {
          "indexed": false,
          "internalType": "uint256",
          "name": "collateral",
          "type": "uint256"
        }
      ],
      "name": "ServiceCreated",
      "type": "event"
    },
    {
      "anonymous": false,
      "inputs": [
        {
          "indexed": true,
          "internalType": "uint256",
          "name": "serviceId",
          "type": "uint256"
        }
      ],
      "name": "ServiceDisputed",
      "type": "event"
    },
    {
      "anonymous": false,
      "inputs": [
        {
          "indexed": true,
          "internalType": "uint256",
          "name": "serviceId",
          "type": "uint256"
        },
        {
          "indexed": false,
          "internalType": "uint8",
          "name": "finalQuality",
          "type": "uint8"
        },
        {
          "indexed": false,
          "internalType": "uint256",
          "name": "penaltyPaid",
          "type": "uint256"
        }
      ],
      "name": "ServiceFinalized",
      "type": "event"
    },
    {
      "anonymous": false,
      "inputs": [
        {
          "indexed": true,
          "internalType": "uint256",
          "name": "serviceId",
          "type": "uint256"
        },
        {
          "indexed": false,
          "internalType": "address",
          "name": "winner",
          "type": "address"
        },
        {
          "indexed": false,
          "internalType": "uint256",
          "name": "amount",
          "type": "uint256"
        }
      ],
      "name": "ServiceResolved",
      "type": "event"
    },
    {
      "anonymous": false,
      "inputs": [
        {
          "indexed": false,
          "internalType": "address",
          "name": "account",
          "type": "address"
        }
      ],
      "name": "Unpaused",
      "type": "event"
    },
    {
      "inputs": [],
      "name": "ADMIN_ROLE",
      "outputs": [
        {
          "internalType": "bytes32",
          "name": "",
          "type": "bytes32"
        }
      ],
      "stateMutability": "view",
      "type": "function"
    },
    {
      "inputs": [],
      "name": "ARBITRATOR_ROLE",
      "outputs": [
        {
          "internalType": "bytes32",
          "name": "",
          "type": "bytes32"
        }
      ],
      "stateMutability": "view",
      "type": "function"
    },
    {
      "inputs": [],
      "name": "DEFAULT_ADMIN_ROLE",
      "outputs": [
        {
          "internalType": "bytes32",
          "name": "",
          "type": "bytes32"
        }
      ],
      "stateMutability": "view",
      "type": "function"
    },
    {
      "inputs": [],
      "name": "bezCoin",
      "outputs": [
        {
          "internalType": "contract IERC20",
          "name": "",
          "type": "address"
        }
      ],
      "stateMutability": "view",
      "type": "function"
    },
    {
      "inputs": [
        {
          "internalType": "address",
          "name": "_clientWallet",
          "type": "address"
        },
        {
          "internalType": "uint256",
          "name": "_amount",
          "type": "uint256"
        },
        {
          "internalType": "uint8",
          "name": "_initialQuality",
          "type": "uint8"
        }
      ],
      "name": "createService",
      "outputs": [
        {
          "internalType": "uint256",
          "name": "",
          "type": "uint256"
        }
      ],
      "stateMutability": "nonpayable",
      "type": "function"
    },
    {
      "inputs": [
        {
          "internalType": "uint256",
          "name": "_serviceId",
          "type": "uint256"
        },
        {
          "internalType": "uint8",
          "name": "_finalQuality",
          "type": "uint8"
        }
      ],
      "name": "finalizeService",
      "outputs": [],
      "stateMutability": "nonpayable",
      "type": "function"
    },
    {
      "inputs": [
        {
          "internalType": "bytes32",
          "name": "role",
          "type": "bytes32"
        }
      ],
      "name": "getRoleAdmin",
      "outputs": [
        {
          "internalType": "bytes32",
          "name": "",
          "type": "bytes32"
        }
      ],
      "stateMutability": "view",
      "type": "function"
    },
    {
      "inputs": [
        {
          "internalType": "bytes32",
          "name": "role",
          "type": "bytes32"
        },
        {
          "internalType": "address",
          "name": "account",
          "type": "address"
        }
      ],
      "name": "grantRole",
      "outputs": [],
      "stateMutability": "nonpayable",
      "type": "function"
    },
    {
      "inputs": [
        {
          "internalType": "bytes32",
          "name": "role",
          "type": "bytes32"
        },
        {
          "internalType": "address",
          "name": "account",
          "type": "address"
        }
      ],
      "name": "hasRole",
      "outputs": [
        {
          "internalType": "bool",
          "name": "",
          "type": "bool"
        }
      ],
      "stateMutability": "view",
      "type": "function"
    },
    {
      "inputs": [],
      "name": "pause",
      "outputs": [],
      "stateMutability": "nonpayable",
      "type": "function"
    },
    {
      "inputs": [],
      "name": "paused",
      "outputs": [
        {
          "internalType": "bool",
          "name": "",
          "type": "bool"
        }
      ],
      "stateMutability": "view",
      "type": "function"
    },
    {
      "inputs": [
        {
          "internalType": "uint256",
          "name": "_serviceId",
          "type": "uint256"
        }
      ],
      "name": "raiseDispute",
      "outputs": [],
      "stateMutability": "nonpayable",
      "type": "function"
    },
    {
      "inputs": [
        {
          "internalType": "bytes32",
          "name": "role",
          "type": "bytes32"
        },
        {
          "internalType": "address",
          "name": "callerConfirmation",
          "type": "address"
        }
      ],
      "name": "renounceRole",
      "outputs": [],
      "stateMutability": "nonpayable",
      "type": "function"
    },
    {
      "inputs": [
        {
          "internalType": "bytes32",
          "name": "role",
          "type": "bytes32"
        },
        {
          "internalType": "address",
          "name": "account",
          "type": "address"
        }
      ],
      "name": "revokeRole",
      "outputs": [],
      "stateMutability": "nonpayable",
      "type": "function"
    },
    {
      "inputs": [],
      "name": "serviceCounter",
      "outputs": [
        {
          "internalType": "uint256",
          "name": "",
          "type": "uint256"
        }
      ],
      "stateMutability": "view",
      "type": "function"
    },
    {
      "inputs": [
        {
          "internalType": "uint256",
          "name": "",
          "type": "uint256"
        }
      ],
      "name": "services",
      "outputs": [
        {
          "internalType": "uint256",
          "name": "id",
          "type": "uint256"
        },
        {
          "internalType": "uint256",
          "name": "collateralAmount",
          "type": "uint256"
        },
        {
          "internalType": "uint256",
          "name": "timestamp",
          "type": "uint256"
        },
        {
          "internalType": "address",
          "name": "businessWallet",
          "type": "address"
        },
        {
          "internalType": "address",
          "name": "clientWallet",
          "type": "address"
        },
        {
          "internalType": "uint8",
          "name": "initialQuality",
          "type": "uint8"
        },
        {
          "internalType": "uint8",
          "name": "finalQuality",
          "type": "uint8"
        },
        {
          "internalType": "enum BeZhasQualityEscrow.Status",
          "name": "status",
          "type": "uint8"
        }
      ],
      "stateMutability": "view",
      "type": "function"
    },
    {
      "inputs": [
        {
          "internalType": "bytes4",
          "name": "interfaceId",
          "type": "bytes4"
        }
      ],
      "name": "supportsInterface",
      "outputs": [
        {
          "internalType": "bool",
          "name": "",
          "type": "bool"
        }
      ],
      "stateMutability": "view",
      "type": "function"
    },
    {
      "inputs": [],
      "name": "unpause",
      "outputs": [],
      "stateMutability": "nonpayable",
      "type": "function"
    }
  ],
  "bytecode": "0x60a0346200010b57601f620011b738819003918201601f19168301916001600160401b03831184841017620001105780849260409485528339810103126200010b576200005a6020620000528362000126565b920162000126565b600180556001600160a01b03909116908115620000c657620000979160805262000084816200013b565b506200009081620001bb565b506200025d565b50604051610e9c9081620002fb823960805181818161013f015281816102190152818161072b01526107c40152f35b60405162461bcd60e51b815260206004820152601560248201527f496e76616c696420746f6b656e206164647265737300000000000000000000006044820152606490fd5b600080fd5b634e487b7160e01b600052604160045260246000fd5b51906001600160a01b03821682036200010b57565b6001600160a01b031660008181527fad3228b676f7d3cd4284a5443f17f1962b36e491b30a40b2405849e597ba5fb5602052604081205490919060ff16620001b757818052816020526040822081835260205260408220600160ff198254161790553391600080516020620011978339815191528180a4600190565b5090565b6001600160a01b031660008181527f7d7ffb7a348e1c6a02869081a26547b49160dd3df72d1d75a570eb9b698292ec60205260408120549091907fa49807205ce4d355092ef5a8a18f56e8913cf4a201fbe287825b095693c217759060ff166200025857808352826020526040832082845260205260408320600160ff1982541617905560008051602062001197833981519152339380a4600190565b505090565b6001600160a01b031660008181527f124a13b16867194fc8fe1b97be0d668b89ac2a8dd77d418cf4feefa89864a62660205260408120549091907f16ceee8289685dd2a02b9c8ae81d2df373176ce53519e6284e2a2950d6546ffa9060ff166200025857808352826020526040832082845260205260408320600160ff1982541617905560008051602062001197833981519152339380a460019056fe608060408181526004908136101561001657600080fd5b600092833560e01c90816301ffc9a714610b5357508063248a9ca314610b295780632f2ff15d14610b0157806336568abe14610aba5780633f4ba83a14610a505780635c975abb14610a2c57806375b238fc146109f15780637defdd73146109d35780638456cb591461097857806391d14854146109325780639cea0787146108f7578063a217fddf146108dc578063a2cc996f14610628578063a5c1674e14610503578063c22c4f431461045f578063c570d04314610172578063c77635421461012a5763d547741f146100ea57600080fd5b34610126578060031936011261012657610122913561011d600161010c610ba7565b938387528660205286200154610c3c565b610ce0565b5080f35b8280fd5b83823461016e578160031936011261016e57517f00000000000000000000000000000000000000000000000000000000000000006001600160a01b03168152602090f35b5080fd5b5034610126576060366003190112610126576001600160a01b03918035838116919082900361045b5760249485359460443560ff8116809103610126576101b7610d55565b6101bf610de0565b84156104285786156103f157606481116103bd5785516323b872dd60e01b602082015233898201523060448201526064808201899052815267ffffffffffffffff929060a081018481118282101761039957885261023d907f0000000000000000000000000000000000000000000000000000000000000000610dfe565b845460001981146103ab57600101808655875190936101008201908111828210176103995787959493610325938860ff948c9485528781528d602082019081528582014281526060830191338352608084019c8d5260a0840196875260c08401978c895260e085019b60018d528d5260036020528c209351845551600184015551600283015583600383019151166bffffffffffffffffffffffff60a01b825416179055019751168754918460a01b905160a01b16916affffffffffffffffffffff60a81b16171786555116849081549060ff60a81b9060a81b169060ff60a81b1916179055565b519060058210156103875750815460ff60b01b191660b09190911b60ff60b01b161790555482519384526020945092339084907f06dec7c18c6d88222831a8e9c277ddd5ce160c41bc15314e7d93f6b45353d90f908790a46001805551908152f35b634e487b7160e01b8152602184528790fd5b634e487b7160e01b8652604187528a86fd5b634e487b7160e01b8552601186528985fd5b855162461bcd60e51b8152602081860152600f818a01526e05175616c697479206d61782031303608c1b6044820152606490fd5b855162461bcd60e51b81526020818601526012818a0152710416d6f756e74206d757374206265203e20360741b6044820152606490fd5b855162461bcd60e51b8152602081860152600e818a01526d125b9d985b1a590818db1a595b9d60921b6044820152606490fd5b8480fd5b508234610500576020366003190112610500578235815260036020528181209060ff82549360018401549360028101549060018060a01b0391888360038401541692015493858560b01c16978151998a5260208a0152880152606087015281166080860152818160a01c1660a086015260a81c1660c084015260058210156104ed57610100838360e0820152f35b634e487b7160e01b815260218452602490fd5b80fd5b5034610126576020366003190112610126578135918284526003602052818420908082019283549260ff8460b01c166005811015610615576001036105e1576001600160a01b0384811633149182156105d0575b50501561059657505060ff60b01b1916600360b01b1790557ff0a617b1186156fdc2fde56d7cb28e70d80ff02648ba33a7690d4ab412cab8cd8280a280f35b906020606492519162461bcd60e51b835282015260146024820152734e6f7420706172747920746f207365727669636560601b6044820152fd5b600391925001541633143880610557565b815162461bcd60e51b8152602081850152600e60248201526d43616e6e6f74206469737075746560901b6044820152606490fd5b634e487b7160e01b885260218452602488fd5b5082903461016e578060031936011261016e57823590602493843560ff91828216928383036108d857610659610d55565b85875260209160038352858820938185019183835460b01c1660058110156108c65760010361089357600386019360018060a01b03928386541633148015610859575b1561082657845460ff60a81b191660a89190911b60ff60a81b16178455835490600160b11b60ff60b01b198316178095558060018d9901549560a01c16808a10610757575b505050507f0759bfc429058e8874160320512d0d853fc4ffa5efbc59bbe2f9680f036e05229798995081610723575b5050508351928352820152a26001805580f35b61074f9254167f0000000000000000000000000000000000000000000000000000000000000000610d78565b878080610710565b899192959398500381811161081457168082029082820414821517156108025760649004958682039182116107f057507f0759bfc429058e8874160320512d0d853fc4ffa5efbc59bbe2f9680f036e052298999a50918582816107bd575b8c9b9a6106e1565b6107e892167f0000000000000000000000000000000000000000000000000000000000000000610d78565b8a85826107b5565b634e487b7160e01b8b52601190528a8afd5b634e487b7160e01b8b52601187528b8bfd5b634e487b7160e01b8c52601188528c8cfd5b895162461bcd60e51b8152808401889052600e818f01526d139bdd08185d5d1a1bdc9a5e995960921b6044820152606490fd5b507f16ceee8289685dd2a02b9c8ae81d2df373176ce53519e6284e2a2950d6546ffa8c528b8752898c20338d528752818a8d20541661069c565b875162461bcd60e51b8152908101859052600e818c01526d496e76616c69642073746174757360901b6044820152606490fd5b634e487b7160e01b8b52602182528b8bfd5b8680fd5b83823461016e578160031936011261016e5751908152602090f35b83823461016e578160031936011261016e57602090517f16ceee8289685dd2a02b9c8ae81d2df373176ce53519e6284e2a2950d6546ffa8152f35b5090346101265781600319360112610126578160209360ff92610953610ba7565b903582528186528282206001600160a01b039091168252855220549151911615158152f35b83823461016e578160031936011261016e5760207f62e78cea01bee320cd4e420270b5ea74000d11b0c9f74754ebdbfc544b05a258916109b6610bc2565b6109be610de0565b600160ff19600254161760025551338152a180f35b50903461012657826003193601126101265760209250549051908152f35b83823461016e578160031936011261016e57602090517fa49807205ce4d355092ef5a8a18f56e8913cf4a201fbe287825b095693c217758152f35b83823461016e578160031936011261016e5760209060ff6002541690519015158152f35b509034610126578260031936011261012657610a6a610bc2565b6002549060ff821615610aac575060ff1916600255513381527f5db9ee0a495bf2e6ff9c91a7834c1ba4fdd244a5e8aa4e537bd38aeae4b073aa90602090a180f35b8251638dfc202b60e01b8152fd5b5082903461016e578060031936011261016e57610ad5610ba7565b90336001600160a01b03831603610af25750610122919235610ce0565b5163334bd91960e11b81528390fd5b50346101265780600319360112610126576101229135610b24600161010c610ba7565b610c62565b50903461012657602036600319011261012657816020936001923581528085522001549051908152f35b84908434610126576020366003190112610126573563ffffffff60e01b81168091036101265760209250637965db0b60e01b8114908115610b96575b5015158152f35b6301ffc9a760e01b14905083610b8f565b602435906001600160a01b0382168203610bbd57565b600080fd5b3360009081527f7d7ffb7a348e1c6a02869081a26547b49160dd3df72d1d75a570eb9b698292ec60205260409020547fa49807205ce4d355092ef5a8a18f56e8913cf4a201fbe287825b095693c217759060ff1615610c1e5750565b6044906040519063e2517d3f60e01b82523360048301526024820152fd5b80600052600060205260406000203360005260205260ff6040600020541615610c1e5750565b9060009180835282602052604083209160018060a01b03169182845260205260ff60408420541615600014610cdb57808352826020526040832082845260205260408320600160ff198254161790557f2f8788117e7eff1d82e926ec794901d17c78024a50270940304540a733656f0d339380a4600190565b505090565b9060009180835282602052604083209160018060a01b03169182845260205260ff604084205416600014610cdb5780835282602052604083208284526020526040832060ff1981541690557ff6391f5c32d9c69d2a47ea670b442974b53935d1edc7fd64eb21e047a839171b339380a4600190565b600260015414610d66576002600155565b604051633ee5aeb560e01b8152600490fd5b60405163a9059cbb60e01b60208201526001600160a01b039092166024830152604480830193909352918152608081019167ffffffffffffffff831182841017610dca57610dc892604052610dfe565b565b634e487b7160e01b600052604160045260246000fd5b60ff60025416610dec57565b60405163d93c066560e01b8152600490fd5b906000602091828151910182855af115610e5a576000513d610e5157506001600160a01b0381163b155b610e2f5750565b604051635274afe760e01b81526001600160a01b039091166004820152602490fd5b60011415610e28565b6040513d6000823e3d90fdfea2646970667358221220f953d14b847928518ef2b3339d403772d3e151566636e3aad4a3be98f439866364736f6c634300081800332f8788117e7eff1d82e926ec794901d17c78024a50270940304540a733656f0d",
  "linkReferences": {},
  "deployedLinkReferences": {}
}