{
  "_format": "hh-sol-artifact-1",
  "contractName": "ModerationSystem",
  "sourceName": "contracts/ModerationSystem.sol",
  "abi": [
    {
      "inputs": [],
      "stateMutability": "nonpayable",
      "type": "constructor"
    },
    {
      "inputs": [],
      "name": "AccessControlBadConfirmation",
      "type": "error"
    },
    {
      "inputs": [
        {
          "internalType": "address",
          "name": "account",
          "type": "address"
        },
        {
          "internalType": "bytes32",
          "name": "neededRole",
          "type": "bytes32"
        }
      ],
      "name": "AccessControlUnauthorizedAccount",
      "type": "error"
    },
    {
      "inputs": [],
      "name": "EnforcedPause",
      "type": "error"
    },
    {
      "inputs": [],
      "name": "ExpectedPause",
      "type": "error"
    },
    {
      "inputs": [],
      "name": "ReentrancyGuardReentrantCall",
      "type": "error"
    },
    {
      "anonymous": false,
      "inputs": [
        {
          "indexed": false,
          "internalType": "enum ModerationSystem.ContentType",
          "name": "contentType",
          "type": "uint8"
        },
        {
          "indexed": false,
          "internalType": "uint256",
          "name": "contentId",
          "type": "uint256"
        },
        {
          "indexed": true,
          "internalType": "address",
          "name": "moderator",
          "type": "address"
        }
      ],
      "name": "ContentHidden",
      "type": "event"
    },
    {
      "anonymous": false,
      "inputs": [
        {
          "indexed": false,
          "internalType": "enum ModerationSystem.ContentType",
          "name": "contentType",
          "type": "uint8"
        },
        {
          "indexed": false,
          "internalType": "uint256",
          "name": "contentId",
          "type": "uint256"
        },
        {
          "indexed": true,
          "internalType": "address",
          "name": "moderator",
          "type": "address"
        }
      ],
      "name": "ContentRestored",
      "type": "event"
    },
    {
      "anonymous": false,
      "inputs": [
        {
          "indexed": true,
          "internalType": "uint256",
          "name": "actionId",
          "type": "uint256"
        },
        {
          "indexed": true,
          "internalType": "address",
          "name": "moderator",
          "type": "address"
        },
        {
          "indexed": true,
          "internalType": "address",
          "name": "targetUser",
          "type": "address"
        },
        {
          "indexed": false,
          "internalType": "enum ModerationSystem.ActionType",
          "name": "actionType",
          "type": "uint8"
        }
      ],
      "name": "ModerationActionTaken",
      "type": "event"
    },
    {
      "anonymous": false,
      "inputs": [
        {
          "indexed": false,
          "internalType": "address",
          "name": "account",
          "type": "address"
        }
      ],
      "name": "Paused",
      "type": "event"
    },
    {
      "anonymous": false,
      "inputs": [
        {
          "indexed": true,
          "internalType": "uint256",
          "name": "reportId",
          "type": "uint256"
        },
        {
          "indexed": true,
          "internalType": "address",
          "name": "moderator",
          "type": "address"
        }
      ],
      "name": "ReportAssigned",
      "type": "event"
    },
    {
      "anonymous": false,
      "inputs": [
        {
          "indexed": true,
          "internalType": "uint256",
          "name": "reportId",
          "type": "uint256"
        },
        {
          "indexed": false,
          "internalType": "enum ModerationSystem.ReportStatus",
          "name": "status",
          "type": "uint8"
        },
        {
          "indexed": true,
          "internalType": "address",
          "name": "moderator",
          "type": "address"
        }
      ],
      "name": "ReportResolved",
      "type": "event"
    },
    {
      "anonymous": false,
      "inputs": [
        {
          "indexed": true,
          "internalType": "uint256",
          "name": "reportId",
          "type": "uint256"
        },
        {
          "indexed": true,
          "internalType": "address",
          "name": "reporter",
          "type": "address"
        },
        {
          "indexed": true,
          "internalType": "address",
          "name": "reportedUser",
          "type": "address"
        },
        {
          "indexed": false,
          "internalType": "enum ModerationSystem.ContentType",
          "name": "contentType",
          "type": "uint8"
        },
        {
          "indexed": false,
          "internalType": "uint256",
          "name": "contentId",
          "type": "uint256"
        }
      ],
      "name": "ReportSubmitted",
      "type": "event"
    },
    {
      "anonymous": false,
      "inputs": [
        {
          "indexed": true,
          "internalType": "bytes32",
          "name": "role",
          "type": "bytes32"
        },
        {
          "indexed": true,
          "internalType": "bytes32",
          "name": "previousAdminRole",
          "type": "bytes32"
        },
        {
          "indexed": true,
          "internalType": "bytes32",
          "name": "newAdminRole",
          "type": "bytes32"
        }
      ],
      "name": "RoleAdminChanged",
      "type": "event"
    },
    {
      "anonymous": false,
      "inputs": [
        {
          "indexed": true,
          "internalType": "bytes32",
          "name": "role",
          "type": "bytes32"
        },
        {
          "indexed": true,
          "internalType": "address",
          "name": "account",
          "type": "address"
        },
        {
          "indexed": true,
          "internalType": "address",
          "name": "sender",
          "type": "address"
        }
      ],
      "name": "RoleGranted",
      "type": "event"
    },
    {
      "anonymous": false,
      "inputs": [
        {
          "indexed": true,
          "internalType": "bytes32",
          "name": "role",
          "type": "bytes32"
        },
        {
          "indexed": true,
          "internalType": "address",
          "name": "account",
          "type": "address"
        },
        {
          "indexed": true,
          "internalType": "address",
          "name": "sender",
          "type": "address"
        }
      ],
      "name": "RoleRevoked",
      "type": "event"
    },
    {
      "anonymous": false,
      "inputs": [
        {
          "indexed": false,
          "internalType": "address",
          "name": "account",
          "type": "address"
        }
      ],
      "name": "Unpaused",
      "type": "event"
    },
    {
      "anonymous": false,
      "inputs": [
        {
          "indexed": true,
          "internalType": "address",
          "name": "blocker",
          "type": "address"
        },
        {
          "indexed": true,
          "internalType": "address",
          "name": "blocked",
          "type": "address"
        }
      ],
      "name": "UserBlocked",
      "type": "event"
    },
    {
      "anonymous": false,
      "inputs": [
        {
          "indexed": true,
          "internalType": "address",
          "name": "blocker",
          "type": "address"
        },
        {
          "indexed": true,
          "internalType": "address",
          "name": "blocked",
          "type": "address"
        }
      ],
      "name": "UserUnblocked",
      "type": "event"
    },
    {
      "inputs": [],
      "name": "AUTO_BAN_THRESHOLD",
      "outputs": [
        {
          "internalType": "uint256",
          "name": "",
          "type": "uint256"
        }
      ],
      "stateMutability": "view",
      "type": "function"
    },
    {
      "inputs": [],
      "name": "AUTO_MOD_ROLE",
      "outputs": [
        {
          "internalType": "bytes32",
          "name": "",
          "type": "bytes32"
        }
      ],
      "stateMutability": "view",
      "type": "function"
    },
    {
      "inputs": [],
      "name": "DEFAULT_ADMIN_ROLE",
      "outputs": [
        {
          "internalType": "bytes32",
          "name": "",
          "type": "bytes32"
        }
      ],
      "stateMutability": "view",
      "type": "function"
    },
    {
      "inputs": [],
      "name": "MAX_WARNINGS",
      "outputs": [
        {
          "internalType": "uint256",
          "name": "",
          "type": "uint256"
        }
      ],
      "stateMutability": "view",
      "type": "function"
    },
    {
      "inputs": [],
      "name": "MODERATOR_ROLE",
      "outputs": [
        {
          "internalType": "bytes32",
          "name": "",
          "type": "bytes32"
        }
      ],
      "stateMutability": "view",
      "type": "function"
    },
    {
      "inputs": [],
      "name": "WARNING_COOLDOWN",
      "outputs": [
        {
          "internalType": "uint256",
          "name": "",
          "type": "uint256"
        }
      ],
      "stateMutability": "view",
      "type": "function"
    },
    {
      "inputs": [
        {
          "internalType": "uint256",
          "name": "reportId",
          "type": "uint256"
        }
      ],
      "name": "assignReport",
      "outputs": [],
      "stateMutability": "nonpayable",
      "type": "function"
    },
    {
      "inputs": [
        {
          "internalType": "address",
          "name": "userToBlock",
          "type": "address"
        }
      ],
      "name": "blockUser",
      "outputs": [],
      "stateMutability": "nonpayable",
      "type": "function"
    },
    {
      "inputs": [],
      "name": "getModerationStats",
      "outputs": [
        {
          "internalType": "uint256",
          "name": "totalReportsCount",
          "type": "uint256"
        },
        {
          "internalType": "uint256",
          "name": "pendingReportsCount",
          "type": "uint256"
        },
        {
          "internalType": "uint256",
          "name": "totalActionsCount",
          "type": "uint256"
        },
        {
          "internalType": "uint256",
          "name": "activeRestrictions",
          "type": "uint256"
        }
      ],
      "stateMutability": "view",
      "type": "function"
    },
    {
      "inputs": [
        {
          "internalType": "uint256",
          "name": "offset",
          "type": "uint256"
        },
        {
          "internalType": "uint256",
          "name": "limit",
          "type": "uint256"
        }
      ],
      "name": "getPendingReports",
      "outputs": [
        {
          "internalType": "uint256[]",
          "name": "",
          "type": "uint256[]"
        }
      ],
      "stateMutability": "view",
      "type": "function"
    },
    {
      "inputs": [
        {
          "internalType": "address",
          "name": "user",
          "type": "address"
        }
      ],
      "name": "getReportsAgainstUser",
      "outputs": [
        {
          "internalType": "uint256[]",
          "name": "",
          "type": "uint256[]"
        }
      ],
      "stateMutability": "view",
      "type": "function"
    },
    {
      "inputs": [
        {
          "internalType": "bytes32",
          "name": "role",
          "type": "bytes32"
        }
      ],
      "name": "getRoleAdmin",
      "outputs": [
        {
          "internalType": "bytes32",
          "name": "",
          "type": "bytes32"
        }
      ],
      "stateMutability": "view",
      "type": "function"
    },
    {
      "inputs": [
        {
          "internalType": "address",
          "name": "user",
          "type": "address"
        }
      ],
      "name": "getUserReports",
      "outputs": [
        {
          "internalType": "uint256[]",
          "name": "",
          "type": "uint256[]"
        }
      ],
      "stateMutability": "view",
      "type": "function"
    },
    {
      "inputs": [
        {
          "internalType": "bytes32",
          "name": "role",
          "type": "bytes32"
        },
        {
          "internalType": "address",
          "name": "account",
          "type": "address"
        }
      ],
      "name": "grantRole",
      "outputs": [],
      "stateMutability": "nonpayable",
      "type": "function"
    },
    {
      "inputs": [
        {
          "internalType": "bytes32",
          "name": "role",
          "type": "bytes32"
        },
        {
          "internalType": "address",
          "name": "account",
          "type": "address"
        }
      ],
      "name": "hasRole",
      "outputs": [
        {
          "internalType": "bool",
          "name": "",
          "type": "bool"
        }
      ],
      "stateMutability": "view",
      "type": "function"
    },
    {
      "inputs": [
        {
          "internalType": "enum ModerationSystem.ContentType",
          "name": "",
          "type": "uint8"
        },
        {
          "internalType": "uint256",
          "name": "",
          "type": "uint256"
        }
      ],
      "name": "hiddenContent",
      "outputs": [
        {
          "internalType": "bool",
          "name": "",
          "type": "bool"
        }
      ],
      "stateMutability": "view",
      "type": "function"
    },
    {
      "inputs": [
        {
          "internalType": "enum ModerationSystem.ContentType",
          "name": "contentType",
          "type": "uint8"
        },
        {
          "internalType": "uint256",
          "name": "contentId",
          "type": "uint256"
        }
      ],
      "name": "hideContent",
      "outputs": [],
      "stateMutability": "nonpayable",
      "type": "function"
    },
    {
      "inputs": [
        {
          "internalType": "enum ModerationSystem.ContentType",
          "name": "contentType",
          "type": "uint8"
        },
        {
          "internalType": "uint256",
          "name": "contentId",
          "type": "uint256"
        }
      ],
      "name": "isContentHidden",
      "outputs": [
        {
          "internalType": "bool",
          "name": "",
          "type": "bool"
        }
      ],
      "stateMutability": "view",
      "type": "function"
    },
    {
      "inputs": [
        {
          "internalType": "address",
          "name": "blocker",
          "type": "address"
        },
        {
          "internalType": "address",
          "name": "blocked",
          "type": "address"
        }
      ],
      "name": "isUserBlocked",
      "outputs": [
        {
          "internalType": "bool",
          "name": "",
          "type": "bool"
        }
      ],
      "stateMutability": "view",
      "type": "function"
    },
    {
      "inputs": [
        {
          "internalType": "address",
          "name": "user",
          "type": "address"
        }
      ],
      "name": "isUserRestricted",
      "outputs": [
        {
          "internalType": "bool",
          "name": "",
          "type": "bool"
        },
        {
          "internalType": "enum ModerationSystem.ActionType",
          "name": "",
          "type": "uint8"
        },
        {
          "internalType": "uint256",
          "name": "",
          "type": "uint256"
        }
      ],
      "stateMutability": "view",
      "type": "function"
    },
    {
      "inputs": [
        {
          "internalType": "uint256",
          "name": "",
          "type": "uint256"
        }
      ],
      "name": "moderationActions",
      "outputs": [
        {
          "internalType": "uint256",
          "name": "id",
          "type": "uint256"
        },
        {
          "internalType": "uint256",
          "name": "reportId",
          "type": "uint256"
        },
        {
          "internalType": "address",
          "name": "moderator",
          "type": "address"
        },
        {
          "internalType": "address",
          "name": "targetUser",
          "type": "address"
        },
        {
          "internalType": "enum ModerationSystem.ActionType",
          "name": "actionType",
          "type": "uint8"
        },
        {
          "internalType": "string",
          "name": "reason",
          "type": "string"
        },
        {
          "internalType": "uint256",
          "name": "timestamp",
          "type": "uint256"
        },
        {
          "internalType": "uint256",
          "name": "expiryTimestamp",
          "type": "uint256"
        },
        {
          "internalType": "bool",
          "name": "isActive",
          "type": "bool"
        }
      ],
      "stateMutability": "view",
      "type": "function"
    },
    {
      "inputs": [],
      "name": "pause",
      "outputs": [],
      "stateMutability": "nonpayable",
      "type": "function"
    },
    {
      "inputs": [],
      "name": "paused",
      "outputs": [
        {
          "internalType": "bool",
          "name": "",
          "type": "bool"
        }
      ],
      "stateMutability": "view",
      "type": "function"
    },
    {
      "inputs": [],
      "name": "pendingReports",
      "outputs": [
        {
          "internalType": "uint256",
          "name": "",
          "type": "uint256"
        }
      ],
      "stateMutability": "view",
      "type": "function"
    },
    {
      "inputs": [
        {
          "internalType": "bytes32",
          "name": "role",
          "type": "bytes32"
        },
        {
          "internalType": "address",
          "name": "callerConfirmation",
          "type": "address"
        }
      ],
      "name": "renounceRole",
      "outputs": [],
      "stateMutability": "nonpayable",
      "type": "function"
    },
    {
      "inputs": [
        {
          "internalType": "uint256",
          "name": "",
          "type": "uint256"
        }
      ],
      "name": "reports",
      "outputs": [
        {
          "internalType": "uint256",
          "name": "id",
          "type": "uint256"
        },
        {
          "internalType": "address",
          "name": "reporter",
          "type": "address"
        },
        {
          "internalType": "address",
          "name": "reportedUser",
          "type": "address"
        },
        {
          "internalType": "enum ModerationSystem.ContentType",
          "name": "contentType",
          "type": "uint8"
        },
        {
          "internalType": "uint256",
          "name": "contentId",
          "type": "uint256"
        },
        {
          "internalType": "enum ModerationSystem.ReportReason",
          "name": "reason",
          "type": "uint8"
        },
        {
          "internalType": "string",
          "name": "description",
          "type": "string"
        },
        {
          "internalType": "uint256",
          "name": "timestamp",
          "type": "uint256"
        },
        {
          "internalType": "enum ModerationSystem.ReportStatus",
          "name": "status",
          "type": "uint8"
        },
        {
          "internalType": "address",
          "name": "assignedModerator",
          "type": "address"
        },
        {
          "internalType": "string",
          "name": "moderatorNotes",
          "type": "string"
        },
        {
          "internalType": "uint256",
          "name": "resolvedTimestamp",
          "type": "uint256"
        }
      ],
      "stateMutability": "view",
      "type": "function"
    },
    {
      "inputs": [
        {
          "internalType": "address",
          "name": "",
          "type": "address"
        },
        {
          "internalType": "uint256",
          "name": "",
          "type": "uint256"
        }
      ],
      "name": "reportsAgainstUser",
      "outputs": [
        {
          "internalType": "uint256",
          "name": "",
          "type": "uint256"
        }
      ],
      "stateMutability": "view",
      "type": "function"
    },
    {
      "inputs": [
        {
          "internalType": "uint256",
          "name": "reportId",
          "type": "uint256"
        },
        {
          "internalType": "enum ModerationSystem.ReportStatus",
          "name": "status",
          "type": "uint8"
        },
        {
          "internalType": "string",
          "name": "moderatorNotes",
          "type": "string"
        },
        {
          "internalType": "enum ModerationSystem.ActionType",
          "name": "actionType",
          "type": "uint8"
        },
        {
          "internalType": "uint256",
          "name": "actionDuration",
          "type": "uint256"
        }
      ],
      "name": "resolveReport",
      "outputs": [],
      "stateMutability": "nonpayable",
      "type": "function"
    },
    {
      "inputs": [
        {
          "internalType": "enum ModerationSystem.ContentType",
          "name": "contentType",
          "type": "uint8"
        },
        {
          "internalType": "uint256",
          "name": "contentId",
          "type": "uint256"
        }
      ],
      "name": "restoreContent",
      "outputs": [],
      "stateMutability": "nonpayable",
      "type": "function"
    },
    {
      "inputs": [
        {
          "internalType": "bytes32",
          "name": "role",
          "type": "bytes32"
        },
        {
          "internalType": "address",
          "name": "account",
          "type": "address"
        }
      ],
      "name": "revokeRole",
      "outputs": [],
      "stateMutability": "nonpayable",
      "type": "function"
    },
    {
      "inputs": [
        {
          "internalType": "address",
          "name": "reportedUser",
          "type": "address"
        },
        {
          "internalType": "enum ModerationSystem.ContentType",
          "name": "contentType",
          "type": "uint8"
        },
        {
          "internalType": "uint256",
          "name": "contentId",
          "type": "uint256"
        },
        {
          "internalType": "enum ModerationSystem.ReportReason",
          "name": "reason",
          "type": "uint8"
        },
        {
          "internalType": "string",
          "name": "description",
          "type": "string"
        }
      ],
      "name": "submitReport",
      "outputs": [
        {
          "internalType": "uint256",
          "name": "",
          "type": "uint256"
        }
      ],
      "stateMutability": "nonpayable",
      "type": "function"
    },
    {
      "inputs": [
        {
          "internalType": "bytes4",
          "name": "interfaceId",
          "type": "bytes4"
        }
      ],
      "name": "supportsInterface",
      "outputs": [
        {
          "internalType": "bool",
          "name": "",
          "type": "bool"
        }
      ],
      "stateMutability": "view",
      "type": "function"
    },
    {
      "inputs": [],
      "name": "totalActions",
      "outputs": [
        {
          "internalType": "uint256",
          "name": "",
          "type": "uint256"
        }
      ],
      "stateMutability": "view",
      "type": "function"
    },
    {
      "inputs": [],
      "name": "totalReports",
      "outputs": [
        {
          "internalType": "uint256",
          "name": "",
          "type": "uint256"
        }
      ],
      "stateMutability": "view",
      "type": "function"
    },
    {
      "inputs": [
        {
          "internalType": "address",
          "name": "userToUnblock",
          "type": "address"
        }
      ],
      "name": "unblockUser",
      "outputs": [],
      "stateMutability": "nonpayable",
      "type": "function"
    },
    {
      "inputs": [],
      "name": "unpause",
      "outputs": [],
      "stateMutability": "nonpayable",
      "type": "function"
    },
    {
      "inputs": [
        {
          "internalType": "address",
          "name": "",
          "type": "address"
        },
        {
          "internalType": "address",
          "name": "",
          "type": "address"
        }
      ],
      "name": "userBlocks",
      "outputs": [
        {
          "internalType": "bool",
          "name": "",
          "type": "bool"
        }
      ],
      "stateMutability": "view",
      "type": "function"
    },
    {
      "inputs": [
        {
          "internalType": "address",
          "name": "",
          "type": "address"
        },
        {
          "internalType": "uint256",
          "name": "",
          "type": "uint256"
        }
      ],
      "name": "userReports",
      "outputs": [
        {
          "internalType": "uint256",
          "name": "",
          "type": "uint256"
        }
      ],
      "stateMutability": "view",
      "type": "function"
    },
    {
      "inputs": [
        {
          "internalType": "address",
          "name": "",
          "type": "address"
        }
      ],
      "name": "userRestrictions",
      "outputs": [
        {
          "internalType": "bool",
          "name": "isRestricted",
          "type": "bool"
        },
        {
          "internalType": "uint256",
          "name": "restrictionExpiry",
          "type": "uint256"
        },
        {
          "internalType": "enum ModerationSystem.ActionType",
          "name": "restrictionType",
          "type": "uint8"
        },
        {
          "internalType": "string",
          "name": "reason",
          "type": "string"
        },
        {
          "internalType": "uint256",
          "name": "warningCount",
          "type": "uint256"
        },
        {
          "internalType": "uint256",
          "name": "lastWarningTime",
          "type": "uint256"
        }
      ],
      "stateMutability": "view",
      "type": "function"
    }
  ],
  "bytecode": "0x60806040523462000036576001805562000019336200003b565b506200002533620000bb565b5060405161278d90816200015e8239f35b600080fd5b6001600160a01b031660008181527fad3228b676f7d3cd4284a5443f17f1962b36e491b30a40b2405849e597ba5fb5602052604081205490919060ff16620000b757818052816020526040822081835260205260408220600160ff198254161790553391600080516020620028eb8339815191528180a4600190565b5090565b6001600160a01b031660008181527ff179aafcc4ff8137fca1ef3b9ec4d165f87016ba123e7973fba770bc55e240e360205260408120549091907f71f3d55856e4058ed06ee057d79ada615f65cdf5f9ee88181b914225088f834f9060ff166200015857808352826020526040832082845260205260408320600160ff19825416179055600080516020620028eb833981519152339380a4600190565b50509056fe608080604052600436101561001357600080fd5b60003560e01c90816301ffc9a714612003575080630b2c233c14611fe75780630d92e2c414611fa6578063248a9ca314611f77578063281a85d614611f5b5780632f2ff15d14611f1c57806336568abe14611ed55780633904e5a614611d6257806339d319e514611c875780633da0132514611b635780633f4ba83a14611af95780634bb2e3d814611aaf57806355f8aedb146102bf5780635a345e4614611a575780635c975abb14611a345780636e231a4a14611a1657806370a05afc1461199b578063797669c9146119605780637a00b518146119255780637ad04c001461188c5780638456cb591461183257806389cc11fc146105f45780638e44b575146117fc57806391d14854146117af5780639b600990146110385780639e62f44214610f7e578063a217fddf14610f62578063aba6333b14610706578063b00eba4f146106e8578063bb991060146106ca578063c3867d191461064a578063c7e1a8f0146105f4578063c91074e314610577578063c942adf714610474578063ca52393914610300578063cb6a50d2146102bf578063d547741f1461027e578063fcf5c620146102605763fe8f412a146101cc57600080fd5b3461025b5760208060031936011261025b576101e6612056565b6101ee612531565b6001600160a01b0316600090815260076020908152604080832090518154808252918452828420928101949093905b82821061024457610240856102348189038261214f565b6040519182918261208c565b0390f35b83548652948501946001938401939091019061021d565b600080fd5b3461025b57600036600319011261025b57602060405162093a808152f35b3461025b57604036600319011261025b576102bd60043561029d61206c565b908060005260006020526102b86001604060002001546125e5565b612689565b005b3461025b576102cd366120f6565b906102d781612082565b6000526008602052604060002090600052602052602060ff604060002054166040519015158152f35b3461025b5760208060031936011261025b576004359061031e612531565b81151580610468575b610330906124f1565b816000526003815260ff6007604060002001541660048110156104525761041957600082815260038252604090206007015460081c6001600160a01b03166103d55760008281526003909152604090206007018054610100600160a81b0319163360081b610100600160a81b0316178155805460ff1916600117905533907f7714396770b81a9cc866b004a57bfb821e91ddb4851df34b4511d751a6dc421e600080a3005b6064906040519062461bcd60e51b82526004820152601760248201527f5265706f727420616c72656164792061737369676e65640000000000000000006044820152fd5b6064906040519062461bcd60e51b8252600482015260126024820152715265706f7274206e6f742070656e64696e6760701b6044820152fd5b634e487b7160e01b600052602160045260246000fd5b50600a54821115610327565b3461025b57602036600319011261025b57600435600052600360205260206040600020805460018060a01b0390816001840154169160028401549360ff8560a01c169160038201549560ff6004840154166104d160058501612170565b976006850154958460078701549460096104ed60088a01612170565b9801549a6040519d8e6101809c815201521660408c015261050d81612082565b60608b015260808a0152600781101561045257889761056c9661053d9260a08b01528060c08b0152890190612215565b9360e0880152610554610100880160ff83166122ab565b60081c16610120860152848203610140860152612215565b906101608301520390f35b3461025b57610585366120f6565b61058d612531565b61059682612082565b816000526008602052604060002081600052602052604060002060ff198154169055604051916105c581612082565b825260208201527f8f55cf6991bb83ec558ade2589e6c50d52f3e15a3b8bfd4b00b4b7cf1e224f7460403392a2005b3461025b57604036600319011261025b5761060d612056565b61061561206c565b9060018060a01b03809116600052600960205260406000209116600052602052602060ff604060002054166040519015158152f35b3461025b57610658366120f6565b610660612531565b61066982612082565b8160005260086020526040600020816000526020526040600020600160ff198254161790556040519161069b81612082565b825260208201527fa782842c7d585327bb631ec33655a34f4687eda781d85d2f5e8a613885bd1ec060403392a2005b3461025b57600036600319011261025b576020600b54604051908152f35b3461025b57600036600319011261025b576020600a54604051908152f35b3461025b5760a036600319011261025b576004602435101561025b576044356001600160401b03811161025b57610741903690600401612255565b6005606435101561025b57610754612531565b600435151580610f54575b610768906124f1565b6004356000908152600360205260409020600701543360089190911c6001600160a01b031603610f1957600435600052600360205260ff60076040600020015416600481101561045257600103610ed4576024356002146000818015610ec5575b15610e8f5760043560005260036020526107ec602435600760406000200161249f565b6004356000526003602052600860406000200183516001600160401b038111610c2e576108238161081d8454612115565b8461245a565b806020601f8211600114610e2857600091610e1d575b508160011b916000199060031b1c19161790555b600435600052600360205242600960406000200155600c548015610dff5760001901600c55610452576108b6575b60405161088a816024356122ab565b33907fb6d3e91657397f44c88ba3a60b8f381465826cb78cf55cac6595d47727075e35602060043592a3005b600435600052600360205260018060a01b03600260406000200154166108dd600b546123dd565b80600b556108ec606435612082565b606435600203610e15576084354201804211610dff57905b60405190816101208101106001600160401b0361012084011117610c2e576101208201604052808252600435602083015233604083015283606083015261094c606435612082565b60643560808301528460a08301524260c08301528260e083015260016101008301526000526004602052604060002081518155602082015160018201556002810160018060a01b036040840151166bffffffffffffffffffffffff60a01b8254161790556003810160018060a01b0360608401511681549060808501516109d281612082565b6109db81612082565b6001600160a81b03199092161760a091821b60ff60a01b16179091558201518051906001600160401b038211610c2e57610a2582610a1c6004860154612115565b6004860161245a565b602090601f8311600114610d895791806101009492600794600092610d7e575b50508160011b916000199060031b1c19161760048201555b60c0840151600582015560e0840151600682015501910151151560ff80198354169116179055610a8e606435612082565b606435610b0c575080915060005260056020526004604060002001610ab381546123dd565b9055806000526005602052426005604060002001555b600b5460405190610adb606435612082565b60643582527f59dad93d5351c08c35e226ef0465440ece57b46380155c4e0464039824e4de1960203393a48061087b565b610b17606435612082565b600260643514600260643503610d67575b15610c4457610b5c90826000526005602052604060002090600160ff1983541617825560018201556002606435910161273f565b806000526005602052600360406000200182516001600160401b038111610c2e57610b8b8161081d8454612115565b6020601f8211600114610bc85781929394600092610bbd575b50508160011b916000199060031b1c1916179055610ac9565b015190508480610ba4565b601f198216908360005260206000209160005b818110610c1657509583600195969710610bfd575b505050811b019055610ac9565b015160001960f88460031b161c19169055848080610bf0565b9192602060018192868b015181550194019201610bdb565b634e487b7160e01b600052604160045260246000fd5b5090610c51606435612082565b600360643514610c62575b50610ac9565b90806000526005602052610c936040600020600160ff1982541617815560001960018201556002606435910161273f565b806000526005602052600360406000200182516001600160401b038111610c2e57610cc28161081d8454612115565b6020601f8211600114610d015781929394600092610cf6575b50508160011b916000199060031b1c19161790555b81610c5c565b015190508480610cdb565b601f198216908360005260206000209160005b818110610d4f57509583600195969710610d36575b505050811b019055610cf0565b015160001960f88460031b161c19169055848080610d29565b9192602060018192868b015181550194019201610d14565b50610d73606435612082565b600460643514610b28565b015190508980610a45565b906004840160005260206000209160005b601f1985168110610de7575092610100949260019260079583601f19811610610dce575b505050811b016004820155610a5d565b015160001960f88460031b161c19169055898080610dbe565b91926020600181928685015181550194019201610d9a565b634e487b7160e01b600052601160045260246000fd5b600090610904565b905085015186610839565b91508260005260206000206000925b601f1983168410610e77576001935082601f19811610610e5e575b5050811b01905561084d565b87015160001960f88460031b161c191690558680610e52565b87810151825560209384019360019092019101610e37565b60405162461bcd60e51b815260206004820152600e60248201526d496e76616c69642073746174757360901b6044820152606490fd5b505060006003602435146107c9565b60405162461bcd60e51b815260206004820152601760248201527f5265706f7274206e6f7420756e646572207265766965770000000000000000006044820152606490fd5b60405162461bcd60e51b81526020600482015260136024820152724e6f742061737369676e656420746f20796f7560681b6044820152606490fd5b50600a54600435111561075f565b3461025b57600036600319011261025b57602060405160008152f35b3461025b57602036600319011261025b5760043560005260046020526040600020805460018201549060018060a01b0390816002850154169361102160038201549260ff8460a01c1690610fd460048501612170565b9160058501549660ff6007600688015497015416966040519a8b9a610120958c5260208c015260408b015216606089015261100e81612082565b60808801528060a0880152860190612215565b9260c085015260e084015215156101008301520390f35b3461025b5760a036600319011261025b57611051612056565b6005602435101561025b576007606435101561025b576084356001600160401b03811161025b57611086903690600401612255565b9061108f6126fe565b611097612721565b6001600160a01b03811615611772576001600160a01b0381163314611734578151156116f8576103e88251116116bc576110d2600a546123dd565b80600a556110e1600c546123dd565b600c556040519261018084018481106001600160401b03821117610c2e5760409081528285523360208601526001600160a01b03841690850152611126602435612082565b6024356060850152604435608085015260643560a085015260c08401524260e0840152600061010084015260006101208401526040518060208101106001600160401b03602083011117610c2e576020810160405260008152610140840152600061016084015260005260036020526040600020825181556001810160018060a01b036020850151166bffffffffffffffffffffffff60a01b8254161790556002810160018060a01b0360408501511681549060608601516111e781612082565b6111f081612082565b6001600160a81b03199092161760a091821b60ff60a01b16179091556080840151600383015583015160078110156104525760ff8019600484015416911617600482015560c08301519283516001600160401b038111610c2e576112648161125b6005860154612115565b6005860161245a565b6020601f821160011461164d578192939495600092611642575b50508160011b916000199060031b1c19161760058301555b60e08101516006830155610100810151600783016004821015610452576112c06112e8928261249f565b6101208301518154610100600160a81b03191660089190911b610100600160a81b0316179055565b6101408101518051906001600160401b038211610c2e57611319826113106008870154612115565b6008870161245a565b602090601f83116001146115cc57918060099492610160946000926115c1575b50508160011b916000199060031b1c19161760088501555b01519101553360005260066020526113706040600020600a54906124b7565b6001600160a01b0381166000908152600760205260409020600a54611394916124b7565b600a546040516113a5602435612082565b602435815260443560208201526001600160a01b0383169133917f8542d3cd293c82cec256200b08fac66e5eb350da6cc883356b7aebf0e9ea497690604090a4600090426201517f19810111610dff5760018060a01b03811660005260076020526040600020916040518084602082965493848152019060005260206000209260005b8181106115a857505061143d9250038461214f565b60005b835181101561148e5761145381856123ec565b5160005260036020526201517f1942016006604060002001541161147a575b600101611440565b906114866001916123dd565b919050611472565b506005111580611585575b6114af575b6020600a5460018055604051908152f35b6001600160a01b0381166000908152600560205260409020805460ff1916600117905542620151808101908110610dff5760039160018060a01b03166000526005602052604060002090600182015560028101600260ff19825416179055016115188154612115565b601f8111611560575b5060438155600052607360f81b600160206000207f4175746f2d6d6f6465726174696f6e3a204d756c7469706c65207265706f7274815501558061149e565b61157f90826000526002601f6020600020920160051c82019101612443565b81611521565b506001600160a01b03811660009081526005602052604090205460ff1615611499565b8454835260019485019488945060209093019201611428565b015190508780611339565b906008850160005260206000209160005b601f198516811061162a575092600994926001926101609583601f19811610611611575b505050811b016008850155611351565b015160001960f88460031b161c19169055878080611601565b919260206001819286850151815501940192016115dd565b01519050858061127e565b6005840160005260206000209060005b601f19841681106116a4575060019394959683601f1981161061168b575b505050811b016005830155611296565b015160001960f88460031b161c1916905585808061167b565b9091602060018192858b01518155019301910161165d565b60405162461bcd60e51b81526020600482015260146024820152734465736372697074696f6e20746f6f206c6f6e6760601b6044820152606490fd5b60405162461bcd60e51b815260206004820152601460248201527311195cd8dc9a5c1d1a5bdb881c995c5d5a5c995960621b6044820152606490fd5b60405162461bcd60e51b815260206004820152601660248201527521b0b73737ba103932b837b93a103cb7bab939b2b63360511b6044820152606490fd5b60405162461bcd60e51b815260206004820152601560248201527424b73b30b634b2103932b837b93a32b2103ab9b2b960591b6044820152606490fd5b3461025b57604036600319011261025b576117c861206c565b600435600052600060205260406000209060018060a01b0316600052602052602060ff604060002054166040519015158152f35b3461025b57600036600319011261025b576080600a54600c54600b54906040519283526020830152604082015260006060820152f35b3461025b57600036600319011261025b5761184b6125ab565b611853612721565b600160ff1960025416176002557f62e78cea01bee320cd4e420270b5ea74000d11b0c9f74754ebdbfc544b05a2586020604051338152a1005b3461025b57602036600319011261025b576001600160a01b036118ad612056565b166000526005602052604060002060ff81541660018201549160ff6002820154166119166118dd60038401612170565b600560048501549401549260405196879615158752602087015261190081612082565b604086015260c0606086015260c0850190612215565b91608084015260a08301520390f35b3461025b57600036600319011261025b5760206040517f514fd7e005d1d3929fce6a1b13b25bf6a31ab71fa67082c43de4f18a66444a558152f35b3461025b57600036600319011261025b5760206040517f71f3d55856e4058ed06ee057d79ada615f65cdf5f9ee88181b914225088f834f8152f35b3461025b5760208060031936011261025b576001600160a01b036119bd612056565b1660005260066020526040600020906040519081602084549182815201936000526020600020916000905b8282106119ff57610240856102348189038261214f565b8354865294850194600193840193909101906119e8565b3461025b57600036600319011261025b576020600c54604051908152f35b3461025b57600036600319011261025b57602060ff600254166040519015158152f35b3461025b57604036600319011261025b57611a70612056565b6001600160a01b031660009081526006602052604090208054602435919082101561025b57602091611aa1916120c8565b90546040519160031b1c8152f35b3461025b57604036600319011261025b57611ac8612056565b6001600160a01b031660009081526007602052604090208054602435919082101561025b57602091611aa1916120c8565b3461025b57600036600319011261025b57611b126125ab565b60025460ff811615611b515760ff19166002557f5db9ee0a495bf2e6ff9c91a7834c1ba4fdd244a5e8aa4e537bd38aeae4b073aa6020604051338152a1005b604051638dfc202b60e01b8152600490fd5b3461025b5760208060031936011261025b57611b7d612056565b611b856126fe565b6001600160a01b031690611b9a821515612400565b338214611c4b573360005260098152604060002082600052815260ff60406000205416611c1057336000526009815260406000209082600052526040600020600160ff19825416179055337f3d76c88b04bca9304ddabcfabdd594e649c10be33d0519e4b9842431cbe57e2c600080a360018055005b6064906040519062461bcd60e51b825260048201526014602482015273155cd95c88185b1c9958591e48189b1bd8dad95960621b6044820152fd5b6064906040519062461bcd60e51b82526004820152601560248201527421b0b73737ba10313637b1b5903cb7bab939b2b63360591b6044820152fd5b3461025b5760208060031936011261025b57611ca1612056565b611ca96126fe565b6001600160a01b031690611cbe821515612400565b3360005260098152604060002082600052815260ff6040600020541615611d2b5733600052600981526040600020908260005252604060002060ff198154169055337fdabcca1ac97c7d80dd63b7bd70c95d1552b8a24b11a129187f4ad5da004be19f600080a360018055005b6064906040519062461bcd60e51b82526004820152601060248201526f155cd95c881b9bdd08189b1bd8dad95960821b6044820152fd5b3461025b57604036600319011261025b5760246004358135611d82612531565b60328111611e9f579190611d95836123ab565b91600091600091600195866001600a54915b611df2575b505050505050611dbb816123ab565b9160005b828110611dd45760405180610240868261208c565b80611de08692846123ec565b51611deb82876123ec565b5201611dbf565b8181111580611e96575b15611e915780600052600360205260ff600760406000200154166004811015611e7c579089959493929115611e3f575b611e35906123dd565b9091929394611da7565b96848710611e6857611e5f8189611e59611e35948d6123ec565b526123dd565b975b9050611e2c565b9695611e76611e35916123dd565b96611e61565b84634e487b7160e01b60005260216004526000fd5b611dac565b50828710611dfc565b60405162461bcd60e51b815260206004820152600e60248201526d098d2dad2e840e8dede40d0d2ced60931b6044820152606490fd5b3461025b57604036600319011261025b57611eee61206c565b336001600160a01b03821603611f0a576102bd90600435612689565b60405163334bd91960e11b8152600490fd5b3461025b57604036600319011261025b576102bd600435611f3b61206c565b90806000526000602052611f566001604060002001546125e5565b61260b565b3461025b57600036600319011261025b57602060405160058152f35b3461025b57602036600319011261025b5760043560005260006020526020600160406000200154604051908152f35b3461025b57602036600319011261025b576060611fc9611fc4612056565b6122b8565b906040519215158352611fdb81612082565b60208301526040820152f35b3461025b57600036600319011261025b57602060405160038152f35b3461025b57602036600319011261025b576004359063ffffffff60e01b821680920361025b57602091637965db0b60e01b8114908115612045575b5015158152f35b6301ffc9a760e01b1490508361203e565b600435906001600160a01b038216820361025b57565b602435906001600160a01b038216820361025b57565b6005111561045257565b602090602060408183019282815285518094520193019160005b8281106120b4575050505090565b8351855293810193928101926001016120a6565b80548210156120e05760005260206000200190600090565b634e487b7160e01b600052603260045260246000fd5b604090600319011261025b57600435600581101561025b579060243590565b90600182811c92168015612145575b602083101461212f57565b634e487b7160e01b600052602260045260246000fd5b91607f1691612124565b90601f801991011681019081106001600160401b03821117610c2e57604052565b9060405191826000825461218381612115565b908184526020946001916001811690816000146121f357506001146121b4575b5050506121b29250038361214f565b565b600090815285812095935091905b8183106121db5750506121b293508201013880806121a3565b855488840185015294850194879450918301916121c2565b925050506121b294925060ff191682840152151560051b8201013880806121a3565b919082519283825260005b848110612241575050826000602080949584010152601f8019910116010190565b602081830181015184830182015201612220565b81601f8201121561025b578035906001600160401b038211610c2e5760405192612289601f8401601f19166020018561214f565b8284526020838301011161025b57816000926020809301838601378301015290565b9060048210156104525752565b6001600160a01b03166000908152600560205260408082209051929160c084016001600160401b038111858210176123805760405260ff8254161515845260018201549360208101948552600560ff60028501541693604083019461231c81612082565b855261232a60038201612170565b606084015260048101546080840152015460a0820152511561236d5783516000198114159081612376575b5061236d5750519161236683612082565b5160019291565b92508291829150565b9050421138612355565b634e487b7160e01b82526041600452602482fd5b6001600160401b038111610c2e5760051b60200190565b906123b582612394565b6123c2604051918261214f565b82815280926123d3601f1991612394565b0190602036910137565b6000198114610dff5760010190565b80518210156120e05760209160051b010190565b1561240757565b60405162461bcd60e51b8152602060048201526014602482015273496e76616c69642075736572206164647265737360601b6044820152606490fd5b81811061244e575050565b60008155600101612443565b9190601f811161246957505050565b6121b2926000526020600020906020601f840160051c83019310612495575b601f0160051c0190612443565b9091508190612488565b9060048110156104525760ff80198354169116179055565b805468010000000000000000811015610c2e576124d9916001820181556120c8565b819291549060031b91821b91600019901b1916179055565b156124f857565b60405162461bcd60e51b8152602060048201526011602482015270125b9d985b1a59081c995c1bdc9d081251607a1b6044820152606490fd5b3360009081527ff179aafcc4ff8137fca1ef3b9ec4d165f87016ba123e7973fba770bc55e240e360205260409020547f71f3d55856e4058ed06ee057d79ada615f65cdf5f9ee88181b914225088f834f9060ff161561258d5750565b6044906040519063e2517d3f60e01b82523360048301526024820152fd5b3360009081527fad3228b676f7d3cd4284a5443f17f1962b36e491b30a40b2405849e597ba5fb5602052604081205460ff161561258d5750565b80600052600060205260406000203360005260205260ff604060002054161561258d5750565b9060009180835282602052604083209160018060a01b03169182845260205260ff6040842054161560001461268457808352826020526040832082845260205260408320600160ff198254161790557f2f8788117e7eff1d82e926ec794901d17c78024a50270940304540a733656f0d339380a4600190565b505090565b9060009180835282602052604083209160018060a01b03169182845260205260ff6040842054166000146126845780835282602052604083208284526020526040832060ff1981541690557ff6391f5c32d9c69d2a47ea670b442974b53935d1edc7fd64eb21e047a839171b339380a4600190565b60026001541461270f576002600155565b604051633ee5aeb560e01b8152600490fd5b60ff6002541661272d57565b60405163d93c066560e01b8152600490fd5b9061274981612082565b60ff8019835416911617905556fea2646970667358221220830541b93b05eda041fffe6a7aa029d8062810cb108a6a9d6cda3b2a8e321f2d64736f6c634300081800332f8788117e7eff1d82e926ec794901d17c78024a50270940304540a733656f0d",
  "linkReferences": {},
  "deployedLinkReferences": {}
}