{
  "_format": "hh-sol-artifact-1",
  "contractName": "NFTRental",
  "sourceName": "contracts/NFTRental.sol",
  "abi": [
    {
      "inputs": [
        {
          "internalType": "address",
          "name": "_paymentToken",
          "type": "address"
        },
        {
          "internalType": "address",
          "name": "_feeRecipient",
          "type": "address"
        }
      ],
      "stateMutability": "nonpayable",
      "type": "constructor"
    },
    {
      "inputs": [
        {
          "internalType": "address",
          "name": "owner",
          "type": "address"
        }
      ],
      "name": "OwnableInvalidOwner",
      "type": "error"
    },
    {
      "inputs": [
        {
          "internalType": "address",
          "name": "account",
          "type": "address"
        }
      ],
      "name": "OwnableUnauthorizedAccount",
      "type": "error"
    },
    {
      "inputs": [],
      "name": "ReentrancyGuardReentrantCall",
      "type": "error"
    },
    {
      "anonymous": false,
      "inputs": [
        {
          "indexed": false,
          "internalType": "address",
          "name": "oldRecipient",
          "type": "address"
        },
        {
          "indexed": false,
          "internalType": "address",
          "name": "newRecipient",
          "type": "address"
        }
      ],
      "name": "FeeRecipientUpdated",
      "type": "event"
    },
    {
      "anonymous": false,
      "inputs": [
        {
          "indexed": true,
          "internalType": "bytes32",
          "name": "listingId",
          "type": "bytes32"
        }
      ],
      "name": "ListingCancelled",
      "type": "event"
    },
    {
      "anonymous": false,
      "inputs": [
        {
          "indexed": true,
          "internalType": "bytes32",
          "name": "listingId",
          "type": "bytes32"
        },
        {
          "indexed": false,
          "internalType": "uint256",
          "name": "newPricePerDay",
          "type": "uint256"
        }
      ],
      "name": "ListingUpdated",
      "type": "event"
    },
    {
      "anonymous": false,
      "inputs": [
        {
          "indexed": true,
          "internalType": "address",
          "name": "nftContract",
          "type": "address"
        },
        {
          "indexed": false,
          "internalType": "bool",
          "name": "allowed",
          "type": "bool"
        }
      ],
      "name": "NFTContractAllowed",
      "type": "event"
    },
    {
      "anonymous": false,
      "inputs": [
        {
          "indexed": true,
          "internalType": "bytes32",
          "name": "listingId",
          "type": "bytes32"
        },
        {
          "indexed": true,
          "internalType": "address",
          "name": "owner",
          "type": "address"
        },
        {
          "indexed": false,
          "internalType": "address",
          "name": "nftContract",
          "type": "address"
        },
        {
          "indexed": false,
          "internalType": "uint256",
          "name": "tokenId",
          "type": "uint256"
        },
        {
          "indexed": false,
          "internalType": "uint256",
          "name": "pricePerDay",
          "type": "uint256"
        }
      ],
      "name": "NFTListed",
      "type": "event"
    },
    {
      "anonymous": false,
      "inputs": [
        {
          "indexed": true,
          "internalType": "bytes32",
          "name": "rentalId",
          "type": "bytes32"
        },
        {
          "indexed": true,
          "internalType": "bytes32",
          "name": "listingId",
          "type": "bytes32"
        },
        {
          "indexed": true,
          "internalType": "address",
          "name": "renter",
          "type": "address"
        },
        {
          "indexed": false,
          "internalType": "uint256",
          "name": "rentalDays",
          "type": "uint256"
        },
        {
          "indexed": false,
          "internalType": "uint256",
          "name": "totalPrice",
          "type": "uint256"
        }
      ],
      "name": "NFTRented",
      "type": "event"
    },
    {
      "anonymous": false,
      "inputs": [
        {
          "indexed": true,
          "internalType": "bytes32",
          "name": "rentalId",
          "type": "bytes32"
        },
        {
          "indexed": true,
          "internalType": "address",
          "name": "renter",
          "type": "address"
        },
        {
          "indexed": false,
          "internalType": "uint256",
          "name": "collateralReturned",
          "type": "uint256"
        }
      ],
      "name": "NFTReturned",
      "type": "event"
    },
    {
      "anonymous": false,
      "inputs": [
        {
          "indexed": true,
          "internalType": "address",
          "name": "previousOwner",
          "type": "address"
        },
        {
          "indexed": true,
          "internalType": "address",
          "name": "newOwner",
          "type": "address"
        }
      ],
      "name": "OwnershipTransferred",
      "type": "event"
    },
    {
      "anonymous": false,
      "inputs": [
        {
          "indexed": false,
          "internalType": "uint256",
          "name": "oldFee",
          "type": "uint256"
        },
        {
          "indexed": false,
          "internalType": "uint256",
          "name": "newFee",
          "type": "uint256"
        }
      ],
      "name": "ProtocolFeeUpdated",
      "type": "event"
    },
    {
      "anonymous": false,
      "inputs": [
        {
          "indexed": true,
          "internalType": "address",
          "name": "referrer",
          "type": "address"
        },
        {
          "indexed": true,
          "internalType": "address",
          "name": "user",
          "type": "address"
        },
        {
          "indexed": false,
          "internalType": "uint256",
          "name": "amount",
          "type": "uint256"
        }
      ],
      "name": "ReferralPaid",
      "type": "event"
    },
    {
      "anonymous": false,
      "inputs": [
        {
          "indexed": true,
          "internalType": "address",
          "name": "user",
          "type": "address"
        },
        {
          "indexed": true,
          "internalType": "address",
          "name": "referrer",
          "type": "address"
        }
      ],
      "name": "ReferrerSet",
      "type": "event"
    },
    {
      "inputs": [],
      "name": "MAX_OVERDUE_DAYS",
      "outputs": [
        {
          "internalType": "uint256",
          "name": "",
          "type": "uint256"
        }
      ],
      "stateMutability": "view",
      "type": "function"
    },
    {
      "inputs": [],
      "name": "MAX_PROTOCOL_FEE",
      "outputs": [
        {
          "internalType": "uint256",
          "name": "",
          "type": "uint256"
        }
      ],
      "stateMutability": "view",
      "type": "function"
    },
    {
      "inputs": [
        {
          "internalType": "address",
          "name": "nftContract",
          "type": "address"
        },
        {
          "internalType": "bool",
          "name": "allowed",
          "type": "bool"
        }
      ],
      "name": "allowNFTContract",
      "outputs": [],
      "stateMutability": "nonpayable",
      "type": "function"
    },
    {
      "inputs": [
        {
          "internalType": "address",
          "name": "",
          "type": "address"
        }
      ],
      "name": "allowedNFTContracts",
      "outputs": [
        {
          "internalType": "bool",
          "name": "",
          "type": "bool"
        }
      ],
      "stateMutability": "view",
      "type": "function"
    },
    {
      "inputs": [
        {
          "internalType": "bytes32",
          "name": "listingId",
          "type": "bytes32"
        }
      ],
      "name": "cancelListing",
      "outputs": [],
      "stateMutability": "nonpayable",
      "type": "function"
    },
    {
      "inputs": [
        {
          "internalType": "bytes32",
          "name": "rentalId",
          "type": "bytes32"
        }
      ],
      "name": "claimOverdueNFT",
      "outputs": [],
      "stateMutability": "nonpayable",
      "type": "function"
    },
    {
      "inputs": [],
      "name": "feeRecipient",
      "outputs": [
        {
          "internalType": "address",
          "name": "",
          "type": "address"
        }
      ],
      "stateMutability": "view",
      "type": "function"
    },
    {
      "inputs": [
        {
          "internalType": "address",
          "name": "owner",
          "type": "address"
        }
      ],
      "name": "getOwnerListings",
      "outputs": [
        {
          "components": [
            {
              "internalType": "address",
              "name": "nftContract",
              "type": "address"
            },
            {
              "internalType": "uint256",
              "name": "tokenId",
              "type": "uint256"
            },
            {
              "internalType": "address",
              "name": "owner",
              "type": "address"
            },
            {
              "internalType": "uint256",
              "name": "pricePerDay",
              "type": "uint256"
            },
            {
              "internalType": "uint256",
              "name": "minRentalDays",
              "type": "uint256"
            },
            {
              "internalType": "uint256",
              "name": "maxRentalDays",
              "type": "uint256"
            },
            {
              "internalType": "uint256",
              "name": "collateralAmount",
              "type": "uint256"
            },
            {
              "internalType": "bool",
              "name": "isActive",
              "type": "bool"
            },
            {
              "internalType": "uint256",
              "name": "listedAt",
              "type": "uint256"
            }
          ],
          "internalType": "struct NFTRental.RentalListing[]",
          "name": "",
          "type": "tuple[]"
        }
      ],
      "stateMutability": "view",
      "type": "function"
    },
    {
      "inputs": [
        {
          "internalType": "address",
          "name": "renter",
          "type": "address"
        }
      ],
      "name": "getRenterAgreements",
      "outputs": [
        {
          "components": [
            {
              "internalType": "bytes32",
              "name": "listingId",
              "type": "bytes32"
            },
            {
              "internalType": "address",
              "name": "renter",
              "type": "address"
            },
            {
              "internalType": "uint256",
              "name": "rentalStart",
              "type": "uint256"
            },
            {
              "internalType": "uint256",
              "name": "rentalEnd",
              "type": "uint256"
            },
            {
              "internalType": "uint256",
              "name": "totalPrice",
              "type": "uint256"
            },
            {
              "internalType": "uint256",
              "name": "collateralPaid",
              "type": "uint256"
            },
            {
              "internalType": "bool",
              "name": "isActive",
              "type": "bool"
            },
            {
              "internalType": "bool",
              "name": "isReturned",
              "type": "bool"
            },
            {
              "internalType": "uint256",
              "name": "returnedAt",
              "type": "uint256"
            }
          ],
          "internalType": "struct NFTRental.RentalAgreement[]",
          "name": "",
          "type": "tuple[]"
        }
      ],
      "stateMutability": "view",
      "type": "function"
    },
    {
      "inputs": [
        {
          "internalType": "address",
          "name": "nftContract",
          "type": "address"
        },
        {
          "internalType": "uint256",
          "name": "tokenId",
          "type": "uint256"
        },
        {
          "internalType": "uint256",
          "name": "pricePerDay",
          "type": "uint256"
        },
        {
          "internalType": "uint256",
          "name": "minRentalDays",
          "type": "uint256"
        },
        {
          "internalType": "uint256",
          "name": "maxRentalDays",
          "type": "uint256"
        },
        {
          "internalType": "uint256",
          "name": "collateralAmount",
          "type": "uint256"
        }
      ],
      "name": "listNFTForRent",
      "outputs": [
        {
          "internalType": "bytes32",
          "name": "",
          "type": "bytes32"
        }
      ],
      "stateMutability": "nonpayable",
      "type": "function"
    },
    {
      "inputs": [
        {
          "internalType": "bytes32",
          "name": "",
          "type": "bytes32"
        }
      ],
      "name": "listings",
      "outputs": [
        {
          "internalType": "address",
          "name": "nftContract",
          "type": "address"
        },
        {
          "internalType": "uint256",
          "name": "tokenId",
          "type": "uint256"
        },
        {
          "internalType": "address",
          "name": "owner",
          "type": "address"
        },
        {
          "internalType": "uint256",
          "name": "pricePerDay",
          "type": "uint256"
        },
        {
          "internalType": "uint256",
          "name": "minRentalDays",
          "type": "uint256"
        },
        {
          "internalType": "uint256",
          "name": "maxRentalDays",
          "type": "uint256"
        },
        {
          "internalType": "uint256",
          "name": "collateralAmount",
          "type": "uint256"
        },
        {
          "internalType": "bool",
          "name": "isActive",
          "type": "bool"
        },
        {
          "internalType": "uint256",
          "name": "listedAt",
          "type": "uint256"
        }
      ],
      "stateMutability": "view",
      "type": "function"
    },
    {
      "inputs": [],
      "name": "owner",
      "outputs": [
        {
          "internalType": "address",
          "name": "",
          "type": "address"
        }
      ],
      "stateMutability": "view",
      "type": "function"
    },
    {
      "inputs": [
        {
          "internalType": "address",
          "name": "",
          "type": "address"
        },
        {
          "internalType": "uint256",
          "name": "",
          "type": "uint256"
        }
      ],
      "name": "ownerListings",
      "outputs": [
        {
          "internalType": "bytes32",
          "name": "",
          "type": "bytes32"
        }
      ],
      "stateMutability": "view",
      "type": "function"
    },
    {
      "inputs": [],
      "name": "paymentToken",
      "outputs": [
        {
          "internalType": "contract IERC20",
          "name": "",
          "type": "address"
        }
      ],
      "stateMutability": "view",
      "type": "function"
    },
    {
      "inputs": [],
      "name": "protocolFee",
      "outputs": [
        {
          "internalType": "uint256",
          "name": "",
          "type": "uint256"
        }
      ],
      "stateMutability": "view",
      "type": "function"
    },
    {
      "inputs": [],
      "name": "referralFeeShare",
      "outputs": [
        {
          "internalType": "uint256",
          "name": "",
          "type": "uint256"
        }
      ],
      "stateMutability": "view",
      "type": "function"
    },
    {
      "inputs": [],
      "name": "renounceOwnership",
      "outputs": [],
      "stateMutability": "nonpayable",
      "type": "function"
    },
    {
      "inputs": [
        {
          "internalType": "bytes32",
          "name": "listingId",
          "type": "bytes32"
        },
        {
          "internalType": "uint256",
          "name": "rentalDays",
          "type": "uint256"
        }
      ],
      "name": "rentNFT",
      "outputs": [
        {
          "internalType": "bytes32",
          "name": "",
          "type": "bytes32"
        }
      ],
      "stateMutability": "nonpayable",
      "type": "function"
    },
    {
      "inputs": [
        {
          "internalType": "bytes32",
          "name": "",
          "type": "bytes32"
        }
      ],
      "name": "rentals",
      "outputs": [
        {
          "internalType": "bytes32",
          "name": "listingId",
          "type": "bytes32"
        },
        {
          "internalType": "address",
          "name": "renter",
          "type": "address"
        },
        {
          "internalType": "uint256",
          "name": "rentalStart",
          "type": "uint256"
        },
        {
          "internalType": "uint256",
          "name": "rentalEnd",
          "type": "uint256"
        },
        {
          "internalType": "uint256",
          "name": "totalPrice",
          "type": "uint256"
        },
        {
          "internalType": "uint256",
          "name": "collateralPaid",
          "type": "uint256"
        },
        {
          "internalType": "bool",
          "name": "isActive",
          "type": "bool"
        },
        {
          "internalType": "bool",
          "name": "isReturned",
          "type": "bool"
        },
        {
          "internalType": "uint256",
          "name": "returnedAt",
          "type": "uint256"
        }
      ],
      "stateMutability": "view",
      "type": "function"
    },
    {
      "inputs": [
        {
          "internalType": "address",
          "name": "",
          "type": "address"
        },
        {
          "internalType": "uint256",
          "name": "",
          "type": "uint256"
        }
      ],
      "name": "renterAgreements",
      "outputs": [
        {
          "internalType": "bytes32",
          "name": "",
          "type": "bytes32"
        }
      ],
      "stateMutability": "view",
      "type": "function"
    },
    {
      "inputs": [
        {
          "internalType": "bytes32",
          "name": "rentalId",
          "type": "bytes32"
        }
      ],
      "name": "returnNFT",
      "outputs": [],
      "stateMutability": "nonpayable",
      "type": "function"
    },
    {
      "inputs": [
        {
          "internalType": "address",
          "name": "referrer",
          "type": "address"
        }
      ],
      "name": "setReferrer",
      "outputs": [],
      "stateMutability": "nonpayable",
      "type": "function"
    },
    {
      "inputs": [
        {
          "internalType": "address",
          "name": "newOwner",
          "type": "address"
        }
      ],
      "name": "transferOwnership",
      "outputs": [],
      "stateMutability": "nonpayable",
      "type": "function"
    },
    {
      "inputs": [
        {
          "internalType": "address",
          "name": "newRecipient",
          "type": "address"
        }
      ],
      "name": "updateFeeRecipient",
      "outputs": [],
      "stateMutability": "nonpayable",
      "type": "function"
    },
    {
      "inputs": [
        {
          "internalType": "bytes32",
          "name": "listingId",
          "type": "bytes32"
        },
        {
          "internalType": "uint256",
          "name": "newPricePerDay",
          "type": "uint256"
        }
      ],
      "name": "updateListingPrice",
      "outputs": [],
      "stateMutability": "nonpayable",
      "type": "function"
    },
    {
      "inputs": [
        {
          "internalType": "uint256",
          "name": "newFee",
          "type": "uint256"
        }
      ],
      "name": "updateProtocolFee",
      "outputs": [],
      "stateMutability": "nonpayable",
      "type": "function"
    },
    {
      "inputs": [
        {
          "internalType": "address",
          "name": "",
          "type": "address"
        }
      ],
      "name": "userReferrer",
      "outputs": [
        {
          "internalType": "address",
          "name": "",
          "type": "address"
        }
      ],
      "stateMutability": "view",
      "type": "function"
    }
  ],
  "bytecode": "0x60a0346200013857601f620023da38819003918201601f19168301916001600160401b038311848410176200013d57808492604094855283398101031262000138576200005a6020620000528362000153565b920162000153565b9033156200011f576000549160018060a01b03908160018060a01b031993338587161760005560405195823391167f8be0079c531659141344cd1fd0a4f28419497f9722a3daafe3b4186f6b6457e0600080a36001805560fa6006556107d0600a5516608052169060075416176007556122719081620001698239608051818181610ea901528181610f4101528181610fe501528181611058015281816113be01528181611762015281816118af01528181611c2201528181611d410152611df90152f35b604051631e4fbdf760e01b815260006004820152602490fd5b600080fd5b634e487b7160e01b600052604160045260246000fd5b51906001600160a01b0382168203620001385756fe6080604052600436101561001257600080fd5b6000803560e01c806212e84114611acd5780631df8eaad146118de5780633013ce2914611899578063308cdc841461164f5780633e93d0cd1461159c5780634256dd781461153a578063469048401461151157806351b1de1a14610e0f578063715018a614610db55780637c3fcc3814610d795780637dbefc9a14610d5b5780637df8768e14610cc85780638afe480614610caa5780638da5cb5b14610c835780639299e55214610b9657806399124a6514610b3f578063a18a7bfc14610a06578063b0e21e8a146109e8578063b8ca3b83146109cb578063c071e65714610975578063c0f6ae9714610936578063c18b8db4146108a4578063e2624d44146106a3578063f160d36914610622578063f2fde38b14610597578063fbdc39d41461053e5763fe8e8d531461014557600080fd5b3461053b5760c036600319011261053b5761015e611eb2565b6101666121ec565b6001600160a01b03811682526008602052604082205460ff16156104f657604435156104b15760016064351061047d57606435608435106104425761016d6084351161040b576040516001600160601b03198260601b16602082015260243560348201526034815280606081011067ffffffffffffffff6060830111176103f557606081016040526020815191012090818352600260205260ff6007604085200154166103c3576001600160a01b0381163b156103b4576040516323b872dd60e01b8152336004820152306024808301919091523560448201528381606481836001600160a01b0387165af180156103b8576103a0575b50610350826040602095815161027281611f9d565b60018060a01b03861681526008888201602435815261033f85840133815260608501604435815260808601606435815260a0870190608435825260c088019260a435845260e0890194600186526101008a01974289528d8c526020600290528c8c209a60018060a01b03905116906001600160601b0360a01b91828d5416178c555160018c015560028b019160018060a01b0390511690825416179055516003890155516004880155516005870155516006860155511515600785019060ff801983541691151516179055565b5191015533815260038752206121b2565b6040519060018060a01b03168152602435838201526044356040820152817f3f9416d31711e82746519dc28e3a4a54cce2e8aefa49a30490e6ea40a5f7d65360603393a360018055604051908152f35b6103aa8491611f89565b6103b4573861025d565b8280fd5b6040513d86823e3d90fd5b60405162461bcd60e51b815260206004820152600a6024820152695961206c69737461646f60b01b6044820152606490fd5b634e487b7160e01b600052604160045260246000fd5b60405162461bcd60e51b815260206004820152600f60248201526e4d6178696d6f20333635206469617360881b6044820152606490fd5b60405162461bcd60e51b815260206004820152601360248201527226b0bc103232b1329039b2b9101f1e9026b4b760691b6044820152606490fd5b60405162461bcd60e51b815260206004820152600c60248201526b4d696e696d6f20312064696160a01b6044820152606490fd5b60405162461bcd60e51b815260206004820152601960248201527f50726563696f206465626520736572206d61796f7220612030000000000000006044820152606490fd5b60405162461bcd60e51b815260206004820152601960248201527f4e465420636f6e7472616374206e6f207065726d697469646f000000000000006044820152606490fd5b80fd5b503461053b57604036600319011261053b57610558611eb2565b60243580151581036103b4576105949161057061220f565b60018060a01b031683526008602052604083209060ff801983541691151516179055565b80f35b503461053b57602036600319011261053b576105b1611eb2565b6105b961220f565b6001600160a01b0390811690811561060957600054826001600160601b0360a01b821617600055167f8be0079c531659141344cd1fd0a4f28419497f9722a3daafe3b4186f6b6457e0600080a380f35b604051631e4fbdf760e01b815260048101849052602490fd5b503461053b57602036600319011261053b5761063c611eb2565b61064461220f565b6001600160a01b03168015610669576001600160601b0360a01b600754161760075580f35b60405162461bcd60e51b8152602060048201526012602482015271446972656363696f6e20696e76616c69646160701b6044820152606490fd5b503461053b576020908160031936011261053b576001600160a01b03806106c8611eb2565b168252600391600384526040812092604051808587829754938481520190855287852092855b8982821061088e5750505061070592500385611fba565b83519261072a61071485612083565b946107226040519687611fba565b808652612083565b601f190186845b82811061087857505050825b85518110156107e05780610753600192886120e0565b5185526002808952600860408720856040519361076f85611f9d565b818354168552868301548d86015282015416604084015286810154606084015260048101546080840152600581015460a0840152600681015460c084015260ff600782015416151560e084015201546101008201526107ce82886120e0565b526107d981876120e0565b500161073d565b508584846040519280840190808552835180925280604086019401925b82811061080a5785850386f35b83518051881686528083015186840152604080820151891690870152606080820151908701526080808201519087015260a0808201519087015260c0808201519087015260e080820151151590870152610100908101519086015261012090940193928101926001016107fd565b61088061209b565b828289010152018790610731565b855484526001958601958a9550930192016106ee565b503461053b57602036600319011261053b57604061012091600435815260026020522060018060a01b03808254169160018101549160028201541660038201546004830154600584015491600685015493600860ff60078801541696015496604051988952602089015260408801526060870152608086015260a085015260c0840152151560e0830152610100820152f35b503461053b57602036600319011261053b5760209060ff906040906001600160a01b03610961611eb2565b168152600884522054166040519015158152f35b503461053b57604036600319011261053b5761098f611eb2565b6001600160a01b031681526005602052604081208054602435929083101561053b5760206109bd8484611ee3565b90546040519160031b1c8152f35b503461053b578060031936011261053b5760206040516103e88152f35b503461053b578060031936011261053b576020600654604051908152f35b503461053b57602080600319360112610b3b57610a21611eb2565b3383526009825260408320546001600160a01b0391908216610aff571690338214610ac7578115610a90573380845260099091526040832080546001600160a01b031916831790557f5f7165288eef601591cf549e15ff19ef9060b7f71b9c115be946fa1fe7ebf68a8380a380f35b6064906040519062461bcd60e51b82526004820152601060248201526f24b73b30b634b2103932b332b93932b960811b6044820152fd5b6064906040519062461bcd60e51b82526004820152601160248201527021b0b73737ba103932b332b91039b2b63360791b6044820152fd5b60405162461bcd60e51b8152600481018490526014602482015273149959995c9c995c88185b1c9958591e481cd95d60621b6044820152606490fd5b5080fd5b503461053b57604036600319011261053b57610b59611eb2565b6001600160a01b031681526003602052604081208054602435929083101561053b576020610b878484611ee3565b90549060031b1c604051908152f35b503461053b57602036600319011261053b57600435610bb36121ec565b808252600260205281604081206001808060a01b03610bd98160028501541633146120f4565b600783018054610beb60ff8216612133565b60ff1916905582541691015490803b156103b4576040516323b872dd60e01b8152306004820152336024820152604481019290925282908290606490829084905af18015610c7857610c64575b50807f9210d6774ad7b502b3da4d2c233cb4913c6254bedbae89dfa93e0594a363975791a26001805580f35b610c6d90611f89565b610b3b578138610c38565b6040513d84823e3d90fd5b503461053b578060031936011261053b57546040516001600160a01b039091168152602090f35b503461053b578060031936011261053b576020600a54604051908152f35b503461053b57602036600319011261053b57604061012091600435815260046020522080549060ff60018060a01b0360018301541691600281015460038201546004830154906005840154926007600686015495015496604051988952602089015260408801526060870152608086015260a0850152818116151560c085015260081c16151560e0830152610100820152f35b503461053b578060031936011261053b57602060405162093a808152f35b503461053b57602036600319011261053b576020906001600160a01b039060409082610da3611eb2565b16815260098452205416604051908152f35b503461053b578060031936011261053b57610dce61220f565b600080546001600160a01b0319811682556001600160a01b03167f8be0079c531659141344cd1fd0a4f28419497f9722a3daafe3b4186f6b6457e08280a380f35b503461053b57610e1e36611ecd565b610e266121ec565b81835260026020526040832091610e4360ff600785015416612133565b600483015482101580611503575b156114be57610e6482600385015461200c565b610ea46020610e77600687015484611fff565b6040516323b872dd60e01b8152336004820152306024820152604481019190915291829081906064820190565b0381897f00000000000000000000000000000000000000000000000000000000000000006001600160a01b03165af19081156112c857869161149f575b501561146757612710610ef66006548361200c565b04610f3c6020610f068385611fdc565b600288015460405163a9059cbb60e01b81526001600160a01b039091166004820152602481019190915291829081906044820190565b03818a7f00000000000000000000000000000000000000000000000000000000000000006001600160a01b03165af190811561145c57879161143d575b501561140357338652600960205260408620546001600160a01b0316801561138857610fb5612710610fad600a548561200c565b048093611fdc565b60405163a9059cbb60e01b81526001600160a01b038316600482015260248101849052602081806044810103818c7f00000000000000000000000000000000000000000000000000000000000000006001600160a01b03165af190811561137d57899161135e575b50156113215760075460405163a9059cbb60e01b81526001600160a01b0390911660048201526024810191909152602081806044810103818b7f00000000000000000000000000000000000000000000000000000000000000006001600160a01b03165af18015611316576110999189916112e7575b50612173565b6040519182527f0a721ab4682ceb61c7e4d264ef879fc419a6d764b136e7d96ef54b2053c7567360203393a35b60405160208101908382523360601b6040820152426054820152605481526080810181811067ffffffffffffffff8211176103f55760405251902093620151808085029085820414851517156112d35790611122879242611fff565b6007876006840154926040519361113885611f9d565b888552602085019033825260408601924284526060870190815260808701908a825260a0880192835260c08801946001865260e08901948b86526101008a01978c89528c52600460205260408c2099518a5560018a019060018060a01b039051166001600160601b0360a01b8254161790555160028901555160038801555160048701555160058601556111df6006860192511515839060ff801983541691151516179055565b51151561ff0082549160081b169061ff00191617905551910155338252600560205261120e86604084206121b2565b60078101805460ff1916905580546001909101546001600160a01b0390911690813b156103b4576040516323b872dd60e01b8152306004820152336024820152604481019190915291908290606490829084905af180156112c8576112b0575b506020945060405192835284830152827f72ce3a1150e985798a94b425818673fb46122dffde24e46468a2f41210231ec560403394a460018055604051908152f35b6112ba8691611f89565b6112c4578461126e565b8480fd5b6040513d88823e3d90fd5b634e487b7160e01b87526011600452602487fd5b611309915060203d60201161130f575b6113018183611fba565b81019061201f565b38611093565b503d6112f7565b6040513d8a823e3d90fd5b60405162461bcd60e51b81526020600482015260156024820152745061676f2072656665727265722066616c6c69646f60581b6044820152606490fd5b611377915060203d60201161130f576113018183611fba565b3861101d565b6040513d8b823e3d90fd5b5060075460405163a9059cbb60e01b81526001600160a01b039091166004820152602481019190915260208180604481010381897f00000000000000000000000000000000000000000000000000000000000000006001600160a01b03165af180156112c8576113fe9187916112e75750612173565b6110c6565b60405162461bcd60e51b81526020600482015260126024820152715061676f206f776e65722066616c6c69646f60701b6044820152606490fd5b611456915060203d60201161130f576113018183611fba565b38610f79565b6040513d89823e3d90fd5b60405162461bcd60e51b815260206004820152601060248201526f5472616e736665722066616c6c69646f60801b6044820152606490fd5b6114b8915060203d60201161130f576113018183611fba565b38610ee1565b60405162461bcd60e51b815260206004820152601760248201527f446961732064652072656e746120696e76616c69646f730000000000000000006044820152606490fd5b506005830154821115610e51565b503461053b578060031936011261053b576007546040516001600160a01b039091168152602090f35b503461053b57602036600319011261053b5760043561155761220f565b6103e881116115665760065580f35b60405162461bcd60e51b815260206004820152600e60248201526d466565206d6178696d6f2031302560901b6044820152606490fd5b503461053b576115ab36611ecd565b8183526002602052604083206115ce60018060a01b0360028301541633146120f4565b6115de60ff600783015416612133565b811561161857817f6ceb4f26be4a751c4320149cebb105f5a825669476b3213c36792255a030742d9260036020930155604051908152a280f35b60405162461bcd60e51b815260206004820152600f60248201526e50726563696f20696e76616c69646f60881b6044820152606490fd5b503461053b57602080600319360112610b3b5761166a6121ec565b60043582526004815260408220908154835260028152604083209060018060a01b039261169e8460028501541633146120f4565b60068101936116bf60ff86546116b5828216611f11565b60081c1615611f4f565b600382015462093a8081018091116112d3574211156118425790818692855416918160018201541692600187015490803b1561183e576040516323b872dd60e01b81526001600160a01b0395909516600486015230602486015260448501919091528593859182908290606490829084905af1611823575b50506005015460405163a9059cbb60e01b8152336004820152602481019190915292839160449183917f0000000000000000000000000000000000000000000000000000000000000000165af19081156118185785916117fb575b50156117b75750600760019160ff199384815416905501918254161790556001805580f35b6064906040519062461bcd60e51b82526004820152601a60248201527f5472616e7366657220636f6c61746572616c2066616c6c69646f0000000000006044820152fd5b6118129150823d841161130f576113018183611fba565b38611792565b6040513d87823e3d90fd5b6118309192939450611f89565b6103b4579083918338611737565b8580fd5b60405162461bcd60e51b815260048101849052602960248201527f457370657261207469656d706f2064652067726163696120616e746573206465604482015268103932b1b630b6b0b960b91b6064820152608490fd5b503461053b578060031936011261053b576040517f00000000000000000000000000000000000000000000000000000000000000006001600160a01b03168152602090f35b503461053b57602080600319360112610b3b576001600160a01b039182611903611eb2565b168152600591600581526040822092604051808584829754938481520190865284862092865b86828210611ab75750505061194092500385611fba565b83519261194f61071485612083565b601f190183825b828110611aa157505050805b8551811015611a085780611978600192886120e0565b518352600485526040832060076040519161199283611f9d565b805483528a8582015416888401526002810154604084015260038101546060840152600481015460808401528681015460a0840152600681015460ff90818116151560c086015260081c16151560e084015201546101008201526119f682886120e0565b52611a0181876120e0565b5001611962565b50919350506040519280840190808552835180925280604086019401925b828110611a335785850386f35b8351805186528083015188168684015260408082015190870152606080820151908701526080808201519087015260a0808201519087015260c08082015115159087015260e08082015115159087015261010090810151908601526101209094019392810192600101611a26565b611aa961209b565b828289010152018490611956565b855484526001958601958a955093019201611929565b503461053b57602080600319360112610b3b57600435611aeb6121ec565b8083526004825260408320906006820192835493611b0b60ff8616611f11565b60018481015490956001600160a01b03959186163303611e795760ff611b359160081c1615611f4f565b80548752600283526040872091878684541688850154813b156103b4576040516323b872dd60e01b8152336004820152306024820152604481019190915291908290606490829084905af1801561137d57611e66575b5060058201958654966003840154804211611cc0575b505086611bfa575b50805461ffff19166101001790554260079182015501805460ff19168517905560405192835233927f51529d719b186527b837c2c351deee96b144c1f6df1d95757dd415be25c009fd9190a3805580f35b60405163a9059cbb60e01b815233600482015260248101889052908590829060449082908d907f0000000000000000000000000000000000000000000000000000000000000000165af190811561137d578991611ca3575b5015611c5e5738611ba9565b60405162461bcd60e51b815260048101859052601860248201527f52657475726e20636f6c61746572616c2066616c6c69646f00000000000000006044820152606490fd5b611cba9150853d871161130f576113018183611fba565b38611c52565b611cd1620151809199929942611fdc565b04898101809111611e5257600a8202828104600a1483151715611e3e57606491611cfa9161200c565b0490808211611e36575b808210611daa5750506002840154965460405163a9059cbb60e01b81529782166001600160a01b031660048901526024880152889685816044818b7f000000000000000000000000000000000000000000000000000000000000000087165af18015611d9f57611d7b918b91611d82575b50612037565b3880611ba1565b611d999150873d891161130f576113018183611fba565b38611d75565b6040513d8c823e3d90fd5b819850611dbb611df3928892611fdc565b600287015460405163a9059cbb60e01b81529085166001600160a01b03166004820152602481019a909a529891829081906044820190565b03818d867f0000000000000000000000000000000000000000000000000000000000000000165af18015611d9f57611e31918b91611d825750612037565b611d7b565b905080611d04565b634e487b7160e01b8c52601160045260248cfd5b634e487b7160e01b8b52601160045260248bfd5b611e7290989198611f89565b9638611b8b565b60405162461bcd60e51b815260048101859052601160248201527027379032b932b99032b6103932b73a32b960791b6044820152606490fd5b600435906001600160a01b0382168203611ec857565b600080fd5b6040906003190112611ec8576004359060243590565b8054821015611efb5760005260206000200190600090565b634e487b7160e01b600052603260045260246000fd5b15611f1857565b60405162461bcd60e51b815260206004820152600f60248201526e52656e7461206e6f2061637469766160881b6044820152606490fd5b15611f5657565b60405162461bcd60e51b815260206004820152600b60248201526a59612064657675656c746f60a81b6044820152606490fd5b67ffffffffffffffff81116103f557604052565b610120810190811067ffffffffffffffff8211176103f557604052565b90601f8019910116810190811067ffffffffffffffff8211176103f557604052565b91908203918211611fe957565b634e487b7160e01b600052601160045260246000fd5b91908201809211611fe957565b81810292918115918404141715611fe957565b90816020910312611ec857518015158103611ec85790565b1561203e57565b60405162461bcd60e51b815260206004820152601860248201527f5472616e736665722070656e616c74792066616c6c69646f00000000000000006044820152606490fd5b67ffffffffffffffff81116103f55760051b60200190565b604051906120a882611f9d565b816101006000918281528260208201528260408201528260608201528260808201528260a08201528260c08201528260e08201520152565b8051821015611efb5760209160051b010190565b156120fb57565b60405162461bcd60e51b815260206004820152601060248201526f27379032b932b99032b61037bbb732b960811b6044820152606490fd5b1561213a57565b60405162461bcd60e51b81526020600482015260116024820152704c697374696e67206e6f2061637469766f60781b6044820152606490fd5b1561217a57565b60405162461bcd60e51b815260206004820152601060248201526f5061676f206665652066616c6c69646f60801b6044820152606490fd5b8054680100000000000000008110156103f5576121d491600182018155611ee3565b819291549060031b91821b91600019901b1916179055565b6002600154146121fd576002600155565b604051633ee5aeb560e01b8152600490fd5b6000546001600160a01b0316330361222357565b60405163118cdaa760e01b8152336004820152602490fdfea26469706673582212200e3ff40305a736ab86d86b204befaf2e1e1dea88832d6b287f49a1abf3b4309564736f6c63430008180033",
  "linkReferences": {},
  "deployedLinkReferences": {}
}