{
  "_format": "hh-sol-artifact-1",
  "contractName": "BeZhasRewardsCalculator",
  "sourceName": "contracts/BeZhasRewardsCalculator.sol",
  "abi": [
    {
      "anonymous": false,
      "inputs": [
        {
          "indexed": true,
          "internalType": "address",
          "name": "user",
          "type": "address"
        },
        {
          "indexed": false,
          "internalType": "uint256",
          "name": "dailyRewards",
          "type": "uint256"
        },
        {
          "indexed": false,
          "internalType": "uint256",
          "name": "level",
          "type": "uint256"
        },
        {
          "indexed": false,
          "internalType": "uint256",
          "name": "vipTier",
          "type": "uint256"
        }
      ],
      "name": "RewardsCalculated",
      "type": "event"
    },
    {
      "inputs": [],
      "name": "COMMENT_VALUE",
      "outputs": [
        {
          "internalType": "uint256",
          "name": "",
          "type": "uint256"
        }
      ],
      "stateMutability": "view",
      "type": "function"
    },
    {
      "inputs": [],
      "name": "DECIMALS",
      "outputs": [
        {
          "internalType": "uint256",
          "name": "",
          "type": "uint256"
        }
      ],
      "stateMutability": "view",
      "type": "function"
    },
    {
      "inputs": [
        {
          "internalType": "uint256",
          "name": "",
          "type": "uint256"
        }
      ],
      "name": "LEVEL_MULTIPLIERS",
      "outputs": [
        {
          "internalType": "uint256",
          "name": "",
          "type": "uint256"
        }
      ],
      "stateMutability": "view",
      "type": "function"
    },
    {
      "inputs": [],
      "name": "LIKE_VALUE",
      "outputs": [
        {
          "internalType": "uint256",
          "name": "",
          "type": "uint256"
        }
      ],
      "stateMutability": "view",
      "type": "function"
    },
    {
      "inputs": [],
      "name": "MAX_COMMENTS_PER_DAY",
      "outputs": [
        {
          "internalType": "uint256",
          "name": "",
          "type": "uint256"
        }
      ],
      "stateMutability": "view",
      "type": "function"
    },
    {
      "inputs": [],
      "name": "MAX_LIKES_PER_DAY",
      "outputs": [
        {
          "internalType": "uint256",
          "name": "",
          "type": "uint256"
        }
      ],
      "stateMutability": "view",
      "type": "function"
    },
    {
      "inputs": [],
      "name": "MAX_POSTS_PER_DAY",
      "outputs": [
        {
          "internalType": "uint256",
          "name": "",
          "type": "uint256"
        }
      ],
      "stateMutability": "view",
      "type": "function"
    },
    {
      "inputs": [],
      "name": "MAX_PREMIUM_INTERACTIONS_PER_DAY",
      "outputs": [
        {
          "internalType": "uint256",
          "name": "",
          "type": "uint256"
        }
      ],
      "stateMutability": "view",
      "type": "function"
    },
    {
      "inputs": [],
      "name": "MAX_REFERRALS_PER_DAY",
      "outputs": [
        {
          "internalType": "uint256",
          "name": "",
          "type": "uint256"
        }
      ],
      "stateMutability": "view",
      "type": "function"
    },
    {
      "inputs": [],
      "name": "MAX_SHARES_PER_DAY",
      "outputs": [
        {
          "internalType": "uint256",
          "name": "",
          "type": "uint256"
        }
      ],
      "stateMutability": "view",
      "type": "function"
    },
    {
      "inputs": [],
      "name": "POST_VALUE",
      "outputs": [
        {
          "internalType": "uint256",
          "name": "",
          "type": "uint256"
        }
      ],
      "stateMutability": "view",
      "type": "function"
    },
    {
      "inputs": [],
      "name": "PREMIUM_INTERACTION_VALUE",
      "outputs": [
        {
          "internalType": "uint256",
          "name": "",
          "type": "uint256"
        }
      ],
      "stateMutability": "view",
      "type": "function"
    },
    {
      "inputs": [],
      "name": "REFERRAL_VALUE",
      "outputs": [
        {
          "internalType": "uint256",
          "name": "",
          "type": "uint256"
        }
      ],
      "stateMutability": "view",
      "type": "function"
    },
    {
      "inputs": [],
      "name": "SHARE_VALUE",
      "outputs": [
        {
          "internalType": "uint256",
          "name": "",
          "type": "uint256"
        }
      ],
      "stateMutability": "view",
      "type": "function"
    },
    {
      "inputs": [],
      "name": "STREAK_30_BONUS",
      "outputs": [
        {
          "internalType": "uint256",
          "name": "",
          "type": "uint256"
        }
      ],
      "stateMutability": "view",
      "type": "function"
    },
    {
      "inputs": [],
      "name": "STREAK_7_BONUS",
      "outputs": [
        {
          "internalType": "uint256",
          "name": "",
          "type": "uint256"
        }
      ],
      "stateMutability": "view",
      "type": "function"
    },
    {
      "inputs": [],
      "name": "STREAK_90_BONUS",
      "outputs": [
        {
          "internalType": "uint256",
          "name": "",
          "type": "uint256"
        }
      ],
      "stateMutability": "view",
      "type": "function"
    },
    {
      "inputs": [],
      "name": "VIP_1_MULTIPLIER",
      "outputs": [
        {
          "internalType": "uint256",
          "name": "",
          "type": "uint256"
        }
      ],
      "stateMutability": "view",
      "type": "function"
    },
    {
      "inputs": [],
      "name": "VIP_3_MULTIPLIER",
      "outputs": [
        {
          "internalType": "uint256",
          "name": "",
          "type": "uint256"
        }
      ],
      "stateMutability": "view",
      "type": "function"
    },
    {
      "inputs": [],
      "name": "VIP_6_MULTIPLIER",
      "outputs": [
        {
          "internalType": "uint256",
          "name": "",
          "type": "uint256"
        }
      ],
      "stateMutability": "view",
      "type": "function"
    },
    {
      "inputs": [],
      "name": "VIP_9_MULTIPLIER",
      "outputs": [
        {
          "internalType": "uint256",
          "name": "",
          "type": "uint256"
        }
      ],
      "stateMutability": "view",
      "type": "function"
    },
    {
      "inputs": [
        {
          "components": [
            {
              "internalType": "uint256",
              "name": "posts",
              "type": "uint256"
            },
            {
              "internalType": "uint256",
              "name": "comments",
              "type": "uint256"
            },
            {
              "internalType": "uint256",
              "name": "likes",
              "type": "uint256"
            },
            {
              "internalType": "uint256",
              "name": "shares",
              "type": "uint256"
            },
            {
              "internalType": "uint256",
              "name": "premiumInteractions",
              "type": "uint256"
            },
            {
              "internalType": "uint256",
              "name": "referrals",
              "type": "uint256"
            }
          ],
          "internalType": "struct BeZhasRewardsCalculator.DailyActions",
          "name": "actions",
          "type": "tuple"
        },
        {
          "components": [
            {
              "internalType": "uint256",
              "name": "level",
              "type": "uint256"
            },
            {
              "internalType": "uint256",
              "name": "loginStreak",
              "type": "uint256"
            },
            {
              "internalType": "uint256",
              "name": "vipTier",
              "type": "uint256"
            }
          ],
          "internalType": "struct BeZhasRewardsCalculator.UserData",
          "name": "userData",
          "type": "tuple"
        }
      ],
      "name": "calculateDailyRewards",
      "outputs": [
        {
          "components": [
            {
              "internalType": "uint256",
              "name": "baseRewards",
              "type": "uint256"
            },
            {
              "internalType": "uint256",
              "name": "levelMultiplier",
              "type": "uint256"
            },
            {
              "internalType": "uint256",
              "name": "streakBonus",
              "type": "uint256"
            },
            {
              "internalType": "uint256",
              "name": "totalDaily",
              "type": "uint256"
            },
            {
              "internalType": "uint256",
              "name": "vipMultiplier",
              "type": "uint256"
            },
            {
              "internalType": "uint256",
              "name": "totalWithVIP",
              "type": "uint256"
            }
          ],
          "internalType": "struct BeZhasRewardsCalculator.RewardsBreakdown",
          "name": "breakdown",
          "type": "tuple"
        }
      ],
      "stateMutability": "view",
      "type": "function"
    },
    {
      "inputs": [
        {
          "internalType": "uint256",
          "name": "dailyRewards",
          "type": "uint256"
        }
      ],
      "name": "calculateQuarterlyRewards",
      "outputs": [
        {
          "internalType": "uint256",
          "name": "quarterlyRewards",
          "type": "uint256"
        }
      ],
      "stateMutability": "pure",
      "type": "function"
    },
    {
      "inputs": [
        {
          "internalType": "uint256",
          "name": "dailyRewards",
          "type": "uint256"
        }
      ],
      "name": "calculateYearlyRewards",
      "outputs": [
        {
          "internalType": "uint256",
          "name": "yearlyRewards",
          "type": "uint256"
        }
      ],
      "stateMutability": "pure",
      "type": "function"
    },
    {
      "inputs": [],
      "name": "getDailyLimits",
      "outputs": [
        {
          "internalType": "uint256[6]",
          "name": "limits",
          "type": "uint256[6]"
        }
      ],
      "stateMutability": "pure",
      "type": "function"
    },
    {
      "inputs": [],
      "name": "getTokenValues",
      "outputs": [
        {
          "internalType": "uint256[6]",
          "name": "values",
          "type": "uint256[6]"
        }
      ],
      "stateMutability": "pure",
      "type": "function"
    }
  ],
  "bytecode": "0x6080346100b65761014081016001600160401b038111828210176100a0576040526127108152602090612af860208201526130d46040820152613a98606082015261445c6080820152614e2060a08201526157e460c08201526161a860e0820152616b6c61010082015261753061012082015260005b600a811061008c57604051610a8090816100bc8239f35b815161ffff16815590820190600101610075565b634e487b7160e01b600052604160045260246000fd5b600080fdfe608080604052600436101561001357600080fd5b60003560e01c90816301bb8b8c1461095157508063067c8ed3146109355780630c39cb8b1461091857806310b752c7146108f457806318b04762146108d157806318feb02d146108b457806323163cdb146108985780632e0f2625146102625780633224fc0f1461087c578063396deba3146104115780634bd1b633146103f45780634c3f1df0146103d15780635766b4a7146103b55780635ec7e307146103995780636404bf16146103675780636d820f3b1461034a57806373e9961f146102cb5780637ccf3b81146102ae57806386afe6cd146102855780638ebce4f814610262578063997624be1461023f5780639f755909146101f7578063a0e48d27146101d4578063a3367afd146101b7578063c108c5ae1461015f5763e4467ddc1461013d57600080fd5b3461015a57600036600319011261015a5760206040516101f48152f35b600080fd5b3461015a57600036600319011261015a576101b361017b6109ac565b60c0368237600a815260326020820152606460408201526014606082015260056080820152600360a08201526040519182918261097e565b0390f35b3461015a57600036600319011261015a576020604051613a988152f35b3461015a57600036600319011261015a5760206040516729a2241af62c00008152f35b3461015a57602036600319011261015a57600435605a810290808204605a149015171561022957602090604051908152f35b634e487b7160e01b600052601160045260246000fd5b3461015a57600036600319011261015a576020604051674563918244f400008152f35b3461015a57600036600319011261015a576020604051670de0b6b3a76400008152f35b3461015a57602036600319011261015a57600435600a81101561015a5760209054604051908152f35b3461015a57600036600319011261015a5760206040516175308152f35b3461015a57600036600319011261015a576101b36102e76109ac565b60c0368237678ac7230489e8000081526729a2241af62c00006020820152670de0b6b3a76400006040820152674563918244f40000606082015267d02ab486cedc000060808201526802b5e3af16b188000060a08201526040519182918261097e565b3461015a57600036600319011261015a576020604051614e208152f35b3461015a57602036600319011261015a5761016d60043581810291811591830414171561022957602090604051908152f35b3461015a57600036600319011261015a57602060405160148152f35b3461015a57600036600319011261015a57602060405160328152f35b3461015a57600036600319011261015a576020604051678ac7230489e800008152f35b3461015a57600036600319011261015a5760206040516107d08152f35b3461015a573660031901610120811261015a5760c01361015a5760603660c319011261015a5760405160c0810181811067ffffffffffffffff821117610866576040526000815260006020820152600060408201526000606082015260006080820152600060a0820152600a60043511610828576032602435116107e3576064604435116107a5576014606435116107605760056084351161070c57600360a435116106c757600160c4351015806106ba575b1561068457678ac7230489e80000806004350290600435820414600435151715610229576729a2241af62c000080602435029060243582041460243515171561022957610510916109cc565b670de0b6b3a764000080604435029060443582041460443515171561022957610538916109cc565b674563918244f4000080606435029060643582041460643515171561022957610560916109cc565b67d02ab486cedc000080608435029060843582041460843515171561022957610588916109cc565b6802b5e3af16b18800008060a435029060a43582041460a435151715610229576105b1916109cc565b815260c43560001981019190821161022957600a82101561066e576105ec61062d61060f60c09454806020860152612710938491865161096b565b04836106086105fc60e4356109d9565b8060408901528361096b565b04906109cc565b80606085015261062161010435610a0a565b9081608086015261096b565b0460a082015260a0604051918051835260208101516020840152604081015160408401526060810151606084015260808101516080840152015160a0820152f35b634e487b7160e01b600052603260045260246000fd5b60405162461bcd60e51b815260206004820152600e60248201526d4e6976656c20696e76616c69646f60901b6044820152606490fd5b50600a60c43511156104c4565b60405162461bcd60e51b815260206004820152601a60248201527f457863656465206c696d69746520646520726566657269646f730000000000006044820152606490fd5b60405162461bcd60e51b815260206004820152602660248201527f457863656465206c696d69746520646520696e746572616363696f6e6573207060448201526572656d69756d60d01b6064820152608490fd5b60405162461bcd60e51b815260206004820152601760248201527f457863656465206c696d697465206465207368617265730000000000000000006044820152606490fd5b60405162461bcd60e51b8152602060048201526016602482015275457863656465206c696d697465206465206c696b657360501b6044820152606490fd5b60405162461bcd60e51b815260206004820152601c60248201527f457863656465206c696d69746520646520636f6d656e746172696f73000000006044820152606490fd5b60405162461bcd60e51b8152602060048201526016602482015275457863656465206c696d69746520646520706f73747360501b6044820152606490fd5b634e487b7160e01b600052604160045260246000fd5b3461015a57600036600319011261015a57602060405160648152f35b3461015a57600036600319011261015a576020604051600a8152f35b3461015a57600036600319011261015a5760206040516103e88152f35b3461015a57600036600319011261015a57602060405167d02ab486cedc00008152f35b3461015a57600036600319011261015a5760206040516802b5e3af16b18800008152f35b3461015a57600036600319011261015a5760206040516161a88152f35b3461015a57600036600319011261015a57602060405160058152f35b3461015a57600036600319011261015a5780600360209252f35b8181029291811591840414171561022957565b60c0810192916000915b6006831061099557505050565b600190825181526020809101920192019190610988565b6040519060c0820182811067ffffffffffffffff82111761086657604052565b9190820180921161022957565b605a81106109e857506107d090565b601e81106109f757506103e890565b60071115610a0457600090565b6101f490565b60098103610a19575061753090565b60068103610a2857506161a890565b60038103610a375750614e2090565b600114610a445761271090565b613a989056fea2646970667358221220828ac5c434faa5dbf3c8b0ef76266bb5f95dad648f1bebc2ef535e0f48dcfc1b64736f6c63430008180033",
  "linkReferences": {},
  "deployedLinkReferences": {}
}