{
  "_format": "hh-sol-artifact-1",
  "contractName": "Marketplace",
  "sourceName": "contracts/Marketplace.sol",
  "abi": [
    {
      "inputs": [],
      "stateMutability": "nonpayable",
      "type": "constructor"
    },
    {
      "inputs": [],
      "name": "EnforcedPause",
      "type": "error"
    },
    {
      "inputs": [],
      "name": "ExpectedPause",
      "type": "error"
    },
    {
      "inputs": [
        {
          "internalType": "address",
          "name": "owner",
          "type": "address"
        }
      ],
      "name": "OwnableInvalidOwner",
      "type": "error"
    },
    {
      "inputs": [
        {
          "internalType": "address",
          "name": "account",
          "type": "address"
        }
      ],
      "name": "OwnableUnauthorizedAccount",
      "type": "error"
    },
    {
      "inputs": [],
      "name": "ReentrancyGuardReentrantCall",
      "type": "error"
    },
    {
      "inputs": [
        {
          "internalType": "address",
          "name": "token",
          "type": "address"
        }
      ],
      "name": "SafeERC20FailedOperation",
      "type": "error"
    },
    {
      "anonymous": false,
      "inputs": [
        {
          "indexed": true,
          "internalType": "uint256",
          "name": "itemId",
          "type": "uint256"
        }
      ],
      "name": "MarketItemCancelled",
      "type": "event"
    },
    {
      "anonymous": false,
      "inputs": [
        {
          "indexed": true,
          "internalType": "uint256",
          "name": "itemId",
          "type": "uint256"
        },
        {
          "indexed": true,
          "internalType": "address",
          "name": "nftContract",
          "type": "address"
        },
        {
          "indexed": true,
          "internalType": "uint256",
          "name": "tokenId",
          "type": "uint256"
        },
        {
          "indexed": false,
          "internalType": "address",
          "name": "seller",
          "type": "address"
        },
        {
          "indexed": false,
          "internalType": "uint256",
          "name": "amount",
          "type": "uint256"
        },
        {
          "indexed": false,
          "internalType": "uint256",
          "name": "pricePerUnit",
          "type": "uint256"
        }
      ],
      "name": "MarketItemListed",
      "type": "event"
    },
    {
      "anonymous": false,
      "inputs": [
        {
          "indexed": true,
          "internalType": "uint256",
          "name": "itemId",
          "type": "uint256"
        },
        {
          "indexed": false,
          "internalType": "address",
          "name": "buyer",
          "type": "address"
        },
        {
          "indexed": false,
          "internalType": "uint256",
          "name": "amount",
          "type": "uint256"
        },
        {
          "indexed": false,
          "internalType": "uint256",
          "name": "totalPrice",
          "type": "uint256"
        }
      ],
      "name": "MarketItemSold",
      "type": "event"
    },
    {
      "anonymous": false,
      "inputs": [
        {
          "indexed": true,
          "internalType": "address",
          "name": "previousOwner",
          "type": "address"
        },
        {
          "indexed": true,
          "internalType": "address",
          "name": "newOwner",
          "type": "address"
        }
      ],
      "name": "OwnershipTransferred",
      "type": "event"
    },
    {
      "anonymous": false,
      "inputs": [
        {
          "indexed": false,
          "internalType": "address",
          "name": "account",
          "type": "address"
        }
      ],
      "name": "Paused",
      "type": "event"
    },
    {
      "anonymous": false,
      "inputs": [
        {
          "indexed": false,
          "internalType": "address",
          "name": "account",
          "type": "address"
        }
      ],
      "name": "Unpaused",
      "type": "event"
    },
    {
      "inputs": [],
      "name": "bezhasToken",
      "outputs": [
        {
          "internalType": "contract IERC20",
          "name": "",
          "type": "address"
        }
      ],
      "stateMutability": "view",
      "type": "function"
    },
    {
      "inputs": [
        {
          "internalType": "uint256",
          "name": "itemId",
          "type": "uint256"
        },
        {
          "internalType": "uint256",
          "name": "amountToBuy",
          "type": "uint256"
        }
      ],
      "name": "buyItem",
      "outputs": [],
      "stateMutability": "nonpayable",
      "type": "function"
    },
    {
      "inputs": [
        {
          "internalType": "uint256",
          "name": "itemId",
          "type": "uint256"
        }
      ],
      "name": "cancelListing",
      "outputs": [],
      "stateMutability": "nonpayable",
      "type": "function"
    },
    {
      "inputs": [],
      "name": "feeRecipient",
      "outputs": [
        {
          "internalType": "address",
          "name": "",
          "type": "address"
        }
      ],
      "stateMutability": "view",
      "type": "function"
    },
    {
      "inputs": [
        {
          "internalType": "address",
          "name": "nftContract",
          "type": "address"
        },
        {
          "internalType": "uint256",
          "name": "tokenId",
          "type": "uint256"
        },
        {
          "internalType": "uint256",
          "name": "amount",
          "type": "uint256"
        },
        {
          "internalType": "uint256",
          "name": "pricePerUnit",
          "type": "uint256"
        }
      ],
      "name": "listItem",
      "outputs": [],
      "stateMutability": "nonpayable",
      "type": "function"
    },
    {
      "inputs": [],
      "name": "listingFeePercentage",
      "outputs": [
        {
          "internalType": "uint256",
          "name": "",
          "type": "uint256"
        }
      ],
      "stateMutability": "view",
      "type": "function"
    },
    {
      "inputs": [
        {
          "internalType": "uint256",
          "name": "",
          "type": "uint256"
        }
      ],
      "name": "marketItemsById",
      "outputs": [
        {
          "internalType": "uint256",
          "name": "itemId",
          "type": "uint256"
        },
        {
          "internalType": "address",
          "name": "nftContract",
          "type": "address"
        },
        {
          "internalType": "uint256",
          "name": "tokenId",
          "type": "uint256"
        },
        {
          "internalType": "address",
          "name": "seller",
          "type": "address"
        },
        {
          "internalType": "uint256",
          "name": "amount",
          "type": "uint256"
        },
        {
          "internalType": "uint256",
          "name": "pricePerUnit",
          "type": "uint256"
        },
        {
          "internalType": "bool",
          "name": "isListed",
          "type": "bool"
        }
      ],
      "stateMutability": "view",
      "type": "function"
    },
    {
      "inputs": [
        {
          "internalType": "address",
          "name": "",
          "type": "address"
        },
        {
          "internalType": "address",
          "name": "",
          "type": "address"
        },
        {
          "internalType": "uint256[]",
          "name": "",
          "type": "uint256[]"
        },
        {
          "internalType": "uint256[]",
          "name": "",
          "type": "uint256[]"
        },
        {
          "internalType": "bytes",
          "name": "",
          "type": "bytes"
        }
      ],
      "name": "onERC1155BatchReceived",
      "outputs": [
        {
          "internalType": "bytes4",
          "name": "",
          "type": "bytes4"
        }
      ],
      "stateMutability": "nonpayable",
      "type": "function"
    },
    {
      "inputs": [
        {
          "internalType": "address",
          "name": "",
          "type": "address"
        },
        {
          "internalType": "address",
          "name": "",
          "type": "address"
        },
        {
          "internalType": "uint256",
          "name": "",
          "type": "uint256"
        },
        {
          "internalType": "uint256",
          "name": "",
          "type": "uint256"
        },
        {
          "internalType": "bytes",
          "name": "",
          "type": "bytes"
        }
      ],
      "name": "onERC1155Received",
      "outputs": [
        {
          "internalType": "bytes4",
          "name": "",
          "type": "bytes4"
        }
      ],
      "stateMutability": "nonpayable",
      "type": "function"
    },
    {
      "inputs": [],
      "name": "owner",
      "outputs": [
        {
          "internalType": "address",
          "name": "",
          "type": "address"
        }
      ],
      "stateMutability": "view",
      "type": "function"
    },
    {
      "inputs": [],
      "name": "pause",
      "outputs": [],
      "stateMutability": "nonpayable",
      "type": "function"
    },
    {
      "inputs": [],
      "name": "paused",
      "outputs": [
        {
          "internalType": "bool",
          "name": "",
          "type": "bool"
        }
      ],
      "stateMutability": "view",
      "type": "function"
    },
    {
      "inputs": [],
      "name": "renounceOwnership",
      "outputs": [],
      "stateMutability": "nonpayable",
      "type": "function"
    },
    {
      "inputs": [
        {
          "internalType": "bytes4",
          "name": "interfaceId",
          "type": "bytes4"
        }
      ],
      "name": "supportsInterface",
      "outputs": [
        {
          "internalType": "bool",
          "name": "",
          "type": "bool"
        }
      ],
      "stateMutability": "view",
      "type": "function"
    },
    {
      "inputs": [
        {
          "internalType": "address",
          "name": "newOwner",
          "type": "address"
        }
      ],
      "name": "transferOwnership",
      "outputs": [],
      "stateMutability": "nonpayable",
      "type": "function"
    },
    {
      "inputs": [],
      "name": "unpause",
      "outputs": [],
      "stateMutability": "nonpayable",
      "type": "function"
    },
    {
      "inputs": [
        {
          "internalType": "uint256",
          "name": "_newFee",
          "type": "uint256"
        }
      ],
      "name": "updateListingFee",
      "outputs": [],
      "stateMutability": "nonpayable",
      "type": "function"
    }
  ],
  "bytecode": "0x60a080604052346100b757600160005533156100a15760018054336001600160a01b0319808316821790935560405192916001600160a01b03167f8be0079c531659141344cd1fd0a4f28419497f9722a3daafe3b4186f6b6457e0600080a373ecba873b534c54de2b62acde232adca4369f11a8608052339060025416176002556019600355610e6590816100bd82396080518181816105d301526108890152f35b631e4fbdf760e01b815260006004820152602490fd5b600080fdfe6080604081815260048036101561001557600080fd5b600092833560e01c90816301ffc9a714610ae2575080630888de3914610ac357806320d4a30414610a4d578063305a67a8146109275780633f4ba83a146108b857806341a7757a14610874578063469048401461084b5780635c975abb14610824578063715018a6146107c65780638456cb59146107655780638da5cb5b1461073c5780639979c00914610511578063bc197c8114610486578063bcb143ef14610229578063f23a6e61146101d0578063f2fde38b146101405763f79d91ae146100de57600080fd5b3461013c57602036600319011261013c578035916100fa610d37565b6064831161010a57505060035580f35b906020606492519162461bcd60e51b8352820152600c60248201526b08ccaca40e8dede40d0d2ced60a31b6044820152fd5b8280fd5b503461013c57602036600319011261013c5761015a610b36565b90610163610d37565b6001600160a01b039182169283156101ba575050600154826bffffffffffffffffffffffff60a01b821617600155167f8be0079c531659141344cd1fd0a4f28419497f9722a3daafe3b4186f6b6457e0600080a380f35b51631e4fbdf760e01b8152908101849052602490fd5b5091346102265760a0366003190112610226576101eb610b36565b506101f4610b51565b506084359067ffffffffffffffff8211610226575060209261021891369101610c1a565b505163f23a6e6160e01b8152f35b80fd5b503461013c57608036600319011261013c57610243610b36565b906024359260443560643591610257610d14565b61025f610d63565b811561044f578215610419576001600160a01b0394851694853b1561040b578151637921219560e11b8152889081818061029e888d30338e8601610caa565b0381838c5af1801561040f576103f7575b505060055460001981146103e457600101948560055582519160e0830183811067ffffffffffffffff8211176103cf576103c593878694888e8d8f978e986006987fbb93535d3f3adb200a1120bdcf62399895e59ad35804c12c7c6cf5943da4fbbf9f9e9d52898852602088019283528a88019081528a606089019433865260808a0196875260a08a0198895260c08a019b60018d5281528760205220975188558160018901935116926bffffffffffffffffffffffff60a01b938482541617905551600288015560038701925116908254161790555190830155516005820155019051151560ff80198354169116179055519283923384604091949392606082019560018060a01b0316825260208201520152565b0390a46001815580f35b604183634e487b7160e01b6000525260246000fd5b634e487b7160e01b895260118652602489fd5b61040090610b67565b61040b5787386102af565b8780fd5b84513d84823e3d90fd5b5162461bcd60e51b8152602081850152601160248201527005072696365206d757374206265203e203607c1b6044820152606490fd5b5162461bcd60e51b815260208185015260126024820152710416d6f756e74206d757374206265203e20360741b6044820152606490fd5b5091346102265760a0366003190112610226576104a1610b36565b506104aa610b51565b5067ffffffffffffffff9060443582811161050d576104cc9036908601610bb3565b5060643582811161050d576104e49036908601610bb3565b5060843591821161022657506020926104ff91369101610c1a565b505163bc197c8160e01b8152f35b5080fd5b50903461013c578060031936011261013c57813591602435610531610d14565b610539610d63565b83855281602052828520600681019283549361055760ff8616610c71565b8315158061072f575b156106fb57600383019460018060a01b03918287541633146106c357916106086002928695948361059660058f9a01548b610cde565b9a8b926105b36103e86105ab60035487610cde565b048095610d07565b948c6105c38b8d01918254610d07565b809155156106b6575b50506105fe7f000000000000000000000000000000000000000000000000000000000000000093838954163386610d84565b5416903390610d84565b60018401541692015490823b156106b2576106409284928387938a5196879586948593637921219560e11b8552339030908601610caa565b03925af180156106a857610690575b50509151338152602081019290925260408201527f7deb11f5f7efe228ba55843158aa802604585995d1ea1b3b42de7a1d0e1d5ec890606090a26001815580f35b61069990610b67565b6106a457843861064f565b8480fd5b85513d84823e3d90fd5b8380fd5b60ff1916905538806105cc565b875162461bcd60e51b8152602081860152601260248201527153656c6c6572732063616e6e6f742062757960701b6044820152606490fd5b855162461bcd60e51b8152602081840152600e60248201526d125b9d985b1a5908185b5bdd5b9d60921b6044820152606490fd5b5081830154841115610560565b50503461050d578160031936011261050d5760015490516001600160a01b039091168152602090f35b50503461050d578160031936011261050d5760207f62e78cea01bee320cd4e420270b5ea74000d11b0c9f74754ebdbfc544b05a258916107a3610d37565b6107ab610d63565b6001805460ff60a01b1916600160a01b17905551338152a180f35b83346102265780600319360112610226576107df610d37565b600180546001600160a01b031981169091556000906001600160a01b03167f8be0079c531659141344cd1fd0a4f28419497f9722a3daafe3b4186f6b6457e08280a380f35b50503461050d578160031936011261050d5760209060ff60015460a01c1690519015158152f35b50503461050d578160031936011261050d5760025490516001600160a01b039091168152602090f35b50503461050d578160031936011261050d57517f00000000000000000000000000000000000000000000000000000000000000006001600160a01b03168152602090f35b503461013c578260031936011261013c576108d1610d37565b6001549060ff8260a01c1615610919575060ff60a01b1916600155513381527f5db9ee0a495bf2e6ff9c91a7834c1ba4fdd244a5e8aa4e537bd38aeae4b073aa90602090a180f35b8251638dfc202b60e01b8152fd5b5091903461050d57602036600319011261050d57823592610946610d14565b838352602081905281832060038101546001600160a01b039081163303610a195760068201805461097960ff8216610c71565b60ff191690556001820154169082600282015491015492823b15610a1557918493918680946109bf975197889586948593637921219560e11b8552339030908601610caa565b03925af1908115610a0c57506109fd575b50907fb44d5981f3bd81a0185dad0967e03df817142f923e4b93a322e68f34ec23cba98280a26001815580f35b610a0690610b67565b386109d0565b513d84823e3d90fd5b8580fd5b835162461bcd60e51b8152602081850152600e60248201526d2737ba103a34329039b2b63632b960911b6044820152606490fd5b503461013c57602036600319011261013c578160e09382358152826020522080549260018060a01b03928360018401541693600284015490600385015416918401549260ff600660058701549601541695815197885260208801528601526060850152608084015260a0830152151560c0820152f35b50503461050d578160031936011261050d576020906003549051908152f35b9250503461013c57602036600319011261013c573563ffffffff60e01b811680910361013c5760209250630271189760e51b8114908115610b25575b5015158152f35b6301ffc9a760e01b14905038610b1e565b600435906001600160a01b0382168203610b4c57565b600080fd5b602435906001600160a01b0382168203610b4c57565b67ffffffffffffffff8111610b7b57604052565b634e487b7160e01b600052604160045260246000fd5b90601f8019910116810190811067ffffffffffffffff821117610b7b57604052565b81601f82011215610b4c5780359160209167ffffffffffffffff8411610b7b578360051b9060405194610be885840187610b91565b85528380860192820101928311610b4c578301905b828210610c0b575050505090565b81358152908301908301610bfd565b81601f82011215610b4c5780359067ffffffffffffffff8211610b7b5760405192610c4f601f8401601f191660200185610b91565b82845260208383010111610b4c57816000926020809301838601378301015290565b15610c7857565b60405162461bcd60e51b815260206004820152600a602482015269139bdd081b1a5cdd195960b21b6044820152606490fd5b929060c0949260018060a01b0380921685521660208401526040830152606082015260a06080820152600060a08201520190565b81810292918115918404141715610cf157565b634e487b7160e01b600052601160045260246000fd5b91908203918211610cf157565b600260005414610d25576002600055565b604051633ee5aeb560e01b8152600490fd5b6001546001600160a01b03163303610d4b57565b60405163118cdaa760e01b8152336004820152602490fd5b60ff60015460a01c16610d7257565b60405163d93c066560e01b8152600490fd5b6040516323b872dd60e01b602082019081526001600160a01b039384166024830152938316604482015260648082019590955293845292909160a082019067ffffffffffffffff821183831017610b7b57602092600092604052519082865af115610e23576000513d610e1a57508082163b155b610e00575050565b604051635274afe760e01b81529116600482015260249150fd5b60011415610df8565b6040513d6000823e3d90fdfea2646970667358221220f63a345de3c7c88de4240859e0d850a77a30d1332399273e19af023de802fe8a64736f6c63430008180033",
  "linkReferences": {},
  "deployedLinkReferences": {}
}