{
  "_format": "hh-sol-artifact-1",
  "contractName": "UserProfile",
  "sourceName": "contracts/UserProfile.sol",
  "abi": [
    {
      "inputs": [
        {
          "internalType": "address",
          "name": "initialOwner",
          "type": "address"
        }
      ],
      "stateMutability": "nonpayable",
      "type": "constructor"
    },
    {
      "inputs": [
        {
          "internalType": "address",
          "name": "owner",
          "type": "address"
        }
      ],
      "name": "OwnableInvalidOwner",
      "type": "error"
    },
    {
      "inputs": [
        {
          "internalType": "address",
          "name": "account",
          "type": "address"
        }
      ],
      "name": "OwnableUnauthorizedAccount",
      "type": "error"
    },
    {
      "anonymous": false,
      "inputs": [
        {
          "indexed": true,
          "internalType": "address",
          "name": "previousOwner",
          "type": "address"
        },
        {
          "indexed": true,
          "internalType": "address",
          "name": "newOwner",
          "type": "address"
        }
      ],
      "name": "OwnershipTransferred",
      "type": "event"
    },
    {
      "anonymous": false,
      "inputs": [
        {
          "indexed": true,
          "internalType": "address",
          "name": "user",
          "type": "address"
        },
        {
          "indexed": false,
          "internalType": "string",
          "name": "username",
          "type": "string"
        }
      ],
      "name": "ProfileCreated",
      "type": "event"
    },
    {
      "anonymous": false,
      "inputs": [
        {
          "indexed": true,
          "internalType": "address",
          "name": "user",
          "type": "address"
        },
        {
          "indexed": false,
          "internalType": "string",
          "name": "username",
          "type": "string"
        }
      ],
      "name": "ProfileUpdated",
      "type": "event"
    },
    {
      "inputs": [
        {
          "internalType": "string",
          "name": "_username",
          "type": "string"
        },
        {
          "internalType": "string",
          "name": "_bio",
          "type": "string"
        },
        {
          "internalType": "string",
          "name": "_profilePictureUri",
          "type": "string"
        },
        {
          "internalType": "string",
          "name": "_publicKey",
          "type": "string"
        }
      ],
      "name": "createProfile",
      "outputs": [],
      "stateMutability": "nonpayable",
      "type": "function"
    },
    {
      "inputs": [],
      "name": "getAllUsers",
      "outputs": [
        {
          "internalType": "address[]",
          "name": "",
          "type": "address[]"
        }
      ],
      "stateMutability": "view",
      "type": "function"
    },
    {
      "inputs": [
        {
          "internalType": "address",
          "name": "_user",
          "type": "address"
        }
      ],
      "name": "getProfile",
      "outputs": [
        {
          "components": [
            {
              "internalType": "string",
              "name": "username",
              "type": "string"
            },
            {
              "internalType": "string",
              "name": "bio",
              "type": "string"
            },
            {
              "internalType": "string",
              "name": "profilePictureUri",
              "type": "string"
            },
            {
              "internalType": "string",
              "name": "publicKey",
              "type": "string"
            },
            {
              "internalType": "bool",
              "name": "isCreated",
              "type": "bool"
            }
          ],
          "internalType": "struct UserProfile.Profile",
          "name": "",
          "type": "tuple"
        }
      ],
      "stateMutability": "view",
      "type": "function"
    },
    {
      "inputs": [
        {
          "internalType": "string",
          "name": "_username",
          "type": "string"
        }
      ],
      "name": "getProfileByUsername",
      "outputs": [
        {
          "internalType": "address",
          "name": "",
          "type": "address"
        }
      ],
      "stateMutability": "view",
      "type": "function"
    },
    {
      "inputs": [
        {
          "internalType": "string",
          "name": "_username",
          "type": "string"
        }
      ],
      "name": "isUsernameAvailable",
      "outputs": [
        {
          "internalType": "bool",
          "name": "",
          "type": "bool"
        }
      ],
      "stateMutability": "view",
      "type": "function"
    },
    {
      "inputs": [],
      "name": "owner",
      "outputs": [
        {
          "internalType": "address",
          "name": "",
          "type": "address"
        }
      ],
      "stateMutability": "view",
      "type": "function"
    },
    {
      "inputs": [
        {
          "internalType": "address",
          "name": "",
          "type": "address"
        }
      ],
      "name": "profiles",
      "outputs": [
        {
          "internalType": "string",
          "name": "username",
          "type": "string"
        },
        {
          "internalType": "string",
          "name": "bio",
          "type": "string"
        },
        {
          "internalType": "string",
          "name": "profilePictureUri",
          "type": "string"
        },
        {
          "internalType": "string",
          "name": "publicKey",
          "type": "string"
        },
        {
          "internalType": "bool",
          "name": "isCreated",
          "type": "bool"
        }
      ],
      "stateMutability": "view",
      "type": "function"
    },
    {
      "inputs": [],
      "name": "renounceOwnership",
      "outputs": [],
      "stateMutability": "nonpayable",
      "type": "function"
    },
    {
      "inputs": [
        {
          "internalType": "address",
          "name": "newOwner",
          "type": "address"
        }
      ],
      "name": "transferOwnership",
      "outputs": [],
      "stateMutability": "nonpayable",
      "type": "function"
    },
    {
      "inputs": [
        {
          "internalType": "string",
          "name": "_username",
          "type": "string"
        },
        {
          "internalType": "string",
          "name": "_bio",
          "type": "string"
        },
        {
          "internalType": "string",
          "name": "_profilePictureUri",
          "type": "string"
        },
        {
          "internalType": "string",
          "name": "_publicKey",
          "type": "string"
        }
      ],
      "name": "updateProfile",
      "outputs": [],
      "stateMutability": "nonpayable",
      "type": "function"
    },
    {
      "inputs": [
        {
          "internalType": "string",
          "name": "",
          "type": "string"
        }
      ],
      "name": "usernameTaken",
      "outputs": [
        {
          "internalType": "bool",
          "name": "",
          "type": "bool"
        }
      ],
      "stateMutability": "view",
      "type": "function"
    },
    {
      "inputs": [
        {
          "internalType": "string",
          "name": "",
          "type": "string"
        }
      ],
      "name": "usernameToAddress",
      "outputs": [
        {
          "internalType": "address",
          "name": "",
          "type": "address"
        }
      ],
      "stateMutability": "view",
      "type": "function"
    },
    {
      "inputs": [
        {
          "internalType": "uint256",
          "name": "",
          "type": "uint256"
        }
      ],
      "name": "users",
      "outputs": [
        {
          "internalType": "address",
          "name": "",
          "type": "address"
        }
      ],
      "stateMutability": "view",
      "type": "function"
    }
  ],
  "bytecode": "0x6080346100b857601f6117c638819003918201601f19168301916001600160401b038311848410176100bd578084926020946040528339810103126100b857516001600160a01b03808216918290036100b857811561009f576000548260018060a01b0319821617600055167f8be0079c531659141344cd1fd0a4f28419497f9722a3daafe3b4186f6b6457e0600080a36040516116f290816100d48239f35b604051631e4fbdf760e01b815260006004820152602490fd5b600080fd5b634e487b7160e01b600052604160045260246000fdfe608080604052600436101561001357600080fd5b60003560e01c9081630f53a4701461123e57508063365b98b2146111fc5780635513802c14611149578063715018a6146110f05780638da5cb5b146110c75780639483f25c14610a21578063b0c0647f146103dd578063bbe156271461031c578063e2842d7914610254578063f26e818a14610206578063f2fde38b1461017b578063f69c6dec1461011b5763f825f143146100ae57600080fd5b34610116576020366003190112610116576004356001600160401b038111610116576100e06020913690600401611454565b816100f46040519283815193849201611383565b600390820190815281900382019020546040516001600160a01b039091168152f35b600080fd5b34610116576020366003190112610116576004356001600160401b0381116101165760ff610166602061015381943690600401611454565b8160405193828580945193849201611383565b81016002815203019020541615604051908152f35b34610116576020366003190112610116576004356001600160a01b0381811691829003610116576101aa611690565b81156101ed57600054826001600160601b0360a01b821617600055167f8be0079c531659141344cd1fd0a4f28419497f9722a3daafe3b4186f6b6457e0600080a3005b604051631e4fbdf760e01b815260006004820152602490fd5b34610116576020366003190112610116576004356001600160401b0381116101165760ff61023e602061015381943690600401611454565b8101600281520301902054166040519015158152f35b3461011657600036600319011261011657604051806004548083526020809301809160046000527f8a35acfbc15ff81a39ae7d344fd709f28e8600b4aa8c65c6b64bfe7fe36bd19b9060005b868282106102ff5786866102b682880383611433565b604051928392818401908285525180915260408401929160005b8281106102df57505050500390f35b83516001600160a01b0316855286955093810193928101926001016102d0565b83546001600160a01b0316855290930192600192830192016102a0565b34610116576020366003190112610116576004356001600160a01b038116908190036101165760005260016020526103a7604060002061035b8161155a565b906103d161036b6001830161155a565b916103c361037b6002830161155a565b6103b560ff600461038e6003870161155a565b950154169560405198899860a08a5260a08a01906113a6565b9088820360208a01526113a6565b9086820360408801526113a6565b9084820360608601526113a6565b90151560808301520390f35b34610116576103eb366114aa565b9033600052600160205260ff600460406000200154166109e35761043160ff604051602081885161041f8183858d01611383565b81016002815203019020541615611644565b6040519261043e84611418565b84845260208401526040830152606082015260016080820152336000526001602052604060002081519283516001600160401b0381116106c6576104828354611520565b601f811161099f575b506020601f821160011461093657819293949560009261092b575b50508160011b916000199060031b1c19161782555b60208301519283516001600160401b0381116106c6576104de6001850154611520565b601f81116108e4575b506020601f821160011461087557819293949560009261086a575b50508160011b916000199060031b1c19161760018401555b60408101519283516001600160401b0381116106c65761053d6002830154611520565b601f811161081f575b506020601f82116001146107b05781929394956000926107a5575b50508160011b916000199060031b1c19161760028201555b60608201518051906001600160401b0382116106c65761059c6003840154611520565b601f811161075a575b50602090601f83116001146106e7579180608094926004946000926106dc575b50508160011b916000199060031b1c19161760038201555b0191015115159060ff199160ff8383541691161790556001604051602081855161060a8183858a01611383565b810160028152030190209182541617905560405160208183516106308183858801611383565b81016003815203019020336001600160601b0360a01b825416179055600454680100000000000000008110156106c65780600161067092016004556113cb565b81549060031b9033821b9160018060a01b03901b19161790557fbafddecbd1dec1c1afb76d693f1de16901f521bdf29a02438e3e6806c0b8d94860405160208152806106c1339460208301906113a6565b0390a2005b634e487b7160e01b600052604160045260246000fd5b0151905087806105c5565b90601f198316916003850160005260206000209260005b81811061074257509260019285926004966080989610610729575b505050811b0160038201556105dd565b015160001960f88460031b161c19169055878080610719565b929360206001819287860151815501950193016106fe565b600384016000526020600020601f840160051c8101916020851061079b575b601f0160051c01905b81811061078f57506105a5565b60008155600101610782565b9091508190610779565b015190508580610561565b6002830160005260206000209060005b601f1984168110610807575060019394959683601f198116106107ee575b505050811b016002820155610579565b015160001960f88460031b161c191690558580806107de565b9091602060018192858b0151815501930191016107c0565b600283016000526020600020601f830160051c81019160208410610860575b601f0160051c01905b8181106108545750610546565b60008155600101610847565b909150819061083e565b015190508580610502565b6001850160005260206000209060005b601f19841681106108cc575060019394959683601f198116106108b3575b505050811b01600184015561051a565b015160001960f88460031b161c191690558580806108a3565b9091602060018192858b015181550193019101610885565b600185016000526020600020601f830160051c810160208410610924575b601f830160051c820181106109185750506104e7565b60008155600101610902565b5080610902565b0151905085806104a6565b8360005260206000209060005b601f1984168110610987575060019394959683601f1981161061096e575b505050811b0182556104bb565b015160001960f88460031b161c19169055858080610961565b9091602060018192858b015181550193019101610943565b836000526020600020601f830160051c8101602084106109dc575b601f830160051c820181106109d057505061048b565b600081556001016109ba565b50806109ba565b60405162461bcd60e51b815260206004820152601660248201527550726f66696c6520616c72656164792065786973747360501b6044820152606490fd5b3461011657610a2f366114aa565b91929092336000526001602052610a5060ff600460406000200154166115ff565b33600052600160205260406000206040516020810191816000825492610a7584611520565b93600181169081156110a95750600114611067575b50610a9e925003601f198101835282611433565b5190206040519060208201845192610ace60208281890196610ac181878a611383565b8101038084520182611433565b51902003610e73575b503360005260016020526001604060002001908051906001600160401b0382116106c6578190610b078454611520565b601f8111610e20575b50602090601f8311600114610dba57600092610daf575b50508160011b916000199060031b1c19161790555b336000526001602052600260406000200183516001600160401b0381116106c657610b678254611520565b601f8111610d67575b50602094601f8211600114610d0157948192939495600092610cf6575b50508160011b916000199060031b1c19161790555b336000526001602052600360406000200182516001600160401b0381116106c657610bcd8254611520565b601f8111610cae575b506020601f8211600114610c485781929394600092610c3d575b50508160011b916000199060031b1c19161790555b7fdd635a4cd84864e37e4479dbfc2ec667acfa473c83c8422a8ac9d9d07599b01c60405160208152806106c1339460208301906113a6565b015190508480610bf0565b601f198216908360005260206000209160005b818110610c9657509583600195969710610c7d575b505050811b019055610c05565b015160001960f88460031b161c19169055848080610c70565b9192602060018192868b015181550194019201610c5b565b826000526020600020601f830160051c81019160208410610cec575b601f0160051c01905b818110610ce05750610bd6565b60008155600101610cd3565b9091508190610cca565b015190508580610b8d565b601f198216958360005260206000209160005b888110610d4f57508360019596979810610d36575b505050811b019055610ba2565b015160001960f88460031b161c19169055858080610d29565b91926020600181928685015181550194019201610d14565b826000526020600020601f830160051c81019160208410610da5575b601f0160051c01905b818110610d995750610b70565b60008155600101610d8c565b9091508190610d83565b015190508680610b27565b6000858152602081209350601f198516905b818110610e085750908460019594939210610def575b505050811b019055610b3c565b015160001960f88460031b161c19169055868080610de2565b92936020600181928786015181550195019301610dcc565b909150836000526020600020601f840160051c81019160208510610e69575b90601f859493920160051c01905b818110610e5a5750610b10565b60008155849350600101610e4d565b9091508190610e3f565b610e8b60ff604051602081875161041f818389611383565b336000526001602052610f3b6020610ea6604060002061155a565b92610ee8826040518651908281818a0193610ec2818387611383565b810160028152030190209660ff1997888154169055604051938492839251928391611383565b81016003815203019020936001600160601b0360a01b94858154169055600160405184818a51610f19818389611383565b8101600281520301902091825416179055604051809381928851928391611383565b81016003815203019020903390825416179055336000526001602052604060002082516001600160401b0381116106c657610f768254611520565b601f811161101f575b50806020601f8211600114610fbb57600091610fb0575b508160011b916000199060031b1c19161790555b84610ad7565b905084015187610f96565b6000848152602081209250601f198416905b81811061100757509083600194939210610fee575b5050811b019055610faa565b86015160001960f88460031b161c191690558780610fe2565b9192602060018192868b015181550194019201610fcd565b826000526020600020601f830160051c8101916020841061105d575b601f0160051c01905b8181106110515750610f7f565b60008155600101611044565b909150819061103b565b9150506000528160206000206000905b83821061108f5750506020610a9e9282010189610a8a565b602091925080600191548385880101520191018391611077565b60ff1916875250610a9e9380151502830160200191508a9050610a8a565b34610116576000366003190112610116576000546040516001600160a01b039091168152602090f35b3461011657600036600319011261011657611109611690565b600080546001600160a01b0319811682556001600160a01b03167f8be0079c531659141344cd1fd0a4f28419497f9722a3daafe3b4186f6b6457e08280a3005b3461011657602080600319360112610116576004356001600160401b0381116101165761117a903690600401611454565b6040519060ff815192848181850195611194818389611383565b810160028152030190205416156111b7576100f460405192839251928391611383565b60405162461bcd60e51b815260048101849052601760248201527f557365726e616d6520646f6573206e6f742065786973740000000000000000006044820152606490fd5b3461011657602036600319011261011657600435600454811015610116576112256020916113cb565b905460405160039290921b1c6001600160a01b03168152f35b346101165760209081600319360112610116576004356001600160a01b03811692908390036101165760a09261127383611418565b6000608060609485815285858201528560408201528580820152015280600052600182526112ab60ff600460406000200154166115ff565b600052600181526113766040600020604051936112c785611418565b6112d08261155a565b85526113656112e16001840161155a565b918587019283526112f46002850161155a565b906040880191825261135461133e60ff600461131260038a0161155a565b98858d01998a520154169860808b019915158a526040519b8c9b828d5251918c015260c08b01906113a6565b945194601f1995868b83030160408c01526113a6565b9151908489840301908901526113a6565b9151908583030160808601526113a6565b9051151560a08301520390f35b60005b8381106113965750506000910152565b8181015183820152602001611386565b906020916113bf81518092818552858086019101611383565b601f01601f1916010190565b6004548110156114025760046000527f8a35acfbc15ff81a39ae7d344fd709f28e8600b4aa8c65c6b64bfe7fe36bd19b0190600090565b634e487b7160e01b600052603260045260246000fd5b60a081019081106001600160401b038211176106c657604052565b90601f801991011681019081106001600160401b038211176106c657604052565b81601f82011215610116578035906001600160401b0382116106c65760405192611488601f8401601f191660200185611433565b8284526020838301011161011657816000926020809301838601378301015290565b6080600319820112610116576001600160401b039060043582811161011657816114d691600401611454565b9260243583811161011657826114ee91600401611454565b92604435818111610116578361150691600401611454565b926064359182116101165761151d91600401611454565b90565b90600182811c92168015611550575b602083101461153a57565b634e487b7160e01b600052602260045260246000fd5b91607f169161152f565b9060405191826000825461156d81611520565b908184526020946001916001811690816000146115dd575060011461159e575b50505061159c92500383611433565b565b600090815285812095935091905b8183106115c557505061159c935082010138808061158d565b855488840185015294850194879450918301916115ac565b9250505061159c94925060ff191682840152151560051b82010138808061158d565b1561160657565b60405162461bcd60e51b8152602060048201526016602482015275141c9bd99a5b1948191bd95cc81b9bdd08195e1a5cdd60521b6044820152606490fd5b1561164b57565b60405162461bcd60e51b815260206004820152601960248201527f557365726e616d6520697320616c72656164792074616b656e000000000000006044820152606490fd5b6000546001600160a01b031633036116a457565b60405163118cdaa760e01b8152336004820152602490fdfea264697066735822122079dca05bbe2a9dc5cc3b9198d67649c38fd0c2ce8232bfe9e6832101e1e35cb464736f6c63430008180033",
  "linkReferences": {},
  "deployedLinkReferences": {}
}