{
  "_format": "hh-sol-artifact-1",
  "contractName": "BeZhasVault",
  "sourceName": "contracts/BeZhasVault.sol",
  "abi": [
    {
      "inputs": [
        {
          "internalType": "address",
          "name": "_bezCoin",
          "type": "address"
        },
        {
          "internalType": "address",
          "name": "_factory",
          "type": "address"
        }
      ],
      "stateMutability": "nonpayable",
      "type": "constructor"
    },
    {
      "inputs": [],
      "name": "EnforcedPause",
      "type": "error"
    },
    {
      "inputs": [],
      "name": "ExpectedPause",
      "type": "error"
    },
    {
      "inputs": [
        {
          "internalType": "address",
          "name": "owner",
          "type": "address"
        }
      ],
      "name": "OwnableInvalidOwner",
      "type": "error"
    },
    {
      "inputs": [
        {
          "internalType": "address",
          "name": "account",
          "type": "address"
        }
      ],
      "name": "OwnableUnauthorizedAccount",
      "type": "error"
    },
    {
      "inputs": [],
      "name": "ReentrancyGuardReentrantCall",
      "type": "error"
    },
    {
      "inputs": [
        {
          "internalType": "address",
          "name": "token",
          "type": "address"
        }
      ],
      "name": "SafeERC20FailedOperation",
      "type": "error"
    },
    {
      "anonymous": false,
      "inputs": [
        {
          "indexed": true,
          "internalType": "uint256",
          "name": "assetId",
          "type": "uint256"
        }
      ],
      "name": "AssetActivated",
      "type": "event"
    },
    {
      "anonymous": false,
      "inputs": [
        {
          "indexed": true,
          "internalType": "uint256",
          "name": "assetId",
          "type": "uint256"
        }
      ],
      "name": "AssetDeactivated",
      "type": "event"
    },
    {
      "anonymous": false,
      "inputs": [
        {
          "indexed": true,
          "internalType": "uint256",
          "name": "assetId",
          "type": "uint256"
        },
        {
          "indexed": true,
          "internalType": "address",
          "name": "investor",
          "type": "address"
        },
        {
          "indexed": false,
          "internalType": "uint256",
          "name": "amount",
          "type": "uint256"
        }
      ],
      "name": "DividendsClaimed",
      "type": "event"
    },
    {
      "anonymous": false,
      "inputs": [
        {
          "indexed": true,
          "internalType": "uint256",
          "name": "assetId",
          "type": "uint256"
        },
        {
          "indexed": false,
          "internalType": "uint256",
          "name": "amount",
          "type": "uint256"
        },
        {
          "indexed": true,
          "internalType": "address",
          "name": "depositor",
          "type": "address"
        }
      ],
      "name": "MonthlyRentDeposited",
      "type": "event"
    },
    {
      "anonymous": false,
      "inputs": [
        {
          "indexed": true,
          "internalType": "address",
          "name": "previousOwner",
          "type": "address"
        },
        {
          "indexed": true,
          "internalType": "address",
          "name": "newOwner",
          "type": "address"
        }
      ],
      "name": "OwnershipTransferred",
      "type": "event"
    },
    {
      "anonymous": false,
      "inputs": [
        {
          "indexed": false,
          "internalType": "address",
          "name": "account",
          "type": "address"
        }
      ],
      "name": "Paused",
      "type": "event"
    },
    {
      "anonymous": false,
      "inputs": [
        {
          "indexed": false,
          "internalType": "address",
          "name": "account",
          "type": "address"
        }
      ],
      "name": "Unpaused",
      "type": "event"
    },
    {
      "inputs": [
        {
          "internalType": "uint256",
          "name": "_assetId",
          "type": "uint256"
        }
      ],
      "name": "activateAsset",
      "outputs": [],
      "stateMutability": "nonpayable",
      "type": "function"
    },
    {
      "inputs": [
        {
          "internalType": "uint256",
          "name": "",
          "type": "uint256"
        }
      ],
      "name": "assetDividends",
      "outputs": [
        {
          "internalType": "uint256",
          "name": "totalDeposited",
          "type": "uint256"
        },
        {
          "internalType": "uint256",
          "name": "lastDistributionTime",
          "type": "uint256"
        },
        {
          "internalType": "uint256",
          "name": "distributionCount",
          "type": "uint256"
        },
        {
          "internalType": "bool",
          "name": "isActive",
          "type": "bool"
        }
      ],
      "stateMutability": "view",
      "type": "function"
    },
    {
      "inputs": [],
      "name": "bezCoin",
      "outputs": [
        {
          "internalType": "contract IERC20",
          "name": "",
          "type": "address"
        }
      ],
      "stateMutability": "view",
      "type": "function"
    },
    {
      "inputs": [
        {
          "internalType": "uint256",
          "name": "_assetId",
          "type": "uint256"
        }
      ],
      "name": "claimDividends",
      "outputs": [],
      "stateMutability": "nonpayable",
      "type": "function"
    },
    {
      "inputs": [
        {
          "internalType": "uint256",
          "name": "",
          "type": "uint256"
        },
        {
          "internalType": "address",
          "name": "",
          "type": "address"
        }
      ],
      "name": "claimedDividends",
      "outputs": [
        {
          "internalType": "uint256",
          "name": "",
          "type": "uint256"
        }
      ],
      "stateMutability": "view",
      "type": "function"
    },
    {
      "inputs": [
        {
          "internalType": "uint256",
          "name": "_assetId",
          "type": "uint256"
        }
      ],
      "name": "deactivateAsset",
      "outputs": [],
      "stateMutability": "nonpayable",
      "type": "function"
    },
    {
      "inputs": [
        {
          "internalType": "uint256",
          "name": "_assetId",
          "type": "uint256"
        },
        {
          "internalType": "uint256",
          "name": "_amount",
          "type": "uint256"
        }
      ],
      "name": "depositMonthlyRent",
      "outputs": [],
      "stateMutability": "nonpayable",
      "type": "function"
    },
    {
      "inputs": [
        {
          "internalType": "uint256",
          "name": "",
          "type": "uint256"
        },
        {
          "internalType": "uint256",
          "name": "",
          "type": "uint256"
        }
      ],
      "name": "distributionHistory",
      "outputs": [
        {
          "internalType": "uint256",
          "name": "",
          "type": "uint256"
        }
      ],
      "stateMutability": "view",
      "type": "function"
    },
    {
      "inputs": [
        {
          "internalType": "address",
          "name": "_token",
          "type": "address"
        },
        {
          "internalType": "uint256",
          "name": "_amount",
          "type": "uint256"
        }
      ],
      "name": "emergencyWithdraw",
      "outputs": [],
      "stateMutability": "nonpayable",
      "type": "function"
    },
    {
      "inputs": [
        {
          "internalType": "uint256",
          "name": "_assetId",
          "type": "uint256"
        },
        {
          "internalType": "address",
          "name": "_user",
          "type": "address"
        }
      ],
      "name": "getPendingRewards",
      "outputs": [
        {
          "internalType": "uint256",
          "name": "",
          "type": "uint256"
        }
      ],
      "stateMutability": "view",
      "type": "function"
    },
    {
      "inputs": [],
      "name": "owner",
      "outputs": [
        {
          "internalType": "address",
          "name": "",
          "type": "address"
        }
      ],
      "stateMutability": "view",
      "type": "function"
    },
    {
      "inputs": [],
      "name": "pause",
      "outputs": [],
      "stateMutability": "nonpayable",
      "type": "function"
    },
    {
      "inputs": [],
      "name": "paused",
      "outputs": [
        {
          "internalType": "bool",
          "name": "",
          "type": "bool"
        }
      ],
      "stateMutability": "view",
      "type": "function"
    },
    {
      "inputs": [],
      "name": "renounceOwnership",
      "outputs": [],
      "stateMutability": "nonpayable",
      "type": "function"
    },
    {
      "inputs": [],
      "name": "rwaFactory",
      "outputs": [
        {
          "internalType": "contract IERC1155",
          "name": "",
          "type": "address"
        }
      ],
      "stateMutability": "view",
      "type": "function"
    },
    {
      "inputs": [
        {
          "internalType": "address",
          "name": "newOwner",
          "type": "address"
        }
      ],
      "name": "transferOwnership",
      "outputs": [],
      "stateMutability": "nonpayable",
      "type": "function"
    },
    {
      "inputs": [],
      "name": "unpause",
      "outputs": [],
      "stateMutability": "nonpayable",
      "type": "function"
    },
    {
      "inputs": [
        {
          "internalType": "address",
          "name": "_newFactory",
          "type": "address"
        }
      ],
      "name": "updateFactory",
      "outputs": [],
      "stateMutability": "nonpayable",
      "type": "function"
    }
  ],
  "bytecode": "0x60a03461010b57601f610c4238819003918201601f19168301916001600160401b0383118484101761011057808492604094855283398101031261010b57610052602061004b83610126565b9201610126565b33156100f25760008054336001600160a01b0319821681178355604051946001600160a01b039390928416907f8be0079c531659141344cd1fd0a4f28419497f9722a3daafe3b4186f6b6457e09080a3600180551660805260028054610100600160a81b03191660089290921b610100600160a81b0316919091179055610b07908161013b823960805181818161026f015281816102ff01526106640152f35b604051631e4fbdf760e01b815260006004820152602490fd5b600080fd5b634e487b7160e01b600052604160045260246000fd5b51906001600160a01b038216820361010b5756fe6080604081815260048036101561001557600080fd5b600092833560e01c9081631c855abc1461080b57508063319af5e0146107b3578063325d99b2146105e05780633f4ba83a146105775780634b74bd69146105295780635c975abb14610505578063715018a6146104ab5780638456cb591461045057806385dc0aaf146104215780638da5cb5b146103f957806395ccea67146103ba578063bb74ba4b1461038d578063bd7047c4146102a2578063c77635421461025a578063cff635671461021a578063d9f165dc146101cd578063f2fde38b146101475763ffba205f146100e957600080fd5b346101435760203660031901126101435760039035916101076109c5565b82845281602052832001600160ff198254161790557f23a39165e7ea63387856bbb51381519f6966967b3e854e9b16035b778c1cb97d8280a280f35b8280fd5b503461014357602036600319011261014357610161610865565b9061016a6109c5565b6001600160a01b039182169283156101b757505082546001600160a01b0319811683178455167f8be0079c531659141344cd1fd0a4f28419497f9722a3daafe3b4186f6b6457e08380a380f35b51631e4fbdf760e01b8152908101849052602490fd5b8334610217576020366003190112610217576101e7610865565b6101ef6109c5565b60028054610100600160a81b03191660089290921b610100600160a81b031691909117905580f35b80fd5b5034610143578160031936011261014357602092829161023861084f565b813583529085528282206001600160a01b039091168252845220549051908152f35b50503461029e578160031936011261029e57517f00000000000000000000000000000000000000000000000000000000000000006001600160a01b03168152602090f35b5080fd5b509034610143576020366003190112610143578135906102c06109f1565b6102c8610a14565b6102d233836108d6565b928315610354578285526020528084203385526020528084206102f684825461087b565b905561032383337f0000000000000000000000000000000000000000000000000000000000000000610a32565b519182527f6f7ca1e26318ba002eaad671db8b3dac8c655cb4998fe4f30e25c1506baf240360203393a36001805580f35b6020606492519162461bcd60e51b835282015260146024820152734e6f2070656e64696e67206469766964656e647360601b6044820152fd5b50503461029e578160031936011261029e57600254905160089190911c6001600160a01b03168152602090f35b50503461029e57366003190112610217576103f66103d6610865565b6103de6109c5565b8254602435916001600160a01b039182169116610a32565b80f35b50503461029e578160031936011261029e57905490516001600160a01b039091168152602090f35b5091346102175781600319360112610217575061044960209261044261084f565b90356108d6565b9051908152f35b50503461029e578160031936011261029e5760207f62e78cea01bee320cd4e420270b5ea74000d11b0c9f74754ebdbfc544b05a2589161048e6109c5565b610496610a14565b600160ff19600254161760025551338152a180f35b83346102175780600319360112610217576104c46109c5565b80546001600160a01b03198116825581906001600160a01b03167f8be0079c531659141344cd1fd0a4f28419497f9722a3daafe3b4186f6b6457e08280a380f35b50503461029e578160031936011261029e5760209060ff6002541690519015158152f35b50346101435760203660031901126101435760809282913581526003602052209081549160018101549160ff6003600284015493015416928151948552602085015283015215156060820152f35b50346101435782600319360112610143576105906109c5565b6002549060ff8216156105d2575060ff1916600255513381527f5db9ee0a495bf2e6ff9c91a7834c1ba4fdd244a5e8aa4e537bd38aeae4b073aa90602090a180f35b8251638dfc202b60e01b8152fd5b5091903461029e576105f136610834565b916105fa6109f1565b610602610a14565b821561077c578184526020906003825260ff6003828720015416156107395780516323b872dd60e01b838201523360248201523060448201526064808201869052815260a0810167ffffffffffffffff811182821017610726578252610688907f0000000000000000000000000000000000000000000000000000000000000000610a75565b8285526003825280852061069d85825461087b565b9055828552600382528085204260018201556002018054600019811461071357600101905582855260038252808520600201546005835281862090865282528085208490555192835233927fd50668eca75a8624ecd77a6ec2ddb805e653fbcca4478b37cbd8542168467a259190a36001805580f35b634e487b7160e01b875260118852602487fd5b634e487b7160e01b875260418852602487fd5b5162461bcd60e51b815280860191909152601e60248201527f4173736574206e6f742061637469766520666f72206469766964656e647300006044820152606490fd5b5162461bcd60e51b815260208186015260126024820152710416d6f756e74206d757374206265203e20360741b6044820152606490fd5b50346101435760203660031901126101435760039035916107d26109c5565b8284528160205283200160ff1981541690557f24eeae42f647ed9085bd63c948c8201b093844d2ad153d02e9c42950d0306ccc8280a280f35b849084346101435760209261081f36610834565b90825260058552828220908252845220548152f35b604090600319011261084a576004359060243590565b600080fd5b602435906001600160a01b038216820361084a57565b600435906001600160a01b038216820361084a57565b9190820180921161088857565b634e487b7160e01b600052601160045260246000fd5b90601f8019910116810190811067ffffffffffffffff8211176108c057604052565b634e487b7160e01b600052604160045260246000fd5b600254604051627eeac760e11b81526001600160a01b0384811660048301526024820184905293909290916020919082908590604490829060081c89165afa9384156109b95760009461098a575b50831561098057600052600381526040600020549360048252604060002092166000525260406000205491818102918183041490151715610888576103e8900490808211156109795781039081116108885790565b5050600090565b5050505050600090565b90938282813d83116109b2575b6109a1818361089e565b810103126102175750519238610924565b503d610997565b6040513d6000823e3d90fd5b6000546001600160a01b031633036109d957565b60405163118cdaa760e01b8152336004820152602490fd5b600260015414610a02576002600155565b604051633ee5aeb560e01b8152600490fd5b60ff60025416610a2057565b60405163d93c066560e01b8152600490fd5b60405163a9059cbb60e01b60208201526001600160a01b03929092166024830152604480830193909352918152610a7391610a6e60648361089e565b610a75565b565b906000602091828151910182855af1156109b9576000513d610ac857506001600160a01b0381163b155b610aa65750565b604051635274afe760e01b81526001600160a01b039091166004820152602490fd5b60011415610a9f56fea2646970667358221220272b01e0bdc0b242d9e54b3c4a10e13c450f88d68083777a4cbe47c3a66ec68864736f6c63430008180033",
  "linkReferences": {},
  "deployedLinkReferences": {}
}