{
  "_format": "hh-sol-artifact-1",
  "contractName": "Post",
  "sourceName": "contracts/Post.sol",
  "abi": [
    {
      "inputs": [
        {
          "internalType": "address",
          "name": "_userProfileAddress",
          "type": "address"
        }
      ],
      "stateMutability": "nonpayable",
      "type": "constructor"
    },
    {
      "inputs": [
        {
          "internalType": "address",
          "name": "owner",
          "type": "address"
        }
      ],
      "name": "OwnableInvalidOwner",
      "type": "error"
    },
    {
      "inputs": [
        {
          "internalType": "address",
          "name": "account",
          "type": "address"
        }
      ],
      "name": "OwnableUnauthorizedAccount",
      "type": "error"
    },
    {
      "anonymous": false,
      "inputs": [
        {
          "indexed": true,
          "internalType": "uint256",
          "name": "postId",
          "type": "uint256"
        },
        {
          "indexed": true,
          "internalType": "address",
          "name": "author",
          "type": "address"
        }
      ],
      "name": "CommentCreated",
      "type": "event"
    },
    {
      "anonymous": false,
      "inputs": [
        {
          "indexed": true,
          "internalType": "address",
          "name": "previousOwner",
          "type": "address"
        },
        {
          "indexed": true,
          "internalType": "address",
          "name": "newOwner",
          "type": "address"
        }
      ],
      "name": "OwnershipTransferred",
      "type": "event"
    },
    {
      "anonymous": false,
      "inputs": [
        {
          "indexed": true,
          "internalType": "uint256",
          "name": "postId",
          "type": "uint256"
        },
        {
          "indexed": true,
          "internalType": "address",
          "name": "author",
          "type": "address"
        }
      ],
      "name": "PostCreated",
      "type": "event"
    },
    {
      "anonymous": false,
      "inputs": [
        {
          "indexed": true,
          "internalType": "uint256",
          "name": "postId",
          "type": "uint256"
        },
        {
          "indexed": true,
          "internalType": "address",
          "name": "user",
          "type": "address"
        },
        {
          "indexed": false,
          "internalType": "bool",
          "name": "liked",
          "type": "bool"
        }
      ],
      "name": "PostLiked",
      "type": "event"
    },
    {
      "inputs": [
        {
          "internalType": "uint256",
          "name": "",
          "type": "uint256"
        },
        {
          "internalType": "uint256",
          "name": "",
          "type": "uint256"
        }
      ],
      "name": "comments",
      "outputs": [
        {
          "internalType": "address",
          "name": "author",
          "type": "address"
        },
        {
          "internalType": "string",
          "name": "contentURI",
          "type": "string"
        },
        {
          "internalType": "uint256",
          "name": "timestamp",
          "type": "uint256"
        }
      ],
      "stateMutability": "view",
      "type": "function"
    },
    {
      "inputs": [
        {
          "internalType": "uint256",
          "name": "_postId",
          "type": "uint256"
        },
        {
          "internalType": "string",
          "name": "_contentURI",
          "type": "string"
        }
      ],
      "name": "createComment",
      "outputs": [],
      "stateMutability": "nonpayable",
      "type": "function"
    },
    {
      "inputs": [
        {
          "internalType": "string",
          "name": "_contentURI",
          "type": "string"
        }
      ],
      "name": "createPost",
      "outputs": [],
      "stateMutability": "nonpayable",
      "type": "function"
    },
    {
      "inputs": [
        {
          "internalType": "uint256",
          "name": "_postId",
          "type": "uint256"
        }
      ],
      "name": "getComments",
      "outputs": [
        {
          "components": [
            {
              "internalType": "address",
              "name": "author",
              "type": "address"
            },
            {
              "internalType": "string",
              "name": "contentURI",
              "type": "string"
            },
            {
              "internalType": "uint256",
              "name": "timestamp",
              "type": "uint256"
            }
          ],
          "internalType": "struct Post.CommentData[]",
          "name": "",
          "type": "tuple[]"
        }
      ],
      "stateMutability": "view",
      "type": "function"
    },
    {
      "inputs": [],
      "name": "getTotalPosts",
      "outputs": [
        {
          "internalType": "uint256",
          "name": "",
          "type": "uint256"
        }
      ],
      "stateMutability": "view",
      "type": "function"
    },
    {
      "inputs": [],
      "name": "owner",
      "outputs": [
        {
          "internalType": "address",
          "name": "",
          "type": "address"
        }
      ],
      "stateMutability": "view",
      "type": "function"
    },
    {
      "inputs": [
        {
          "internalType": "uint256",
          "name": "",
          "type": "uint256"
        },
        {
          "internalType": "address",
          "name": "",
          "type": "address"
        }
      ],
      "name": "postLikes",
      "outputs": [
        {
          "internalType": "bool",
          "name": "",
          "type": "bool"
        }
      ],
      "stateMutability": "view",
      "type": "function"
    },
    {
      "inputs": [
        {
          "internalType": "uint256",
          "name": "",
          "type": "uint256"
        }
      ],
      "name": "posts",
      "outputs": [
        {
          "internalType": "uint256",
          "name": "id",
          "type": "uint256"
        },
        {
          "internalType": "address",
          "name": "author",
          "type": "address"
        },
        {
          "internalType": "string",
          "name": "contentURI",
          "type": "string"
        },
        {
          "internalType": "uint256",
          "name": "timestamp",
          "type": "uint256"
        },
        {
          "internalType": "uint256",
          "name": "likeCount",
          "type": "uint256"
        }
      ],
      "stateMutability": "view",
      "type": "function"
    },
    {
      "inputs": [],
      "name": "renounceOwnership",
      "outputs": [],
      "stateMutability": "nonpayable",
      "type": "function"
    },
    {
      "inputs": [
        {
          "internalType": "uint256",
          "name": "_postId",
          "type": "uint256"
        }
      ],
      "name": "toggleLike",
      "outputs": [],
      "stateMutability": "nonpayable",
      "type": "function"
    },
    {
      "inputs": [
        {
          "internalType": "address",
          "name": "newOwner",
          "type": "address"
        }
      ],
      "name": "transferOwnership",
      "outputs": [],
      "stateMutability": "nonpayable",
      "type": "function"
    },
    {
      "inputs": [],
      "name": "userProfileContract",
      "outputs": [
        {
          "internalType": "contract UserProfile",
          "name": "",
          "type": "address"
        }
      ],
      "stateMutability": "view",
      "type": "function"
    }
  ],
  "bytecode": "0x60803461011e57601f61100c38819003918201601f19168301916001600160401b038311848410176101235780849260209460405283398101031261011e57516001600160a01b038082169182900361011e573315610105576000549060018060a01b0319913383821617600055604051913391167f8be0079c531659141344cd1fd0a4f28419497f9722a3daafe3b4186f6b6457e0600080a382156100b757506001541617600155604051610ed2908161013a8239f35b62461bcd60e51b8152602060048201526024808201527f496e76616c6964205573657250726f66696c6520636f6e7472616374206164646044820152637265737360e01b6064820152608490fd5b604051631e4fbdf760e01b815260006004820152602490fd5b600080fd5b634e487b7160e01b600052604160045260246000fdfe6040608081526004908136101561001557600080fd5b600091823560e01c80630b1e7f8314610a665780631c5f309914610a3d57806323edf6971461090257806340a179851461068a57806354398d18146105055780635fe226b4146104e6578063715018a6146104895780638da5cb5b1461045d578063c7303c61146101f7578063ca1f0cad146101ad578063f2fde38b1461011f5763fc6c776f146100a557600080fd5b3461011b578160031936011261011b576024359080358452602052818320805482101561011757906100d691610cc0565b509060018060a01b038254169060026100f160018501610b6b565b93015461010f82519485948552606060208601526060850190610c33565b918301520390f35b8380fd5b8280fd5b50903461011b57602036600319011261011b576001600160a01b038235818116939192908490036101a957610152610e70565b831561019357505082546001600160a01b0319811683178455167f8be0079c531659141344cd1fd0a4f28419497f9722a3daafe3b4186f6b6457e08380a380f35b51631e4fbdf760e01b8152908101849052602490fd5b8480fd5b503461011b578160031936011261011b576024356001600160a01b03811691908290036101175760209360ff92849235825260058652828220908252855220541690519015158152f35b503461011b57602090816003193601126101175767ffffffffffffffff9281358481116104595761022b9036908401610c74565b60018054835163bbe1562760e01b815233868201526001600160a01b0393929189908290602490829088165afa90811561044f5790610271918a91610428575b50610dff565b61027c600254610e4b565b968760025584519660a0880188811083821117610415578652888852808801338152868901948552606089019542875260808a01978c89528b8d52600384528c2099518a55848a019151166bffffffffffffffffffffffff60a01b8254161790556002880193518051928311610415576102f68554610add565b601f81116103cf575b5081601f841160011461036a57509282939183928c9461035f575b50501b916000199060031b1c19161790555b5160038401555191015533907f29c05e49ec69f11bd40335a9cb6a06fad27779987ab7b8d80448d642b1f592d58380a380f35b01519250388061031a565b858c52808c209291908490601f198216908e905b888383106103b5575050501061039c575b505050811b01905561032c565b015160001960f88460031b161c1916905538808061038f565b85870151885590960195948501948793509081019061037e565b858c52828c20601f850160051c81019184861061040b575b601f0160051c019085905b8281106104005750506102ff565b8d81550185906103f2565b90915081906103e7565b634e487b7160e01b8b526041885260248bfd5b61044491503d808c833e61043c8183610b49565b810190610d79565b93505050503861026b565b85513d8b823e3d90fd5b8580fd5b505034610485578160031936011261048557905490516001600160a01b039091168152602090f35b5080fd5b83346104e357806003193601126104e3576104a2610e70565b80546001600160a01b03198116825581906001600160a01b03167f8be0079c531659141344cd1fd0a4f28419497f9722a3daafe3b4186f6b6457e08280a380f35b80fd5b5050346104855781600319360112610485576020906002549051908152f35b50919034610485576020908160031936011261011b5783359081845260038352610533818520541515610cf2565b600154815163bbe1562760e01b81523387820152908590829060249082906001600160a01b03165afa908115610680579061057491869161066c5750610dff565b8184526005835280842033855283528084205460ff161561060757818452600583528084203385528352808420805460ff19169055818452600383528084208501805480156105f45760001901905551838152929350339290917fa0596d50ee049cd1e3c3f09d7844d99ac02c8f66fdad967264a316a50dee473391a380f35b634e487b7160e01b865260118752602486fd5b8394827fa0596d50ee049cd1e3c3f09d7844d99ac02c8f66fdad967264a316a50dee473393949552600585528186203387528552818620600160ff19825416179055838652600385528186200161065e8154610e4b565b90555192600184523393a380f35b61044491503d8088833e61043c8183610b49565b82513d87823e3d90fd5b509190346104855780600319360112610485578235906024359367ffffffffffffffff948581116101a9576106c29036908301610c74565b838552602091600383526106da848720541515610cf2565b60018054855163bbe1562760e01b815233818501526001600160a01b03959293918990829060249082908a165afa9081156108f85790610720918a916104285750610dff565b8688528082528588209486519661073688610b17565b338852838801958652870195428752805490680100000000000000008210156108e55790610768918682018155610cc0565b9790976108d35751166bffffffffffffffffffffffff60a01b8754161786558286019351908151998a116108c057506107a18454610add565b601f811161087a575b5081601f8a1160011461081457509780928192899a600298999a94610809575b50501b916000199060031b1c19161790555b5191015533907fbc9ad647abbcc974060e51a3fb7baadeec180dd871d04ab856554c0da0d9a8bf8380a380f35b0151925038806107ca565b909891601f19831699858a52828a20928a905b8c821061086357505083600298999a9b1061084a575b505050811b0190556107dc565b015160001960f88460031b161c1916905538808061083d565b808785968294968601518155019501930190610827565b848952828920601f8b0160051c810191848c106108b6575b601f0160051c019084905b8281106108ab5750506107aa565b8a815501849061089d565b9091508190610892565b634e487b7160e01b895260419052602488fd5b634e487b7160e01b8a5289835260248afd5b634e487b7160e01b8b526041845260248bfd5b87513d8b823e3d90fd5b50829034610485576020908160031936011261011b57803583528082528383209182549167ffffffffffffffff8311610a2a5750929084519061094a858260051b0183610b49565b8082528482018094845285842084915b8383106109e057505050508451938085019181865251809252858501868360051b8701019493965b83881061098f5786860387f35b90919293948380600192603f198a820301865288519085806109c96060888060a01b03865116855286860151908088870152850190610c33565b930151910152970193019701969093929193610982565b6003886001928b9a97989a516109f581610b17565b848060a01b038654168152610a0b858701610b6b565b8382015260028601548d8201528152019201920191909694939661095a565b634e487b7160e01b855260419052602484fd5b50503461048557816003193601126104855760015490516001600160a01b039091168152602090f35b5091346104e35760203660031901126104e357823581526003602052819020805460018201546001600160a01b031693909290610ace9060a0610aab60028601610b6b565b9160038601549501549380519788978852602088015286015260a0850190610c33565b91606084015260808301520390f35b90600182811c92168015610b0d575b6020831014610af757565b634e487b7160e01b600052602260045260246000fd5b91607f1691610aec565b6060810190811067ffffffffffffffff821117610b3357604052565b634e487b7160e01b600052604160045260246000fd5b90601f8019910116810190811067ffffffffffffffff821117610b3357604052565b90604051918260008254610b7e81610add565b90818452602094600191600181169081600014610bee5750600114610baf575b505050610bad92500383610b49565b565b600090815285812095935091905b818310610bd6575050610bad9350820101388080610b9e565b85548884018501529485019487945091830191610bbd565b92505050610bad94925060ff191682840152151560051b820101388080610b9e565b60005b838110610c235750506000910152565b8181015183820152602001610c13565b90602091610c4c81518092818552858086019101610c10565b601f01601f1916010190565b67ffffffffffffffff8111610b3357601f01601f191660200190565b81601f82011215610cbb57803590610c8b82610c58565b92610c996040519485610b49565b82845260208383010111610cbb57816000926020809301838601378301015290565b600080fd5b8054821015610cdc576000526003602060002091020190600090565b634e487b7160e01b600052603260045260246000fd5b15610cf957565b60405162461bcd60e51b8152602060048201526013602482015272141bdcdd08191bd95cc81b9bdd08195e1a5cdd606a1b6044820152606490fd5b81601f82011215610cbb578051610d4a81610c58565b92610d586040519485610b49565b81845260208284010111610cbb57610d769160208085019101610c10565b90565b60a081830312610cbb5780519067ffffffffffffffff91828111610cbb5783610da3918301610d34565b936020820151838111610cbb5784610dbc918401610d34565b936040830151848111610cbb5781610dd5918501610d34565b936060840151908111610cbb57608091610df0918501610d34565b9201518015158103610cbb5790565b15610e0657565b60405162461bcd60e51b815260206004820152601860248201527f55736572206d757374206861766520612070726f66696c6500000000000000006044820152606490fd5b6000198114610e5a5760010190565b634e487b7160e01b600052601160045260246000fd5b6000546001600160a01b03163303610e8457565b60405163118cdaa760e01b8152336004820152602490fdfea264697066735822122014b141f36aa675c6cab9d61e1a8766309bb7df27acff6ea41495b612e5c9985e64736f6c63430008180033",
  "linkReferences": {},
  "deployedLinkReferences": {}
}