{
  "_format": "hh-sol-artifact-1",
  "contractName": "NFTBundle",
  "sourceName": "contracts/NFTBundle.sol",
  "abi": [
    {
      "inputs": [
        {
          "internalType": "address",
          "name": "_paymentToken",
          "type": "address"
        },
        {
          "internalType": "address",
          "name": "_feeRecipient",
          "type": "address"
        }
      ],
      "stateMutability": "nonpayable",
      "type": "constructor"
    },
    {
      "inputs": [
        {
          "internalType": "address",
          "name": "owner",
          "type": "address"
        }
      ],
      "name": "OwnableInvalidOwner",
      "type": "error"
    },
    {
      "inputs": [
        {
          "internalType": "address",
          "name": "account",
          "type": "address"
        }
      ],
      "name": "OwnableUnauthorizedAccount",
      "type": "error"
    },
    {
      "inputs": [],
      "name": "ReentrancyGuardReentrantCall",
      "type": "error"
    },
    {
      "anonymous": false,
      "inputs": [
        {
          "indexed": true,
          "internalType": "uint256",
          "name": "bundleId",
          "type": "uint256"
        }
      ],
      "name": "BundleCancelled",
      "type": "event"
    },
    {
      "anonymous": false,
      "inputs": [
        {
          "indexed": true,
          "internalType": "uint256",
          "name": "bundleId",
          "type": "uint256"
        },
        {
          "indexed": true,
          "internalType": "address",
          "name": "creator",
          "type": "address"
        },
        {
          "indexed": false,
          "internalType": "string",
          "name": "name",
          "type": "string"
        },
        {
          "indexed": false,
          "internalType": "uint256",
          "name": "totalPrice",
          "type": "uint256"
        },
        {
          "indexed": false,
          "internalType": "uint256",
          "name": "discountPercent",
          "type": "uint256"
        }
      ],
      "name": "BundleCreated",
      "type": "event"
    },
    {
      "anonymous": false,
      "inputs": [
        {
          "indexed": true,
          "internalType": "uint256",
          "name": "bundleId",
          "type": "uint256"
        },
        {
          "indexed": true,
          "internalType": "address",
          "name": "buyer",
          "type": "address"
        },
        {
          "indexed": false,
          "internalType": "uint256",
          "name": "pricePaid",
          "type": "uint256"
        }
      ],
      "name": "BundlePurchased",
      "type": "event"
    },
    {
      "anonymous": false,
      "inputs": [
        {
          "indexed": true,
          "internalType": "uint256",
          "name": "bundleId",
          "type": "uint256"
        }
      ],
      "name": "BundleUpdated",
      "type": "event"
    },
    {
      "anonymous": false,
      "inputs": [
        {
          "indexed": true,
          "internalType": "address",
          "name": "previousOwner",
          "type": "address"
        },
        {
          "indexed": true,
          "internalType": "address",
          "name": "newOwner",
          "type": "address"
        }
      ],
      "name": "OwnershipTransferred",
      "type": "event"
    },
    {
      "inputs": [
        {
          "internalType": "uint256",
          "name": "",
          "type": "uint256"
        },
        {
          "internalType": "uint256",
          "name": "",
          "type": "uint256"
        }
      ],
      "name": "bundlePurchases",
      "outputs": [
        {
          "internalType": "uint256",
          "name": "bundleId",
          "type": "uint256"
        },
        {
          "internalType": "address",
          "name": "buyer",
          "type": "address"
        },
        {
          "internalType": "uint256",
          "name": "purchasedAt",
          "type": "uint256"
        },
        {
          "internalType": "uint256",
          "name": "pricePaid",
          "type": "uint256"
        }
      ],
      "stateMutability": "view",
      "type": "function"
    },
    {
      "inputs": [
        {
          "internalType": "uint256",
          "name": "",
          "type": "uint256"
        }
      ],
      "name": "bundles",
      "outputs": [
        {
          "internalType": "uint256",
          "name": "bundleId",
          "type": "uint256"
        },
        {
          "internalType": "string",
          "name": "name",
          "type": "string"
        },
        {
          "internalType": "string",
          "name": "description",
          "type": "string"
        },
        {
          "internalType": "address",
          "name": "creator",
          "type": "address"
        },
        {
          "internalType": "uint256",
          "name": "totalPrice",
          "type": "uint256"
        },
        {
          "internalType": "uint256",
          "name": "originalPrice",
          "type": "uint256"
        },
        {
          "internalType": "uint256",
          "name": "discountPercent",
          "type": "uint256"
        },
        {
          "internalType": "uint256",
          "name": "maxSupply",
          "type": "uint256"
        },
        {
          "internalType": "uint256",
          "name": "sold",
          "type": "uint256"
        },
        {
          "internalType": "bool",
          "name": "isActive",
          "type": "bool"
        },
        {
          "internalType": "bool",
          "name": "isLimited",
          "type": "bool"
        },
        {
          "internalType": "uint256",
          "name": "createdAt",
          "type": "uint256"
        },
        {
          "internalType": "uint256",
          "name": "expiresAt",
          "type": "uint256"
        }
      ],
      "stateMutability": "view",
      "type": "function"
    },
    {
      "inputs": [
        {
          "internalType": "uint256",
          "name": "bundleId",
          "type": "uint256"
        }
      ],
      "name": "cancelBundle",
      "outputs": [],
      "stateMutability": "nonpayable",
      "type": "function"
    },
    {
      "inputs": [
        {
          "internalType": "string",
          "name": "name",
          "type": "string"
        },
        {
          "internalType": "string",
          "name": "description",
          "type": "string"
        },
        {
          "components": [
            {
              "internalType": "address",
              "name": "nftContract",
              "type": "address"
            },
            {
              "internalType": "uint256",
              "name": "tokenId",
              "type": "uint256"
            }
          ],
          "internalType": "struct NFTBundle.NFTItem[]",
          "name": "items",
          "type": "tuple[]"
        },
        {
          "internalType": "uint256",
          "name": "totalPrice",
          "type": "uint256"
        },
        {
          "internalType": "uint256",
          "name": "originalPrice",
          "type": "uint256"
        },
        {
          "internalType": "uint256",
          "name": "discountPercent",
          "type": "uint256"
        },
        {
          "internalType": "uint256",
          "name": "maxSupply",
          "type": "uint256"
        },
        {
          "internalType": "bool",
          "name": "isLimited",
          "type": "bool"
        },
        {
          "internalType": "uint256",
          "name": "expiresAt",
          "type": "uint256"
        }
      ],
      "name": "createBundle",
      "outputs": [
        {
          "internalType": "uint256",
          "name": "",
          "type": "uint256"
        }
      ],
      "stateMutability": "nonpayable",
      "type": "function"
    },
    {
      "inputs": [
        {
          "internalType": "address",
          "name": "",
          "type": "address"
        },
        {
          "internalType": "uint256",
          "name": "",
          "type": "uint256"
        }
      ],
      "name": "creatorBundles",
      "outputs": [
        {
          "internalType": "uint256",
          "name": "",
          "type": "uint256"
        }
      ],
      "stateMutability": "view",
      "type": "function"
    },
    {
      "inputs": [],
      "name": "feeRecipient",
      "outputs": [
        {
          "internalType": "address",
          "name": "",
          "type": "address"
        }
      ],
      "stateMutability": "view",
      "type": "function"
    },
    {
      "inputs": [
        {
          "internalType": "uint256",
          "name": "bundleId",
          "type": "uint256"
        }
      ],
      "name": "getBundleItems",
      "outputs": [
        {
          "components": [
            {
              "internalType": "address",
              "name": "nftContract",
              "type": "address"
            },
            {
              "internalType": "uint256",
              "name": "tokenId",
              "type": "uint256"
            }
          ],
          "internalType": "struct NFTBundle.NFTItem[]",
          "name": "",
          "type": "tuple[]"
        }
      ],
      "stateMutability": "view",
      "type": "function"
    },
    {
      "inputs": [
        {
          "internalType": "uint256",
          "name": "bundleId",
          "type": "uint256"
        }
      ],
      "name": "getBundlePurchaseHistory",
      "outputs": [
        {
          "components": [
            {
              "internalType": "uint256",
              "name": "bundleId",
              "type": "uint256"
            },
            {
              "internalType": "address",
              "name": "buyer",
              "type": "address"
            },
            {
              "internalType": "uint256",
              "name": "purchasedAt",
              "type": "uint256"
            },
            {
              "internalType": "uint256",
              "name": "pricePaid",
              "type": "uint256"
            }
          ],
          "internalType": "struct NFTBundle.Purchase[]",
          "name": "",
          "type": "tuple[]"
        }
      ],
      "stateMutability": "view",
      "type": "function"
    },
    {
      "inputs": [
        {
          "internalType": "address",
          "name": "creator",
          "type": "address"
        }
      ],
      "name": "getCreatorBundles",
      "outputs": [
        {
          "internalType": "uint256[]",
          "name": "",
          "type": "uint256[]"
        }
      ],
      "stateMutability": "view",
      "type": "function"
    },
    {
      "inputs": [
        {
          "internalType": "address",
          "name": "user",
          "type": "address"
        }
      ],
      "name": "getUserPurchases",
      "outputs": [
        {
          "internalType": "uint256[]",
          "name": "",
          "type": "uint256[]"
        }
      ],
      "stateMutability": "view",
      "type": "function"
    },
    {
      "inputs": [],
      "name": "owner",
      "outputs": [
        {
          "internalType": "address",
          "name": "",
          "type": "address"
        }
      ],
      "stateMutability": "view",
      "type": "function"
    },
    {
      "inputs": [],
      "name": "paymentToken",
      "outputs": [
        {
          "internalType": "contract IERC20",
          "name": "",
          "type": "address"
        }
      ],
      "stateMutability": "view",
      "type": "function"
    },
    {
      "inputs": [],
      "name": "protocolFee",
      "outputs": [
        {
          "internalType": "uint256",
          "name": "",
          "type": "uint256"
        }
      ],
      "stateMutability": "view",
      "type": "function"
    },
    {
      "inputs": [
        {
          "internalType": "uint256",
          "name": "bundleId",
          "type": "uint256"
        }
      ],
      "name": "purchaseBundle",
      "outputs": [],
      "stateMutability": "nonpayable",
      "type": "function"
    },
    {
      "inputs": [],
      "name": "renounceOwnership",
      "outputs": [],
      "stateMutability": "nonpayable",
      "type": "function"
    },
    {
      "inputs": [
        {
          "internalType": "address",
          "name": "newOwner",
          "type": "address"
        }
      ],
      "name": "transferOwnership",
      "outputs": [],
      "stateMutability": "nonpayable",
      "type": "function"
    },
    {
      "inputs": [
        {
          "internalType": "uint256",
          "name": "bundleId",
          "type": "uint256"
        },
        {
          "internalType": "uint256",
          "name": "newPrice",
          "type": "uint256"
        }
      ],
      "name": "updateBundlePrice",
      "outputs": [],
      "stateMutability": "nonpayable",
      "type": "function"
    },
    {
      "inputs": [
        {
          "internalType": "address",
          "name": "newRecipient",
          "type": "address"
        }
      ],
      "name": "updateFeeRecipient",
      "outputs": [],
      "stateMutability": "nonpayable",
      "type": "function"
    },
    {
      "inputs": [
        {
          "internalType": "uint256",
          "name": "newFee",
          "type": "uint256"
        }
      ],
      "name": "updateProtocolFee",
      "outputs": [],
      "stateMutability": "nonpayable",
      "type": "function"
    },
    {
      "inputs": [
        {
          "internalType": "address",
          "name": "",
          "type": "address"
        },
        {
          "internalType": "uint256",
          "name": "",
          "type": "uint256"
        }
      ],
      "name": "userPurchases",
      "outputs": [
        {
          "internalType": "uint256",
          "name": "",
          "type": "uint256"
        }
      ],
      "stateMutability": "view",
      "type": "function"
    }
  ],
  "bytecode": "0x60a034620000fa57601f62001c2c38819003918201601f19168301916001600160401b03831184841017620000ff578084926040948552833981010312620000fa576200005a6020620000528362000115565b920162000115565b903315620000e1576000549160018060a01b03908160018060a01b031993338587161760005560405195823391167f8be0079c531659141344cd1fd0a4f28419497f9722a3daafe3b4186f6b6457e0600080a36001805560fa6007551660805216906008541617600855611b0190816200012b8239608051818181610f2c01526115410152f35b604051631e4fbdf760e01b815260006004820152602490fd5b600080fd5b634e487b7160e01b600052604160045260246000fd5b51906001600160a01b0382168203620000fa5756fe6080604052600436101561001257600080fd5b60003560e01c806310b9eedc146115705780633013ce291461152b5780634256dd78146114cb57806346904840146114a2578063669543f21461143d578063715018a6146113e457806378436e011461135d57806382c2030e14610e8c5780638300a12314610d8e5780638da5cb5b14610d65578063a7d741ca14610cea578063b0e21e8a14610ccc578063b29ec86014610c82578063c6adc75914610b62578063c6e5d8f614610ad7578063cf19384b146109ea578063cf2c033414610992578063f160d36914610910578063f2fde38b146108875763f7ee9494146100f857600080fd5b346102f4576101203660031901126102f45760043567ffffffffffffffff81116102f45761012a903690600401611887565b60243567ffffffffffffffff81116102f45761014a903690600401611887565b906044359167ffffffffffffffff83116102f457366023840112156102f4578260040135610177816118de565b936101856040519586611780565b8185526024602086019260061b820101903682116102f457602401915b8183106108425750505060e4359081151582036102f4576101c1611aa8565b600284511061080d5760148451116107d7576101e060643515156119b2565b605a60a4351161079b576101043515801561078f575b1561074a5760005b8451811015610378576001600160a01b036102198287611a68565b5151166020806102298489611a68565b5101516024604051809481936331a9108f60e11b835260048301525afa9081156102e857600091610336575b50336001600160a01b03909116036102f9576001600160a01b036102798287611a68565b5151169060206102898288611a68565b51015191803b156102f4576040516323b872dd60e01b815233600482015230602482015260448101939093526000908390606490829084905af19182156102e8576001926102d9575b50016101fe565b6102e290611750565b386102d2565b6040513d6000823e3d90fd5b600080fd5b60405162461bcd60e51b8152602060048201526015602482015274139bc8195c995cc81bdddb995c8819195b08139195605a1b6044820152606490fd5b90506020813d602011610370575b8161035160209383611780565b810103126102f457516001600160a01b03811681036102f45738610255565b3d9150610344565b508284610386600254611a59565b80600255806000526003602052604060002093818555835167ffffffffffffffff811161052f576103ba60018701546116fa565b601f8111610703575b50806020601f82116001146106965760009161068b575b508160011b916000199060031b1c19161760018601555b80519067ffffffffffffffff821161052f57819061041260028801546116fa565b601f8111610638575b50602090601f83116001146105c3576000926105b8575b50508160011b916000199060031b1c19161760028501559291925b60038301946001600160601b0360a01b9533878254161790556064356005850155608435600685015560a435600785015560c4356008850155600060098501556001600a85019161ff00835491151560081b169061ffff19161717905542600b84015561010435600c840155600460009301925b8251811015610545576104d48184611a68565b51908454600160401b81101561052f578060016104f49201875586611a08565b61051957600160208194828060a01b038151168b8554161784550151910155016104c1565b634e487b7160e01b600052600060045260246000fd5b634e487b7160e01b600052604160045260246000fd5b60208286336000526004835261055f826040600020611a24565b817ff59e3bcd3a18d706634eff7d56d6ba0ab0469f7ff99e42346e385eef6fcac0a561059660405193606085526060850190611847565b926064358682015260a43560408201528033940390a360018055604051908152f35b015190508780610432565b9250600287016000526020600020906000935b601f198416851061061d576001945083601f19811610610604575b505050811b01600285015592919261044d565b015160001960f88460031b161c191690558780806105f1565b818101518355602094850194600190930192909101906105d6565b909150600287016000526020600020601f840160051c810160208510610684575b90849392915b601f830160051c8201811061067557505061041b565b6000815585945060010161065f565b5080610659565b9050850151886103da565b91506001870160005260206000206000925b601f19831684106106eb576001935082601f198116106106d2575b5050811b0160018601556103f1565b87015160001960f88460031b161c1916905588806106c3565b878101518255602093840193600190920191016106a8565b600187016000526020600020601f830160051c810160208410610743575b601f830160051c820181106107375750506103c3565b60008155600101610721565b5080610721565b60405162461bcd60e51b815260206004820152601960248201527f46656368612065787069726163696f6e20696e76616c696461000000000000006044820152606490fd5b504261010435116101f6565b60405162461bcd60e51b81526020600482015260146024820152734465736375656e746f206d6178696d6f2039302560601b6044820152606490fd5b60405162461bcd60e51b815260206004820152600e60248201526d4d6178696d6f203230204e46547360901b6044820152606490fd5b60405162461bcd60e51b815260206004820152600d60248201526c4d696e696d6f2032204e46547360981b6044820152606490fd5b6040833603126102f4576040519061085982611734565b8335906001600160a01b03821682036102f457826020926040945282860135838201528152019201916101a2565b346102f45760203660031901126102f4576108a0611690565b6108a8611a7c565b6001600160a01b039081169081156108f757600054826001600160601b0360a01b821617600055167f8be0079c531659141344cd1fd0a4f28419497f9722a3daafe3b4186f6b6457e0600080a3005b604051631e4fbdf760e01b815260006004820152602490fd5b346102f45760203660031901126102f457610929611690565b610931611a7c565b6001600160a01b03168015610958576001600160601b0360a01b6008541617600855600080f35b60405162461bcd60e51b8152602060048201526012602482015271446972656363696f6e20696e76616c69646160701b6044820152606490fd5b346102f45760403660031901126102f4576109ab611690565b6001600160a01b03166000908152600660205260409020805460243591908210156102f4576020916109dc916116e2565b90546040519160031b1c8152f35b346102f45760203660031901126102f457600435600052600360205260406000208054610a19600183016117a2565b91610a26600282016117a2565b60018060a01b036003830154169160ff600582015460068301546007840154600885015490600986015492600a87015494610a90600c600b8a015499015499610a826040519e8f9e8f6101a09181528160208201520190611847565b8d810360408f015290611847565b9960608c015260808b015260a08a015260c089015260e0880152610100870152818116151561012087015260081c1615156101408501526101608401526101808301520390f35b346102f4576020806003193601126102f4576001600160a01b03610af9611690565b1660005260066020526040600020906040519081602084549182815201936000526020600020916000905b828210610b4b57610b4785610b3b81890382611780565b604051918291826116a6565b0390f35b835486529485019460019384019390910190610b24565b346102f45760203660031901126102f457600435610b7e611aa8565b80600052600360205260406000209060018060a01b03610ba58160038501541633146118f6565b600a83018054610bb760ff8216611937565b610bc5600986015415611976565b60ff19169055600460009301925b8354811015610c565781610be78286611a08565b505416906001610bf78287611a08565b50015491803b156102f4576040516323b872dd60e01b815230600482015233602482015260448101939093526000908390606490829084905af19182156102e857600192610c47575b5001610bd3565b610c5090611750565b85610c40565b827ffb1e81a398ab1151f909477fceda31896ba36e774040b4ec8ce044b230cf85b4600080a260018055005b346102f45760403660031901126102f457610c9b611690565b6001600160a01b03166000908152600460205260409020805460243591908210156102f4576020916109dc916116e2565b346102f45760003660031901126102f4576020600754604051908152f35b346102f4576020806003193601126102f4576001600160a01b03610d0c611690565b1660005260046020526040600020906040519081602084549182815201936000526020600020916000905b828210610d4e57610b4785610b3b81890382611780565b835486529485019460019384019390910190610d37565b346102f45760003660031901126102f4576000546040516001600160a01b039091168152602090f35b346102f4576020806003193601126102f457600435600052600581526040600020908154610dbb816118de565b90610dc96040519283611780565b8082528282018094600052836000206000915b838310610e455760408051878152865181890181905289928201908960005b828110610e085784840385f35b855180518552808301516001600160a01b031685840152604080820151908601526060908101519085015294810194608090930192600101610dfb565b600486600192604051610e5781611764565b85548152848060a01b038587015416838201526002860154604082015260038601546060820152815201920192019190610ddc565b346102f4576020806003193601126102f45760043590610eaa611aa8565b8160005260038152604060002090600a820191610eca60ff845416611937565b600c8101548015908115611352575b501561131b5760088101938454801590811561130d575b50156112d65760058201546040516323b872dd60e01b80825233600483015230602483015260448201839052946001600160a01b0394929392917f000000000000000000000000000000000000000000000000000000000000000086169082816064816000865af19081156102e8576000916112b9575b50156112815760075480860290868204148615171561126b5761271090049081860386811161126b57600385015460405163a9059cbb60e01b808252918a166001600160a01b0316600482015260248101929092529084816044816000875af19081156102e85760009161124e575b50156112125760085460405191825288166001600160a01b0316600482015260248101929092528290829060449082906000905af19081156102e8576000916111e5575b50156111ae5760048201979660005b89548110156110a5578661103d828c611a08565b50541690600161104d828d611a08565b50015491803b156102f4576040518a815230600482015233602482015260448101939093526000908390606490829084905af19182156102e857600192611096575b5001611029565b61109f90611750565b8b61108f565b5087868560005260058452604060002094604051956110c387611764565b87875285870196338852604081019142835260608201908b82528054600160401b81101561052f576110fa9160018201815561165e565b939093610519577f851189160c809532dd894d650e27c5e61c32b6769205425bd820272d040ac1fb99600996600394518655600186019151166001600160601b0360a01b825416179055516002840155519101553360005260068552611164876040600020611a24565b01906111708254611a59565b8092555480151591826111a3575b5050611195575b506040519384523393a360018055005b805460ff1916905584611185565b10159050868061117e565b6064906040519062461bcd60e51b82526004820152601060248201526f5061676f206665652066616c6c69646f60801b6044820152fd5b6112059150823d841161120b575b6111fd8183611780565b8101906119f0565b8961101a565b503d6111f3565b60405162461bcd60e51b81526004810185905260146024820152735061676f2063726561746f722066616c6c69646f60601b6044820152606490fd5b6112659150853d871161120b576111fd8183611780565b8c610fd6565b634e487b7160e01b600052601160045260246000fd5b60405162461bcd60e51b815260048101839052601060248201526f5472616e736665722066616c6c69646f60801b6044820152606490fd5b6112d09150833d851161120b576111fd8183611780565b8a610f67565b60405162461bcd60e51b815260048101849052600f60248201526e109d5b991b19481cdbdb19081bdd5d608a1b6044820152606490fd5b905060098301541086610ef0565b60405162461bcd60e51b815260048101839052600f60248201526e42756e646c6520657870697261646f60881b6044820152606490fd5b905042111585610ed9565b346102f45761136b36611648565b8160005260036020526005604060002061139260018060a01b0360038301541633146118f6565b6113a260ff600a83015416611937565b6113b0600982015415611976565b6113bb8315156119b2565b01557fde52a51ce517baacf3f542e2ba113b6cc327455327dbebcacae4509c805d9a6f600080a2005b346102f45760003660031901126102f4576113fd611a7c565b600080546001600160a01b0319811682556001600160a01b03167f8be0079c531659141344cd1fd0a4f28419497f9722a3daafe3b4186f6b6457e08280a3005b346102f45761144b36611648565b906000526005602052604060002080548210156102f45760809161146e9161165e565b5080549060018060a01b03600182015416906003600282015491015491604051938452602084015260408301526060820152f35b346102f45760003660031901126102f4576008546040516001600160a01b039091168152602090f35b346102f45760203660031901126102f4576004356114e7611a7c565b6103e881116114f557600755005b60405162461bcd60e51b815260206004820152600e60248201526d466565206d6178696d6f2031302560901b6044820152606490fd5b346102f45760003660031901126102f4576040517f00000000000000000000000000000000000000000000000000000000000000006001600160a01b03168152602090f35b346102f4576020806003193601126102f4576004356000526003815260046040600020019081546115a0816118de565b906115ae6040519283611780565b8082528282018094600052836000206000915b8383106116155760408051878152865181890181905289928201908960005b8281106115ed5784840385f35b855180516001600160a01b0316855282015184830152948101946040909301926001016115e0565b60028660019260405161162781611734565b848060a01b03865416815284860154838201528152019201920191906115c1565b60409060031901126102f4576004359060243590565b805482101561167a5760005260206000209060021b0190600090565b634e487b7160e01b600052603260045260246000fd5b600435906001600160a01b03821682036102f457565b602090602060408183019282815285518094520193019160005b8281106116ce575050505090565b8351855293810193928101926001016116c0565b805482101561167a5760005260206000200190600090565b90600182811c9216801561172a575b602083101461171457565b634e487b7160e01b600052602260045260246000fd5b91607f1691611709565b6040810190811067ffffffffffffffff82111761052f57604052565b67ffffffffffffffff811161052f57604052565b6080810190811067ffffffffffffffff82111761052f57604052565b90601f8019910116810190811067ffffffffffffffff82111761052f57604052565b906040519182600082546117b5816116fa565b9081845260209460019160018116908160001461182557506001146117e6575b5050506117e492500383611780565b565b600090815285812095935091905b81831061180d5750506117e493508201013880806117d5565b855488840185015294850194879450918301916117f4565b925050506117e494925060ff191682840152151560051b8201013880806117d5565b919082519283825260005b848110611873575050826000602080949584010152601f8019910116010190565b602081830181015184830182015201611852565b81601f820112156102f45780359067ffffffffffffffff821161052f57604051926118bc601f8401601f191660200185611780565b828452602083830101116102f457816000926020809301838601378301015290565b67ffffffffffffffff811161052f5760051b60200190565b156118fd57565b60405162461bcd60e51b815260206004820152601260248201527127379032b932b99032b61031b932b0ba37b960711b6044820152606490fd5b1561193e57565b60405162461bcd60e51b815260206004820152601060248201526f42756e646c65206e6f2061637469766f60801b6044820152606490fd5b1561197d57565b60405162461bcd60e51b815260206004820152600d60248201526c5961206861792076656e74617360981b6044820152606490fd5b156119b957565b60405162461bcd60e51b815260206004820152600f60248201526e50726563696f20696e76616c69646f60881b6044820152606490fd5b908160209103126102f4575180151581036102f45790565b805482101561167a5760005260206000209060011b0190600090565b8054600160401b81101561052f57611a41916001820181556116e2565b819291549060031b91821b91600019901b1916179055565b600019811461126b5760010190565b805182101561167a5760209160051b010190565b6000546001600160a01b03163303611a9057565b60405163118cdaa760e01b8152336004820152602490fd5b600260015414611ab9576002600155565b604051633ee5aeb560e01b8152600490fdfea2646970667358221220780198733cdb8b6c8341f97ac7412963826462e5a9ef42e7d98279012fa2188764736f6c63430008180033",
  "linkReferences": {},
  "deployedLinkReferences": {}
}