{
  "_format": "hh-sol-artifact-1",
  "contractName": "StakingPoolV2",
  "sourceName": "contracts/StakingPoolV2.sol",
  "abi": [
    {
      "inputs": [
        {
          "internalType": "address",
          "name": "_owner",
          "type": "address"
        },
        {
          "internalType": "address",
          "name": "_stakingToken",
          "type": "address"
        },
        {
          "internalType": "address",
          "name": "_signatureVerifier",
          "type": "address"
        }
      ],
      "stateMutability": "nonpayable",
      "type": "constructor"
    },
    {
      "inputs": [],
      "name": "AutoCompoundNotAvailable",
      "type": "error"
    },
    {
      "inputs": [],
      "name": "ECDSAInvalidSignature",
      "type": "error"
    },
    {
      "inputs": [
        {
          "internalType": "uint256",
          "name": "length",
          "type": "uint256"
        }
      ],
      "name": "ECDSAInvalidSignatureLength",
      "type": "error"
    },
    {
      "inputs": [
        {
          "internalType": "bytes32",
          "name": "s",
          "type": "bytes32"
        }
      ],
      "name": "ECDSAInvalidSignatureS",
      "type": "error"
    },
    {
      "inputs": [],
      "name": "EnforcedPause",
      "type": "error"
    },
    {
      "inputs": [],
      "name": "ExpectedPause",
      "type": "error"
    },
    {
      "inputs": [],
      "name": "InsufficientLockAmount",
      "type": "error"
    },
    {
      "inputs": [],
      "name": "InsufficientStake",
      "type": "error"
    },
    {
      "inputs": [],
      "name": "InvalidSignature",
      "type": "error"
    },
    {
      "inputs": [],
      "name": "InvalidTier",
      "type": "error"
    },
    {
      "inputs": [],
      "name": "LockNotExpired",
      "type": "error"
    },
    {
      "inputs": [],
      "name": "NoActiveLock",
      "type": "error"
    },
    {
      "inputs": [
        {
          "internalType": "address",
          "name": "owner",
          "type": "address"
        }
      ],
      "name": "OwnableInvalidOwner",
      "type": "error"
    },
    {
      "inputs": [
        {
          "internalType": "address",
          "name": "account",
          "type": "address"
        }
      ],
      "name": "OwnableUnauthorizedAccount",
      "type": "error"
    },
    {
      "inputs": [],
      "name": "ReentrancyGuardReentrantCall",
      "type": "error"
    },
    {
      "inputs": [
        {
          "internalType": "address",
          "name": "token",
          "type": "address"
        }
      ],
      "name": "SafeERC20FailedOperation",
      "type": "error"
    },
    {
      "inputs": [],
      "name": "SignatureExpired",
      "type": "error"
    },
    {
      "inputs": [],
      "name": "TierDowngradeNotAllowed",
      "type": "error"
    },
    {
      "inputs": [],
      "name": "ZeroAmount",
      "type": "error"
    },
    {
      "anonymous": false,
      "inputs": [
        {
          "indexed": true,
          "internalType": "address",
          "name": "user",
          "type": "address"
        },
        {
          "indexed": false,
          "internalType": "bool",
          "name": "enabled",
          "type": "bool"
        }
      ],
      "name": "AutoCompoundToggled",
      "type": "event"
    },
    {
      "anonymous": false,
      "inputs": [
        {
          "indexed": false,
          "internalType": "uint256",
          "name": "oldAPY",
          "type": "uint256"
        },
        {
          "indexed": false,
          "internalType": "uint256",
          "name": "newAPY",
          "type": "uint256"
        }
      ],
      "name": "BaseAPYUpdated",
      "type": "event"
    },
    {
      "anonymous": false,
      "inputs": [
        {
          "indexed": true,
          "internalType": "address",
          "name": "previousOwner",
          "type": "address"
        },
        {
          "indexed": true,
          "internalType": "address",
          "name": "newOwner",
          "type": "address"
        }
      ],
      "name": "OwnershipTransferred",
      "type": "event"
    },
    {
      "anonymous": false,
      "inputs": [
        {
          "indexed": false,
          "internalType": "address",
          "name": "account",
          "type": "address"
        }
      ],
      "name": "Paused",
      "type": "event"
    },
    {
      "anonymous": false,
      "inputs": [
        {
          "indexed": true,
          "internalType": "address",
          "name": "user",
          "type": "address"
        },
        {
          "indexed": false,
          "internalType": "uint256",
          "name": "reward",
          "type": "uint256"
        }
      ],
      "name": "RewardClaimed",
      "type": "event"
    },
    {
      "anonymous": false,
      "inputs": [
        {
          "indexed": true,
          "internalType": "address",
          "name": "oldVerifier",
          "type": "address"
        },
        {
          "indexed": true,
          "internalType": "address",
          "name": "newVerifier",
          "type": "address"
        }
      ],
      "name": "SignatureVerifierUpdated",
      "type": "event"
    },
    {
      "anonymous": false,
      "inputs": [
        {
          "indexed": true,
          "internalType": "address",
          "name": "user",
          "type": "address"
        },
        {
          "indexed": false,
          "internalType": "uint256",
          "name": "amount",
          "type": "uint256"
        },
        {
          "indexed": false,
          "internalType": "enum StakingPoolV2.Tier",
          "name": "tier",
          "type": "uint8"
        }
      ],
      "name": "Staked",
      "type": "event"
    },
    {
      "anonymous": false,
      "inputs": [
        {
          "indexed": true,
          "internalType": "address",
          "name": "user",
          "type": "address"
        },
        {
          "indexed": false,
          "internalType": "enum StakingPoolV2.Tier",
          "name": "oldTier",
          "type": "uint8"
        },
        {
          "indexed": false,
          "internalType": "enum StakingPoolV2.Tier",
          "name": "newTier",
          "type": "uint8"
        }
      ],
      "name": "TierUpgraded",
      "type": "event"
    },
    {
      "anonymous": false,
      "inputs": [
        {
          "indexed": true,
          "internalType": "address",
          "name": "user",
          "type": "address"
        },
        {
          "indexed": false,
          "internalType": "uint256",
          "name": "amount",
          "type": "uint256"
        },
        {
          "indexed": false,
          "internalType": "enum StakingPoolV2.Tier",
          "name": "targetTier",
          "type": "uint8"
        },
        {
          "indexed": false,
          "internalType": "uint256",
          "name": "unlockTime",
          "type": "uint256"
        }
      ],
      "name": "TokensLocked",
      "type": "event"
    },
    {
      "anonymous": false,
      "inputs": [
        {
          "indexed": true,
          "internalType": "address",
          "name": "user",
          "type": "address"
        },
        {
          "indexed": false,
          "internalType": "uint256",
          "name": "amount",
          "type": "uint256"
        }
      ],
      "name": "TokensUnlocked",
      "type": "event"
    },
    {
      "anonymous": false,
      "inputs": [
        {
          "indexed": false,
          "internalType": "address",
          "name": "account",
          "type": "address"
        }
      ],
      "name": "Unpaused",
      "type": "event"
    },
    {
      "anonymous": false,
      "inputs": [
        {
          "indexed": true,
          "internalType": "address",
          "name": "user",
          "type": "address"
        },
        {
          "indexed": false,
          "internalType": "uint256",
          "name": "amount",
          "type": "uint256"
        }
      ],
      "name": "Unstaked",
      "type": "event"
    },
    {
      "inputs": [],
      "name": "BUSINESS_LOCK_DURATION",
      "outputs": [
        {
          "internalType": "uint256",
          "name": "",
          "type": "uint256"
        }
      ],
      "stateMutability": "view",
      "type": "function"
    },
    {
      "inputs": [],
      "name": "BUSINESS_TOKEN_LOCK",
      "outputs": [
        {
          "internalType": "uint256",
          "name": "",
          "type": "uint256"
        }
      ],
      "stateMutability": "view",
      "type": "function"
    },
    {
      "inputs": [],
      "name": "CREATOR_LOCK_DURATION",
      "outputs": [
        {
          "internalType": "uint256",
          "name": "",
          "type": "uint256"
        }
      ],
      "stateMutability": "view",
      "type": "function"
    },
    {
      "inputs": [],
      "name": "CREATOR_TOKEN_LOCK",
      "outputs": [
        {
          "internalType": "uint256",
          "name": "",
          "type": "uint256"
        }
      ],
      "stateMutability": "view",
      "type": "function"
    },
    {
      "inputs": [],
      "name": "PRECISION",
      "outputs": [
        {
          "internalType": "uint256",
          "name": "",
          "type": "uint256"
        }
      ],
      "stateMutability": "view",
      "type": "function"
    },
    {
      "inputs": [],
      "name": "SECONDS_PER_YEAR",
      "outputs": [
        {
          "internalType": "uint256",
          "name": "",
          "type": "uint256"
        }
      ],
      "stateMutability": "view",
      "type": "function"
    },
    {
      "inputs": [],
      "name": "TIER_BUSINESS_MULTIPLIER",
      "outputs": [
        {
          "internalType": "uint256",
          "name": "",
          "type": "uint256"
        }
      ],
      "stateMutability": "view",
      "type": "function"
    },
    {
      "inputs": [],
      "name": "TIER_CREATOR_MULTIPLIER",
      "outputs": [
        {
          "internalType": "uint256",
          "name": "",
          "type": "uint256"
        }
      ],
      "stateMutability": "view",
      "type": "function"
    },
    {
      "inputs": [],
      "name": "TIER_STARTER_MULTIPLIER",
      "outputs": [
        {
          "internalType": "uint256",
          "name": "",
          "type": "uint256"
        }
      ],
      "stateMutability": "view",
      "type": "function"
    },
    {
      "inputs": [],
      "name": "baseAPY",
      "outputs": [
        {
          "internalType": "uint256",
          "name": "",
          "type": "uint256"
        }
      ],
      "stateMutability": "view",
      "type": "function"
    },
    {
      "inputs": [],
      "name": "claimRewards",
      "outputs": [],
      "stateMutability": "nonpayable",
      "type": "function"
    },
    {
      "inputs": [],
      "name": "compoundRewards",
      "outputs": [],
      "stateMutability": "nonpayable",
      "type": "function"
    },
    {
      "inputs": [
        {
          "internalType": "address",
          "name": "account",
          "type": "address"
        }
      ],
      "name": "earned",
      "outputs": [
        {
          "internalType": "uint256",
          "name": "",
          "type": "uint256"
        }
      ],
      "stateMutability": "view",
      "type": "function"
    },
    {
      "inputs": [],
      "name": "emergencyWithdraw",
      "outputs": [],
      "stateMutability": "nonpayable",
      "type": "function"
    },
    {
      "inputs": [],
      "name": "exit",
      "outputs": [],
      "stateMutability": "nonpayable",
      "type": "function"
    },
    {
      "inputs": [],
      "name": "extendLock",
      "outputs": [],
      "stateMutability": "nonpayable",
      "type": "function"
    },
    {
      "inputs": [
        {
          "internalType": "uint256",
          "name": "amount",
          "type": "uint256"
        }
      ],
      "name": "fundRewardPool",
      "outputs": [],
      "stateMutability": "nonpayable",
      "type": "function"
    },
    {
      "inputs": [
        {
          "internalType": "enum StakingPoolV2.Tier",
          "name": "tier",
          "type": "uint8"
        }
      ],
      "name": "getEffectiveAPY",
      "outputs": [
        {
          "internalType": "uint256",
          "name": "",
          "type": "uint256"
        }
      ],
      "stateMutability": "view",
      "type": "function"
    },
    {
      "inputs": [
        {
          "internalType": "address",
          "name": "user",
          "type": "address"
        }
      ],
      "name": "getNonce",
      "outputs": [
        {
          "internalType": "uint256",
          "name": "",
          "type": "uint256"
        }
      ],
      "stateMutability": "view",
      "type": "function"
    },
    {
      "inputs": [
        {
          "internalType": "address",
          "name": "account",
          "type": "address"
        }
      ],
      "name": "getStakeInfo",
      "outputs": [
        {
          "internalType": "uint256",
          "name": "stakedAmount",
          "type": "uint256"
        },
        {
          "internalType": "uint256",
          "name": "earnedRewards",
          "type": "uint256"
        },
        {
          "internalType": "enum StakingPoolV2.Tier",
          "name": "currentTier",
          "type": "uint8"
        },
        {
          "internalType": "uint256",
          "name": "effectiveAPY",
          "type": "uint256"
        },
        {
          "internalType": "uint256",
          "name": "tierValidUntil",
          "type": "uint256"
        },
        {
          "internalType": "bool",
          "name": "hasActiveLock",
          "type": "bool"
        },
        {
          "internalType": "bool",
          "name": "autoCompound",
          "type": "bool"
        }
      ],
      "stateMutability": "view",
      "type": "function"
    },
    {
      "inputs": [
        {
          "internalType": "enum StakingPoolV2.Tier",
          "name": "tier",
          "type": "uint8"
        }
      ],
      "name": "getTierMultiplier",
      "outputs": [
        {
          "internalType": "uint256",
          "name": "",
          "type": "uint256"
        }
      ],
      "stateMutability": "pure",
      "type": "function"
    },
    {
      "inputs": [
        {
          "internalType": "address",
          "name": "account",
          "type": "address"
        }
      ],
      "name": "getUserTier",
      "outputs": [
        {
          "internalType": "enum StakingPoolV2.Tier",
          "name": "",
          "type": "uint8"
        }
      ],
      "stateMutability": "view",
      "type": "function"
    },
    {
      "inputs": [],
      "name": "lastUpdateTime",
      "outputs": [
        {
          "internalType": "uint256",
          "name": "",
          "type": "uint256"
        }
      ],
      "stateMutability": "view",
      "type": "function"
    },
    {
      "inputs": [
        {
          "internalType": "enum StakingPoolV2.Tier",
          "name": "targetTier",
          "type": "uint8"
        }
      ],
      "name": "lockTokensForTier",
      "outputs": [],
      "stateMutability": "nonpayable",
      "type": "function"
    },
    {
      "inputs": [
        {
          "internalType": "address",
          "name": "",
          "type": "address"
        }
      ],
      "name": "nonces",
      "outputs": [
        {
          "internalType": "uint256",
          "name": "",
          "type": "uint256"
        }
      ],
      "stateMutability": "view",
      "type": "function"
    },
    {
      "inputs": [],
      "name": "owner",
      "outputs": [
        {
          "internalType": "address",
          "name": "",
          "type": "address"
        }
      ],
      "stateMutability": "view",
      "type": "function"
    },
    {
      "inputs": [],
      "name": "pause",
      "outputs": [],
      "stateMutability": "nonpayable",
      "type": "function"
    },
    {
      "inputs": [],
      "name": "paused",
      "outputs": [
        {
          "internalType": "bool",
          "name": "",
          "type": "bool"
        }
      ],
      "stateMutability": "view",
      "type": "function"
    },
    {
      "inputs": [],
      "name": "renounceOwnership",
      "outputs": [],
      "stateMutability": "nonpayable",
      "type": "function"
    },
    {
      "inputs": [],
      "name": "rewardPerToken",
      "outputs": [
        {
          "internalType": "uint256",
          "name": "",
          "type": "uint256"
        }
      ],
      "stateMutability": "view",
      "type": "function"
    },
    {
      "inputs": [],
      "name": "rewardPerTokenStored",
      "outputs": [
        {
          "internalType": "uint256",
          "name": "",
          "type": "uint256"
        }
      ],
      "stateMutability": "view",
      "type": "function"
    },
    {
      "inputs": [
        {
          "internalType": "address",
          "name": "",
          "type": "address"
        }
      ],
      "name": "rewards",
      "outputs": [
        {
          "internalType": "uint256",
          "name": "",
          "type": "uint256"
        }
      ],
      "stateMutability": "view",
      "type": "function"
    },
    {
      "inputs": [
        {
          "internalType": "uint256",
          "name": "newAPY",
          "type": "uint256"
        }
      ],
      "name": "setBaseAPY",
      "outputs": [],
      "stateMutability": "nonpayable",
      "type": "function"
    },
    {
      "inputs": [
        {
          "internalType": "address",
          "name": "newVerifier",
          "type": "address"
        }
      ],
      "name": "setSignatureVerifier",
      "outputs": [],
      "stateMutability": "nonpayable",
      "type": "function"
    },
    {
      "inputs": [],
      "name": "signatureVerifier",
      "outputs": [
        {
          "internalType": "address",
          "name": "",
          "type": "address"
        }
      ],
      "stateMutability": "view",
      "type": "function"
    },
    {
      "inputs": [
        {
          "internalType": "uint256",
          "name": "amount",
          "type": "uint256"
        }
      ],
      "name": "stake",
      "outputs": [],
      "stateMutability": "nonpayable",
      "type": "function"
    },
    {
      "inputs": [
        {
          "internalType": "uint256",
          "name": "amount",
          "type": "uint256"
        },
        {
          "internalType": "enum StakingPoolV2.Tier",
          "name": "tier",
          "type": "uint8"
        },
        {
          "internalType": "uint256",
          "name": "validUntil",
          "type": "uint256"
        },
        {
          "internalType": "bytes",
          "name": "signature",
          "type": "bytes"
        }
      ],
      "name": "stakeWithTier",
      "outputs": [],
      "stateMutability": "nonpayable",
      "type": "function"
    },
    {
      "inputs": [
        {
          "internalType": "address",
          "name": "",
          "type": "address"
        }
      ],
      "name": "stakes",
      "outputs": [
        {
          "internalType": "uint256",
          "name": "amount",
          "type": "uint256"
        },
        {
          "internalType": "uint256",
          "name": "stakedAt",
          "type": "uint256"
        },
        {
          "internalType": "uint256",
          "name": "rewardDebt",
          "type": "uint256"
        },
        {
          "internalType": "enum StakingPoolV2.Tier",
          "name": "tier",
          "type": "uint8"
        },
        {
          "internalType": "uint256",
          "name": "tierValidUntil",
          "type": "uint256"
        },
        {
          "internalType": "bool",
          "name": "autoCompound",
          "type": "bool"
        }
      ],
      "stateMutability": "view",
      "type": "function"
    },
    {
      "inputs": [],
      "name": "stakingToken",
      "outputs": [
        {
          "internalType": "contract IERC20",
          "name": "",
          "type": "address"
        }
      ],
      "stateMutability": "view",
      "type": "function"
    },
    {
      "inputs": [
        {
          "internalType": "address",
          "name": "",
          "type": "address"
        }
      ],
      "name": "tokenLocks",
      "outputs": [
        {
          "internalType": "uint256",
          "name": "amount",
          "type": "uint256"
        },
        {
          "internalType": "uint256",
          "name": "lockedAt",
          "type": "uint256"
        },
        {
          "internalType": "uint256",
          "name": "unlockTime",
          "type": "uint256"
        },
        {
          "internalType": "enum StakingPoolV2.Tier",
          "name": "targetTier",
          "type": "uint8"
        },
        {
          "internalType": "bool",
          "name": "isActive",
          "type": "bool"
        }
      ],
      "stateMutability": "view",
      "type": "function"
    },
    {
      "inputs": [],
      "name": "totalLocked",
      "outputs": [
        {
          "internalType": "uint256",
          "name": "",
          "type": "uint256"
        }
      ],
      "stateMutability": "view",
      "type": "function"
    },
    {
      "inputs": [],
      "name": "totalStaked",
      "outputs": [
        {
          "internalType": "uint256",
          "name": "",
          "type": "uint256"
        }
      ],
      "stateMutability": "view",
      "type": "function"
    },
    {
      "inputs": [
        {
          "internalType": "address",
          "name": "newOwner",
          "type": "address"
        }
      ],
      "name": "transferOwnership",
      "outputs": [],
      "stateMutability": "nonpayable",
      "type": "function"
    },
    {
      "inputs": [],
      "name": "unlockTokens",
      "outputs": [],
      "stateMutability": "nonpayable",
      "type": "function"
    },
    {
      "inputs": [],
      "name": "unpause",
      "outputs": [],
      "stateMutability": "nonpayable",
      "type": "function"
    },
    {
      "inputs": [
        {
          "internalType": "uint256",
          "name": "amount",
          "type": "uint256"
        }
      ],
      "name": "unstake",
      "outputs": [],
      "stateMutability": "nonpayable",
      "type": "function"
    },
    {
      "inputs": [
        {
          "internalType": "enum StakingPoolV2.Tier",
          "name": "tier",
          "type": "uint8"
        },
        {
          "internalType": "uint256",
          "name": "validUntil",
          "type": "uint256"
        },
        {
          "internalType": "bytes",
          "name": "signature",
          "type": "bytes"
        }
      ],
      "name": "upgradeTier",
      "outputs": [],
      "stateMutability": "nonpayable",
      "type": "function"
    },
    {
      "inputs": [
        {
          "internalType": "address",
          "name": "",
          "type": "address"
        }
      ],
      "name": "userRewardPerTokenPaid",
      "outputs": [
        {
          "internalType": "uint256",
          "name": "",
          "type": "uint256"
        }
      ],
      "stateMutability": "view",
      "type": "function"
    }
  ],
  "bytecode": "0x60a0346200017257601f620021f638819003918201601f19168301916001600160401b03831184841017620001775780849260609460405283398101031262000172576200004d816200018d565b62000069604062000061602085016200018d565b93016200018d565b6001600160a01b039182169290919083156200015957600080546001600160a01b03198116861782556040519591908416907f8be0079c531659141344cd1fd0a4f28419497f9722a3daafe3b4186f6b6457e09080a3600180556104e26003551660805260028054610100600160a81b03191660089290921b610100600160a81b0316919091179055426005556120539081620001a3823960805181818161030f01528181610539015281816106b801528181610724015281816108dc01528181610cde01528181610f4501528181610fd90152818161112d01528181611507015281816115f501526116c00152f35b604051631e4fbdf760e01b815260006004820152602490fd5b600080fd5b634e487b7160e01b600052604160045260246000fd5b51906001600160a01b0382168203620001725756fe6040608081526004908136101561001557600080fd5b600091823560e01c80628cc2621461191f578063024aca7e146119035780630700037d146118ca5780630a6efb8a146118a557806316934fc4146118265780631944eddb146116e45780631d583e0d1461169c578063214405a91461167d5780632d0335ab14610e415780632e17de7814611583578063372500ab146114ab5780633e906c33146114865780633f4ba83a1461141d57806341e1255a146113f45780634498c446146113d657806356891412146113b757806356b63df7146113455780635c975abb146113215780635ee6efd0146112bd5780636a67e4ec146111f057806370712c09146111b6578063715018a61461115c57806372f702f31461111857806378f0b28e14610e7a5780637ecebe0014610e41578063817b1cd214610e225780638456cb5914610dc75780638b87634714610d8e5780638da5cb5b14610d66578063a694fc3a14610c3f578063a702fee714610c23578063aaf5eb6814610c00578063c00c9f7f14610adc578063c345315314610a2a578063c8f33c9114610a0b578063cd3daf9d146109e7578063cf7680fe146109c9578063d1ad2d12146109ad578063db2e21bc1461089d578063df136d6514610880578063e08a660514610800578063e4d2620e146107bf578063e6a69ab8146107a0578063e9fad8ee1461063e578063f2fde38b146105aa578063f968f493146104b9578063fde919f6146104885763ffbcfad51461023057600080fd5b3461048457608036600319011261048457803591602435916003831015610480576044359360643567ffffffffffffffff811161047c576102749036908401611972565b9061027d611bca565b610285611bed565b61028d611af2565b84554260055533610457575b82156104475786421161043757906102b391878733611c0b565b6102bf816006546119db565b600655338652600760205282862060038101956102f48660ff895416986102ed868654801561042c576119db565b8555611a5c565b838201558415158061041d575b6103dd575b506103338130337f0000000000000000000000000000000000000000000000000000000000000000611dd3565b8251908152610345602082018561194f565b7f8acf475137e0cd74ca7f611d16b1e6383ec9a9c71a8e5b85967781b9c7214d11833392a260038410156103ca5750818303610384575b836001805580f35b6103bf7fcbbf00b5f55f1857f9362f521999f79036413e420d1b236d6bc143af30db731a926103b58351809661194f565b602085019061194f565b3392a238808061037c565b634e487b7160e01b855260219052602484fd5b600501600160ff198254161790558251600181527f72defbb28064584321264302489076b65ae61a5c2886d9fa7cf076a60371d5cf60203392a238610306565b5060ff60058201541615610301565b4260018901556119db565b8451630819bdcd60e01b81528490fd5b8451631f2a200560e01b81528490fd5b610460336119e8565b3389526008602052858920558354600960205285892055610299565b8680fd5b8480fd5b8280fd5b5050346104b557816003193601126104b557600254905160089190911c6001600160a01b03168152602090f35b5080fd5b50346104845782600319360112610484576104d2611bca565b6104da611bed565b338352600a6020528183209060ff600383015460081c161561059c576002820154421061058e5750549061051082600b546119a5565b600b55338352600a602052826003828220828155826001820155826002820155015561055d82337f0000000000000000000000000000000000000000000000000000000000000000611e2e565b519081527fe7b379c6c1fa169e9079c25e9143b127637eef8ec8c9d5c06ddb4ab3e119588860203392a26001805580f35b825163342ad40160e11b8152fd5b82516333edfc1360e01b8152fd5b509034610484576020366003190112610484576001600160a01b03823581811693919290849003610480576105dd611da7565b8315610628575050600054826bffffffffffffffffffffffff60a01b821617600055167f8be0079c531659141344cd1fd0a4f28419497f9722a3daafe3b4186f6b6457e0600080a380f35b51631e4fbdf760e01b8152908101849052602490fd5b5034610484578260031936011261048457610657611bca565b61065f611bed565b610667611af2565b8155426005553361077b575b50338252600760205280822090815460086020528382812054938261070d575b505050816106a4575b826001805580f35b338352600860205282818120556106dc82337f0000000000000000000000000000000000000000000000000000000000000000611e2e565b519081527f106f923f993c2149d49b4255ff723acafa1f2d94393f561d3eda32ae348f724160203392a2388061069c565b610719836006546119a5565b6006555561074881337f0000000000000000000000000000000000000000000000000000000000000000611e2e565b81519081527f0f5bb82176feb1b5e747e28471aa92156a04d9f3ab9f45f28e2d704232b93f7560203392a2388381610693565b610784336119e8565b3384526008602052828420555460096020528183205538610673565b5050346104b557816003193601126104b557602090516301e133808152f35b50346104845760203660031901126104845735916001600160a01b03831683036107fd57506107fb6107f2602093611b5e565b9151809261194f565bf35b80fd5b8382346104b55760203660031901126104b557356001600160a01b038181169182810361087c5761082f611da7565b60028054610100600160a81b03198116600893841b610100600160a81b031617909155901c167f3c4fa000fb8f637304894974764c81c8374924ab0e2ff8047767a53c1fa61c168380a380f35b8380fd5b503461048457826003193601126104845760209250549051908152f35b5090346104845782600319360112610484576108b7611da7565b60065415806109a3575b1561096d5780516370a0823160e01b815230928101929092527f00000000000000000000000000000000000000000000000000000000000000006001600160a01b036020846024818486165afa9283156109645750849261092e575b61092b935084541690611e2e565b80f35b91506020833d60201161095c575b8161094960209383611aba565b8101031261087c5761092b92519161091d565b3d915061093c565b513d86823e3d90fd5b906020606492519162461bcd60e51b8352820152601060248201526f557365727320686176652066756e647360801b6044820152fd5b50600b54156108c1565b5050346104b557816003193601126104b5576020905160648152f35b5050346104b557816003193601126104b5576020905162ed4e008152f35b5050346104b557816003193601126104b557602090610a04611af2565b9051908152f35b5050346104b557816003193601126104b5576020906005549051908152f35b5091346107fd5760203660031901126107fd578235916001600160a01b0383168084036104845760e0948184526007602052610ac283852093610a6c87611b5e565b9060ff600581600384610a808b549d6119e8565b9b6064610a978454610a918b611a74565b906119c8565b04998c01549a8152600a60205220015460081c1697015416968151988952602089015287019061194f565b60608501526080840152151560a0830152151560c0820152f35b509034610484578260031936011261048457610af6611bca565b610afe611bed565b610b06611af2565b82554260055533610bdb575b338352600760205280832091610b2733611b5e565b6003811015610bc85715610bba57503383526008602052808320908154928484610b53575b6001805580f35b6003610bad9260ff927f8acf475137e0cd74ca7f611d16b1e6383ec9a9c71a8e5b85967781b9c7214d119655610b8b876006546119db565b600655610b998782546119db565b81550154168251948552602085019061194f565b3392a23880808084610b4c565b90516350c222dd60e11b8152fd5b634e487b7160e01b855260218252602485fd5b610be4336119e8565b3384526008602052818420558154600960205281842055610b12565b5050346104b557816003193601126104b55760209051670de0b6b3a76400008152f35b5050346104b557816003193601126104b5576020905160968152f35b50903461048457602036600319011261048457813591610c5d611bca565b610c65611bed565b610c6d611af2565b81554260055533610d41575b8215610d3357507f8acf475137e0cd74ca7f611d16b1e6383ec9a9c71a8e5b85967781b9c7214d1190610cae836006546119db565b6006553384526007602052610d1460ff6003838720610cd48782548015610d1e576119db565b8155610d028730337f0000000000000000000000000000000000000000000000000000000000000000611dd3565b0154168251948552602085019061194f565b3392a26001805580f35b426001850155848401861981541690556119db565b9051631f2a200560e01b8152fd5b610d4a336119e8565b3385526008602052828520558054600960205282852055610c79565b5050346104b557816003193601126104b557905490516001600160a01b039091168152602090f35b503461048457602036600319011261048457356001600160a01b0381169081900361048457828291602094526009845220549051908152f35b5050346104b557816003193601126104b55760207f62e78cea01bee320cd4e420270b5ea74000d11b0c9f74754ebdbfc544b05a25891610e05611da7565b610e0d611bed565b600160ff19600254161760025551338152a180f35b5050346104b557816003193601126104b5576020906006549051908152f35b503461048457602036600319011261048457356001600160a01b038116908190036104845782829160209452600c845220549051908152f35b509034610484576020366003190112610484578135600381101561087c57610ea0611bca565b610ea8611bed565b801561110a57600181036110f45769010f0cf064dd59200000926276a700905b338652600a602052838620600381019160ff835460081c16600014610fc85760ff835416976003891015610fb65797851115610fa857508392610f8b7f2783fa8affc4dbba2ac9978c432ce95ab38e9c777e2e6cce5b917801b06414219695610f9e9484610f71610f3d610f9197548d6119a5565b610f698130337f0000000000000000000000000000000000000000000000000000000000000000611dd3565b600b546119db565b600b558a81556002610f8386426119db565b910155611a5c565b426119db565b9251928392339684611a9c565b0390a26001805580f35b855163360ff30b60e21b8152fd5b6021602492634e487b7160e01b835252fd5b9695809594939250610ffd915030337f0000000000000000000000000000000000000000000000000000000000000000611dd3565b61100984600b546119db565b600b5561101681426119db565b835160a0810181811067ffffffffffffffff8211176110e1578552858152600360208201914283528681019384526060810193868552608082019360018552338b52600a602052888b209251835551600183015551600282015501915160038110156110ce577f2783fa8affc4dbba2ac9978c432ce95ab38e9c777e2e6cce5b917801b06414219697985091610f9e93916110b4610f919483611a5c565b51815461ff00191690151560081b61ff0016179055610f8b565b634e487b7160e01b885260218952602488fd5b634e487b7160e01b885260418952602488fd5b690a968163f0a57b4000009262ed4e0090610ec8565b505163e142361760e01b8152fd5b5050346104b557816003193601126104b557517f00000000000000000000000000000000000000000000000000000000000000006001600160a01b03168152602090f35b83346107fd57806003193601126107fd57611175611da7565b80546001600160a01b03198116825581906001600160a01b03167f8be0079c531659141344cd1fd0a4f28419497f9722a3daafe3b4186f6b6457e08280a380f35b503461048457602036600319011261048457359160038310156107fd575060646111e8602093610a9160035491611a74565b049051908152f35b509190346104b557816003193601126104b55761120b611bca565b611213611bed565b338252600a602052808220600381015460ff8160081c16156112ad5760ff16600381101561129a577f2783fa8affc4dbba2ac9978c432ce95ab38e9c777e2e6cce5b917801b064142191906001810361128b57610f9e6112766276a700426119db565b92836002820155549451928392339684611a9c565b610f9e61127662ed4e00610f8b565b634e487b7160e01b845260218552602484fd5b82516333edfc1360e01b81528590fd5b50903461048457602036600319011261048457817f92846c67351932b78c86ef4a06fd61781497e7fcb97e3b1200ecfcbd7a30d6109235906112fd611da7565b611305611af2565b905542600555600354908060035582519182526020820152a180f35b5050346104b557816003193601126104b55760209060ff6002541690519015158152f35b503461048457602036600319011261048457356001600160a01b0381169081900361048457818360ff9260a09552600a60205220918254926001810154916003600283015492015492815195865260208601528401526113aa6060840183831661194f565b60081c1615156080820152f35b5050346104b557816003193601126104b557602090600b549051908152f35b5050346104b557816003193601126104b557602090516276a7008152f35b503461048457602036600319011261048457359160038310156107fd5750610a04602092611a74565b5034610484578260031936011261048457611436611da7565b6002549060ff821615611478575060ff1916600255513381527f5db9ee0a495bf2e6ff9c91a7834c1ba4fdd244a5e8aa4e537bd38aeae4b073aa90602090a180f35b8251638dfc202b60e01b8152fd5b5050346104b557816003193601126104b5576020905169010f0cf064dd592000008152f35b50346104845782600319360112610484576114c4611bca565b6114cc611bed565b6114d4611af2565b8155426005553361155e575b5033825260086020528082209082825492836114ff575b506001805580f35b5561152b82337f0000000000000000000000000000000000000000000000000000000000000000611e2e565b519081527f106f923f993c2149d49b4255ff723acafa1f2d94393f561d3eda32ae348f724160203392a2388082816114f7565b611567336119e8565b33845260086020528284205554600960205281832055386114e0565b509034610484576020366003190112610484578135916115a1611bca565b6115a9611bed565b6115b1611af2565b81554260055533611658575b3384526007602052818420908382541061164a57506115de836006546119a5565b6006556115ec8382546119a5565b905561161982337f0000000000000000000000000000000000000000000000000000000000000000611e2e565b519081527f0f5bb82176feb1b5e747e28471aa92156a04d9f3ab9f45f28e2d704232b93f7560203392a26001805580f35b82516378de4a6960e11b8152fd5b611661336119e8565b33855260086020528285205580546009602052828520556115bd565b5050346104b557816003193601126104b5576020906003549051908152f35b8382346104b55760203660031901126104b55761092b906116bb611da7565b3530337f0000000000000000000000000000000000000000000000000000000000000000611dd3565b509034610484576060366003190112610484578135600381101561087c5760243560443567ffffffffffffffff8111611822576117249036908601611972565b61172f959195611bca565b611737611bed565b61173f611af2565b825542600555336117fd575b8242116117ee57338752600760205284872090600382019660ff88541660038110156117db578611156117cb57916117ae8694928694610d14977fcbbf00b5f55f1857f9362f521999f79036413e420d1b236d6bc143af30db731a9a9933611c0b565b6117bd8460ff8a541699611a5c565b01556103b58351809661194f565b865163360ff30b60e21b81528490fd5b634e487b7160e01b8a526021855260248afd5b508351630819bdcd60e01b8152fd5b611806336119e8565b338852600860205285882055815460096020528588205561174b565b8580fd5b5090346104845760203660031901126104845781356001600160a01b0381169081900361087c5783829160c0955260076020522061189781549360018301549360028401549060ff60058160038801541694870154960154169581519788526020880152860152606085019061194f565b6080830152151560a0820152f35b5050346104b557816003193601126104b55760209051690a968163f0a57b4000008152f35b503461048457602036600319011261048457356001600160a01b0381169081900361048457828291602094526008845220549051908152f35b5050346104b557816003193601126104b5576020905160fa8152f35b50346104845760203660031901126104845735916001600160a01b03831683036107fd5750610a046020926119e8565b90600382101561195c5752565b634e487b7160e01b600052602160045260246000fd5b9181601f840112156119a05782359167ffffffffffffffff83116119a057602083818601950101116119a057565b600080fd5b919082039182116119b257565b634e487b7160e01b600052601160045260246000fd5b818102929181159184041417156119b257565b919082018092116119b257565b611a599060018060a01b03166040600082815260076020526064611a49838320670de0b6b3a7640000611a43611a2460ff600385015416611a74565b9254610a91611a31611af2565b8a8952600960205289892054906119a5565b046119c8565b04928152600860205220546119db565b90565b90600381101561195c5760ff80198354169116179055565b600381101561195c5760028114611a9657600114611a9157606490565b609690565b5060fa90565b611ab660409295949360608301968352602083019061194f565b0152565b90601f8019910116810190811067ffffffffffffffff821117611adc57604052565b634e487b7160e01b600052604160045260246000fd5b6006548015611b5757611b13611b0a600554426119a5565b600354906119c8565b90670de0b6b3a764000091828102908082048414901517156119b25764496cebb800900490600454918381029381850414901517156119b257611a599204906119db565b5060045490565b6001600160a01b03166000908152600a60205260409020600381015490600882901c60ff169081611bbc575b50611bb65750600760205260406000206004810154421115611bac5750600090565b6003015460ff1690565b60ff1690565b600291500154421038611b8a565b600260015414611bdb576002600155565b604051633ee5aeb560e01b8152600490fd5b60ff60025416611bf957565b60405163d93c066560e01b8152600490fd5b909293919360018060a01b039182811693600095858752600c6020526040872054976003821015611d93576040519160208301946bffffffffffffffffffffffff199060601b16855260ff60f81b9060f81b16603483015260358201528760558201524660758201523060601b60958201526089815260c081019367ffffffffffffffff9382861085871117611d7f5785604052825190207f19457468657265756d205369676e6564204d6573736167653a0a3332000000008952601c52603c8820938311611d6b57611ce8601f8401601f191660200186611aba565b8285523683820111611d675760e08383611d199897958b9484611d1099970137010152611ee2565b90939193611f1e565b8060025460081c16911603611d555760018301809311611d41578152600c6020526040902055565b634e487b7160e01b82526011600452602482fd5b604051638baa579f60e01b8152600490fd5b8780fd5b634e487b7160e01b88526041600452602488fd5b634e487b7160e01b89526041600452602489fd5b634e487b7160e01b88526021600452602488fd5b6000546001600160a01b03163303611dbb57565b60405163118cdaa760e01b8152336004820152602490fd5b6040516323b872dd60e01b60208201526001600160a01b03928316602482015292909116604483015260648083019390935291815260a081019181831067ffffffffffffffff841117611adc57611e2c92604052611e7a565b565b60405163a9059cbb60e01b60208201526001600160a01b039092166024830152604480830193909352918152608081019167ffffffffffffffff831182841017611adc57611e2c926040525b906000602091828151910182855af115611ed6576000513d611ecd57506001600160a01b0381163b155b611eab5750565b604051635274afe760e01b81526001600160a01b039091166004820152602490fd5b60011415611ea4565b6040513d6000823e3d90fd5b8151919060418303611f1357611f0c92506020820151906060604084015193015160001a90611f8d565b9192909190565b505060009160029190565b600481101561195c5780611f30575050565b60018103611f4a5760405163f645eedf60e01b8152600490fd5b60028103611f6b5760405163fce698f760e01b815260048101839052602490fd5b600314611f755750565b602490604051906335e2f38360e21b82526004820152fd5b91907f7fffffffffffffffffffffffffffffff5d576e7357a4501ddfe92f46681b20a0841161201157926020929160ff608095604051948552168484015260408301526060820152600092839182805260015afa156120055780516001600160a01b03811615611ffc57918190565b50809160019190565b604051903d90823e3d90fd5b5050506000916003919056fea26469706673582212203952b96201e529fda2062ae52a70e1c356d762404ecd3e2acf2cea62a8d3260464736f6c63430008180033",
  "linkReferences": {},
  "deployedLinkReferences": {}
}