{
  "_format": "hh-sol-artifact-1",
  "contractName": "ContentValidator",
  "sourceName": "contracts/ContentValidator.sol",
  "abi": [
    {
      "inputs": [
        {
          "internalType": "address",
          "name": "_bezCoinToken",
          "type": "address"
        },
        {
          "internalType": "uint256",
          "name": "_initialFeeBezCoin",
          "type": "uint256"
        },
        {
          "internalType": "uint256",
          "name": "_initialFeeNative",
          "type": "uint256"
        },
        {
          "internalType": "address",
          "name": "_treasuryWallet",
          "type": "address"
        }
      ],
      "stateMutability": "nonpayable",
      "type": "constructor"
    },
    {
      "inputs": [],
      "name": "EnforcedPause",
      "type": "error"
    },
    {
      "inputs": [],
      "name": "ExpectedPause",
      "type": "error"
    },
    {
      "inputs": [
        {
          "internalType": "address",
          "name": "owner",
          "type": "address"
        }
      ],
      "name": "OwnableInvalidOwner",
      "type": "error"
    },
    {
      "inputs": [
        {
          "internalType": "address",
          "name": "account",
          "type": "address"
        }
      ],
      "name": "OwnableUnauthorizedAccount",
      "type": "error"
    },
    {
      "inputs": [],
      "name": "ReentrancyGuardReentrantCall",
      "type": "error"
    },
    {
      "anonymous": false,
      "inputs": [
        {
          "indexed": true,
          "internalType": "bytes32",
          "name": "contentHash",
          "type": "bytes32"
        },
        {
          "indexed": true,
          "internalType": "address",
          "name": "author",
          "type": "address"
        },
        {
          "indexed": false,
          "internalType": "uint256",
          "name": "timestamp",
          "type": "uint256"
        },
        {
          "indexed": false,
          "internalType": "string",
          "name": "contentUri",
          "type": "string"
        },
        {
          "indexed": false,
          "internalType": "string",
          "name": "contentType",
          "type": "string"
        },
        {
          "indexed": false,
          "internalType": "uint256",
          "name": "validationId",
          "type": "uint256"
        },
        {
          "indexed": false,
          "internalType": "enum ContentValidator.PaymentMethod",
          "name": "paymentMethod",
          "type": "uint8"
        }
      ],
      "name": "ContentValidated",
      "type": "event"
    },
    {
      "anonymous": false,
      "inputs": [
        {
          "indexed": true,
          "internalType": "address",
          "name": "previousOwner",
          "type": "address"
        },
        {
          "indexed": true,
          "internalType": "address",
          "name": "newOwner",
          "type": "address"
        }
      ],
      "name": "OwnershipTransferred",
      "type": "event"
    },
    {
      "anonymous": false,
      "inputs": [
        {
          "indexed": false,
          "internalType": "address",
          "name": "account",
          "type": "address"
        }
      ],
      "name": "Paused",
      "type": "event"
    },
    {
      "anonymous": false,
      "inputs": [
        {
          "indexed": false,
          "internalType": "address",
          "name": "account",
          "type": "address"
        }
      ],
      "name": "Unpaused",
      "type": "event"
    },
    {
      "anonymous": false,
      "inputs": [
        {
          "indexed": false,
          "internalType": "uint256",
          "name": "newFeeBezCoin",
          "type": "uint256"
        },
        {
          "indexed": false,
          "internalType": "uint256",
          "name": "newFeeNative",
          "type": "uint256"
        }
      ],
      "name": "ValidationFeeUpdated",
      "type": "event"
    },
    {
      "anonymous": false,
      "inputs": [
        {
          "indexed": true,
          "internalType": "bytes32",
          "name": "contentHash",
          "type": "bytes32"
        },
        {
          "indexed": true,
          "internalType": "address",
          "name": "revokedBy",
          "type": "address"
        },
        {
          "indexed": false,
          "internalType": "string",
          "name": "reason",
          "type": "string"
        }
      ],
      "name": "ValidationRevoked",
      "type": "event"
    },
    {
      "anonymous": false,
      "inputs": [
        {
          "indexed": true,
          "internalType": "address",
          "name": "validator",
          "type": "address"
        },
        {
          "indexed": false,
          "internalType": "bool",
          "name": "authorized",
          "type": "bool"
        }
      ],
      "name": "ValidatorAuthorizationChanged",
      "type": "event"
    },
    {
      "inputs": [
        {
          "internalType": "address",
          "name": "",
          "type": "address"
        },
        {
          "internalType": "uint256",
          "name": "",
          "type": "uint256"
        }
      ],
      "name": "authorValidations",
      "outputs": [
        {
          "internalType": "bytes32",
          "name": "",
          "type": "bytes32"
        }
      ],
      "stateMutability": "view",
      "type": "function"
    },
    {
      "inputs": [
        {
          "internalType": "address",
          "name": "",
          "type": "address"
        }
      ],
      "name": "authorizedValidators",
      "outputs": [
        {
          "internalType": "bool",
          "name": "",
          "type": "bool"
        }
      ],
      "stateMutability": "view",
      "type": "function"
    },
    {
      "inputs": [],
      "name": "bezCoinToken",
      "outputs": [
        {
          "internalType": "contract IERC20",
          "name": "",
          "type": "address"
        }
      ],
      "stateMutability": "view",
      "type": "function"
    },
    {
      "inputs": [],
      "name": "emergencyWithdraw",
      "outputs": [],
      "stateMutability": "nonpayable",
      "type": "function"
    },
    {
      "inputs": [
        {
          "internalType": "address",
          "name": "_author",
          "type": "address"
        }
      ],
      "name": "getAuthorValidations",
      "outputs": [
        {
          "internalType": "bytes32[]",
          "name": "",
          "type": "bytes32[]"
        }
      ],
      "stateMutability": "view",
      "type": "function"
    },
    {
      "inputs": [
        {
          "internalType": "bytes32",
          "name": "_contentHash",
          "type": "bytes32"
        }
      ],
      "name": "getValidation",
      "outputs": [
        {
          "components": [
            {
              "internalType": "bytes32",
              "name": "contentHash",
              "type": "bytes32"
            },
            {
              "internalType": "address",
              "name": "author",
              "type": "address"
            },
            {
              "internalType": "uint256",
              "name": "timestamp",
              "type": "uint256"
            },
            {
              "internalType": "string",
              "name": "contentUri",
              "type": "string"
            },
            {
              "internalType": "string",
              "name": "contentType",
              "type": "string"
            },
            {
              "internalType": "uint256",
              "name": "validationId",
              "type": "uint256"
            },
            {
              "internalType": "enum ContentValidator.PaymentMethod",
              "name": "paymentMethod",
              "type": "uint8"
            },
            {
              "internalType": "bool",
              "name": "isActive",
              "type": "bool"
            }
          ],
          "internalType": "struct ContentValidator.ContentValidation",
          "name": "",
          "type": "tuple"
        }
      ],
      "stateMutability": "view",
      "type": "function"
    },
    {
      "inputs": [
        {
          "internalType": "uint256",
          "name": "_validationId",
          "type": "uint256"
        }
      ],
      "name": "getValidationById",
      "outputs": [
        {
          "components": [
            {
              "internalType": "bytes32",
              "name": "contentHash",
              "type": "bytes32"
            },
            {
              "internalType": "address",
              "name": "author",
              "type": "address"
            },
            {
              "internalType": "uint256",
              "name": "timestamp",
              "type": "uint256"
            },
            {
              "internalType": "string",
              "name": "contentUri",
              "type": "string"
            },
            {
              "internalType": "string",
              "name": "contentType",
              "type": "string"
            },
            {
              "internalType": "uint256",
              "name": "validationId",
              "type": "uint256"
            },
            {
              "internalType": "enum ContentValidator.PaymentMethod",
              "name": "paymentMethod",
              "type": "uint8"
            },
            {
              "internalType": "bool",
              "name": "isActive",
              "type": "bool"
            }
          ],
          "internalType": "struct ContentValidator.ContentValidation",
          "name": "",
          "type": "tuple"
        }
      ],
      "stateMutability": "view",
      "type": "function"
    },
    {
      "inputs": [
        {
          "internalType": "bytes32",
          "name": "_contentHash",
          "type": "bytes32"
        }
      ],
      "name": "isContentValidated",
      "outputs": [
        {
          "internalType": "bool",
          "name": "",
          "type": "bool"
        }
      ],
      "stateMutability": "view",
      "type": "function"
    },
    {
      "inputs": [
        {
          "internalType": "bytes32",
          "name": "",
          "type": "bytes32"
        }
      ],
      "name": "isValidated",
      "outputs": [
        {
          "internalType": "bool",
          "name": "",
          "type": "bool"
        }
      ],
      "stateMutability": "view",
      "type": "function"
    },
    {
      "inputs": [],
      "name": "owner",
      "outputs": [
        {
          "internalType": "address",
          "name": "",
          "type": "address"
        }
      ],
      "stateMutability": "view",
      "type": "function"
    },
    {
      "inputs": [],
      "name": "pause",
      "outputs": [],
      "stateMutability": "nonpayable",
      "type": "function"
    },
    {
      "inputs": [],
      "name": "paused",
      "outputs": [
        {
          "internalType": "bool",
          "name": "",
          "type": "bool"
        }
      ],
      "stateMutability": "view",
      "type": "function"
    },
    {
      "inputs": [],
      "name": "renounceOwnership",
      "outputs": [],
      "stateMutability": "nonpayable",
      "type": "function"
    },
    {
      "inputs": [
        {
          "internalType": "bytes32",
          "name": "_contentHash",
          "type": "bytes32"
        },
        {
          "internalType": "string",
          "name": "_reason",
          "type": "string"
        }
      ],
      "name": "revokeValidation",
      "outputs": [],
      "stateMutability": "nonpayable",
      "type": "function"
    },
    {
      "inputs": [
        {
          "internalType": "address",
          "name": "_validator",
          "type": "address"
        },
        {
          "internalType": "bool",
          "name": "_authorized",
          "type": "bool"
        }
      ],
      "name": "setAuthorizedValidator",
      "outputs": [],
      "stateMutability": "nonpayable",
      "type": "function"
    },
    {
      "inputs": [],
      "name": "totalValidations",
      "outputs": [
        {
          "internalType": "uint256",
          "name": "",
          "type": "uint256"
        }
      ],
      "stateMutability": "view",
      "type": "function"
    },
    {
      "inputs": [
        {
          "internalType": "address",
          "name": "newOwner",
          "type": "address"
        }
      ],
      "name": "transferOwnership",
      "outputs": [],
      "stateMutability": "nonpayable",
      "type": "function"
    },
    {
      "inputs": [],
      "name": "treasuryWallet",
      "outputs": [
        {
          "internalType": "address",
          "name": "",
          "type": "address"
        }
      ],
      "stateMutability": "view",
      "type": "function"
    },
    {
      "inputs": [],
      "name": "unpause",
      "outputs": [],
      "stateMutability": "nonpayable",
      "type": "function"
    },
    {
      "inputs": [
        {
          "internalType": "address",
          "name": "_newTreasury",
          "type": "address"
        }
      ],
      "name": "updateTreasuryWallet",
      "outputs": [],
      "stateMutability": "nonpayable",
      "type": "function"
    },
    {
      "inputs": [
        {
          "internalType": "uint256",
          "name": "_newFeeBezCoin",
          "type": "uint256"
        },
        {
          "internalType": "uint256",
          "name": "_newFeeNative",
          "type": "uint256"
        }
      ],
      "name": "updateValidationFees",
      "outputs": [],
      "stateMutability": "nonpayable",
      "type": "function"
    },
    {
      "inputs": [
        {
          "internalType": "bytes32",
          "name": "_contentHash",
          "type": "bytes32"
        },
        {
          "internalType": "address",
          "name": "_author",
          "type": "address"
        },
        {
          "internalType": "string",
          "name": "_contentUri",
          "type": "string"
        },
        {
          "internalType": "string",
          "name": "_contentType",
          "type": "string"
        }
      ],
      "name": "validateDelegated",
      "outputs": [],
      "stateMutability": "nonpayable",
      "type": "function"
    },
    {
      "inputs": [
        {
          "internalType": "bytes32",
          "name": "_contentHash",
          "type": "bytes32"
        },
        {
          "internalType": "string",
          "name": "_contentUri",
          "type": "string"
        },
        {
          "internalType": "string",
          "name": "_contentType",
          "type": "string"
        }
      ],
      "name": "validateWithBezCoin",
      "outputs": [],
      "stateMutability": "nonpayable",
      "type": "function"
    },
    {
      "inputs": [
        {
          "internalType": "bytes32",
          "name": "_contentHash",
          "type": "bytes32"
        },
        {
          "internalType": "string",
          "name": "_contentUri",
          "type": "string"
        },
        {
          "internalType": "string",
          "name": "_contentType",
          "type": "string"
        }
      ],
      "name": "validateWithNative",
      "outputs": [],
      "stateMutability": "payable",
      "type": "function"
    },
    {
      "inputs": [],
      "name": "validationFeeBezCoin",
      "outputs": [
        {
          "internalType": "uint256",
          "name": "",
          "type": "uint256"
        }
      ],
      "stateMutability": "view",
      "type": "function"
    },
    {
      "inputs": [],
      "name": "validationFeeNative",
      "outputs": [
        {
          "internalType": "uint256",
          "name": "",
          "type": "uint256"
        }
      ],
      "stateMutability": "view",
      "type": "function"
    },
    {
      "inputs": [
        {
          "internalType": "uint256",
          "name": "",
          "type": "uint256"
        }
      ],
      "name": "validationIdToHash",
      "outputs": [
        {
          "internalType": "bytes32",
          "name": "",
          "type": "bytes32"
        }
      ],
      "stateMutability": "view",
      "type": "function"
    },
    {
      "inputs": [
        {
          "internalType": "bytes32",
          "name": "",
          "type": "bytes32"
        }
      ],
      "name": "validations",
      "outputs": [
        {
          "internalType": "bytes32",
          "name": "contentHash",
          "type": "bytes32"
        },
        {
          "internalType": "address",
          "name": "author",
          "type": "address"
        },
        {
          "internalType": "uint256",
          "name": "timestamp",
          "type": "uint256"
        },
        {
          "internalType": "string",
          "name": "contentUri",
          "type": "string"
        },
        {
          "internalType": "string",
          "name": "contentType",
          "type": "string"
        },
        {
          "internalType": "uint256",
          "name": "validationId",
          "type": "uint256"
        },
        {
          "internalType": "enum ContentValidator.PaymentMethod",
          "name": "paymentMethod",
          "type": "uint8"
        },
        {
          "internalType": "bool",
          "name": "isActive",
          "type": "bool"
        }
      ],
      "stateMutability": "view",
      "type": "function"
    },
    {
      "stateMutability": "payable",
      "type": "receive"
    }
  ],
  "bytecode": "0x608034620001ad57601f6200218738819003918201601f1916830191906001600160401b03831184841017620001b2578160809285926040958652833981010312620001ad576200005082620001c8565b916020810151620000686060848401519301620001c8565b33156200019557600080546001600160a01b031980821633908117845587519396919491936001600160a01b039390919084167f8be0079c531659141344cd1fd0a4f28419497f9722a3daafe3b4186f6b6457e08980a36001805582891615620001625750169283156200012a57859660025490610100600160a81b039060081b1690610100600160a81b031916176002556003556004556006541617600655338152600760205220600160ff1982541617905551611fa99081620001de8239f35b855162461bcd60e51b8152602060048201526011602482015270547265617375727920696e76616c69646f60781b6044820152606490fd5b62461bcd60e51b815260206004820152600e60248201526d546f6b656e20696e76616c69646f60901b6044820152606490fd5b8351631e4fbdf760e01b815260006004820152602490fd5b600080fd5b634e487b7160e01b600052604160045260246000fd5b51906001600160a01b0382168203620001ad5756fe6080604052600436101561001b575b361561001957600080fd5b005b60003560e01c80630ff683aa14611a5d57806314527da61461199d5780633f4ba83a146119335780634626402b1461190a5780634d89a3ce146114045780634fed43b714610e705780635871416314610e315780635c975abb14610e0e578063715018a614610db55780637e83514b14610d97578063809d458d14610d165780638456cb5914610cbc5780638da5cb5b14610c9357806396f714bf14610b9657806397e0497414610b695780639cba002d14610b12578063a8091fc314610a41578063b404073c14610a15578063b5ad9818146104df578063bf1db71e146104ae578063c1736a10146103fa578063d87bdb53146103a7578063db2e21bc14610330578063df312cb114610312578063e28c380214610258578063e678cd731461023a578063f2fde38b146101b15763ffa78af60361000e57346101ac5760403660031901126101ac5761016d611bbd565b6001600160a01b03166000908152600960205260409020805460243591908210156101ac5760209161019e91611d8e565b90546040519160031b1c8152f35b600080fd5b346101ac5760203660031901126101ac576101ca611bbd565b6101d2611f06565b6001600160a01b0390811690811561022157600054826001600160601b0360a01b821617600055167f8be0079c531659141344cd1fd0a4f28419497f9722a3daafe3b4186f6b6457e0600080a3005b604051631e4fbdf760e01b815260006004820152602490fd5b346101ac5760003660031901126101ac576020600454604051908152f35b346101ac5760203660031901126101ac576004356000526008602052604060002080549060018060a01b036001820154169060ff6002820154936102ee6102a160038501611ce9565b6102e06102b060048701611ce9565b916006600588015497015494604051998a99610100928b5260208b015260408a01528060608a0152880190611aeb565b908682036080880152611aeb565b9260a085015261030360c08501838316611b2b565b60081c16151560e08301520390f35b346101ac5760003660031901126101ac576020600354604051908152f35b346101ac5760003660031901126101ac57610349611f06565b4780156103755760008080809360018060a01b0382541682f11561036957005b6040513d6000823e3d90fd5b60405162461bcd60e51b815260206004820152600a60248201526953696e20666f6e646f7360b01b6044820152606490fd5b346101ac5760203660031901126101ac57600435600052600a60205260ff60406000205416806103df575b6020906040519015158152f35b5060086020819052604060002060060154901c60ff166103d2565b346101ac576020806003193601126101ac576001600160a01b0361041c611bbd565b1660005260098152604060002060405190818382549182815201908192600052846000209060005b8682821061049a57868661045a82880383611bef565b604051928392818401908285525180915260408401929160005b82811061048357505050500390f35b835185528695509381019392810192600101610474565b835485529093019260019283019201610444565b346101ac5760203660031901126101ac57600435600052600a602052602060ff604060002054166040519015158152f35b6104e836611c66565b91906104f2611f32565b6104fa611f55565b81600052600a60205261051560ff6040600020541615611e07565b610520821515611e4b565b61052c81511515611e87565b6004548034106109dc578034116109aa575b50600080808060018060a01b0360065416600454908282156109a1575bf11561036957600554600019811461098b57600101806005556040519061058182611bd3565b838252602082019033825260408301428152606084019185835287608086015260a0850152600160c0850152600160e085015285600052600860205260406000209284518455600184019060018060a01b039051166001600160601b0360a01b825416179055516002830155518051906001600160401b0382116107ca57819061060e6003850154611caf565b601f8111610938575b50602090601f83116001146108c6576000926108bb575b50508160011b916000199060031b1c19161760038201555b60808201518051906001600160401b0382116107ca576106696004840154611caf565b601f8111610874575b50602090601f8311600114610801576006939291600091836107f6575b50508160011b916000199060031b1c19161760048201555b60a08301516005820155019060c08101519160038310156107e057805460e0929092015161ffff1990921660ff939093169290921790151560081b61ff001617905560ff1982600052600a6020526001604060002091825416179055336000526009602052604060002090815491600160401b8310156107ca5761076d61075684869360017fafad62e6c438df935ae90d60a97a2ec4502b66ed21e479eb75be026513aaba8997018155611d8e565b819391549060031b91821b91600019901b19161790565b9055600554600052600b602052826040600020556107b1600554946107a36040519342855260a0602086015260a0850190611aeb565b908382036040850152611aeb565b936060820152600160808201528033940390a360018055005b634e487b7160e01b600052604160045260246000fd5b634e487b7160e01b600052602160045260246000fd5b01519050888061068f565b906004840160005260206000209160005b601f198516811061085c575091839160019360069695601f19811610610843575b505050811b0160048201556106a7565b015160001960f88460031b161c19169055888080610833565b91926020600181928685015181550194019201610812565b600484016000526020600020601f840160051c8101602085106108b4575b601f830160051c820181106108a8575050610672565b60008155600101610892565b5080610892565b01519050878061062e565b9250600384016000526020600020906000935b601f198416851061091d576001945083601f19811610610904575b505050811b016003820155610646565b015160001960f88460031b161c191690558780806108f4565b818101518355602094850194600190930192909101906108d9565b909150600384016000526020600020601f840160051c810160208510610984575b90849392915b601f830160051c82018110610975575050610617565b6000815585945060010161095f565b5080610959565b634e487b7160e01b600052601160045260246000fd5b506108fc61055b565b8034039034821161098b5760008080938193829034146109d3575b3390f115610369578361053e565b506108fc6109c5565b60405162461bcd60e51b81526020600482015260116024820152705061676f20696e737566696369656e746560781b6044820152606490fd5b346101ac5760203660031901126101ac57600435600052600b6020526020604060002054604051908152f35b346101ac5760203660031901126101ac57600435610a5d611dbc565b5080600052600a602052610a7860ff60406000205416611ec2565b6000526008602052610b0e604060002060ff600660405192610a9984611bd3565b8054845260018101546001600160a01b0316602085015260028101546040850152610ac660038201611ce9565b6060850152610ad760048201611ce9565b6080850152600581015460a08501520154610af782821660c08501611dfb565b60081c16151560e082015260405191829182611b38565b0390f35b346101ac5760403660031901126101ac577f4c2c2be1b339d156cf33d4fb393d047cbbd645bcbca6ba96fa6a33f0f83607586040600435602435610b54611f06565b816003558060045582519182526020820152a1005b346101ac5760003660031901126101ac5760025460405160089190911c6001600160a01b03168152602090f35b346101ac5760403660031901126101ac576004356024356001600160401b0381116101ac57610bc9903690600401611c10565b90610bd2611f06565b80600052602091600a8352610bee60ff60406000205416611ec2565b816000526008835260ff60066040600020015460081c1615610c6057610c5b7f1f105d3890c3e28b95b56b57516e61ea050204722598d9af9b3b996b8bf6a89b918360005260088552600660406000200161ff001981541690556040519182918683523396830190611aeb565b0390a3005b60405162461bcd60e51b815260048101849052600b60248201526a5961207265766f6361646f60a81b6044820152606490fd5b346101ac5760003660031901126101ac576000546040516001600160a01b039091168152602090f35b346101ac5760003660031901126101ac57610cd5611f06565b610cdd611f55565b600160ff1960025416176002557f62e78cea01bee320cd4e420270b5ea74000d11b0c9f74754ebdbfc544b05a2586020604051338152a1005b346101ac5760203660031901126101ac57610d2f611bbd565b610d37611f06565b6001600160a01b03168015610d5e576001600160601b0360a01b6006541617600655600080f35b60405162461bcd60e51b8152602060048201526011602482015270547265617375727920696e76616c69646f60781b6044820152606490fd5b346101ac5760003660031901126101ac576020600554604051908152f35b346101ac5760003660031901126101ac57610dce611f06565b600080546001600160a01b0319811682556001600160a01b03167f8be0079c531659141344cd1fd0a4f28419497f9722a3daafe3b4186f6b6457e08280a3005b346101ac5760003660031901126101ac57602060ff600254166040519015158152f35b346101ac5760203660031901126101ac576001600160a01b03610e52611bbd565b166000526007602052602060ff604060002054166040519015158152f35b346101ac5760803660031901126101ac576024356001600160a01b03811681036101ac576044356001600160401b0381116101ac57610eb3903690600401611c10565b906064356001600160401b0381116101ac57610ed3903690600401611c10565b9033600052600760205260ff6040600020541680156113f0575b156113ab57610efa611f32565b610f02611f55565b600435600052600a602052610f1f60ff6040600020541615611e07565b610f2c6004351515611e4b565b6001600160a01b0381161561137557610f4783511515611e87565b600554600019811461098b5760018101600555600160405191610f6983611bd3565b6004358352818060a01b03841660208401524260408401528560608401528460808401520160a0820152600260c0820152600160e082015260043560005260086020526040600020815181556001810160018060a01b036020840151166001600160601b0360a01b8254161790556040820151600282015560608201518051906001600160401b0382116107ca5781906110066003850154611caf565b601f8111611322575b50602090601f83116001146112b0576000926112a5575b50508160011b916000199060031b1c19161760038201555b60808201518051906001600160401b0382116107ca576110616004840154611caf565b601f811161125e575b50602090601f83116001146111eb576006939291600091836111e0575b50508160011b916000199060031b1c19161760048201555b60a08301516005820155019060c08101519160038310156107e057805460e0929092015161ffff1990921660ff939093169290921790151560081b61ff001617905560ff19600435600052600a602052600160406000209182541617905560018060a01b03811660005260096020526040600020908154600160401b8110156107ca57611156817fafad62e6c438df935ae90d60a97a2ec4502b66ed21e479eb75be026513aaba8994600161117294018155611d8e565b6004929192359083549060031b91821b91600019901b19161790565b9055600554600052600b6020526004356040600020556111b8600554936111aa6040519642885260a0602089015260a0880190611aeb565b908682036040880152611aeb565b6060850193909352600260808501526001600160a01b0316926004359281900390a360018055005b015190508880611087565b906004840160005260206000209160005b601f1985168110611246575091839160019360069695601f1981161061122d575b505050811b01600482015561109f565b015160001960f88460031b161c1916905588808061121d565b919260206001819286850151815501940192016111fc565b600484016000526020600020601f840160051c81016020851061129e575b601f830160051c8201811061129257505061106a565b6000815560010161127c565b508061127c565b015190508780611026565b9250600384016000526020600020906000935b601f1984168510611307576001945083601f198116106112ee575b505050811b01600382015561103e565b015160001960f88460031b161c191690558780806112de565b818101518355602094850194600190930192909101906112c3565b909150600384016000526020600020601f840160051c81016020851061136e575b90849392915b601f830160051c8201811061135f57505061100f565b60008155859450600101611349565b5080611343565b60405162461bcd60e51b815260206004820152600e60248201526d4175746f7220696e76616c69646f60901b6044820152606490fd5b60405162461bcd60e51b815260206004820152601a60248201527f4e6f206175746f72697a61646f20706172612076616c696461720000000000006044820152606490fd5b506000546001600160a01b03163314610eed565b346101ac5761141236611c66565b919061141c611f32565b611424611f55565b81600052600a60205261143f60ff6040600020541615611e07565b61144a821515611e4b565b61145681511515611e87565b6002546006546003546040516323b872dd60e01b81523360048201526001600160a01b0392831660248201526044810191909152916020918391606491839160009160089190911c165af1908115610369576000916118cf575b501561189357600554600019811461098b5760010180600555604051906114d682611bd3565b83825233602083015242604083015282606083015284608083015260a0820152600060c0820152600160e08201528260005260086020526040600020815181556001810160018060a01b036020840151166001600160601b0360a01b8254161790556040820151600282015560608201518051906001600160401b0382116107ca5781906115676003850154611caf565b601f8111611840575b50602090601f83116001146117ce576000926117c3575b50508160011b916000199060031b1c19161760038201555b60808201518051906001600160401b0382116107ca576115c26004840154611caf565b601f811161177c575b50602090601f8311600114611709576006939291600091836116fe575b50508160011b916000199060031b1c19161760048201555b60a08301516005820155019060c08101519160038310156107e057805460e0929092015161ffff1990921660ff939093169290921790151560081b61ff001617905560ff1982600052600a6020526001604060002091825416179055336000526009602052604060002090815491600160401b8310156107ca576116af61075684869360017fafad62e6c438df935ae90d60a97a2ec4502b66ed21e479eb75be026513aaba8997018155611d8e565b9055600554600052600b602052826040600020556116e5600554946107a36040519342855260a0602086015260a0850190611aeb565b936060820152600060808201528033940390a360018055005b0151905088806115e8565b906004840160005260206000209160005b601f1985168110611764575091839160019360069695601f1981161061174b575b505050811b016004820155611600565b015160001960f88460031b161c1916905588808061173b565b9192602060018192868501518155019401920161171a565b600484016000526020600020601f840160051c8101602085106117bc575b601f830160051c820181106117b05750506115cb565b6000815560010161179a565b508061179a565b015190508780611587565b9250600384016000526020600020906000935b601f1984168510611825576001945083601f1981161061180c575b505050811b01600382015561159f565b015160001960f88460031b161c191690558780806117fc565b818101518355602094850194600190930192909101906117e1565b909150600384016000526020600020601f840160051c81016020851061188c575b90849392915b601f830160051c8201811061187d575050611570565b60008155859450600101611867565b5080611861565b60405162461bcd60e51b81526020600482015260146024820152735061676f2042657a436f696e2066616c6c69646f60601b6044820152606490fd5b90506020813d602011611902575b816118ea60209383611bef565b810103126101ac575180151581036101ac57846114b0565b3d91506118dd565b346101ac5760003660031901126101ac576006546040516001600160a01b039091168152602090f35b346101ac5760003660031901126101ac5761194c611f06565b60025460ff81161561198b5760ff19166002557f5db9ee0a495bf2e6ff9c91a7834c1ba4fdd244a5e8aa4e537bd38aeae4b073aa6020604051338152a1005b604051638dfc202b60e01b8152600490fd5b346101ac5760403660031901126101ac576119b6611bbd565b602435908115158092036101ac576119cc611f06565b6001600160a01b0316908115611a235760207fed4bb15dbf72365acce7ff6c075f6c0c2bc831c0d07b40c46b15b6afefaadd47918360005260078252604060002060ff1981541660ff8316179055604051908152a2005b60405162461bcd60e51b8152602060048201526012602482015271446972656363696f6e20696e76616c69646160701b6044820152606490fd5b346101ac5760203660031901126101ac57611a76611dbc565b50600435600052600b6020526040600020548015611aaf576000526008602052610b0e604060002060ff600660405192610a9984611bd3565b60405162461bcd60e51b815260206004820152601460248201527356616c69646163696f6e206e6f2065786973746560601b6044820152606490fd5b919082519283825260005b848110611b17575050826000602080949584010152601f8019910116010190565b602081830181015184830182015201611af6565b9060038210156107e05752565b602081528151602082015260018060a01b03602083015116604082015260408201516060820152606082015160e0611b97611b8161010093846080870152610120860190611aeb565b6080860151858203601f190160a0870152611aeb565b9360a081015160c0850152611bb360c082015183860190611b2b565b0151151591015290565b600435906001600160a01b03821682036101ac57565b61010081019081106001600160401b038211176107ca57604052565b90601f801991011681019081106001600160401b038211176107ca57604052565b81601f820112156101ac578035906001600160401b0382116107ca5760405192611c44601f8401601f191660200185611bef565b828452602083830101116101ac57816000926020809301838601378301015290565b60606003198201126101ac57600435916001600160401b036024358181116101ac5783611c9591600401611c10565b926044359182116101ac57611cac91600401611c10565b90565b90600182811c92168015611cdf575b6020831014611cc957565b634e487b7160e01b600052602260045260246000fd5b91607f1691611cbe565b90604051918260008254611cfc81611caf565b90818452602094600191600181169081600014611d6c5750600114611d2d575b505050611d2b92500383611bef565b565b600090815285812095935091905b818310611d54575050611d2b9350820101388080611d1c565b85548884018501529485019487945091830191611d3b565b92505050611d2b94925060ff191682840152151560051b820101388080611d1c565b8054821015611da65760005260206000200190600090565b634e487b7160e01b600052603260045260246000fd5b60405190611dc982611bd3565b8160e0600091828152826020820152826040820152606080820152606060808201528260a08201528260c08201520152565b60038210156107e05752565b15611e0e57565b60405162461bcd60e51b8152602060048201526015602482015274436f6e74656e69646f2079612076616c696461646f60581b6044820152606490fd5b15611e5257565b60405162461bcd60e51b815260206004820152600d60248201526c4861736820696e76616c69646f60981b6044820152606490fd5b15611e8e57565b60405162461bcd60e51b815260206004820152600c60248201526b55524920696e76616c69646160a01b6044820152606490fd5b15611ec957565b60405162461bcd60e51b8152602060048201526015602482015274436f6e74656e69646f206e6f2076616c696461646f60581b6044820152606490fd5b6000546001600160a01b03163303611f1a57565b60405163118cdaa760e01b8152336004820152602490fd5b600260015414611f43576002600155565b604051633ee5aeb560e01b8152600490fd5b60ff60025416611f6157565b60405163d93c066560e01b8152600490fdfea2646970667358221220b24c40a472cdc811c05c6ed7293a0ad8cfe9f3135eb88858999a5cb90af5aeb064736f6c63430008180033",
  "linkReferences": {},
  "deployedLinkReferences": {}
}