{
  "_format": "hh-sol-artifact-1",
  "contractName": "BeZhasRealEstate",
  "sourceName": "contracts/BeZhasRealEstate.sol",
  "abi": [
    {
      "inputs": [],
      "stateMutability": "nonpayable",
      "type": "constructor"
    },
    {
      "inputs": [
        {
          "internalType": "address",
          "name": "sender",
          "type": "address"
        },
        {
          "internalType": "uint256",
          "name": "balance",
          "type": "uint256"
        },
        {
          "internalType": "uint256",
          "name": "needed",
          "type": "uint256"
        },
        {
          "internalType": "uint256",
          "name": "tokenId",
          "type": "uint256"
        }
      ],
      "name": "ERC1155InsufficientBalance",
      "type": "error"
    },
    {
      "inputs": [
        {
          "internalType": "address",
          "name": "approver",
          "type": "address"
        }
      ],
      "name": "ERC1155InvalidApprover",
      "type": "error"
    },
    {
      "inputs": [
        {
          "internalType": "uint256",
          "name": "idsLength",
          "type": "uint256"
        },
        {
          "internalType": "uint256",
          "name": "valuesLength",
          "type": "uint256"
        }
      ],
      "name": "ERC1155InvalidArrayLength",
      "type": "error"
    },
    {
      "inputs": [
        {
          "internalType": "address",
          "name": "operator",
          "type": "address"
        }
      ],
      "name": "ERC1155InvalidOperator",
      "type": "error"
    },
    {
      "inputs": [
        {
          "internalType": "address",
          "name": "receiver",
          "type": "address"
        }
      ],
      "name": "ERC1155InvalidReceiver",
      "type": "error"
    },
    {
      "inputs": [
        {
          "internalType": "address",
          "name": "sender",
          "type": "address"
        }
      ],
      "name": "ERC1155InvalidSender",
      "type": "error"
    },
    {
      "inputs": [
        {
          "internalType": "address",
          "name": "operator",
          "type": "address"
        },
        {
          "internalType": "address",
          "name": "owner",
          "type": "address"
        }
      ],
      "name": "ERC1155MissingApprovalForAll",
      "type": "error"
    },
    {
      "inputs": [
        {
          "internalType": "address",
          "name": "owner",
          "type": "address"
        }
      ],
      "name": "OwnableInvalidOwner",
      "type": "error"
    },
    {
      "inputs": [
        {
          "internalType": "address",
          "name": "account",
          "type": "address"
        }
      ],
      "name": "OwnableUnauthorizedAccount",
      "type": "error"
    },
    {
      "inputs": [],
      "name": "ReentrancyGuardReentrantCall",
      "type": "error"
    },
    {
      "anonymous": false,
      "inputs": [
        {
          "indexed": true,
          "internalType": "address",
          "name": "account",
          "type": "address"
        },
        {
          "indexed": true,
          "internalType": "address",
          "name": "operator",
          "type": "address"
        },
        {
          "indexed": false,
          "internalType": "bool",
          "name": "approved",
          "type": "bool"
        }
      ],
      "name": "ApprovalForAll",
      "type": "event"
    },
    {
      "anonymous": false,
      "inputs": [
        {
          "indexed": true,
          "internalType": "uint256",
          "name": "id",
          "type": "uint256"
        },
        {
          "indexed": true,
          "internalType": "address",
          "name": "user",
          "type": "address"
        },
        {
          "indexed": false,
          "internalType": "uint256",
          "name": "amount",
          "type": "uint256"
        }
      ],
      "name": "DividendsClaimed",
      "type": "event"
    },
    {
      "anonymous": false,
      "inputs": [
        {
          "indexed": true,
          "internalType": "address",
          "name": "previousOwner",
          "type": "address"
        },
        {
          "indexed": true,
          "internalType": "address",
          "name": "newOwner",
          "type": "address"
        }
      ],
      "name": "OwnershipTransferred",
      "type": "event"
    },
    {
      "anonymous": false,
      "inputs": [
        {
          "indexed": true,
          "internalType": "uint256",
          "name": "id",
          "type": "uint256"
        },
        {
          "indexed": false,
          "internalType": "string",
          "name": "name",
          "type": "string"
        },
        {
          "indexed": false,
          "internalType": "uint256",
          "name": "totalShares",
          "type": "uint256"
        },
        {
          "indexed": false,
          "internalType": "uint256",
          "name": "price",
          "type": "uint256"
        }
      ],
      "name": "PropertyCreated",
      "type": "event"
    },
    {
      "anonymous": false,
      "inputs": [
        {
          "indexed": true,
          "internalType": "uint256",
          "name": "id",
          "type": "uint256"
        },
        {
          "indexed": false,
          "internalType": "uint256",
          "name": "amount",
          "type": "uint256"
        }
      ],
      "name": "RevenueDeposited",
      "type": "event"
    },
    {
      "anonymous": false,
      "inputs": [
        {
          "indexed": true,
          "internalType": "uint256",
          "name": "id",
          "type": "uint256"
        },
        {
          "indexed": true,
          "internalType": "address",
          "name": "buyer",
          "type": "address"
        },
        {
          "indexed": false,
          "internalType": "uint256",
          "name": "amount",
          "type": "uint256"
        },
        {
          "indexed": false,
          "internalType": "uint256",
          "name": "cost",
          "type": "uint256"
        }
      ],
      "name": "SharesPurchased",
      "type": "event"
    },
    {
      "anonymous": false,
      "inputs": [
        {
          "indexed": true,
          "internalType": "address",
          "name": "operator",
          "type": "address"
        },
        {
          "indexed": true,
          "internalType": "address",
          "name": "from",
          "type": "address"
        },
        {
          "indexed": true,
          "internalType": "address",
          "name": "to",
          "type": "address"
        },
        {
          "indexed": false,
          "internalType": "uint256[]",
          "name": "ids",
          "type": "uint256[]"
        },
        {
          "indexed": false,
          "internalType": "uint256[]",
          "name": "values",
          "type": "uint256[]"
        }
      ],
      "name": "TransferBatch",
      "type": "event"
    },
    {
      "anonymous": false,
      "inputs": [
        {
          "indexed": true,
          "internalType": "address",
          "name": "operator",
          "type": "address"
        },
        {
          "indexed": true,
          "internalType": "address",
          "name": "from",
          "type": "address"
        },
        {
          "indexed": true,
          "internalType": "address",
          "name": "to",
          "type": "address"
        },
        {
          "indexed": false,
          "internalType": "uint256",
          "name": "id",
          "type": "uint256"
        },
        {
          "indexed": false,
          "internalType": "uint256",
          "name": "value",
          "type": "uint256"
        }
      ],
      "name": "TransferSingle",
      "type": "event"
    },
    {
      "anonymous": false,
      "inputs": [
        {
          "indexed": false,
          "internalType": "string",
          "name": "value",
          "type": "string"
        },
        {
          "indexed": true,
          "internalType": "uint256",
          "name": "id",
          "type": "uint256"
        }
      ],
      "name": "URI",
      "type": "event"
    },
    {
      "inputs": [
        {
          "internalType": "address",
          "name": "account",
          "type": "address"
        },
        {
          "internalType": "uint256",
          "name": "id",
          "type": "uint256"
        }
      ],
      "name": "balanceOf",
      "outputs": [
        {
          "internalType": "uint256",
          "name": "",
          "type": "uint256"
        }
      ],
      "stateMutability": "view",
      "type": "function"
    },
    {
      "inputs": [
        {
          "internalType": "address[]",
          "name": "accounts",
          "type": "address[]"
        },
        {
          "internalType": "uint256[]",
          "name": "ids",
          "type": "uint256[]"
        }
      ],
      "name": "balanceOfBatch",
      "outputs": [
        {
          "internalType": "uint256[]",
          "name": "",
          "type": "uint256[]"
        }
      ],
      "stateMutability": "view",
      "type": "function"
    },
    {
      "inputs": [
        {
          "internalType": "uint256",
          "name": "id",
          "type": "uint256"
        },
        {
          "internalType": "uint256",
          "name": "amount",
          "type": "uint256"
        }
      ],
      "name": "buyShares",
      "outputs": [],
      "stateMutability": "payable",
      "type": "function"
    },
    {
      "inputs": [
        {
          "internalType": "uint256",
          "name": "id",
          "type": "uint256"
        }
      ],
      "name": "claimDividends",
      "outputs": [],
      "stateMutability": "nonpayable",
      "type": "function"
    },
    {
      "inputs": [
        {
          "internalType": "uint256",
          "name": "id",
          "type": "uint256"
        },
        {
          "internalType": "uint256",
          "name": "_totalShares",
          "type": "uint256"
        },
        {
          "internalType": "uint256",
          "name": "_price",
          "type": "uint256"
        },
        {
          "internalType": "string",
          "name": "_name",
          "type": "string"
        },
        {
          "internalType": "string",
          "name": "_location",
          "type": "string"
        }
      ],
      "name": "createProperty",
      "outputs": [],
      "stateMutability": "nonpayable",
      "type": "function"
    },
    {
      "inputs": [
        {
          "internalType": "uint256",
          "name": "id",
          "type": "uint256"
        }
      ],
      "name": "depositRevenue",
      "outputs": [],
      "stateMutability": "payable",
      "type": "function"
    },
    {
      "inputs": [
        {
          "internalType": "uint256",
          "name": "",
          "type": "uint256"
        }
      ],
      "name": "dividendsPerShare",
      "outputs": [
        {
          "internalType": "uint256",
          "name": "",
          "type": "uint256"
        }
      ],
      "stateMutability": "view",
      "type": "function"
    },
    {
      "inputs": [
        {
          "internalType": "uint256",
          "name": "id",
          "type": "uint256"
        },
        {
          "internalType": "address",
          "name": "user",
          "type": "address"
        }
      ],
      "name": "getClaimableDividends",
      "outputs": [
        {
          "internalType": "uint256",
          "name": "",
          "type": "uint256"
        }
      ],
      "stateMutability": "view",
      "type": "function"
    },
    {
      "inputs": [
        {
          "internalType": "address",
          "name": "account",
          "type": "address"
        },
        {
          "internalType": "address",
          "name": "operator",
          "type": "address"
        }
      ],
      "name": "isApprovedForAll",
      "outputs": [
        {
          "internalType": "bool",
          "name": "",
          "type": "bool"
        }
      ],
      "stateMutability": "view",
      "type": "function"
    },
    {
      "inputs": [
        {
          "internalType": "address",
          "name": "",
          "type": "address"
        },
        {
          "internalType": "address",
          "name": "",
          "type": "address"
        },
        {
          "internalType": "uint256[]",
          "name": "",
          "type": "uint256[]"
        },
        {
          "internalType": "uint256[]",
          "name": "",
          "type": "uint256[]"
        },
        {
          "internalType": "bytes",
          "name": "",
          "type": "bytes"
        }
      ],
      "name": "onERC1155BatchReceived",
      "outputs": [
        {
          "internalType": "bytes4",
          "name": "",
          "type": "bytes4"
        }
      ],
      "stateMutability": "nonpayable",
      "type": "function"
    },
    {
      "inputs": [
        {
          "internalType": "address",
          "name": "",
          "type": "address"
        },
        {
          "internalType": "address",
          "name": "",
          "type": "address"
        },
        {
          "internalType": "uint256",
          "name": "",
          "type": "uint256"
        },
        {
          "internalType": "uint256",
          "name": "",
          "type": "uint256"
        },
        {
          "internalType": "bytes",
          "name": "",
          "type": "bytes"
        }
      ],
      "name": "onERC1155Received",
      "outputs": [
        {
          "internalType": "bytes4",
          "name": "",
          "type": "bytes4"
        }
      ],
      "stateMutability": "nonpayable",
      "type": "function"
    },
    {
      "inputs": [],
      "name": "owner",
      "outputs": [
        {
          "internalType": "address",
          "name": "",
          "type": "address"
        }
      ],
      "stateMutability": "view",
      "type": "function"
    },
    {
      "inputs": [
        {
          "internalType": "uint256",
          "name": "",
          "type": "uint256"
        }
      ],
      "name": "properties",
      "outputs": [
        {
          "internalType": "string",
          "name": "name",
          "type": "string"
        },
        {
          "internalType": "string",
          "name": "location",
          "type": "string"
        },
        {
          "internalType": "uint256",
          "name": "totalShares",
          "type": "uint256"
        },
        {
          "internalType": "uint256",
          "name": "sharesSold",
          "type": "uint256"
        },
        {
          "internalType": "uint256",
          "name": "sharePrice",
          "type": "uint256"
        },
        {
          "internalType": "uint256",
          "name": "totalRevenue",
          "type": "uint256"
        },
        {
          "internalType": "bool",
          "name": "isActive",
          "type": "bool"
        },
        {
          "internalType": "uint256",
          "name": "creationTime",
          "type": "uint256"
        }
      ],
      "stateMutability": "view",
      "type": "function"
    },
    {
      "inputs": [],
      "name": "renounceOwnership",
      "outputs": [],
      "stateMutability": "nonpayable",
      "type": "function"
    },
    {
      "inputs": [
        {
          "internalType": "address",
          "name": "from",
          "type": "address"
        },
        {
          "internalType": "address",
          "name": "to",
          "type": "address"
        },
        {
          "internalType": "uint256[]",
          "name": "ids",
          "type": "uint256[]"
        },
        {
          "internalType": "uint256[]",
          "name": "values",
          "type": "uint256[]"
        },
        {
          "internalType": "bytes",
          "name": "data",
          "type": "bytes"
        }
      ],
      "name": "safeBatchTransferFrom",
      "outputs": [],
      "stateMutability": "nonpayable",
      "type": "function"
    },
    {
      "inputs": [
        {
          "internalType": "address",
          "name": "from",
          "type": "address"
        },
        {
          "internalType": "address",
          "name": "to",
          "type": "address"
        },
        {
          "internalType": "uint256",
          "name": "id",
          "type": "uint256"
        },
        {
          "internalType": "uint256",
          "name": "value",
          "type": "uint256"
        },
        {
          "internalType": "bytes",
          "name": "data",
          "type": "bytes"
        }
      ],
      "name": "safeTransferFrom",
      "outputs": [],
      "stateMutability": "nonpayable",
      "type": "function"
    },
    {
      "inputs": [
        {
          "internalType": "address",
          "name": "operator",
          "type": "address"
        },
        {
          "internalType": "bool",
          "name": "approved",
          "type": "bool"
        }
      ],
      "name": "setApprovalForAll",
      "outputs": [],
      "stateMutability": "nonpayable",
      "type": "function"
    },
    {
      "inputs": [
        {
          "internalType": "bytes4",
          "name": "interfaceId",
          "type": "bytes4"
        }
      ],
      "name": "supportsInterface",
      "outputs": [
        {
          "internalType": "bool",
          "name": "",
          "type": "bool"
        }
      ],
      "stateMutability": "view",
      "type": "function"
    },
    {
      "inputs": [
        {
          "internalType": "address",
          "name": "newOwner",
          "type": "address"
        }
      ],
      "name": "transferOwnership",
      "outputs": [],
      "stateMutability": "nonpayable",
      "type": "function"
    },
    {
      "inputs": [
        {
          "internalType": "uint256",
          "name": "",
          "type": "uint256"
        }
      ],
      "name": "uri",
      "outputs": [
        {
          "internalType": "string",
          "name": "",
          "type": "string"
        }
      ],
      "stateMutability": "view",
      "type": "function"
    },
    {
      "inputs": [],
      "name": "withdrawFunds",
      "outputs": [],
      "stateMutability": "nonpayable",
      "type": "function"
    },
    {
      "inputs": [
        {
          "internalType": "uint256",
          "name": "",
          "type": "uint256"
        },
        {
          "internalType": "address",
          "name": "",
          "type": "address"
        }
      ],
      "name": "withdrawnDividends",
      "outputs": [
        {
          "internalType": "uint256",
          "name": "",
          "type": "uint256"
        }
      ],
      "stateMutability": "view",
      "type": "function"
    }
  ],
  "bytecode": "0x608034620001ca57606081016001600160401b03811182821017620001b457604052603481526020907f68747470733a2f2f6170692e62657a6861732e636f6d2f6d657461646174612f828201527f7265616c6573746174652f7b69647d2e6a736f6e000000000000000000000000604082015260025490600191600181811c91168015620001a9575b848210146200019357601f81116200015e575b50909180600260005280600020936000905b828210620001465750505001516001600160601b0319169055606960025533156200012d5760038054336001600160a01b03198216811790925560405191906001600160a01b03167f8be0079c531659141344cd1fd0a4f28419497f9722a3daafe3b4186f6b6457e0600080a36001600455611fdd9081620001d08239f35b604051631e4fbdf760e01b815260006004820152602490fd5b848401518655948501949282019290820190620000ae565b6002600052826002601f86600020930160051c830192015b828110620001865750506200009c565b6000815501839062000176565b634e487b7160e01b600052602260045260246000fd5b90607f169062000089565b634e487b7160e01b600052604160045260246000fd5b600080fdfe6080604052600436101561001257600080fd5b60003560e01c8062fdd58e1461017657806301ffc9a714610171578063093ce8ea1461016c5780630e89341c1461016757806324600fc3146101625780632eb2c2d61461015d5780634e1273f4146101585780636f72159f14610153578063715018a61461014e5780638da5cb5b14610149578063a22cb46514610144578063b1559aef1461013f578063bc197c811461013a578063bc1ca3e914610135578063bd7047c414610130578063beebc5da1461012b578063c40619c614610126578063e985e9c514610121578063f23a6e611461011c578063f242432a14610117578063f2fde38b146101125763f7b108081461010d57600080fd5b61110f565b610fa2565b610f20565b610efc565b610e49565b610e1b565b610cb6565b610b7b565b610a81565b610a5d565b610a31565b610975565b61094c565b6108ee565b6107bf565b610704565b610600565b6103f8565b610311565b61028d565b61021f565b6101c0565b600435906001600160a01b038216820361019157565b600080fd5b602435906001600160a01b038216820361019157565b35906001600160a01b038216820361019157565b346101915760403660031901126101915760206102046101de61017b565b6024356000526000835260406000209060018060a01b0316600052602052604060002090565b54604051908152f35b6001600160e01b031981160361019157565b3461019157602036600319011261019157602060043561023e8161020d565b63ffffffff60e01b16636cdb3d1360e11b811490811561027c575b811561026b575b506040519015158152f35b6301ffc9a760e01b14905038610260565b6303a24d0760e21b81149150610259565b346101915760403660031901126101915760206102046102ab610196565b6004356000526006835260406000209060018060a01b0316600052602052604060002090565b919082519283825260005b8481106102fd575050826000602080949584010152601f8019910116010190565b6020818301810151848301820152016102dc565b346101915760208060031936011261019157604051906000826002549161033783611030565b92838352600190856001821691826000146103d857505060011461037b575b506103639250038361045b565b6103776040519282849384528301906102d1565b0390f35b84915060026000527f405787fa12a823e0f2b7631cc41b3ba8828b3321ca811111fa75cd3aa3bb5ace906000915b8583106103c0575050610363935082010138610356565b805483890185015287945086939092019181016103a9565b60ff19168582015261036395151560051b85010192503891506103569050565b346101915760008060031936011261044257610412611886565b8080808060018060a01b03600354164790828215610439575bf1156104345780f35b6111b7565b506108fc61042b565b80fd5b634e487b7160e01b600052604160045260246000fd5b90601f8019910116810190811067ffffffffffffffff82111761047d57604052565b610445565b60405190610100820182811067ffffffffffffffff82111761047d57604052565b67ffffffffffffffff811161047d5760051b60200190565b9080601f830112156101915760209082356104d5816104a3565b936104e3604051958661045b565b81855260208086019260051b82010192831161019157602001905b82821061050c575050505090565b813581529083019083016104fe565b67ffffffffffffffff811161047d57601f01601f191660200190565b81601f820112156101915780359061054e8261051b565b9261055c604051948561045b565b8284526020838301011161019157816000926020809301838601378301015290565b60a0600319820112610191576001600160a01b0391600435838116810361019157926024359081168103610191579167ffffffffffffffff9160443583811161019157826105ce916004016104bb565b9260643581811161019157836105e6916004016104bb565b92608435918211610191576105fd91600401610537565b90565b346101915761060e3661057e565b929091906001600160a01b0385811690338214158061069b575b6106745782161561065b57156106435761064194611a61565b005b604051626a0d4560e21b815260006004820152602490fd5b604051632bfa23e760e11b815260006004820152602490fd5b60405163711bec9160e11b81523360048201526001600160a01b0388166024820152604490fd5b50600082815260016020908152604080832033845290915290205460ff1615610628565b90815180825260208080930193019160005b8281106106df575050505090565b8351855293810193928101926001016106d1565b9060206105fd9281815201906106bf565b346101915760403660031901126101915760043567ffffffffffffffff8082116101915736602383011215610191578160040135610741816104a3565b9261074f604051948561045b565b8184526020916024602086019160051b8301019136831161019157602401905b8282106107a85785602435868111610191576103779161079661079c9236906004016104bb565b906111ed565b604051918291826106f3565b8380916107b4846101ac565b81520191019061076f565b346101915760a03660031901126101915760043560443560243567ffffffffffffffff606435818111610191576107fa903690600401610537565b90608435908111610191577f1efdde4594ed8e2284022aa3bedd98d13b88c18f2bb33d90131dff8e95589ba3936108ca61083b6108e9933690600401610537565b610843611886565b61087361086e61086a60066108628c6000526005602052604060002090565b015460ff1690565b1590565b6112ac565b61087b610482565b90858252602082015285604082015260006060820152826080820152600060a08201526108ab60c0820160019052565b4260e08201526108c5886000526005602052604060002090565b611424565b6108dd6108d5611562565b8588306118b2565b60405193849384611586565b0390a2005b346101915760008060031936011261044257610908611886565b600380546001600160a01b0319811690915581906001600160a01b03167f8be0079c531659141344cd1fd0a4f28419497f9722a3daafe3b4186f6b6457e08280a380f35b34610191576000366003190112610191576003546040516001600160a01b039091168152602090f35b346101915760403660031901126101915761098e61017b565b6024359081151590818303610191576001600160a01b038116928315610a19576109da6109eb9233600052600160205260406000209060018060a01b0316600052602052604060002090565b9060ff801983541691151516179055565b6040519081527f17307eab39ab6107e8899845ad3d59bd9653f200f220920489ca2b5937696c3160203392a3005b60405162ced3e160e81b815260006004820152602490fd5b346101915760203660031901126101915760043560005260076020526020604060002054604051908152f35b3461019157610a6b3661057e565b5050505050602060405163bc197c8160e01b8152f35b602036600319011261019157600435806000526005602052610aad60ff600660406000200154166115a8565b610ab83415156115ea565b610ada6003610ad1836000526005602052604060002090565b0154151561162b565b610b04610ae634611683565b6002610afc846000526005602052604060002090565b0154906116b8565b610b23610b1b836000526007602052604060002090565b9182546116d8565b90556005610b3b826000526005602052604060002090565b01610b473482546116d8565b90556040513481527fb20d89f6552ecc9b6927807870a2e0a3ead94efac32d88ca11d3ff17b744aa909080602081016108e9565b3461019157602036600319011261019157600435610b976119f3565b6000818152602081815260408083203384529091528120909190610c3390610bf290610be49054610bc98115156116e5565b610bdd856000526007602052604060002090565b54906116a5565b670de0b6b3a7640000900490565b610c2133610c0a856000526006602052604060002090565b9060018060a01b0316600052602052604060002090565b5490610c2e828211611723565b611762565b90610c4c33610c0a836000526006602052604060002090565b610c578382546116d8565b90558280838015610cac575b8280929181923390f1156104345760405191825233917f6f7ca1e26318ba002eaad671db8b3dac8c655cb4998fe4f30e25c1506baf240390602090a3610ca96001600455565b80f35b6108fc9150610c63565b604036600319011261019157602435600435610cd06119f3565b610ce4816000526005602052604060002090565b610cfa610cf5600683015460ff1690565b6115a8565b610d3b8360046003840193610d1f610d138487546116d8565b6002830154101561176f565b0154610d36610d2e83836116a5565b3410156117bb565b6116a5565b90813411610def575b7fce81571c08c76465bdf390ad1abe80af8c51c6c4566e3485f9395f13d5ad632891610de291610d7e610d75611562565b87873330611a16565b610d898682546116d8565b9055610dac610be4610da5866000526007602052604060002090565b54876116a5565b610dc7610b1b33610c0a886000526006602052604060002090565b90556040805195865260208601919091523394918291820190565b0390a36106416001600455565b6000808080610dfe8634611762565b818115610e12575b3390f1610d44576111b7565b506108fc610e06565b34610191576040366003190112610191576020610e41610e39610196565b6004356117fe565b604051908152f35b3461019157604036600319011261019157602060ff610e9a610e6961017b565b610e71610196565b6001600160a01b0391821660009081526001865260408082209290931681526020919091522090565b54166040519015158152f35b60a0600319820112610191576001600160a01b0391600435838116810361019157926024359081168103610191579160443591606435916084359067ffffffffffffffff8211610191576105fd91600401610537565b3461019157610f0a36610ea6565b5050505050602060405163f23a6e6160e01b8152f35b3461019157610f2e36610ea6565b929091906001600160a01b038516338114159081610f7c575b50610f555761064194611a16565b60405163711bec9160e11b81523360048201526001600160a01b0386166024820152604490fd5b6000908152600160209081526040808320338452909152902060ff915054161538610f47565b3461019157602036600319011261019157610fbb61017b565b610fc3611886565b6001600160a01b0390811690811561101757600354826bffffffffffffffffffffffff60a01b821617600355167f8be0079c531659141344cd1fd0a4f28419497f9722a3daafe3b4186f6b6457e0600080a3005b604051631e4fbdf760e01b815260006004820152602490fd5b90600182811c92168015611060575b602083101461104a57565b634e487b7160e01b600052602260045260246000fd5b91607f169161103f565b9060405191826000825461107d81611030565b908184526020946001916001811690816000146110ed57506001146110ae575b5050506110ac9250038361045b565b565b600090815285812095935091905b8183106110d55750506110ac935082010138808061109d565b855488840185015294850194879450918301916110bc565b925050506110ac94925060ff191682840152151560051b82010138808061109d565b34610191576020366003190112610191576004356000526005602052611184604060002061113c8161106a565b906111496001820161106a565b60028201549160038101546004820154600583015491611192600760ff60068701541695015495604051998a99610100808c528b01906102d1565b9089820360208b01526102d1565b9560408801526060870152608086015260a0850152151560c084015260e08301520390f35b6040513d6000823e3d90fd5b80518210156111d75760209160051b010190565b634e487b7160e01b600052603260045260246000fd5b9190918051835180820361128a57505080519061122261120c836104a3565b9261121a604051948561045b565b8084526104a3565b60209190601f1901368484013760005b815181101561128257600581901b8281018401519087018401516000908152602081815260408083206001600160a01b03909416835292905220546001919061127b82876111c3565b5201611232565b509193505050565b604051635b05999160e01b815260048101919091526024810191909152604490fd5b156112b357565b60405162461bcd60e51b815260206004820152601a60248201527f50726f706572747920494420616c7265616479206578697374730000000000006044820152606490fd5b90601f811161130657505050565b6000916000526020600020906020601f850160051c83019410611344575b601f0160051c01915b82811061133957505050565b81815560010161132d565b9092508290611324565b919091825167ffffffffffffffff811161047d57611376816113708454611030565b846112f8565b602080601f83116001146113b9575081906113aa9394956000926113ae575b50508160011b916000199060031b1c19161790565b9055565b015190503880611395565b90601f198316956113cf85600052602060002090565b926000905b88821061140c575050836001959697106113f3575b505050811b019055565b015160001960f88460031b161c191690553880806113e9565b806001859682949686015181550195019301906113d4565b90805180519067ffffffffffffffff821161047d5761144d826114478654611030565b866112f8565b602090816001601f8511146114ed57508260e09360079593611485936000926113ae5750508160011b916000199060031b1c19161790565b84555b61149960208201516001860161134e565b60408101516002850155606081015160038501556080810151600485015560a081015160058501556114e66114d160c0830151151590565b600686019060ff801983541691151516179055565b0151910155565b9190601f19841661150387600052602060002090565b936000905b82821061154a57505092600192859260e0966007989610611531575b505050811b018455611488565b015160001960f88460031b161c19169055388080611524565b80600186978294978701518155019601940190611508565b604051906020820182811067ffffffffffffffff82111761047d5760405260008252565b61159e604092959493956060835260608301906102d1565b9460208201520152565b156115af57565b60405162461bcd60e51b815260206004820152601360248201527250726f7065727479206e6f742061637469766560681b6044820152606490fd5b156115f157565b60405162461bcd60e51b81526020600482015260126024820152714d757374206465706f7369742076616c756560701b6044820152606490fd5b1561163257565b60405162461bcd60e51b8152602060048201526013602482015272139bc81cda185c995a1bdb19195c9cc81e595d606a1b6044820152606490fd5b634e487b7160e01b600052601160045260246000fd5b90670de0b6b3a7640000918281029281840414901517156116a057565b61166d565b818102929181159184041417156116a057565b81156116c2570490565b634e487b7160e01b600052601260045260246000fd5b919082018092116116a057565b156116ec57565b60405162461bcd60e51b815260206004820152600f60248201526e139bc81cda185c995cc81bdddb9959608a1b6044820152606490fd5b1561172a57565b60405162461bcd60e51b815260206004820152601060248201526f4e6f206e6577206469766964656e647360801b6044820152606490fd5b919082039182116116a057565b1561177657565b60405162461bcd60e51b815260206004820152601b60248201527f4e6f7420656e6f7567682073686172657320617661696c61626c6500000000006044820152606490fd5b156117c257565b60405162461bcd60e51b8152602060048201526014602482015273125b9cdd59999a58da595b9d081c185e5b595b9d60621b6044820152606490fd5b6000818152602081815260408083206001600160a01b038616845290915281209192909154801561187f5790610c0a670de0b6b3a76400006118506118629487875260076020526040872054906116a5565b04946000526006602052604060002090565b549081831115611879575081039081116116a05790565b91505090565b5050905090565b6003546001600160a01b0316330361189a57565b60405163118cdaa760e01b8152336004820152602490fd5b6001600160a01b0381169392909190841561065b576118ee60405192600184526020840152604083019160018352606084015260808301604052565b92815184519081810361128a57505060005b8251811015611940578060019160051b611938610b1b87610c0a602080868b010151958c010151946000526000602052604060002090565b905501611900565b5092919360018251146000146119b75760208281015184820151604080519283529282015260009133917fc3d58168c5ae7397731d063d5bbf3d657854427343f4c083240f7aacaa2d0f629190a45b80516001036119ad57906020806110ac959301519101519133611f3b565b6110ac9333611d41565b60006040517f4a39dc06d4c0dbc64b70af90fd698a233a518aa5d07e595d983b8c0526c8f7fb3391806119eb888883611c5a565b0390a461198f565b600260045414611a04576002600455565b604051633ee5aeb560e01b8152600490fd5b92939290916001600160a01b038084161561065b57821615610643576110ac94611a5d60405192600184526020840152604083019160018352606084015260808301604052565b9290915b94919091815184519081810361128a57505060005b8251811015611b6457600581901b83810160209081015191870101516001600160a01b03929186908a8516611ade575b6001948216611ab9575b50505001611a76565b611ad491610c0a610b1b926000526000602052604060002090565b9055388581611ab0565b9192939050611afb8a610c0a846000526000602052604060002090565b54838110611b2d5791879184600196959403611b258d610c0a856000526000602052604060002090565b559450611aa6565b6040516303dee4c560e01b81526001600160a01b038c16600482015260248101919091526044810184905260648101839052608490fd5b509491939290936001855114600014611c0f576020858101518382015160408051928352928201526001600160a01b03838116929086169133917fc3d58168c5ae7397731d063d5bbf3d657854427343f4c083240f7aacaa2d0f6291a45b6001600160a01b038116611bd8575b5050505050565b8451600103611bfe57602080611bf49601519201519233611f70565b3880808080611bd1565b611c0a94919233611e3c565b611bf4565b6040516001600160a01b03828116919085169033907f4a39dc06d4c0dbc64b70af90fd698a233a518aa5d07e595d983b8c0526c8f7fb9080611c52888c83611c5a565b0390a4611bc2565b9091611c716105fd936040845260408401906106bf565b9160208184039101526106bf565b9081602091031261019157516105fd8161020d565b92611cc36105fd9593611cd19360018060a01b031686526000602087015260a0604087015260a08601906106bf565b9084820360608601526106bf565b9160808184039101526102d1565b93906105fd9593611cc391611cd19460018060a01b03809216885216602087015260a0604087015260a08601906106bf565b3d15611d3c573d90611d228261051b565b91611d30604051938461045b565b82523d6000602084013e565b606090565b9293919093843b611d53575050505050565b602091611d76604051948593849363bc197c8160e01b9889865260048601611c94565b038160006001600160a01b0388165af160009181611e0b575b50611dce5782611d9d611d11565b8051919082611dc757604051632bfa23e760e11b81526001600160a01b0383166004820152602490fd5b6020915001fd5b6001600160e01b03191603611de857503880808080611bd1565b604051632bfa23e760e11b81526001600160a01b03919091166004820152602490fd5b611e2e91925060203d602011611e35575b611e26818361045b565b810190611c7f565b9038611d8f565b503d611e1c565b939290949194853b611e51575b505050505050565b611e74602093604051958694859463bc197c8160e01b998a875260048701611cdf565b038160006001600160a01b0388165af160009181611eb6575b50611e9b5782611d9d611d11565b6001600160e01b03191603611de85750388080808080611e49565b611ed091925060203d602011611e3557611e26818361045b565b9038611e8d565b909260a0926105fd9594600180861b03168352600060208401526040830152606082015281608082015201906102d1565b91926105fd95949160a094600180871b0380921685521660208401526040830152606082015281608082015201906102d1565b9293919093843b611f4d575050505050565b602091611d76604051948593849363f23a6e6160e01b9889865260048601611ed7565b939290949194853b611f8457505050505050565b611e74602093604051958694859463f23a6e6160e01b998a875260048701611f0856fea2646970667358221220d28e0cb6f8c6aa9fb403fda8fb9ad82dda4535d923b1881c8bc28d56a6b9dc9d64736f6c63430008180033",
  "linkReferences": {},
  "deployedLinkReferences": {}
}