{
  "_format": "hh-sol-artifact-1",
  "contractName": "LogisticsContainer",
  "sourceName": "contracts/LogisticsContainer.sol",
  "abi": [
    {
      "anonymous": false,
      "inputs": [
        {
          "indexed": false,
          "internalType": "string",
          "name": "containerId",
          "type": "string"
        },
        {
          "indexed": true,
          "internalType": "address",
          "name": "owner",
          "type": "address"
        }
      ],
      "name": "ContainerCreated",
      "type": "event"
    },
    {
      "anonymous": false,
      "inputs": [
        {
          "indexed": false,
          "internalType": "string",
          "name": "containerId",
          "type": "string"
        },
        {
          "indexed": true,
          "internalType": "address",
          "name": "owner",
          "type": "address"
        },
        {
          "indexed": false,
          "internalType": "string",
          "name": "metadataURI",
          "type": "string"
        }
      ],
      "name": "ContainerMinted",
      "type": "event"
    },
    {
      "anonymous": false,
      "inputs": [
        {
          "indexed": false,
          "internalType": "string",
          "name": "containerId",
          "type": "string"
        },
        {
          "indexed": false,
          "internalType": "string",
          "name": "location",
          "type": "string"
        },
        {
          "indexed": false,
          "internalType": "string",
          "name": "status",
          "type": "string"
        },
        {
          "indexed": false,
          "internalType": "uint256",
          "name": "lastUpdate",
          "type": "uint256"
        }
      ],
      "name": "ContainerUpdated",
      "type": "event"
    },
    {
      "inputs": [
        {
          "internalType": "string",
          "name": "",
          "type": "string"
        }
      ],
      "name": "containers",
      "outputs": [
        {
          "internalType": "string",
          "name": "containerId",
          "type": "string"
        },
        {
          "internalType": "string",
          "name": "location",
          "type": "string"
        },
        {
          "internalType": "string",
          "name": "status",
          "type": "string"
        },
        {
          "internalType": "address",
          "name": "owner",
          "type": "address"
        },
        {
          "internalType": "uint256",
          "name": "lastUpdate",
          "type": "uint256"
        },
        {
          "internalType": "string",
          "name": "contents",
          "type": "string"
        },
        {
          "internalType": "string",
          "name": "origin",
          "type": "string"
        },
        {
          "internalType": "string",
          "name": "metadataURI",
          "type": "string"
        }
      ],
      "stateMutability": "view",
      "type": "function"
    },
    {
      "inputs": [
        {
          "internalType": "string",
          "name": "containerId",
          "type": "string"
        },
        {
          "internalType": "string",
          "name": "location",
          "type": "string"
        },
        {
          "internalType": "string",
          "name": "status",
          "type": "string"
        }
      ],
      "name": "createContainer",
      "outputs": [],
      "stateMutability": "nonpayable",
      "type": "function"
    },
    {
      "inputs": [
        {
          "internalType": "string",
          "name": "containerId",
          "type": "string"
        }
      ],
      "name": "getContainer",
      "outputs": [
        {
          "components": [
            {
              "internalType": "string",
              "name": "containerId",
              "type": "string"
            },
            {
              "internalType": "string",
              "name": "location",
              "type": "string"
            },
            {
              "internalType": "string",
              "name": "status",
              "type": "string"
            },
            {
              "internalType": "address",
              "name": "owner",
              "type": "address"
            },
            {
              "internalType": "uint256",
              "name": "lastUpdate",
              "type": "uint256"
            },
            {
              "internalType": "string",
              "name": "contents",
              "type": "string"
            },
            {
              "internalType": "string",
              "name": "origin",
              "type": "string"
            },
            {
              "internalType": "string",
              "name": "metadataURI",
              "type": "string"
            }
          ],
          "internalType": "struct LogisticsContainer.Container",
          "name": "",
          "type": "tuple"
        }
      ],
      "stateMutability": "view",
      "type": "function"
    },
    {
      "inputs": [
        {
          "internalType": "address",
          "name": "owner",
          "type": "address"
        },
        {
          "internalType": "string",
          "name": "containerId",
          "type": "string"
        },
        {
          "internalType": "string",
          "name": "contents",
          "type": "string"
        },
        {
          "internalType": "string",
          "name": "origin",
          "type": "string"
        },
        {
          "internalType": "string",
          "name": "metadataURI",
          "type": "string"
        }
      ],
      "name": "mintContainer",
      "outputs": [],
      "stateMutability": "nonpayable",
      "type": "function"
    },
    {
      "inputs": [
        {
          "internalType": "string",
          "name": "containerId",
          "type": "string"
        },
        {
          "internalType": "string",
          "name": "location",
          "type": "string"
        },
        {
          "internalType": "string",
          "name": "status",
          "type": "string"
        }
      ],
      "name": "updateContainer",
      "outputs": [],
      "stateMutability": "nonpayable",
      "type": "function"
    }
  ],
  "bytecode": "0x6080806040523461001657611b34908161001c8239f35b600080fdfe6080604052600436101561001257600080fd5b60003560e01c80631797da6114610f3757806326d695dd14610b76578063763852e914610a51578063b6ae49b91461084d5763bdb240331461005357600080fd5b3461084857602061010c610066366118e1565b92919390604051906100a686519260038589019461008581848861193f565b6000908301908152829003860190912001546001600160a01b031615611a66565b604051946100b386611833565b868652818487015260408601523360608601524260808601526040516100d88161184f565b6000815260a086015260c08501526040516100f28161184f565b6000815260e085015260405180938192875192839161193f565b810160008152030190209181519283516001600160401b03811161046c576101348254611962565b601f8111610804575b506020601f821160011461079b578192939495600092610790575b50508160011b916000199060031b1c19161781555b60208301519283516001600160401b03811161046c576101906001840154611962565b601f8111610749575b506020601f82116001146106da5781929394956000926106cf575b50508160011b916000199060031b1c19161760018301555b60408101519283516001600160401b03811161046c576101ef6002850154611962565b601f8111610688575b506020601f821160011461061957819293949560009261060e575b50508160011b916000199060031b1c19161760028401555b6003830160018060a01b036060840151166bffffffffffffffffffffffff60a01b8254161790556080820151600484015560a08201519283516001600160401b03811161046c5761027f6005830154611962565b601f81116105c7575b506020601f821160011461055857819293949560009261054d575b50508160011b916000199060031b1c19161760058201555b60c08301518051906001600160401b03821161046c576102de6006840154611962565b601f8111610502575b50602090601f831160011461048d57918060e09492600794600092610482575b50508160011b916000199060031b1c19161760068201555b019201519182516001600160401b03811161046c5761033e8254611962565b601f8111610424575b506020601f82116001146103be57819293946000926103b3575b50508160011b916000199060031b1c19161790555b7fecd32e90cace040ce00de77da76313b5bb8c031f1345c7a45a09645bcaab441860405160208152806103ae33946020830190611a41565b0390a2005b015190503880610361565b601f198216908360005260206000209160005b81811061040c575095836001959697106103f3575b505050811b019055610376565b015160001960f88460031b161c191690553880806103e6565b9192602060018192868b0151815501940192016103d1565b826000526020600020601f830160051c81019160208410610462575b601f0160051c01905b8181106104565750610347565b60008155600101610449565b9091508190610440565b634e487b7160e01b600052604160045260246000fd5b015190503880610307565b906006840160005260206000209160005b601f19851681106104ea57509260e0949260019260079583601f198116106104d1575b505050811b01600682015561031f565b015160001960f88460031b161c191690553880806104c1565b9192602060018192868501518155019401920161049e565b600684016000526020600020601f840160051c81019160208510610543575b601f0160051c01905b81811061053757506102e7565b6000815560010161052a565b9091508190610521565b0151905038806102a3565b6005830160005260206000209060005b601f19841681106105af575060019394959683601f19811610610596575b505050811b0160058201556102bb565b015160001960f88460031b161c19169055388080610586565b9091602060018192858b015181550193019101610568565b600583016000526020600020601f830160051c810160208410610607575b601f830160051c820181106105fb575050610288565b600081556001016105e5565b50806105e5565b015190503880610213565b6002850160005260206000209060005b601f1984168110610670575060019394959683601f19811610610657575b505050811b01600284015561022b565b015160001960f88460031b161c19169055388080610647565b9091602060018192858b015181550193019101610629565b600285016000526020600020601f830160051c8101602084106106c8575b601f830160051c820181106106bc5750506101f8565b600081556001016106a6565b50806106a6565b0151905038806101b4565b6001840160005260206000209060005b601f1984168110610731575060019394959683601f19811610610718575b505050811b0160018301556101cc565b015160001960f88460031b161c19169055388080610708565b9091602060018192858b0151815501930191016106ea565b600184016000526020600020601f830160051c810160208410610789575b601f830160051c8201811061077d575050610199565b60008155600101610767565b5080610767565b015190503880610158565b8260005260206000209060005b601f19841681106107ec575060019394959683601f198116106107d3575b505050811b01815561016d565b015160001960f88460031b161c191690553880806107c6565b9091602060018192858b0151815501930191016107a8565b826000526020600020601f830160051c810160208410610841575b601f830160051c8201811061083557505061013d565b6000815560010161081f565b508061081f565b600080fd5b3461084857602080600319360112610848576004356001600160401b0381116108485761087e90369060040161188b565b9060405161088b81611833565b6060818180935281848201528160408201528181016000905260808101600090528160a08201528160c082015260e001526040519282815191818101926108d381888661193f565b60009087019081528690038201909520600301546001600160a01b0395906108fe9087161515611ab2565b604051809381925180926109119261193f565b81016000815203019020906040519261092984611833565b6109328361199c565b84526109406001840161199c565b848201908152926109536002820161199c565b95604086019687528060038301541690848701918252600483015460808801908152600584016109829061199c565b60a08901908152916109966006860161199c565b9460c08a019586526007016109aa9061199c565b9660e08a019788526040519a8b9a888c525161010080998d01526101208c016109d291611a41565b9951601f198c8c03810160408e01529a6109eb91611a41565b9051918a8c830301908c0152610a0091611a41565b93511660808901525160a08801525190858782030160c0880152610a2391611a41565b905190848682030160e0870152610a3991611a41565b9151928483030190840152610a4d91611a41565b0390f35b34610848576020366003190112610848576004356001600160401b03811161084857610a9c6020610a89610b2693369060040161188b565b816040519382858094519384920161193f565b81016000815203019020610a4d610ab28261199c565b91610b68610ac26001830161199c565b91610b5a610ad26002830161199c565b60018060a01b03600384015416906004840154610b42610af46005870161199c565b92610b34610b106007610b0960068b0161199c565b990161199c565b996040519d8e9d8e610100908181520190611a41565b8d810360208f015290611a41565b908b820360408d0152611a41565b9260608a0152608089015287820360a0890152611a41565b9085820360c0870152611a41565b9083820360e0850152611a41565b3461084857610b84366118e1565b91906040518251610b9981836020870161193f565b60009082019081528190036020019020600301546001600160a01b039081163303610efc57610bed9060036040516020818751610bd98183858c0161193f565b810160008152030190200154161515611ab2565b60016040516020818551610c048183858a0161193f565b810160008152030190200181516001600160401b03811161046c57610c298254611962565b601f8111610eb4575b50806020601f8211600114610e5057600091610e45575b508160011b916000199060031b1c19161790555b60026040516020818551610c748183858a0161193f565b810160008152030190200183516001600160401b03811161046c57610c998254611962565b601f8111610dfd575b506020601f8211600114610d6a57610d389493610d5493837fd0b8e3ed4c908091a6a96fba7d299a7e6aef2317b8b37ee725f15b5e9a4f5b529894610d4694600091610d5f575b508160011b916000199060031b1c19161790555b60405160048651610d12818460208b0161193f565b820191600083526020814294030190200155604051958695608087526080870190611a41565b908582036020870152611a41565b908382036040850152611a41565b4260608301520390a1005b90508501518a610ce9565b601f198216908360005260206000209160005b818110610de5575093600184610d4694610d389998947fd0b8e3ed4c908091a6a96fba7d299a7e6aef2317b8b37ee725f15b5e9a4f5b529b97610d549910610dcc575b5050811b019055610cfd565b87015160001960f88460031b161c191690558a80610dc0565b9192602060018192868c015181550194019201610d7d565b826000526020600020601f830160051c81019160208410610e3b575b601f0160051c01905b818110610e2f5750610ca2565b60008155600101610e22565b9091508190610e19565b905083015186610c49565b6000848152602081209250601f198416905b818110610e9c57509083600194939210610e83575b5050811b019055610c5d565b85015160001960f88460031b161c191690558680610e77565b9192602060018192868a015181550194019201610e62565b826000526020600020601f830160051c81019160208410610ef2575b601f0160051c01905b818110610ee65750610c32565b60008155600101610ed9565b9091508190610ed0565b60405162461bcd60e51b81526020600482015260136024820152722737ba1031b7b73a30b4b732b91037bbb732b960691b6044820152606490fd5b346108485760a0366003190112610848576004356001600160a01b0381168103610848576024356001600160401b03811161084857610f7a90369060040161188b565b6044356001600160401b03811161084857610f9990369060040161188b565b916064356001600160401b03811161084857610fb990369060040161188b565b926084356001600160401b03811161084857610fd990369060040161188b565b9361101460405160038651610ff2818460208b0161193f565b600090830190815282900360200190912001546001600160a01b031615611a66565b6040519161102183611833565b8483528160208401526040518060408101106001600160401b0360408301111761046c5760408101604052600781526610dc99585d195960ca1b6020820152604084015260018060a01b038416606084015242608084015260a083015260c08201528360e0820152604051602081855161109e8183858a0161193f565b8101600081520301902081518051906001600160401b03821161046c5781906110c78454611962565b601f81116117e3575b50602090601f83116001146117775760009261176c575b50508160011b916000199060031b1c19161781555b60208201518051906001600160401b03821161046c5781906111216001850154611962565b601f8111611719575b50602090601f83116001146116a75760009261169c575b50508160011b916000199060031b1c19161760018201555b60408201518051906001600160401b03821161046c57819061117e6002850154611962565b601f8111611649575b50602090601f83116001146115d7576000926115cc575b50508160011b916000199060031b1c19161760028201555b6003810160018060a01b036060840151166bffffffffffffffffffffffff60a01b8254161790556080820151600482015560a08201518051906001600160401b03821161046c57819061120c6005850154611962565b601f8111611579575b50602090601f831160011461150c57600092611501575b50508160011b916000199060031b1c19161760058201555b60c08201518051906001600160401b03821161046c576112676006840154611962565b601f81116114ba575b50602090601f831160011461144757918060e0949260079460009261143c575b50508160011b916000199060031b1c19161760068201555b019101518051906001600160401b03821161046c576112c78354611962565b601f81116113f4575b50602090601f83116001146113625792826103ae9361133e96937ff216fb5ab8dbe32410d175c07a22ab4c8b083fa26e7149ad61431c92fe3c2cb79896600092611357575b50508160011b916000199060031b1c19161790555b604051938493604085526040850190611a41565b83810360208501526001600160a01b0390911695611a41565b015190508980611315565b90601f198316918460005260206000209260005b8181106113dc57509361133e96937ff216fb5ab8dbe32410d175c07a22ab4c8b083fa26e7149ad61431c92fe3c2cb7989693600193836103ae98106113c3575b505050811b01905561132a565b015160001960f88460031b161c191690558980806113b6565b92936020600181928786015181550195019301611376565b836000526020600020601f840160051c81019160208510611432575b601f0160051c01905b81811061142657506112d0565b60008155600101611419565b9091508190611410565b015190508980611290565b90601f198316916006850160005260206000209260005b8181106114a2575092600192859260079660e0989610611489575b505050811b0160068201556112a8565b015160001960f88460031b161c19169055898080611479565b9293602060018192878601518155019501930161145e565b600684016000526020600020601f840160051c8101602085106114fa575b601f830160051c820181106114ee575050611270565b600081556001016114d8565b50806114d8565b01519050878061122c565b600585016000908152602081209350601f198516905b8181106115615750908460019594939210611548575b505050811b016005820155611244565b015160001960f88460031b161c19169055878080611538565b92936020600181928786015181550195019301611522565b909150600584016000526020600020601f840160051c8101602085106115c5575b90849392915b601f830160051c820181106115b6575050611215565b600081558594506001016115a0565b508061159a565b01519050878061119e565b9250600284016000526020600020906000935b601f198416851061162e576001945083601f19811610611615575b505050811b0160028201556111b6565b015160001960f88460031b161c19169055878080611605565b818101518355602094850194600190930192909101906115ea565b909150600284016000526020600020601f840160051c810160208510611695575b90849392915b601f830160051c82018110611686575050611187565b60008155859450600101611670565b508061166a565b015190508780611141565b9250600184016000526020600020906000935b601f19841685106116fe576001945083601f198116106116e5575b505050811b016001820155611159565b015160001960f88460031b161c191690558780806116d5565b818101518355602094850194600190930192909101906116ba565b909150600184016000526020600020601f840160051c810160208510611765575b90849392915b601f830160051c8201811061175657505061112a565b60008155859450600101611740565b508061173a565b0151905087806110e7565b9250836000526020600020906000935b601f19841685106117c8576001945083601f198116106117af575b505050811b0181556110fc565b015160001960f88460031b161c191690558780806117a2565b81810151835560209485019460019093019290910190611787565b909150836000526020600020601f840160051c81016020851061182c575b90849392915b601f830160051c8201811061181d5750506110d0565b60008155859450600101611807565b5080611801565b61010081019081106001600160401b0382111761046c57604052565b602081019081106001600160401b0382111761046c57604052565b90601f801991011681019081106001600160401b0382111761046c57604052565b81601f82011215610848578035906001600160401b03821161046c57604051926118bf601f8401601f19166020018561186a565b8284526020838301011161084857816000926020809301838601378301015290565b6060600319820112610848576001600160401b0391600435838111610848578261190d9160040161188b565b9260243581811161084857836119259160040161188b565b926044359182116108485761193c9160040161188b565b90565b60005b8381106119525750506000910152565b8181015183820152602001611942565b90600182811c92168015611992575b602083101461197c57565b634e487b7160e01b600052602260045260246000fd5b91607f1691611971565b906040519182600082546119af81611962565b90818452602094600191600181169081600014611a1f57506001146119e0575b5050506119de9250038361186a565b565b600090815285812095935091905b818310611a075750506119de93508201013880806119cf565b855488840185015294850194879450918301916119ee565b925050506119de94925060ff191682840152151560051b8201013880806119cf565b90602091611a5a8151809281855285808601910161193f565b601f01601f1916010190565b15611a6d57565b60405162461bcd60e51b815260206004820152601860248201527f436f6e7461696e657220616c72656164792065786973747300000000000000006044820152606490fd5b15611ab957565b60405162461bcd60e51b815260206004820152601860248201527f436f6e7461696e657220646f6573206e6f7420657869737400000000000000006044820152606490fdfea2646970667358221220a3f39ecf5788fe857ba808c7faac41afa1936f3a400b24e7f23428186067bbff64736f6c63430008180033",
  "linkReferences": {},
  "deployedLinkReferences": {}
}